:020000022000DC
:1070000000000420757302005D7302005F730200CC
:1070100061730200637302006573020000000000E8
:107020000000000000000000000000006773020084
:1070300069730200000000006B7302006D730200B0
:10704000419802006F730200159D02006F730200E9
:107050006F7302006F730200659B02006F73020082
:107060006F7302006F7302006F7302006F73020090
:107070006F7302006F7302006F7302006F73020080
:107080006F730200918902006F7302006F73020038
:107090006F7302006F730200C5D602006F730200A7
:1070A0006F7302006F7302006F7302006F73020050
:1070B0006F7302006F730200000000000000000008
:1070C0006F7302006F7302006F7302006F73020030
:1070D0006F7302006F7302006F7302006F73020020
:1070E0006F7302006F7302006F73020000000000F4
:1070F000000000006F73020000000000BDA9020044
:10710000000000000000000000000000000000007F
:10711000000000000000000000000000000000006F
:10712000000000000000000000000000000000005F
:10713000000000000000000000000000000000004F
:10714000000000000000000000000000000000003F
:10715000000000000000000000000000000000002F
:10716000000000000000000000000000000000001F
:10717000000000000000000000000000000000000F
:1071800000000000000000000000000000000000FF
:1071900000000000000000000000000000000000EF
:1071A00000000000000000000000000000000000DF
:1071B00000000000000000000000000000000000CF
:1071C00000000000000000000000000000000000BF
:1071D00000000000000000000000000000000000AF
:1071E000000000000000000000000000000000009F
:1071F000000000000000000000000000000000008F
:10720000354936480A1A02D0072291438D4634493F
:1072100034480A1A06D00722914381F309880222D2
:1072200082F3148830483149314A00F044F831483B
:107230003149324A00F03FF831483249324A00F0D1
:107240003AF832483249334A00F035F83248334987
:10725000334A00F030F833483349344A00F02BF811
:1072600033483449344A00F026F83448344900227F
:1072700000F02CF833483449002200F027F8334856
:107280003349091A082902DB002202604160314AB1
:1072900090471F481F49884205D00268043003B454
:1072A000904703BCF7E700208646EC46002000210B
:1072B000294A9047FEE7884207D0521A05D0037842
:1072C00001300B700131013AF9D17047884202D088
:1072D00002700130FAE770470000042000E003204C
:1072E000000004200000042048FC0200182C0020AC
:1072F0000C2E0020D0730200D0730200B4E602000E
:1073000048FC0200182C0020182C0020C0E70200C6
:10731000C0E70200C0E70200C0E70200C0E70200C9
:10732000C0E70200C0E70200C0E7020047FC02001D
:107330003CFE02000C2E00200C2E00200C2E002003
:1073400094470020944700209C4700209C47002041
:107350009C6700209D7302009DBA0200FEE7FEE7D5
:10736000FEE7FEE7FEE7FEE7FEE7FEE7FEE7FEE7F5
:1073700000F002B8FFF7FCBF0F484FF00701884349
:1073800085460E4880470E48016841F4700101604F
:10739000BFF34F8FBFF36F8FFFF732BF09480A4922
:1073A0000A4A884207D0521A05D0037801300B7080
:1073B0000131013AF9D1704700000420BD9202006A
:1073C00088ED00E0C0E70200182C0020182C0020F7
:1073D000004870478C4700207047000007B5044BF9
:1073E0000093044A402300F032F803B05DF804FB38
:1073F000F97302000D2E00202DE9F843884614464B
:10740000B2B10F4B0F4E0325002743F0010922466E
:1074100008EB0701002004F013FE0744241A48B9C2
:1074200033782BB14FF47A40C847013D02D1357013
:10743000BDE8F88301233370002CE8D1F8E700BFE2
:10744000C0E702000C2E0020704704F02DBEF0B5FE
:1074500095B01D46164608460C4601F04BFE1A9B99
:107460000D93CDE9086500252B46082205A9204685
:107470000A958DF82C500C9501F059FE079B02934C
:10748000069B03939DF814308DF8115003F003020E
:10749000012A1DD1BDF81420059DC3F3C203C2F318
:1074A00083168DF81030B20008230EA9204601F093
:1074B0003EFEC5F3952508AB0093324602AB0EA9FC
:1074C000284600F065FB204601F018FE15B0F0BD1F
:1074D000022AF8D1BDF81650C3F3C203C5F38915CB
:1074E0008DF810300827082D2E4628BF08263B4669
:1074F00032460EA9204601F01AFEAD1B08AB02AAC7
:1075000031460EA8374400F0A7FB002DEBD1DAE797
:1075100008B5FFF79AFF0448042100F0A1FA034BD5
:1075200001225A7108BD00BFB0E70200182C0020EC
:10753000037813F0040216D003F00303012B03D0E9
:10754000022B09D0012070470A6800880232C0F37C
:10755000831002440A60F5E70B684288023303EBAC
:1075600092130B60EEE71046704700002DE9F04FD4
:1075700087B000230446861C0DF107000F46154610
:107580008DF8073001F094F8454801683960D0E97A
:107590000132134401335B1A824600F21C4700F5A6
:1075A000836900F21448B3421CD30020002D73D02D
:1075B00004F00F039B0143F0050363F30F00DAF8B7
:1075C0000020DAF808301340033316444AF8230049
:1075D0009DF80700CAF8006001F08EF8012007B09E
:1075E000BDE8F08F0121384601F0AFFA484601F0BE
:1075F000C4FA404601F0C1FADAF80400DAF808B03B
:10760000029000EA0B0003300AEB800002A9FFF7AA
:107610008FFF029B50BB0BEA03020AEB820203F1CD
:10762000020CD2680392013303EA0B0B0AEB8B0BBB
:1076300002F00302012ADBF80C10CDF808C023D0B9
:10764000022A16D08346404601F09AFA10B1029BF6
:10765000CAF804305946384601F077FADAE90123CE
:107660001344DAF8002001339B1A9CE70BEA03006D
:10767000C9E7BDF80E30C3F3891303334FEA114B4A
:107680000CEB93030293DEE7BDF80C30C3F38313D6
:107690004FEA114B6344F5E7A40544F006008EE77A
:1076A000202F00200B4B0C48FF2210B59A600022BF
:1076B000C3F81824C3E90022C3F81424012283F874
:1076C000202401F0D0FC044610B9044801F078FDF4
:1076D000204610BD202F002014E70200FCE7020026
:1076E00030B50A4C71B10A4A0A49121BD20800236C
:1076F0009A4201D1002030BD31F82350854202D09A
:107700000133F5E7034654F83300F4E728E70200B5
:10771000B0E70200182C0020094B013903EBC00030
:10772000032909D8DFE801F00A02040604207047A3
:1077300000797047407970470020704702207047F9
:1077400028E70200034BD3E90030C31A58425841DE
:10775000704700BF202F00202DE9F04387B0FFF7CE
:10776000F1FF0646002840F0F9807D4DC5F8180469
:10777000BFF34F8F6B68AC6802932340033305EB74
:10778000830002A9FFF7D4FE029B18B1D5F8182494
:10779000002A5FD004EA0302991C013305EB820240
:1077A000234005EB8303D268DB68049302F00303F4
:1077B000022B0392029160D1BDF80E306948C3F3E9
:1077C0008917502FB84628BF4FF0500868F38F1321
:1077D00008F10801ADF80E3001F05DFC0646002806
:1077E00000F0A78001F086FC0023082203A93046A0
:1077F00001F093FC029924EA01020132B8EB820FF6
:107800004FEA820332D95FFA88F85BB32140DCB2D9
:10781000A8EB040803315FFA88F9A046524C05EB47
:10782000810108234246304601F077FC34B108F16B
:1078300008034A462146304601F06FFC029B03379D
:1078400003EB97070297D5F81834002B49D1D5F8E8
:10785000104459E02A689A428FD86A60304607B0CF
:10786000BDE8F08340491C469946DAE70C40E11C2C
:107870000823424605EB8101DDE7012B59D1BDF814
:107880000C303848C3F38311062928BF062161F361
:10789000891302318900ADF80C3001F0FCFB06467B
:1078A000002846D001F026FC0023082203A9304618
:1078B00001F033FC0027BDF80C20C2F38312BB009B
:1078C000974203F10803BED202994A1C21400331BA
:1078D000029205EB81010422304601F01EFC0137C3
:1078E000E9E7304601F00AFCFFF72CFF80F00100C9
:1078F000C6B2B3E7E3685B7923B1236831461B68FE
:1079000020469847E3681C68002CF3D1304601F00C
:10791000F5FB0DF107008DF8074000F0C9FED5F822
:1079200018340BB9029B6B609DF8070000F0E4FE71
:10793000DAE7D5F8104454B90C4B0D480D49C01A7C
:10794000C008000440F0020000F062F8CCE72368B1
:1079500020469B689847E3681C68ECE700267DE7B3
:10796000202F002014E702002C2F002028E702001F
:1079700058E70200E4E702002DE9F74F224D0446E4
:107980000F46924601A901221846D5F808909B4659
:10799000FFF7ECFD20B3019E4FF00008B21CD84564
:1079A00008EB020126D11948002101F09FF880F36D
:1079B0001000000440EA1440E400731C04F0380492
:1079C00003EA090306EA090644F0010405EB830310
:1079D000033644EA881444EA8724D86045F82640F0
:1079E00095F820341BB1FFF7B7FE0028FBD103B098
:1079F000BDE8F08F09EA010105EB81015AF8283052
:107A0000CB6008F10108CAE7202F00203C3300209A
:107A100000231A46FFF7B0BF07B50123019201AA60
:107A2000FFF7AAFF03B05DF804FB07B5CDE900231B
:107A300002236A46FFF7A0FF03B05DF804FB7FB5A1
:107A4000CDE90123089B0393099B04930A9B0593AB
:107A500001AA0523FFF790FF07B05DF804FB0000C3
:107A600030B50F49D1F8102403460020144634B92C
:107A7000DC6820714AB9C1F81034226030BDE46876
:107A80002579854206D02468F1E7D2681168216023
:107A90001360F3E701300A28E8D14FF0FF30EDE73B
:107AA000202F0020094A38B50123D2F8104482F86B
:107AB00020341D4604B938BDE3685D712368204653
:107AC0005B689847E3681C68F4E700BF202F00203C
:107AD00007B503460846197A052911D05B7A2BB100
:107AE000094A0A49019001F0AEF80198084901904D
:107AF00001F0A9F8019803B05DF804EB01F098B823
:107B0000002AF8D0F2E700BF08E8020032F20200D3
:107B1000FAF2020030B5C38885B004460D4633B191
:107B2000144A00921449154A284601F08CF8217A2B
:107B300005291DD0637A4BB1A088FFF7EDFD104BEE
:107B4000104953F82020284601F07DF8227A0E4B88
:107B5000A08853F8222003920021FFF7C1FD039A69
:107B60000A490346284605B0BDE8304001F06BB82D
:107B700005B030BD08E8020015E802000DE802007B
:107B800098E8020032F20200BCE802002DE8020090
:107B90002DE9F04385B01F460C9D002395F80C900D
:107BA0002B7306460C46904629463846FFF7B2FF2F
:107BB000B8F1060F09D8DFE808F00412181F2833BF
:107BC00040003146284601F03EF80022294638465A
:107BD000FFF77EFF85F80C9005B0BDE8F0832268C2
:107BE0003146284601F02FF8EFE7D4E9002331466B
:107BF000284601F028F8E8E7A36800933146D4E965
:107C00000023284601F01FF8DFE7E3680193A3682B
:107C100000933146D4E90023284601F014F8D4E754
:107C200023690293E3680193A36800933146D4E982
:107C30000023284601F007F8C7E763690393236927
:107C40000293E3680193A36800933146D4E90023CB
:107C5000284600F0F8FFB8E708292DE9F74F8046DD
:107C60000E4617461C463CD8002593F80C901D7311
:107C700019461046FFF74EFFDFF888A0DFF888B0FE
:107C8000AE4231D918F805205946204600F0DBFFF6
:107C90000135082DF4D11949194DDFF870A020469F
:107CA00000F0D1FF4FF0000B5E4522D918F80B20F1
:107CB0007E2A05D81046019205F0C0FF019A00B94E
:107CC0002E225146204600F0BEFF0BF1010BBBF106
:107CD000080FE9D1012221463846FFF7F9FE84F862
:107CE0000C9003B0BDE8F08F5146204600F0ABFF8A
:107CF000CEE72946204600F0A6FFE6E741E802006D
:107D00003FE802003DE8020037E8020043E80200D5
:107D1000C30710B507D4F023054A4008145C23407C
:107D20001943115410BD0901C9B20F23F4E700BF74
:107D30001034002030B5094B1C78094B196800231A
:107D40009C4202DC0022104630BD11F833508542BF
:107D500001EBC302F7D00133F2E700BFDC330020B0
:107D60003034002013B504460191FFF7E3FF38B12A
:107D700043682BB10199204602B0BDE81040184776
:107D800002B010BD034B044819680022490800F0F6
:107D9000B6BA00BFE0330020E833002010B5C0B20F
:107DA000FFF7C8FF0446007801F0CEFE63785A1E44
:107DB00053425341834208D1044BD3E90023134378
:107DC00003D1BDE81040FFF7DDBF10BD083400202F
:107DD00037B54308354AD35CC2074CBF1B0903F0D3
:107DE0000F0304460D46042B35D8DFE803F00325C6
:107DF0002C383C0079B30121FFF78AFF00230DF1F5
:107E000007008DF8073000F053FC0120A4F1200397
:107E1000C4F12001264A20FA01F100FA03F30B43D2
:107E2000A040D2E9004120430B43C2E900039DF882
:107E3000070000F061FC0EE0002918BF0221204677
:107E4000FFF766FF07E041B10321FFF761FF012162
:107E50002046FFF787FF03B030BD0121EFE700297F
:107E6000F9D10421EBE709B10321E8E7FFF750FF5F
:107E700029462046FFF776FF0DF107008DF80750E1
:107E800000F016FC0120A4F12003C4F12001084AEF
:107E900020FA01F100FA03F30B43A040D2E90041BC
:107EA00024EA000021EA0303BFE700BF10340020EA
:107EB000083400202DE9F041124E134F002433788E
:107EC000A34208DC114BD3E90023134318D0BDE8CB
:107ED000F041FFF757BF3D6805EBC40815F83400C3
:107EE00001F032FE98F801305A1E53425341181ADD
:107EF0004142414115F83400FFF76AFF0134DEE7E3
:107F0000BDE8F081DC33002030340020083400204C
:107F1000092AF7B505460C4616463CD901F03CFD4A
:107F2000D8B11E4B1E481D601E4B1F4F1C701F4BAF
:107F3000002120221E6005F0F7FF1D4B00200021CC
:107F4000C3E90001013CE4B20326FF2C0BD1194A1E
:107F50001948002100F0C8F903E001F0EBFC00280B
:107F6000DFD003B0F0BD9DF8063015F834008DF871
:107F7000046005EBC40223F007038DF8063001A965
:107F800093788DF805303A4601F010FD013CE4B2DB
:107F90000028DAD0E5E70720E3E700BF303400200F
:107FA00010340020DC3300209D7D0200E0330020EF
:107FB00008340020B57E0200DCE8020070B5084DF0
:107FC000084E00242B789C4201D3002070BD3368FA
:107FD000012113F8340001F069FD0134F2E700BF1C
:107FE000DC3300203034002082B001238DF80730CC
:107FF0009DF80730114B1860596044F20101884226
:108000009A6012D044F20201884206D1DA60DA683E
:1080100012889A61DA685268DA6172B69DF80730A0
:10802000002BFBD162B602B070471A611A699268E0
:108030005A611A6912689A611A69ECE734340020AF
:1080400000B583B002900091019244F201007146A4
:108050006A4600F003F803B000BD0000F0B5064624
:1080600087B00F46154672B6FFF71CFDFFF774FB8D
:108070000028FBD1234B244CE41AE40844F201030A
:1080800024049E4244F001042AD00BD8012E14D0BF
:1080900041F201039E4221D01C493A462046FFF797
:1080A000BBFC0EE044F202039E42F5D12B886A68C5
:1080B00017492046FFF7B9FC03E016492046FFF7B1
:1080C000A7FC154B1B68DB0700D500BE2A463946C6
:1080D000304607B0BDE8F040FFF786BF0F49EDE737
:1080E000AA680592104601F0CFF82968029701911D
:1080F0006968009103460A49059A2046FFF79FFCEC
:108100000849DBE728E7020058E7020073E90200AC
:108110001FE90200E0E80200F0ED00E0FDE80200E7
:1081200039E902005FE9020049B152B1531E1A4019
:1081300007D1826001608380C260104670470E20C4
:1081400070470920704710B58468C2688388121B85
:10815000934208D3C26813400268D154C368013304
:10816000C360002010BD0420FCE78268C3689A4207
:108170000AD08268838813400268D35C0B708368DE
:10818000013383600020704705207047D0E9022347
:10819000D1E90201994208BF90422CBF0120002082
:1081A0007047000008B50B4800F0DDFB0A4B0B4997
:1081B000D3E900231218D1E9000143F100038B42F7
:1081C00008BF824203D212F1807243F100031046CD
:1081D000194608BD202C002058340020D03400203F
:1081E00037B505460C460A4801A900F0EEFB60B120
:1081F0000570446001A9064800F011FC18B105485B
:1082000000F0B6FB002003B030BD0420FBE700BF48
:10821000BC340020202C002038B5184B1B780446B5
:1082200013B90025284638BD0028FAD0037F03F093
:10823000FF05002BF5D0FFF7B5FFD4E902239942E3
:1082400008BF904214D3236903B92377D4E90530DA
:10825000984721690029E4D0237F03F0FF05002B14
:10826000DFD0D4E90223521843F10003C4E902230A
:108270000348214600F0C3FFD4E700BF603400206C
:108280009CE9020013B5114B1149186801900823AD
:108290001048582200F086FB044698B90E4A0F4851
:1082A00001A900F04DFA044660B90C48012100F024
:1082B0003DFB01230A4A0948194600F09FFA094B81
:1082C00001221A70204602B010BD00BF96E90200DC
:1082D00064340020BC34002049830200202C00209C
:1082E000FFFF7F00603400203AB103685A614A1EE4
:1082F000514251411961002070470720704738B53D
:10830000037F04460D4683B98261FFF74BFF236963
:10831000401941F10001C4E9020103B12561214680
:108320000020BDE83840FFF75BBF002038BD0023C8
:10833000014603770120FFF753BF0000014800F01A
:1083400012BB00BF202C00202DE9F04F85B08046E5
:1083500000F0F4FA40B15A4AD2E9003113F18073C7
:1083600041F10001C2E900310021404600F0F5FA78
:1083700038B1544E336823B13068FFF74DFF002306
:1083800033600121404600F0E8FA20B1FFF70AFF10
:108390004D4BC3E900014D484A4F4D4EDFF838912F
:1083A00003A900F04CFB002845D1DFF82491454E8D
:1083B000DFF828A1484600F038FF3368002875D060
:1083C0007BB13368D0E90201D3E90223994208BFA7
:1083D00090422DD233681B7F1BB13168484600F0B4
:1083E0000EFF484600F01BFFD0E902B30746019399
:1083F000FFF7D8FE019BBBEB000463EB0105012CEA
:1084000075F1000345DBB4F5350F40D3FFF796FF58
:10841000304A02444FF496030021504600F00EFA11
:1084200000283ED1336813B9404600F0DFF93760C9
:1084300005B0BDE8F08F0378012B1DD0022B09D1C8
:108440004FF0000A304600F0EAFE002834D080F8F1
:108450001CA0F7E73BB941680B7F23B901230B77D9
:10846000304600F0CCFE03A9184800F013FB03A926
:10847000164800F0E4FA96E741683B68994202D159
:1084800000233B60EFE7304600F0D2FEEBE7BA682E
:10849000C0E70021504600F056FA3846FFF7BCFE10
:1084A00001E00D28F9D00023336083E7002BBFD112
:1084B000404600F09FF9BBE7012389F80030D2E77E
:1084C00058340020D8340020D0340020BC340020A0
:1084D0009CE90200FFFFB40060340020202C002043
:1084E0000648074A03780749D35C012213B10430D8
:1084F00002F08CB90C3001F097BE00BF282C002090
:1085000054350020043500200648074A03780749FF
:10851000D35C012213B1043002F0FCB80C3001F03E
:108520000BBE00BF282C002054350020053500204C
:1085300037B50578012D0BD0022D2ED065B91E4917
:108540001E48FFF712FE002832D1FFF7DDFF03E0DF
:10855000037A1BB9FFF7C4FF03B030BD4368184C62
:1085600019782046FFF7EFFD80B18DF8005001909B
:10857000144B68461B689847A168E368A2885B1A99
:108580009A42E7D2104B01221A70E5E7A268E3682D
:108590009A42F1D08DF80000EAE7C3688DF80050E8
:1085A0000193FFF79DFF074B68461B689847D3E789
:1085B00003238DF80030F6E705350020F434002061
:1085C000E0340020DC340020F0340020F0B51F46F9
:1085D000234B89B004461A600D4600293DD08A8895
:1085E00020480968FFF7A0FD002834D1AA89A968AE
:1085F0001D48FFF799FD00282DD11C4E0FCE6D466A
:108600000FC596E80F0085E80F0063690693237C89
:10861000174A18488DF81C70003B18BF01238DF8CD
:108620001430637C002B14BF0E2300238DF815300B
:10863000E3680293A3680393236801936946636820
:10864000009301F097F830B90B4B18702368013391
:1086500001D0FFF745FF09B0F0BD0720FBE700BFE1
:10866000DC340020E0340020F43400202CEA020046
:1086700031850200282C0020F034002070B5094D0F
:10868000014609482E78FFF770FD044646B10023E5
:108690002B70FFF725FF18B1044AD621FFF7D0FC55
:1086A000204670BDF0340020E0340020A8E902002C
:1086B00070B5EFF3108672B60C4A946801239CB92A
:1086C00093600B4B0B4DD3F8801029401160C3F819
:1086D0008050D3F8841051604FF0FF32C3F88420EB
:1086E000047006B962B670BD0370FAE70835002061
:1086F00000E100E0FC06FFBD084B9A6810B55AB1D6
:1087000050B9EFF3108172B6054A1C6814605C68BA
:108710005460986001B962B610BD00BF08350020F2
:1087200000E100E0435882B03BB10023435043587E
:108730000193019B012002B070471846FBE700003F
:10874000F8B5224B4579224E43F82520214A224B89
:108750009B1A06EBC502DB0812791B04EF0032B14D
:1087600043F002001D49FFF753F90820F8BD0268E5
:108770000C88C2F8084590F9044002798978002CE9
:10878000ADBF04F1604CDFF85CC002F00F0E0CF5D9
:10879000614C4FEA4111C9B2B4BF0CF80E108CF80D
:1087A000001364090121DFF840C002F01F0201FA42
:1087B00002F24CF82420F21946F83500117143F00A
:1087C00003000749FFF724F90020CFE71C350020FC
:1087D0001435002028E7020068E702004CEA020096
:1087E0006EEA020014ED00E000E100E003680122FF
:1087F0001A607047036801225A60704773B501F12F
:108800005005AD000068ADB24FF480348C400026B6
:10881000C0F80843C0F84843465101F5A8714559CE
:10882000019522F07F42019D40F82120C0F8444389
:108830000BB1C0F8044302B070BD00002DE9F74F42
:108840000D4622F07F4402684FF4803705F1500650
:108850008F408046B60002EB8500C2F84873B6B27E
:10886000C2F80873D2F8041599464FF0000BD0F8FF
:108870004035C0F8401542F806B05B1A9259009294
:1088800023F07F43012B009A4FEA850A0CD1264B37
:108890004FF4806043F001039847D8F8003043F864
:1088A00006B09B590193019BD8F80010D1F80465DC
:1088B000C1F84473A31B23F07F43012B1CD11A4B37
:1088C00005F5A875013443F0010341F825404FF444
:1088D00080609847D8F80030D3F804359E4209D11B
:1088E000D8F800300020C3F84473C3F8047303B011
:1088F000BDE8F08F0D20FAE78A44C9F1FF13CAF8EA
:108900004045D1F80405221A013A22F07F4203F5CE
:108910007F439342EED3002AE2D10134CAF84045A6
:10892000D1F804359842DAE780EA020003680222AF
:10893000C3F8442309B1C3F80423704700684FF417
:108940008271FFF7EFBE4FF4803303FA01F1036841
:10895000C3F84813C3F80813704750318900006802
:1089600089B2FFF7DFBE0368D3F804057047000043
:1089700090F9043001215A0903F01F0301FA03F3AF
:108980004032024941F82230704700BF00E100E068
:10899000024B034A1B681068184700BF1C350020B3
:1089A0001435002010B561B1B2FBF3F403FB1424BD
:1089B000A4B244B9C0E9001484608281C381204616
:1089C00010BD0E20FCE70920FAE737B550E8013F5B
:1089D0009DB2C48925448489A54228BF2D1B0489E2
:1089E000A54202BFBFF32F8F002207E0C5EA0305AF
:1089F00040E80154002CE9D14FF001028DF803202A
:108A00000193019B9DF803200B6002F0FF0322B14C
:108A10000B880068184403B030BD1846FBE70A888D
:108A20004B889A4209D150E8012FC2EA024240E83D
:108A30000123002BF7D1012070470020704737B584
:108A400050E8023F1FFAA3F5C488A54202BFBFF356
:108A50002F8F00220DE0C48925448489A54228BFB8
:108A60002D1BC3EA054540E80254002CE8D14FF025
:108A700001028DF803200193019B9DF803200B60F8
:108A800002F0FF0322B14B880068184403B030BDE8
:108A90001846FBE70A884B889A4209D150E8022F12
:108AA000C2EA224240E80223002BF7D1012070479E
:108AB0000020704701F01F024B090121914000EB9B
:108AC000830000F01EB801F01F0301229A404B09F9
:108AD00000EB8300D14300F02CB84B0901F01F01DB
:108AE00050F82300C84000F00100704710B503465D
:108AF00053E8000F0A4643E8002494F0000FF7D132
:108B000010BD10B5034653E8002F42EA010043E8C8
:108B1000000494F0000FF6D110BD10B5034653E8E1
:108B2000000F00EA010243E8002494F0000FF6D1A0
:108B300010BD10B5034653E8002F02EA010043E8D8
:108B4000000494F0000FF6D110BD10B5034653E8B1
:108B5000002F02EB010043E8000494F0000FF6D16F
:108B600010BD10B5034653E8002FA2EB010043E807
:108B7000000494F0000FF6D110BD0121FFF7C1BF32
:108B80000021FFF7CABF10B590B1D0E901230168F9
:108B90009B1ADBB20A60013BDBB2FF2B026802D1F9
:108BA0000020107110BD11684C1C14600B70F2E7AE
:108BB0000E20F7E737B5054600240DF107008DF8C4
:108BC0000740FFF775FD2A686B68116899420ED956
:108BD000481E106011F8014CEB68298A01FB04342F
:108BE000AB6811791B1ADBB2994238BF13719DF83B
:108BF0000700FFF781FD204603B030BD37B50546BD
:108C000000230DF107000C468DF80730FFF750FDEB
:108C10002A681368591C1160E968641A298AB4FB30
:108C2000F1F41C709DF80700FFF766FD03B030BD3E
:108C3000826810B504462AB1436901680069984703
:108C40000023A36010BD0EB403B5039921B104AB9A
:108C500001AA019300F076F802B05DF804EB03B0CE
:108C600070470A2938B504460D4602D10D21FFF799
:108C7000F8FFA3682268591CA160D554D4E90132D9
:108C80009A4204D32046BDE83840FFF7D1BF38BD33
:108C90002DE9F84F9846DDE90A43154682460F460E
:108CA0000A464FF00109AA420FD2C14538BFC1465A
:108CB00013F0010B01D16CB900240126B8F1010FAA
:108CC0001BD908F1FF386E43F8E709F10109B2FB3F
:108CD000F5F2E8E79B070ED5B8F1000F0CBF302680
:108CE0002026A145E9D2013C31465046FFF7B9FFA5
:108CF000002CF6D1E0E72026F3E7B7FBF6F39D4220
:108D0000E1D9DFF83C80B7FBF6F3504618F80310C2
:108D100006FB1377FFF7A5FF3346AB42B6FBF5F62C
:108D2000F1D2BBF1000F02D00CB1A14501D3BDE8D7
:108D3000F88F20215046013CFFF793FFF4E700BF76
:108D400086EA02002DE9F74F0546174688460029B6
:108D500000F0428118F8011B49B92B7B002B00F071
:108D60003B81284603B0BDE8F04FFFF761BF2529DE
:108D700040F0B780002698F800302D2B424608F1CD
:108D8000010823D0302B24D02B2B25D000242A2BD4
:108D900002F1010123D13B681A1D1B683A601C4493
:108DA0000A4613782E2B26D101324FF0000A1046C6
:108DB00010F8011BA1F1300CBCF1090F1DD80A23DA
:108DC00003FB0A13A3F1300A0246F0E746F001065E
:108DD000D1E746F00206CEE746F00406CBE711F8ED
:108DE000013CA3F130000928DBD80A2202FB04343D
:108DF000303C0A46CBE74FF0000A12F8011B01F0A5
:108E0000FB0068289046F8D0782909D86F290CD83B
:108E1000632962D022D8252963D0582900F08880A0
:108E200098F80030002B95D197E770390829F7D8CA
:108E300001A353F821F000BFB38F0200218E02007E
:108E4000218E0200418F0200218E02001F8F02003E
:108E5000218E0200218E0200318F0200642901D090
:108E60006929DDD13A68D2F80090111D89EAE972CA
:108E70003960A2EBE9724FF0010B092A35DCD345CA
:108E800038BFD3462CB1B9F1000F01DB720700D512
:108E9000013CB30702D5BAF1000F03D0F00701D4AB
:108EA0004CBB0024B9F1000F2DDAC9F100092D21C6
:108EB0002846FFF7D6FE06F00302022A04D1BAF1D3
:108EC000000F01D11CBB0024CDE9004653460A2205
:108ED00049462846FFF7DCFEA2E73B681A1D1978D1
:108EE0003A602846FFF7BDFE9AE70A230BF1010B13
:108EF000B2FBF3F2C1E7A345D4D220212846013CBE
:108F0000FFF7AFFECCE77107D5D52B21D0E7A345FE
:108F1000DAD230212846013CFFF7A3FED2E73968B8
:108F2000CDE900460A1D3A6053460A220968D0E797
:108F300039680A1D3A60CDE9004653461022F5E72C
:108F40003B681A1D3A6016F00106D3F8009028D14C
:108F5000B9F1000F03D0484605F062F80646B44266
:108F600000D904BB09F1FF3919F8011F00293FF4AA
:108F700057AF2846FFF775FEF6E728460136FFF79C
:108F800070FE19F806100029F7D1A642BFF448AFC9
:108F9000002C3FF445AF20212846013CFFF761FE3D
:108FA000F3E70026EDE720212846013CFFF759FEB4
:108FB000D5E73B681A1D3A60302128461C68FFF748
:108FC00050FE78212846FFF74CFE00220823CDE909
:108FD0000032214610227CE703B0BDE8F08F00BFCD
:108FE0002DE9F84FB0F806A04579D2F800B09DF809
:108FF00028900AFB05F5043D88460BEB0301A942C6
:1090000003F1040488BFA5EB030BB4FBFAF6074693
:109010000AFB1644C2F800B04EB9AAEB04055D4540
:1090200028BF5D46BBF1000F04D1BDE8F88F3F6853
:10903000013EF1E7043408EB06003C442A46B9F14E
:10904000000F0DD02146ABEB050B04F044FFDA45D1
:109050002E443F6855464FF0000428BF5D46E1E7C7
:1090600001462046EFE7FFF78EBDF8B54679014689
:10907000721E0546002393422D6803D30024A642A6
:1090800002D8F8BD0133F6E70F682846FFF7B6FDB2
:1090900001343946F3E72DE9F843068ACD1C07462B
:1090A000FFF788FD043E35440446B5FBF6F5F0B104
:1090B0004FF48073EDB28380C680013D0760814626
:1090C0004FF00008A84512D23846FFF773FD064658
:1090D00048B163790133637108F10108C9F80000F0
:1090E00007608146EEE72046FFF7BFFF3446204683
:1090F000BDE8F88301210430FFF727BD10B5012139
:1091000004460430FFF72DFD10F0FF0F04D1204678
:10911000BDE81040FFF7A9BF10BD1FB503920022A4
:10912000009203AAFFF75CFF05B05DF804FB1FB5D2
:1091300003920122009203AAFFF752FF05B05DF8E7
:1091400004FB41DF70470000064B10B500241C7083
:10915000054B1C60BFF35F8F0449054800F039F8E8
:10916000204610BD283500202C350020A0EA020042
:109170002035002007B500230DF107008DF80730DA
:10918000FFF796FAF1EE103A23F09F03E1EE103A62
:10919000BFF35F8F094B4022C3F884219DF807007D
:1091A000FFF7AAFA04F074FA20B1FFF7CAFF03B080
:1091B0005DF804FB20BF40BF20BFF8E700E100E0FE
:1091C000836800225A60C3E904229A60DA601A6058
:1091D00070470B684A684360934208BF00230160F0
:1091E00008BF43607047436843B1026891685268A2
:1091F0000B449342436004BF00234360704770B543
:10920000446806460D46206818B1B3682946984759
:1092100018B923682B60256070BD2468F3E74368A4
:10922000186808B102681A60704743681868704788
:109230004368186800B97047884203D102681A6011
:109240000120704703460068F4E7000010B50D499F
:10925000A1F59472914201D800200FE08C1AE30F1F
:1092600003EBE4035B1002EBC30452F83330834298
:1092700005D802D204F10802ECE7606810BD21466F
:10928000E8E700BFACEF020008B5FFF7DFFF024BD5
:10929000002808BF184608BD6FEE0200054B1B688A
:1092A000082B01BF044B1868B0FA80F0400918BFC2
:1092B00000207047300100103401001008B54FF055
:1092C00080430022C3F80C21C3F81021C3F83825CD
:1092D0004FF0805203F54043D2F80414C3F8201530
:1092E000D2F80814C3F82415D2F80C14C3F82815C2
:1092F000D2F81014C3F82C15D2F81414C3F8301592
:10930000D2F81814C3F83415D2F81C14C3F8401559
:10931000D2F82014C3F84415D2F82414C3F8481521
:10932000D2F82814C3F84C15D2F82C14C3F85015F1
:10933000D2F83014C3F85415D2F83414C3F86015B9
:10934000D2F83814C3F86415D2F83C14C3F8681581
:10935000D2F84014C3F86C15D2F84424C3F8702531
:10936000FFF79CFF10B1384B384A1A60FFF796FFA1
:1093700018B1374BFB22C3F81825FFF78FFF48B110
:109380003449354B0A681B6822F00F0203F00F03C3
:1093900013430B60FFF782FF18B1304B4FF400729C
:1093A0001A604FF08043D3F80024D20744BF6FF017
:1093B0000102C3F800242A4AD2F8883043F470032B
:1093C000C2F88830BFF34F8FBFF36F8F4FF0102379
:1093D000D3F80022002A03DBD3F80432002B2FDA63
:1093E000204B0122C3F80425D3F80024002AFBD027
:1093F0004FF010221221C2F80012D3F80024002AE4
:10940000FBD04FF010231222C3F80422154B1A464A
:10941000D3F800140029FBD00021C3F80415D2F8BA
:109420000034002BFBD0BFF34F8F0D490E4BCA68A1
:1094300002F4E0621343CB60BFF34F8F00BFFDE740
:109440000A4B0B4A1A6008BD8C5600404881030045
:1094500000F00040E40E0040580200104096024028
:1094600000ED00E000E001400400FA053C2C002083
:109470000090D003074B1B5C1F2B8ABF064A4FF09E
:10948000A04203F01F03D2F80405D840C04300F007
:1094900001007047B0EF020000030050074B1B5C57
:1094A0001F2B86BF064903F01F034FF0A041012286
:1094B00002FA03F3C1F80C35704700BFB0EF0200A9
:1094C00000030050074B1B5C1F2B86BF064903F0AF
:1094D0001F034FF0A041012202FA03F3C1F808353F
:1094E000704700BFB0EF02000003005008B5002035
:1094F000FFF7E8FF0120FFF7E5FF0220FFF7E2FF9B
:10950000BDE808400320FFF7DDBF08B50020FFF7E6
:10951000C5FF0120FFF7C2FF0220FFF7BFFFBDE834
:1095200008400320FFF7BABF0A4B185C1F288ABF08
:10953000094B4FF0A04300F01F00D3F80425012190
:10954000814021EA02000A40C3F80805C3F80C254F
:10955000704700BFB0EF020000030050074B1B5CD8
:109560001F2B8ABF064A4FF0A04203F01F03D2F818
:109570001005D840C04300F001007047ACEF020076
:10958000000300500B2809D00C2809D0182809D056
:1095900019280CBF03204FF0FF30704700207047A0
:1095A0000120704702207047014B185C704700BFD4
:1095B000ACEF0200C20710B504460CD54FF0A04333
:1095C0000322C3F83427C3F83827C3F83C27C3F86D
:1095D0004027FFF78BFFA3070AD54FF0A0430C22CB
:1095E000C3F82C27C3F83027C3F86027C3F86427D3
:1095F00010BD000038B5074C051E04F1080318BF64
:109600001C4623682BB11A6822605B68284698477D
:10961000F7E738BD3835002020B9054B01225A70D4
:10962000FFF7E8BF012802D1014A9070F8E77047C0
:109630003035002020B9034B01225A70FFF7DABF02
:10964000704700BF3035002038B50B4C237883B904
:109650000A486360A3602361E36000F0C9F805462F
:1096600004F016F808B900F0CFF80123237028465B
:1096700038BD8525FBE700BF303500201996020074
:1096800037B50B4C00230DF107008DF80730FFF7BD
:109690000FF8E368013BE360E56815B900F0C6F830
:1096A000A5709DF80700FFF727F803B030BD00BF95
:1096B00030350020012813B508D003281CD018B974
:1096C000104B0122C3F8802002B010BD0E4C0023C5
:1096D0000DF107008DF80730FEF7EAFF23780BB98C
:1096E000FFF7B2FFE3689DF807000133E360012351
:1096F000A370FFF701F8E7E700F086F8FFF7C0FF77
:10970000E2E700BF00E100E0303500201FB503783C
:109710008DF800304368019383688DF80830C36882
:10972000054A0393054B684653F8213052F821103F
:10973000984705B05DF804FB443500204C35002007
:109740001FB503788DF800304368019383688DF866
:109750000830C368054A0393054B684653F8213027
:1097600052F82110984705B05DF804FB44350020FD
:109770004C350020F0B5194B90F800C0DFF86CE0D4
:1097800043F82C20164B16460A6943F82C204B7FD1
:109790000EF80C300C4607460FCC89B06D460FC54D
:1097A00094E80F0085E80F001EF80C30CDF810C0CB
:1097B0004BB1002E0B4A694608BF3246381D00F0F7
:1097C0009DFE09B0F0BD002E074A694608BF32462B
:1097D00007F10C0000F0B2FBF3E700BF4C350020AE
:1097E000443500200D9702004197020054350020B7
:1097F000044A137923B901211060918018467047FB
:109800008520704758350020074B1A68D2075FBF84
:10981000C02283F8002301221A604FF08043012206
:10982000C3F81825704700BF00E100E04FF0804307
:109830000122DA60D3F81824D203FBD47047000069
:109840004FF0804307B5D3F800217AB10022C3F866
:109850000021D3F800210092009A0122C3F80823C6
:109860000F4B587910B95A711B6898474FF08043D5
:10987000D3F8042182B10022C3F80421D3F80421D3
:109880000192019A0222C3F80823054B1B680120AC
:1098900003B05DF804EB184703B05DF804FB00BFAC
:1098A0005835002000F1804000F5C040002382B010
:1098B000036003680193019B02B0704703681F2B8C
:1098C00083BF03F01F03036001484FF0A0407047BF
:1098D0000003005007B5019001A8FFF7EFFF019BBF
:1098E00000EB8300D0F8003723F44033C0F8003792
:1098F000D0F8003743EA0141C0F8001703B05DF823
:1099000004FBC208012300F0070003FA00F08B5C9F
:109910001843885470470000054B4FF0FF3207286A
:1099200043F8202084BFC01880F85820704700BF3B
:109930006035002038B5144D95F86A4014BB3022CC
:10994000FF21A81804F0F0FAE0B20134FFF7E4FFB9
:109950000C2CF9D10D4B00226A669A800C4BC02169
:1099600083F80613402119604FF4BE70FFF79AFF89
:10997000084B4FF00041C3F80413012385F86A3007
:10998000104638BD0820FCE760350020C4350020B3
:1099900000E100E000600040034B93F86A000038EB
:1099A00018BF0120704700BF603500202DE9F3414A
:1099B000DFF8F48008EB0003054693F93030002B04
:1099C0000F466CDA8B78C3F34003002B0BBF0824DF
:1099D00000240C2108218C4203D1042002B0BDE8F0
:1099E000F08158F82400013041D108EB050166B23E
:1099F00048F8242081F830601BB908EB040383F891
:109A00005850BB785A0712D4D90732D501A801950E
:109A1000FFF754FF019B00EB8300D0F8003723F0E1
:109A20000203C0F800371F492846FFF76AFFBB78DA
:109A30003A7813F0020328D0A40004F1804404F51E
:109A4000C0442D02D4F8103523F44F3323F440736F
:109A5000C4F810351204D4F8103505F47C5502F41E
:109A6000403215431D43C4F810550020B6E70134B9
:109A7000B1E701A87A780195FFF720FF019B03F574
:109A8000E073920040F82320CDE7083E48FA86F8BC
:109A900098F8605045EA821288F86020E5E70820CF
:109AA0009CE700BFC43500206035002073B5244D0D
:109AB0002E18044696F93020072A1DDD083A45FA8B
:109AC00082F595F860309B09032B10D1019001A815
:109AD000FFF7F4FE019BD0F81015D94001F0010109
:109AE0000231204602B0BDE87040FFF7F3BE012B03
:109AF0000CBF02210321F4E7D3B2072B1DD893003A
:109B000003F1804303F5C043D3F8100540F0010092
:109B1000C3F8100502F1400040B2800080B2FFF7A8
:109B2000C1FE51B196F9303055F823302BB10123E5
:109B300003FA02F2034BC3F8042302B070BD00BF66
:109B4000603500200060004007B5019001A8FFF7D4
:109B5000B5FE019BD0F81005D84000F0010003B01D
:109B60005DF804FB2DE9F04F00248BB0CDE90444EF
:109B7000644D4FF48072012102F1804303F5C0432C
:109B800090B21B68012B06D1D5F804330B4202D0EA
:109B9000FFF788FE0C430432B2F5907F4FEA410193
:109BA000EAD1584BD3F87C31012B0ED14FF4BE7063
:109BB000FFF778FE4FF0A04344F00044D3F810358F
:109BC0000493514BD3F810350593E3B2D3B14F4F03
:109BD00000250126344210D0AB0003F1804303F589
:109BE000C043D3F81005D3F8101557F8253023B12A
:109BF000C1F30141C0F3052098470135082D4FEA14
:109C00004606E7D1002C79DA0023CDE906334FF080
:109C1000FF33CDE90833DFF8F4A03D4B0193002674
:109C20003546019B13F9014B0193631C4DD0C4F3DE
:109C3000C2070122E3B204F03F0B04F0070402FA6A
:109C400004F40AAA174417F8081C21423DD00AEB75
:109C50000B014FEA931991F930105AF82180B8F1AD
:109C6000000F07D1B9F1030F2FD106A95846FFF70E
:109C700048FE02E0B9F1030FF7D003A8CDF80CB00D
:109C8000FFF71CFE039901F5E07150F8211017F859
:109C9000180C2042C1F3014106D0022915D1B9F1B7
:109CA000030F0CD1494605E003290ED1B9F1030F8A
:109CB00005D102215846FFF70DFE0135EDB2B8F18E
:109CC000000F02D049465846C0470136042EA8D19D
:109CD000A5B14FF0A0430499D3F8102503F54073C4
:109CE0009142D3F8103502D10599994206D00492D9
:109CF0000593069A079B089209938EE70BB0BDE87F
:109D0000F08F00BF0060004000030050603500206D
:109D1000C0350020014B1B68184700BFCC35002020
:109D20000E4B984237B50C4602D0002003B030BD30
:109D300000230DF107008DF80730FEF7B9FC084B42
:109D40001D7915B901221C601A719DF80700FEF7F4
:109D5000D3FC002DE9D01120E8E700BF002000402F
:109D6000CC3500200023435082B043580193019B1F
:109D700002B070470A4610B54FF48E71FFF7F2FF3C
:109D8000136A9168C95C136A01331362C0F81C1529
:109D900010BD024608B500684FF49271FFF7E2FF6C
:109DA0004FF484711068FFF7DDFF136801221A6019
:109DB00008BD8B690A4610B54FF4847123B9FFF7CB
:109DC000D1FFD0F8183510BDFFF7CCFF536AD1682A
:109DD000D0F81805C854536A01335362F3E7000002
:109DE0001FB501238DF80030044BCDE90110D3E9F4
:109DF00000126846904705B05DF804FBD43500209A
:109E000030B54C48D0F8043313F4007F85B00546D4
:109E10004DD0D0F82431002B49D04FF49271FFF788
:109E2000A1FF4FF40173C0F80833434B93F8292086
:109E30000AB9012242603F4902228DF80020D1F880
:109E40008024C1F8802403929A690292DA68019210
:109E50000022C3E906226846D3E90012904735483C
:109E6000D0F81C315BB134494A690B6A9A420A4600
:109E70004AD991F82830002B46D1FFF77BFF2D48B7
:109E8000D0F844318BB14FF4A271FFF76BFF2A4B2E
:109E900093F829200AB1012202609A692AB10022AE
:109EA000586AD9689A61FFF79BFF05B030BDD5F8B5
:109EB00004335B07D3D5D5F80831002BCFD01E4C27
:109EC0001C482146FFF775FF636AA2699A42234640
:109ED000C5D1E269E1684AB12369E3600023606AA1
:109EE000A261E3616362FFF77BFFB8E794F8292082
:109EF0000AB901226A600F4A4FF40170C2F80803E0
:109F00000022586A9A61EEE70A484FF48E71FFF713
:109F100029FF5369002BB2D0516902910023916847
:109F20008DF80030019153616846D2E900139847DB
:109F3000A5E700BF00200040D43500202DE9F04700
:109F4000734B744C0679E41A734B91462C2202FB36
:109F50000632E40892F82A20240407460D4644F00D
:109F600002049A466AB10820FFF78EF96B4A6C49E1
:109F700003462046FDF759FD4FF008084046BDE86E
:109F8000F08768490068FFF7CBFE804658B1112082
:109F9000FFF77AF9614A624903462046FDF745FD1D
:109FA0004FF01108EAE729684A1C10D01F2987BF23
:109FB0005D4A01F01F030B464FF0A042012098407C
:109FC00003F5E073C2F80805032042F8230068682F
:109FD000431C0DD01F288BBF00F01F030346524ABD
:109FE0004FF0A04203F5E0734FF0000C42F823C09D
:109FF0003B68AA69C3F8242595F814C06A7DBCF1B2
:10A00000010F4CEA0202C3F86C25C3F81405C3F82B
:10A010000C152CD1AA68511C0DD01F2A8BBF02F041
:10A020001F01114640484FF0A04001F5E0714FF08C
:10A03000000C40F821C0E968481C14D01F2987BFD4
:10A04000DFF8E4C001F01F0008464FF0A04C4FF0CD
:10A05000010E0EFA00FE00F5E070CCF808E54FF0B6
:10A06000030E4CF820E0C3F80815C3F810252C2384
:10A0700073430AEB0302C2F804902A694AF80320EA
:10A08000B9F1000F2BD038682D7F4FF48E71FFF798
:10A0900069FE38684FF4A271FFF764FE3A68234BFB
:10A0A000C2F80433110B42F30732002AA8BF02F1B1
:10A0B00060404FEA4513BABF1D4801F00F0500F597
:10A0C0006140DBB2B4BF435580F8003301F01F019B
:10A0D000012303FA01F15209164B43F822103B68A1
:10A0E0000422C3F800252C2303FB06A30020012231
:10A0F00083F82A20C3E9060083F829005861FFF796
:10A10000C3F8064A064903462046FDF78EFC35E7AC
:10A1100028E7020048E70200D435002013F00200CF
:10A12000CBEF0200019E02000003005080000200FD
:10A1300014ED00E000E100E02DE9F84F344E90F816
:10A1400004A0344D2C240AFB046980463248D9F817
:10A1500014702D1AED084C462D046FB11120FFF735
:10A1600093F82E4A2E49034645F00200FDF75DFCA8
:10A1700011273846BDE8F88FC9F8142045F00305CB
:10A18000C9F8207089F82870D9F81420C9F8081087
:10A1900028462449FDF740FCD8F800004FF48E71A2
:10A1A000FFF7E0FDD8F80000012383604946FFF780
:10A1B000E1FDD9F804309BB9D8F80000D9F814B003
:10A1C000236A9B4519D8D8F80030D3F81C21002AFF
:10A1D000FBD00122DA602C2303FB0A6300225A61C0
:10A1E0003846FFF751F80D4A0D4903462846FDF75A
:10A1F0001CFCBEE794F828303BB9D0F81C31002B8A
:10A20000F8D04946FFF7B6FDDAE70F27E3E700BFCE
:10A21000D435002048E7020028E7020022F00200BF
:10A22000CBEF0200E9EF02002DE9F84F5B4F057913
:10A2300006462C2000FB0570D0F804C0BCF1000FCE
:10A2400004D033684FF40170C3F808032C2303FBD8
:10A250000573DFF85C819869514CD8B1D869002842
:10A2600060D0BCF1000F04D033684FF40172C3F822
:10A2700004231120FFF708F8A8EB0404E4082404E1
:10A280000346484A484944F00200FDF7CEFB11203E
:10A29000BDE8F88F9A61D9605862D8618146A8EB11
:10A2A0000404E408240444F0030A40495046FDF73E
:10A2B000B3FB2C2303FB057393F829302BB9B9F1B9
:10A2C000000F02D13046FFF764FD4FF02C0B0BFB63
:10A2D00005783068D8F80430002B5AD14FF4A271B9
:10A2E000C346FFF73FFD3068D0F82421D0F808318D
:10A2F000D0F84491DBB9B9F1000F01D1002AF2D0B6
:10A300002C2303FB05730021996102B30320FEF7A0
:10A31000BBFF244A2449034644F00200FDF785FBB5
:10A320000320B5E71961DA614FF00109B7E7002AA8
:10A33000E6D1B9F1000FE3D15946FFF73AFDD8F85D
:10A340002430D8F818209A42CDD84A46D8E7B9F137
:10A35000000F0BD00F20FEF797FF124A1249034659
:10A3600044F00200FDF761FB0F2091E793F82910FC
:10A370003268012359B113600020FEF785FF094AB6
:10A38000094903465046FDF750FB002080E7536023
:10A39000F2E74FF40173C0F80433EDE7D435002041
:10A3A00028E702002FF00200CBEF0200FEEF0200D0
:10A3B00048E702000023435082B043580193019BB9
:10A3C00002B070471FB501238DF80030044BCDE972
:10A3D0000110D3E900126846904705B05DF804FB10
:10A3E000003600207FB5434AD2F82461002E60D0A9
:10A3F00010464FF49271FFF7DDFF02238DF8003015
:10A40000D2F88034C2F880340393D2F83C350293FA
:10A41000394BDA6801920022C3E906226846D3E983
:10A42000001290473348D0F8443173B14FF4A27111
:10A43000FFF7C0FF304B9A693AB10022C3E9062208
:10A44000D968D0F83C05FFF7BDFF2A48D0F8203185
:10A45000ABB14FF49071FFF7ADFF0123C360264B02
:10A460005A6962B1D0F84C150291002299688DF8B2
:10A47000002001915A616846D3E9001290471D48B7
:10A48000D0F858319BB14FF4AC71FFF793FF1A4BE2
:10A490005A6962B1D0F84C150291002299688DF882
:10A4A000002001915A616846D3E90012904704B038
:10A4B00070BDD2F81031002BB4D04FF48871104623
:10A4C000FFF778FF0C4BD2F83C0599698842A9D177
:10A4D000DC69D96864B1D2F8005225F02005C2F8D1
:10A4E00000521A699C61DA60DE61FFF76BFF99E741
:10A4F0009C61FAE700200040003600202DE9F0477B
:10A500007A4B7B4D90F80480ED1A7A4B91462422C9
:10A5100002FB0832ED0892F820202D0404460E4676
:10A5200045F002059A4662B10820FEF7ADFE724A78
:10A53000724903462846FDF778FA08273846BDE8F1
:10A54000F0876F490068FFF7EBFB074650B1112019
:10A55000FEF79AFE684A694903462846FDF765FA00
:10A560001127EBE73068421C10D01F2887BF654ACF
:10A5700000F01F0303464FF0A0420121994003F56C
:10A58000E073C2F80815032142F8231071684B1CD0
:10A590000DD01F298BBF01F01F030B46594A4FF006
:10A5A000A04203F5E0734FF0000C42F823C023688B
:10A5B000B269C3F8242596F814C0727DBCF1010F6E
:10A5C0004CEA0202C3F86C25C3F80C05C3F8141555
:10A5D0002CD1B268511C0DD01F2A8BBF02F01F0175
:10A5E000114648484FF0A04001F5E0714FF0000CD3
:10A5F00040F821C0F168481C14D01F2987BFDFF83C
:10A6000004C101F01F0008464FF0A04C4FF0010EAE
:10A610000EFA00FE00F5E070CCF808E54FF0030EEE
:10A620004CF820E0C3F80815C3F81025242303FBD9
:10A6300008F30AEB0302C2F8049032694AF80320D7
:10A64000B9F1000F3AD02068327F4FF48871FFF7DC
:10A65000B1FE20684FF49071FFF7ACFE20684FF414
:10A660009271FFF7A7FE20684FF4A271FFF7A2FED8
:10A6700020684FF4AC71FFF79DFE23682249C3F8B0
:10A680000413190B43F30733002BAEBF03F16040F3
:10A6900001F00F061D484FEA4212A8BF00F56140C5
:10A6A000D2B2B4BF825580F8002301F01F0101220D
:10A6B00002FA01F15B09164A42F8231023680822C6
:10A6C000C3F80025242303FB08A30020012283F8FC
:10A6D0002020C3E906005861FEF7D6FD064A074967
:10A6E00003462846FDF7A1F928E700BF28E7020046
:10A6F00050E702000036002042F00200CBEF0200DB
:10A70000E5A30200000300501003420014ED00E036
:10A7100000E100E02DE9F843364B374C90F8048017
:10A72000E41A01F06043E408B3F1005F07464FEA22
:10A7300004440DD01020FEF7A7FD304A30490346EF
:10A7400044F00200FDF771F910252846BDE8F883B2
:10A750002C4B242606FB0836994675695DB11120FD
:10A76000FEF792FD254A2649034644F00200FDF714
:10A770005CF91125E9E7726144F003047269B16084
:10A7800020462149FDF748F938684FF49071FFF7EA
:10A7900011FE4FF4AC713868FFF70CFE3B6872692C
:10A7A000B168C3F84415C3F8482501229A6072685D
:10A7B000B2B9D3F82021D3F858511AB9002DF8D0E6
:10A7C0000F2507E0002DFBD10122DA60D3F85821D4
:10A7D000002AFBD0242303FB08980023C8F8143078
:10A7E0002846FEF751FD054A054903462046FDF778
:10A7F0001CF9AAE728E7020050E7020052F0020025
:10A80000CBEF020000360020E9EF02002DE9F8430B
:10A810004C4C037991464C4AA41A01F06042E4087A
:10A82000B2F1005F054688464FEA04440DD010207F
:10A83000FEF72AFD454A4649034644F00200FDF76B
:10A84000F4F810252846BDE8F883424E242202FB86
:10A850000362526822B101684FF40470C1F8080322
:10A86000242101FB03639F69A7B1D969002955D051
:10A8700022B12B684FF40472C3F804231120FEF7B1
:10A8800003FD324A3249034644F00200FDF7CDF899
:10A890001125D7E7C3F81890C3F80C80DF6144F0A6
:10A8A00003044A462C492046FDF7B6F828684FF4C1
:10A8B0008871FFF77FFD28684FF4A271FFF77AFDDA
:10A8C0002B68C3F83485C3F838956FBB01221A6032
:10A8D0002979242202FB0162526862BBD3F810017D
:10A8E000D3F84421D3F82451104302D1002DF5D0E0
:10A8F0000246242303FB016600239D4218BF032563
:10A900009A42B36118BF0F252846FEF7BDFC0F4AD7
:10A910000F4903462046FDF788F893E7C3F81080F7
:10A92000C3F81C900127BAE7D3F8002242F02002B6
:10A93000C3F80022CCE74FF40472C3F804230025C7
:10A94000E2E700BF50E7020028E7020060F00200E3
:10A95000CBEF020000360020FEEF02001F2886BF6A
:10A9600000F01F00044B4FF0A04300F5E0700322FD
:10A9700043F82020704700BF000300501F2886BF07
:10A98000054A00F01F004FF0A042012303FA00F037
:10A99000C2F80805704700BF000300501F2886BF9B
:10A9A000054A00F01F004FF0A042012303FA00F017
:10A9B000C2F80C05704700BF00030050124BD3F8DB
:10A9C000183107B5EBB1114B114900221A6091F80B
:10A9D00020001B680193FF28019B05D08B7F1BB9CA
:10A9E000CB7F5BB1FFF7DAFF00234B770B72D1E926
:10A9F0000031084803B05DF804EB1847FFF7BEFFCD
:10AA0000F2E703B05DF804FB00F0024018F10240E9
:10AA1000243600202C3600202DE9F047814F06799E
:10AA20009A46242303FB067380461B7F0C469146FF
:10AA3000002B40F0F08086B18B7BFF2B40F0ED8047
:10AA40008B68B3F1206F00F0E880B3F1A05F00F0F5
:10AA5000E4800B7C002B40F0E080D8F80050724975
:10AA60002846FFF75DF90146002840F0D8802420F1
:10AA700070433B1847F80090C3F804A0237B20786C
:10AA8000012B00F2B680FFF789FF23781F2B86BFCA
:10AA900003F01F03654A4FF0A04203F5E073012065
:10AAA00042F8230094F80190B9F1FF0F00F0A48060
:10AAB0004846FFF773FF4846FFF750FFA378FF2B88
:10AAC00000F09D801F2B8BBF03F01F021A465748D2
:10AAD0004FF0A04002F5E0724FF0040C40F822C0A5
:10AAE0009A46242202FB067282F82130E07882F82E
:10AAF0002000FF281CD02379002B00F08380FFF773
:10AB00004DFFE078FFF72AFF237C227963B12423ED
:10AB100003FB067301209877E078637CC5F8140581
:10AB2000C5F86825C5F86435242303FB0673DA7776
:10AB3000A07BFF2807D0FFF721FFA07BFFF70EFFC8
:10AB4000A37BC5F86C35E37BC5F860352378C5F881
:10AB50000835A368C5F80C95C5F810A5C5F82435C7
:10AB6000637B227B003B18BF0123022A4DD0032ABE
:10AB70004ED0012A01D143F00203C5F85435A37920
:10AB8000C5F8C03524237343FB5813B14022C5F8E0
:10AB900004230722C5F800250BB3D8F800306279EA
:10ABA00043F307300028A8BF00F16044C3F3073324
:10ABB000BCBF03F00F051E4C4FEA4212A8BF04F5BC
:10ABC0006144D2B2B4BF625584F8002303F01F037E
:10ABD000012202FA03F34009164A42F820302423E6
:10ABE00003FB067600237377012333770846BDE81D
:10ABF000F087FFF7C3FE48E74FF0FF395EE74FF0FD
:10AC0000FF3A6EE7FFF7BAFE7BE743F00403B4E7D1
:10AC100043F00603B1E70821E8E70621E6E7112142
:10AC2000E4E700BF24360020BDA902000003005065
:10AC300014ED00E000E100E00220FEF775BC00002A
:10AC40002DE9F04780460D46FEF79CFC032804469C
:10AC500010D8012D10D0022D30D05DB91A48FDF763
:10AC600066FB1A4B04EB440213449E78184B1B5DA1
:10AC7000B34219D0BDE8F087144D00EB4002A9188B
:10AC8000AE5C4A78470052B1DFF84C900E484A4615
:10AC90004FF48041FDF733FB08B989F800803B1978
:10ACA0002B449A780A4B1A55002EE3D0094B1B68A7
:10ACB000002BDFD03046BDE8F047184700EB4004DA
:10ACC000024804446678EFE770360020B036002072
:10ACD000C9360020C4360020483600200078022102
:10ACE000FFF7AEBF08B5094B1B7853B10020FEF744
:10ACF000E9FB0120FEF7E6FBBDE808400320FEF774
:10AD0000E1BBBDE80840FEF7F1BB00BF49360020BB
:10AD1000F8B57B4C237805461BB100232370FFF761
:10AD2000E1FF172D00F28880DFE805F00C171743CC
:10AD300054657680888D888D959A9A9A9A9AC4C916
:10AD4000D1D9E4E4FFF7CEFF6E48FDF7F0FA6E4B81
:10AD5000002204461A702046F8BD0020FEF78AFB48
:10AD6000F8B10020FEF7AEFB022D0CBF4FF4E161FD
:10AD70004FF47A61644B1D704FF400404FF47A74C5
:10AD80000025E0FB01454FF4FA62002320462946E6
:10AD900002F02EFE00220146BDE8F8405948FDF7BA
:10ADA000AEBAFEF77BFB022D0CBFC8214FF4C87171
:10ADB000E0E70020FEF75EFB40B10020FEF782FBDB
:10ADC0004FF44871504B03221A70D5E7FEF766FB2B
:10ADD000C821F7E70020FEF74DFB38B10020FEF751
:10ADE00071FB4FF47A61484B0422EDE7FEF756FB06
:10ADF0004FF4C871F7E70020FEF73CFB48B1002094
:10AE0000FEF760FB404B05221A7040F6CD41002250
:10AE1000C2E7FEF743FBF5E70020FEF785FB3A4B60
:10AE200006221A70002240F26661B5E70020FEF7A4
:10AE300035FB354B07221A7000248CE70120207067
:10AE4000FEF772FBEEE701202070FEF76DFB00229B
:10AE50004FF40051A0E7FEF758FB2B4B0C22EAE71A
:10AE60002A482B4EFDF763FAD5F1110504461CD094
:10AE7000D8B9012D13D0C8235D434FF400474FF4D8
:10AE80007A7000214FF4FA620023C7FB050102F03B
:10AE9000AFFD224601461D48FDF731FA0446022067
:10AEA000FEF7FCFA0123337055E70220FEF70AFB98
:10AEB0000023F8E7FFF716FF134B1222BBE7FFF75B
:10AEC00011FF0020FEF7EAFA0F4B1322B3E7FFF75A
:10AED00009FF0120FEF7E2FA0B4B1422ABE7FFF764
:10AEE00001FF0020FEF7DAFA0120FEF7D7FA064B41
:10AEF0001522A0E7FEF709FB034B1D709CE700BF7E
:10AF0000C036002090360020C83600205036002081
:10AF100049360020044B1B68DB0703D5034B187828
:10AF2000FFF7F6BE704700BFBC360020C8360020D1
:10AF3000002910B514BF03240024FEF735FB1F2899
:10AF40008ABF0A4B4FF0A04300F01F0003EB8000C4
:10AF5000D0F8002722F44032C0F80027D0F800379C
:10AF600043EA0443C0F80037002010BD000300503E
:10AF7000032801D8FEF7F2BA00207047044B1B6883
:10AF800013F0010301D0FFF7C3BE1846704700BF9E
:10AF9000BC36002038B51C4B18601C4B10F0020466
:10AFA000054619601AD01A4B1A480E221A700F2241
:10AFB000DA7010229A7111225A72042140F233324F
:10AFC000FCF7A6FF044648B9FCF7F8FF044628B989
:10AFD0000146114A1148FDF787F90446EB0711D5E0
:10AFE0000120FEF7E7FA6CB921460D4A0D48FDF73E
:10AFF0007BF9044630B9BDE838400B4A0B480121C3
:10B00000FDF772B9204638BDBC360020C43600209A
:10B01000B036002074F00200DDAC020098F00200AF
:10B0200015AF02009CF0020039AC020094F002005F
:10B03000032811D8012A0AD101290FD100F10E02EB
:10B04000D2B20D4B00EB40001A540020704701298A
:10B05000F7D0022904D049B1072070470022F8E751
:10B06000054B00EB400018444270EEE7024B00EB4A
:10B07000400018448270E8E7B0360020032802D868
:10B080000121FFF755BF0620704708B501220221B4
:10B090000020FFF7CDFF08B1072810D107220221B9
:10B0A0000120FFF7C5FF08B1072808D100210A22B7
:10B0B0000846FFF7BDFF10B1072808BF002008BDF4
:10B0C0000388102B10B502D0112B1ED010BD1A4CC6
:10B0D0002168B1B901220846FFF7AAFF08B1072885
:10B0E00024D1072202210120FFF7A2FF08B107287F
:10B0F0001CD1042202210020FFF79AFF08B1072883
:10B1000014D1236801332360E0E70B4A1368013B45
:10B110001360002BDAD1FFF7B8FF0028D6D0074B19
:10B120001B68002BD2D0BDE810401847034B1B68AA
:10B13000002BE6D09847E4E7D4360020D036002034
:10B1400008B50020FFF79AFF08B1062806D10120B4
:10B15000FFF794FF10B1062808BF002008BD0000CB
:10B160000D4B10B518600C4629B10120FFF700FF08
:10B1700040B102232370094B1B6853B9BDE810404E
:10B18000FFF783BFFFF7F4FE08B10B23F2E720704F
:10B19000F1E7002010BD00BFD0360020D4360020DB
:10B1A00076DF70477ADF70477CDF70477FDF70475C
:10B1B0008FDF7047B1DF704767DF704733DF70475D
:10B1C000024A40F22111FCF73BBF00BFA0F0020091
:10B1D000024A4FF40D71FCF733BF00BFA0F002002C
:10B1E00008B50020FFF7CAFE20B10C4A40F25621F4
:10B1F000FCF726FFFFF7A4FF20B1084A40F25A21CE
:10B20000FCF71EFFFFF7DAFF30B1BDE80840034A44
:10B2100040F25E21FCF714BF08BD00BFA0F00200A1
:10B2200073B504380B2809D8DFE800F00A080818BD
:10B23000080806080808283BFFF7D2FF02B070BDD7
:10B24000214B13211888FFF7ABFF30F00803F5D02E
:10B250001E4A40F21631FCF7F3FEEFE71A4B1A884C
:10B260004FF6FF739A42E9D1194801F071FB30F0B3
:10B270000803E3D0154A4FF44871ECE71549164826
:10B28000114E154D154C02F057FDADF806003388F0
:10B290000DF106022946204602F03AF90028F6D1BF
:10B2A000CCE70F490C48084E0B4D0C4C02F044FD06
:10B2B000ADF8060033880DF106022946204602F05B
:10B2C00027F90028F6D1B9E7CE2D0020A0F0020022
:10B2D000483A00202BF10200983F0020D02D00209A
:10B2E0003DF102000388212B13B5044648D007D84E
:10B2F000112B36D0132B50D0102B11D002B010BD13
:10B30000522B57D0562B62D03B2BF7D1808813217C
:10B31000FFF746FF0028F1D0324A40F2B1211DE08C
:10B32000314B32483249C01AC008000440F00300D3
:10B33000FCF76EFB0720FFF721FE20B1294A40F2FF
:10B340008921FCF77DFE2B4BA1882B48198001F049
:10B3500069FF0028D2D0234A4FF42371FCF770FE16
:10B36000CCE7214B21482549C01AC008000440F011
:10B370000300FCF74DFB1F4B4FF6FF721A80BDE731
:10B3800000238088ADF8043001A9FFF711FF0028E1
:10B39000B4D0144A40F29E21E0E71648002300880A
:10B3A0001A468521FFF702FF0028A7D00D4A4FF467
:10B3B0002971D3E70F48002300881A461946FFF782
:10B3C000F9FE00289AD0074A40F2AA21C6E78088F1
:10B3D0001321FFF7E5FE002890D0024A4FF42E71AA
:10B3E000BCE700BFA0F0020028E7020058E7020017
:10B3F0004FF10200CE2D00208C3F002059F10200B9
:10B4000008B5037863B9074B3B211888FFF7C8FEDE
:10B4100030B1BDE80840044A40F22921FCF710BED3
:10B4200008BD00BFCE2D0020A0F002000D4B4A88C1
:10B430001B889A4214D10A8840F677239A420FD18A
:10B440008B88094A09480A49033B9BB21380094A81
:10B45000801AC00800041A4640F00300FCF7E5BA61
:10B46000704700BFCE2D0020CC2D002058E70200F1
:10B4700066F1020028E7020008B560B103280ED18A
:10B480000220FFF77BFD50B1BDE80840044A4FF4AD
:10B490001C71FCF7D5BDBDE80840FFF7A1BE08BD93
:10B4A000A0F00200F7B50378012B3DD0022B34D079
:10B4B0008BBB1F4C1F4D20782844FDF7DFF8237805
:10B4C0000133DBB21D44237015F8012C0A2A05D084
:10B4D0000D2A03D0184A12889A421CD8012B18D979
:10B4E000164D144E164F2378ADF806300DF10602B6
:10B4F0002B883146384602F00BF8082809D013286B
:10B50000F1D0052805D020B10E4A40F25231FCF7A7
:10B5100097FD0023237003B0F0BD0A4A4FF4577122
:10B520004068FCF78DFDF6E7064A4FF45871F7E7DF
:10B53000463A00201E370020CC2D0020CE2D0020C2
:10B54000D02D0020A0F0020038B503780446F3B9EE
:10B550000F48104B1049114D1B1ADB081B0443F018
:10B560000300FCF755FA0120FDF7DEFFA28A2169EE
:10B57000284602F0B0FCA08AC31CF72B04D8084967
:10B580000322284402F0A7FC064B01221A7038BDA2
:10B5900028E7020058E7020082F10200903E0020F6
:10B5A000FAF202001D37002038B54FF0A0434FF0EB
:10B5B0000042C54CC3F80C252278002A40F0848054
:10B5C000C24B93F882100131197093F88610023142
:10B5D0001971997904319971197A03311972197BAA
:10B5E00003311973D97A0131D972997B0731997373
:10B5F000197C07311974197D03311975997D07314B
:10B600009975197E07311976197F03311977997F5A
:10B610000431997793F82010043183F8201093F8BF
:10B620002410013183F8241093F82610013183F897
:10B63000261093F82810013183F8281093F82C1065
:10B64000013183F82C1093F82E10013183F82E105D
:10B6500093F83010013183F8301093F83410013131
:10B6600083F8341093F83610013183F8361093F8CC
:10B670003810013183F8381093F83C10013183F809
:10B680003C1093F83E10013183F83E1093F84010BF
:10B69000013183F840100132D2B2032A227012D154
:10B6A0008B4D8A492A888B4802F015FC00232370B1
:10B6B000894C23683BB9894B86491B8888482A46B0
:10B6C00001F026FF206038BD012A76D17F4B197822
:10B6D000013183F841101979023183F845109979C5
:10B6E000043183F84710197A033183F84910197B24
:10B6F000033183F84D10D97A013183F84C10997BCE
:10B70000073183F84F10197C073183F85110197DE8
:10B71000033183F85510997D073183F85710197E4E
:10B72000073183F85910197F033183F85D10997F31
:10B73000043183F85F1093F82010043183F861100E
:10B7400093F82410013183F8651093F82610013125
:10B7500083F8671093F82810013183F8691093F883
:10B760002C10013183F86D1093F82E10013183F8FD
:10B770006F1093F83010013183F8711093F8341082
:10B78000013183F8751093F83610013183F8771082
:10B7900093F83810013183F8791093F83C10013197
:10B7A00083F87D1093F83E10013183F87F1093F8F1
:10B7B0004010013183F881106DE7022A7FF46BAFEE
:10B7C000424B93F84110013183F8821093F84510F1
:10B7D000023183F8861093F84710043183F88810FB
:10B7E00093F84910033183F88A1093F84D10033110
:10B7F00083F88E1093F84C10013183F88D1093F874
:10B800004F10073183F8901093F85110073183F8E7
:10B81000921093F85510033183F8961093F857104F
:10B82000073183F8981093F85910073183F89A106C
:10B8300093F85D10033183F89E1093F85F10043184
:10B8400083F8A01093F86110043183F8A21093F8E4
:10B850006510013183F8A61093F86710013183F861
:10B86000A81093F86910013183F8AA1093F86D10AD
:10B87000013183F8AE1093F86F10013183F8B010E6
:10B8800093F87110013183F8B21093F875100131FB
:10B8900083F8B61093F87710013183F8B81093F855
:10B8A0007910013183F8BA1093F87D10013183F8D3
:10B8B000BE1093F87F10013183F8C01093F8811007
:10B8C000013183F8C210E6E60B430020422C002031
:10B8D000402C0020052D0020D8360020CE2D002041
:10B8E000D02D00204FF0A0434FF00042C3F80825B0
:10B8F0007047000070B5374B374C01221A70FFF7C4
:10B90000F1FF2378022B17D1344B35483549364E99
:10B91000364DC01AC008000440F00300FCF778F868
:10B9200000232370324C338832482A46214601F0E6
:10B93000EFFD0028F7D170BD032B0CD1274B284811
:10B940002D49C01AC008000440F00300FCF760F85D
:10B9500000232370EFE7042B1CD1204B20482749FC
:10B96000214E274DC01AC008000440F00300FCF728
:10B970004FF8002323701D4C1D492288204802F0F7
:10B98000AAFA33881B482246294601F0C1FD002847
:10B99000F7D1D0E7012BCED11A4A13780133DBB2AD
:10B9A000032B1370C7D10D4B0D48174C1749C01A04
:10B9B000C008000440F00300FCF72AF82368002BBD
:10B9C000B9D1094B124A1B8812490A4801F0A0FD5F
:10B9D0002060B0E70C430020C842002028E70200A6
:10B9E00058E70200B4F10200CE2D0020F42D002013
:10B9F000C9420020D02D0020C7F10200DBF1020077
:10BA0000DC3600200B430020D8360020F6F102007F
:10BA1000402C0020052D002008B5FCF733FC28B190
:10BA2000BDE80840024ACD21FCF70ABB08BD00BFB3
:10BA3000A0F0020007B51649164801F0C7FA20B178
:10BA4000154A4FF43C71FCF7FBFA1248FB2101F058
:10BA5000D0FA20B1104A40F2F321FCF7F1FA0021AC
:10BA60000822684602F060FA9DF80030694643F00B
:10BA7000010302208DF80030FFF79EFB20B1064A3B
:10BA800040F2FE21FCF7DCFA03B05DF804FB00BFD6
:10BA90002DB402007C3E0020A0F0020080B5B44D21
:10BAA0000FCDB0B005AC0FC495E80300B14BB24A5E
:10BAB00001934FF4807384E80300CDE903230293DC
:10BAC000AE4A072301A905A8FCF780FD20B1AC4AC6
:10BAD0004FF46071FCF7B4FA4FF0A0430322A94D74
:10BAE000C3F87C27FFF7FEFE0FCD05AC0FC42B6813
:10BAF00023604FF000430793FF238DF8223001238A
:10BB00008DF82430A04B0593A04AA148002305A935
:10BB10008DF81830FEF780FF20B1994A40F2DD31F0
:10BB2000FCF78EFA9B4B01224FF4804100201A70E3
:10BB3000FBF7B8FD20B1924A4FF46E71FCF780FA22
:10BB4000FBF7E6FCFFF768FF93490320FFF722FAB3
:10BB500020B18B4A40F2AA31FCF772FA05A9002005
:10BB6000FFF7FEFA20B1864A40F2AD31FCF768FAE1
:10BB7000FDF7EAFA20B1824A4FF47171FCF760FADE
:10BB800001F048FD20B17E4A40F2CB21FCF758FA83
:10BB9000002305A90120059301F0D0FD20B1784ACA
:10BBA00040F2D121FCF74CFA05A801F0B1FE20B11A
:10BBB000734A40F2D521FCF743FA112377488DF8F8
:10BBC000043002F02DFA754982B201A8FFF7ECFAB1
:10BBD00020B16B4A4FF48571FCF732FA002108223C
:10BBE00005A802F0A1F96E494FF0C87305A8CDE988
:10BBF0000513FFF7D7FA20B1614A4FF48A71FCF7B9
:10BC00001FFAFFF717FF674B6748059305A901F077
:10BC1000F7FA20B15A4A40F20B21FCF711FA04223C
:10BC200000210DEB020002F07FF9604B60480193A8
:10BC300001A901F0F3FB20B1514A40F21321FCF7B6
:10BC4000FFF9AC22002105A802F06EF902238DF85D
:10BC500014304FF4A063574AADF816300123ADF805
:10BC6000603019928DF89030402244F25063CDE953
:10BC700027235148514B2E9305A900F0ABFC20B16E
:10BC80003F4A40F29B31FCF7DBF94B48012100F0C1
:10BC90009EFC1C22002105A802F046F900234FF467
:10BCA000A032CDE90532ADF822304FF4F0228DF804
:10BCB0002430434B07920A930322424B8DF82020F5
:10BCC00005A80B9300F060FF20B12D4A40F24B21F4
:10BCD000FCF7B6F901213C4A3C48FCF705FB364825
:10BCE000032100F0EEFC20B1254A40F2ED31FCF7D3
:10BCF000A7F9FFF7F7FD364C364B374F374EE41AAE
:10BD0000E408240444F00304DFF8E880FBF724FD92
:10BD100008B9FDF72FFA3B78002B78D00023414675
:10BD20002F483B7002F03EF82E4902460546204659
:10BD3000FBF772FE2C49284602F04BF98146002899
:10BD400079D12A492046FBF763FE4146484602F076
:10BD500029F802F0B0F8012803D0022801D0002809
:10BD600067D1FDF7E1FB224B1B88ADF8143043E0AF
:10BD700000F30200C841002030430020A5B40200B7
:10BD8000A0F0020018F3020003041CFFF5B8020043
:10BD900030F302000C43002021B202001DF2020029
:10BDA00006002800C1B102008C3F002049B5020006
:10BDB000D02D0020C82D0020483A002079B4020080
:10BDC00001B40200D1B10200A9B5020038F30200AB
:10BDD00058E7020028E702001D370020C842002073
:10BDE000903E002029F2020035F2020039F20200F2
:10BDF0002CF302002EF302003E4B05A91888FFF732
:10BE0000D7F93D48FB224FF6FF7101F0FEF8337879
:10BE1000012B7FF47BAF394D2B68002B3FF476AFBD
:10BE2000344B374A1B883749374801F071FB28608B
:10BE30006AE7032095E73549284602F0CAF88146AB
:10BE400078B920463249FBF7E3FD0123204631490A
:10BE50003370FBF7DDFD4A460F212F48FCF74FFA00
:10BE6000D5E72E49284602F0B4F848B920462849BB
:10BE7000FBF7CEFD022328483370FCF758FAC6E7DB
:10BE8000284627491B4D02F0A4F8F8B92549204659
:10BE9000FBF7BEFD244B28881B88ADF8143005A99C
:10BEA000FFF786F920B1214A40F2EF11FCF7C8F8FC
:10BEB0001148FB224FF6FF7101F0A7F80028A6D029
:10BEC0001A4A4FF4F971FCF7BBF8A0E71849194872
:10BED000DFF860A0DFF8309001F02EFFADF814001D
:10BEE0002B8805AA5146484601F012FB0028F7D1DD
:10BEF0008DE700BFCE2D00207C3E0020D8360020EC
:10BF0000402C0020052D0020D02D00204AF20200F8
:10BF100050F2020063F202001043002072F20200AD
:10BF200077F202007EF202002CF30200A0F0020081
:10BF300092F20200163800200369C1688B429DBF4F
:10BF40008268D21802F1FF3203F1FF3394BF501A16
:10BF5000581A70472DE9F843D0E902940546A9EB39
:10BF600004084068904520440F46144404D901F069
:10BF7000B2FFEC60BDE8F8834246A4EB090401F08F
:10BF8000AAFF6868224607EB0801F0E72DE9F843AD
:10BF9000C5680646894617464FF000083469B368FD
:10BFA0007068A54228BFE418013C621B5C1BBC42C0
:10BFB00028BF3C46944228BF14464946284422469E
:10BFC00001F089FFB3682544AB4208BF00253F1B41
:10BFD000A044A144F560E1D14046BDE8F8830000EB
:10BFE00010B5114C114AA2610223C4E90433104B6D
:10BFF000E361A2644FF400730E4A0F492362E264C6
:10C0000000231022E01DA3626362E362A3656365FF
:10C01000E365226501F0BBFF0849204601F0B7FF48
:10C020002023A37110BD00BF304400203CF3020068
:10C03000B8440020A844002045F3020049F3020060
:10C04000F8B5184C182300FB033503FB00402544CA
:10C05000C46A012C0F4616460FD0022C1AD0F4B930
:10C060002846FFF769FF864205D8324639462846FA
:10C07000FFF770FF34462046F8BD2846FFF75CFF07
:10C080008642344628BF0446224639462846FFF7F2
:10C0900061FFF0E72846BDE8F840FFF777BF0024CE
:10C0A000E9E700BF30440020FFF79ABF6DDF70471B
:10C0B00079DF70477DDF704764DF70472DE9F04F0F
:10C0C00085B000250E9CBDF83CB0B4F800A00191ED
:10C0D000074690461E46A9463A884A450DDC45B1BA
:10C0E0002388013BA3EB0A039BB2FF2B3AD806F847
:10C0F0000A30002005B0BDE8F08F7A6852F82900B8
:10C10000039000220DF10B0103A8FFF7D5FF0028D3
:10C11000F0D19DF80B20424521D12288002D14BF7B
:10C120000020022002EB0801014459451ADC3DB908
:10C13000013292B2019B2280B354228801322280C4
:10C1400022880DF10B01324403A8FFF7B5FF002848
:10C15000D0D121889DF80B200A442280012509F1C5
:10C160000109B9E70C20C5E72DE9F341089FBDF8A7
:10C1700024801546CDE90078022204461E46FFF7CA
:10C180009DFF50B93346102229462046CDE9087854
:10C1900002B0BDE8F041FFF791BF02B0BDE8F08109
:10C1A0002DE9F04F00231788138090F82D3085B0CB
:10C1B00006460D46144653B3082F01D80C2027E13C
:10C1C00002A8FFF773FF002840F02281238808228D
:10C1D000EA54238801339BB21B222380EA5420882F
:10C1E000013080B2208006220DF10901284401F0BF
:10C1F00072FE23889DF8082006339BB212F0FE02DF
:10C2000018BF01222380EA54238801332380B378A6
:10C21000FBB123880433BB42D0D802A8FFF748FF04
:10C22000002840F0F58023880322EA542388013354
:10C230009BB219222380EA542388BDF808200133D9
:10C240009BB2E9182380EA54120A4A702388023309
:10C250002380F2789AB12388D91CB942AED8022142
:10C26000E954238801339BB201212380E9542388B8
:10C270000B449BB22380EA5423880B4423807268CA
:10C28000AAB12388D91CB94298D8022192F900207A
:10C29000E954238801339BB20A212380E95423887F
:10C2A00001339BB22380EA542388013323803389EE
:10C2B000002B40F0A180338A5BB1CDE900472B46CB
:10C2C0000722032106F11000FFF74EFF002840F07F
:10C2D0009F80338B5BB1CDE900472B46152214219B
:10C2E00006F11800FFF740FF002840F09180326A05
:10C2F000002A40F09080D6F82480B8F1000F30D0AA
:10C30000B8F804302188981C8A1C0244BA423FF6CF
:10C3100055AFFE283FF652AF03336B5423880133E9
:10C320009BB2FF222380EA54238801339BB22380EF
:10C33000B8F80020EA54E918120A4A70208802303E
:10C3400080B22080B8F804205AB1D8F8081000292B
:10C350006BD0284401F0BFFD2388B8F804201344B3
:10C36000238096F82C30002B40F09A8030780028FB
:10C370004ED03388012B58D0228802F1020CBC45E4
:10C380003FF61CAF012805D17378023313449F4256
:10C39000FFF414AF023FBF1ABFB202A905EB0C00B5
:10C3A000ADF80870FFF786FE90BB3178BDF8083015
:10C3B000022900F0BA8072789A4202D3BB4240F25E
:10C3C000B280012940F0B380974293B2C0F0AF80B1
:10C3D000ADF808300821BDF80830FE2B3FF6EEAE70
:10C3E00022880133AB542288013292B22280A954B0
:10C3F0002288134423800BE0CDE900472B46062218
:10C40000022106F10800FFF7AFFE00283FF453AF0A
:10C4100005B0BDE8F08FB4F800C00CF10603BB42D4
:10C420003FF6CCAE1188052901D80720F0E76FF45C
:10C43000486E01EB0E039BB24FF27D3E7345F4D97B
:10C440005388052BF1D96FF44860181880B27045F5
:10C45000EBD94FF6FF70814203D0834201D099425D
:10C46000E3D8052305F80C30238801339BB2122151
:10C470002380E954238801339BB223801188E95437
:10C48000E818090A4170238802339BB2238052883E
:10C49000EA54E918120A4A702388023323802AE7F3
:10C4A000B36A002BC1D04FF000094FF00C0A4FF0D7
:10C4B000160B96F82C305FFA89F293427FF656AF4E
:10C4C000B16A0AFB02F201EB0208B8F80430981CCA
:10C4D000FE283FF673AE208803332B5423880133A4
:10C4E0009BB2238005F803B0238801339BB22380DD
:10C4F0008A5AEA54E918120A4A702088023080B237
:10C500002080B8F804205AB1D8F8081000298CD03F
:10C51000284401F0E0FC2388B8F804201344238069
:10C5200009F10109C5E7092155E7BB42FBD9ADF87F
:10C5300008704FE770B5E8B14AB116880024B442DC
:10C5400003D305196D789D4208D0A14201D800207F
:10C5500010E0055D01352C44A4B2F0E7A142F6D904
:10C56000005D0138A31C80B29DB210FA83F38B42A8
:10C57000EDDC158070BD13B513460022ADF8062022
:10C580000DF106020446FFF7D5FF10B1BDF80630E5
:10C59000E01802B010BD72DF704773DF704774DFC0
:10C5A000704738B5012204460D46B0F81414D0F88F
:10C5B0001004FFF7E0FF00B1057004F13C0204F540
:10C5C000826104F15400BDE83840FFF7E4BF80F811
:10C5D00030107047F8B504460F4600296DD000288A
:10C5E0006BD091F87A301BB191F89830002B66D15E
:10C5F0004FF0000C84F802C007F178060FCE251D1D
:10C600000FC50FCE0FC596E8070085E8070084F830
:10C6100030C0D7F8A4306363D7F8A830A3634FF6CF
:10C62000FF7504F58263C4F82034A4F8245407226B
:10C63000614604F2264001F077FC23780BB984F8B8
:10C64000545094F82430002B14BFEE231F2304F120
:10C650005501C4F81014A4F8143404F214423846F6
:10C66000FFF79EFD40BB94F82430002B14BFEE234F
:10C670001F2304F23121C4F81814A4F81C3404F266
:10C680001C4207F13C00FFF78BFDA8B9A369A4F891
:10C6900048304FF480730125A4F85030636920645A
:10C6A000014684F83C50636404F13C0204F15400F8
:10C6B000FFF771FF00B92570F8BD0E20FCE70720D9
:10C6C000FAE7F8B5077804460D46002F00F0098117
:10C6D00000F22646817007220021304601F024FC3A
:10C6E000E38813B1A378012B04D0E3794BB1A3788D
:10C6F000022B06D1636BA3B1012284F82D240820FC
:10C700009847334604F22C4113F8012F12B999428D
:10C71000FAD117466B1E032B57D8DFE803F0050B41
:10C720000F1284F82D34ECE7A3791BB194F8243070
:10C7300003B95FB9E3790BB1002F48D1237A002BFD
:10C7400047D1637A002B0CBF00250425636BA570CD
:10C75000002B40D0033D012D3DD86279002A3AD00C
:10C7600094F82E24002A36D184F83024012284F84B
:10C770002F240720984704F13C0518220021284661
:10C7800001F0D2FBE26A0123511E994284F83C3049
:10C7900001D9042A00D1D3B294F8242084F851306E
:10C7A00042B1A36A591E012902D9042B18BF0123E3
:10C7B00084F85230A178002384F8503004291BD823
:10C7C000DFE801F0770D223559000025BEE702258C
:10C7D000BCE70325BAE7002384F82F34CBE7C4E98C
:10C7E0001063C4F820340223012284F83C308023F3
:10C7F00084F83120A4F84830A378002B5CD1636B17
:10C80000002B6AD1002067E00223002A84F831302F
:10C8100014BF0723032384F83C302369A4F848306D
:10C820000023C4F82034E36826646364E4E76369A2
:10C830006364A369A4F8483012B1062384F83C303D
:10C840006379B3B194F82E349BB994F8303483B142
:10C85000022384F8503004212046FFF7A2FE00286E
:10C86000CAD1052384F8313004F58263C4F820343A
:10C87000C2E70323F6E7E3696364236AA4F8483058
:10C8800012B1062384F83C30637983B194F82E34D6
:10C890006BB994F8303453B1022384F8503004213A
:10C8A0002046FFF77EFE0028A6D10623DAE7042300
:10C8B000D8E784F831309FE7D4F820142A4604F1F1
:10C8C0005400FFF768FE38B994F8301094F854001B
:10C8D000FFF763FE002892D0F8BD94F83100984726
:10C8E00090E70820F8E70388112B10B50C460AD012
:10C8F000262B1FD0102B05D1C37B012B02D183889F
:10C90000A1F8243410BD0022838881F82E24B1F8C8
:10C9100024249A42F6D10B79002BF3D10121204631
:10C92000FFF7CFFE0028EDD0A36B002BEAD0BDE8C7
:10C9300010401847037A013B012BE3D8897805237F
:10C940000131B1FBF3F303EB8303C91AC9B2E6E784
:10C9500038B5044690F85400FFF721FE012384F80F
:10C960002E34002384F8303484F8503006212046D9
:10C97000FFF717FE054638B9A1782046FFF7A1FE5C
:10C9800010B1A36B03B19847284638BD75DF7047D7
:10C9900076DF70477ADF70477BDF7047034B1A887A
:10C9A00082420CBF18460020704700BFD4460020CA
:10C9B000024B9B6903B11847704700BFB84600207F
:10C9C00073B585B22846FFF7E9FF044670B1164EED
:10C9D000027A337B9A420BD200F10A012846FFF714
:10C9E000D5FFE8B1112801D0FFF7E2FF02B070BD1A
:10C9F00000230372337C43B13B212846FFF7C8FF75
:10CA000030F0080301D0FFF7D3FF7369002BEDD09E
:10CA100000228DF80420ADF8065001A89847E5E7FC
:10CA2000237A01332372E1E7B846002037B50B467D
:10CA3000497A0F4A71B9D2E901141D7A0246002DD4
:10CA400018BF21465868FBF75AFC08B1FFF7B0FF42
:10CA500003B030BD002119725369002BF8D00122B8
:10CA6000ADF806008DF8042001A89847F0E700BF54
:10CA7000B84600204B8802889A4213D842889A42CE
:10CA800010D380888A8840F2F313984294BF031A27
:10CA9000C31A934206D800F2F310904234BF00202C
:10CAA00001207047002070470388122B70B50146A3
:10CAB00059D004D8102B1ED0112B44D070BD502B50
:10CAC000FCD12F4BC288DB899A42F7D1038A022B13
:10CAD000F4D186883046FFF761FF05460028EDD087
