:020000022000DC
:1070000000000420757302005D73020035AF0200BA
:1070100061730200637302006573020000000000E8
:107020000000000000000000000000006773020084
:1070300069730200000000006B7302006D730200B0
:10704000D1D902006F73020005BB02006F7302000A
:107050006F7302006F73020055B902006F73020074
:107060006F7302006F7302006F7302006F73020090
:107070006F7302006F7302006F7302006F73020080
:107080006F730200D18702006F7302006F730200FA
:107090006F7302006F73020021FD02006F73020024
:1070A0006F7302006F7302006F7302006F73020050
:1070B0006F7302006F730200000000000000000008
:1070C0006F7302006F7302006F7302006F73020030
:1070D0006F7302006F7302006F730200ADD4020081
:1070E0006F7302006F7302006F73020000000000F4
:1070F000000000006F730200000000006F730200C8
:10710000000000000000000000000000000000007F
:10711000000000000000000000000000000000006F
:10712000000000000000000000000000000000005F
:10713000000000000000000000000000000000004F
:10714000000000000000000000000000000000003F
:10715000000000000000000000000000000000002F
:10716000000000000000000000000000000000001F
:10717000000000000000000000000000000000000F
:1071800000000000000000000000000000000000FF
:1071900000000000000000000000000000000000EF
:1071A00000000000000000000000000000000000DF
:1071B00000000000000000000000000000000000CF
:1071C00000000000000000000000000000000000BF
:1071D00000000000000000000000000000000000AF
:1071E000000000000000000000000000000000009F
:1071F000000000000000000000000000000000008F
:10720000354936480A1A02D0072291438D4634493F
:1072100034480A1A06D00722914381F309880222D2
:1072200082F3148830483149314A00F044F831483B
:107230003149324A00F03FF831483249324A00F0D1
:107240003AF832483249334A00F035F83248334987
:10725000334A00F030F833483349344A00F02BF811
:1072600033483449344A00F026F83448344900227F
:1072700000F02CF833483449002200F027F8334856
:107280003349091A082902DB002202604160314AB1
:1072900090471F481F49884205D00268043003B454
:1072A000904703BCF7E700208646EC46002000210B
:1072B000294A9047FEE7884207D0521A05D0037842
:1072C00001300B700131013AF9D17047884202D088
:1072D00002700130FAE770470000042000E003204C
:1072E0000000042000000420C4240300602A0020C1
:1072F00098300020D0730200D0730200940A03007B
:10730000C4240300602A0020602A00201C0C030013
:107310001C0C03001C0C03001C0C03001C0C0300C1
:107320001C0C03001C0C03001C0C0300C3240300F2
:10733000FC2A03009830002098300020983000206C
:107340002CC600202CC600202CC600202CC60020F5
:107350002CE600209D73020069E40200FEE7FEE7D0
:10736000FEE7FEE7FEE7FEE7FEE7FEE7FEE7FEE7F5
:1073700000F002B8FFF7FCBF0F484FF00701884349
:1073800085460E4880470E48016841F4700101604F
:10739000BFF34F8FBFF36F8FFFF732BF09480A4922
:1073A0000A4A884207D0521A05D0037801300B7080
:1073B0000131013AF9D170470000042089AF020081
:1073C00088ED00E01C0C0300602A0020602A0020E9
:1073D0007047000007B5044B0093044A402300F0B7
:1073E00032F803B05DF804FBF1730200993000201D
:1073F0002DE9F84388461446B2B10F4B0F4E0325D2
:10740000002743F00109224608EB0701002007F09E
:107410008DF90744241A48B933782BB14FF47A40D8
:10742000C847013D02D13570BDE8F88301233370B0
:10743000002CE8D1F8E700BF200C030098300020B2
:10744000704707F0A7B9F0B595B01D461646084637
:107450000C4601F0E3FD1A9B0D93CDE9086500256C
:107460002B46082205A920460A958DF82C500C952C
:1074700001F0F1FD079B0293069B03939DF81430E6
:107480008DF8115003F00302012A1DD1BDF814201C
:10749000059DC3F3C203C2F383168DF81030B2000A
:1074A00008230EA9204601F0D6FDC5F3952508ABAB
:1074B0000093324602AB0EA9284600F07BFB204623
:1074C00001F0B0FD15B0F0BD022AF8D1BDF816509C
:1074D000C3F3C203C5F389158DF810300827082DB2
:1074E0002E4628BF08263B4632460EA9204601F00C
:1074F000B2FDAD1B08AB02AA31460EA8374400F01E
:10750000BDFB002DEBD1DAE738B50A4DFFF799FF47
:107510000421284600F0B6FA074B01245C7100F004
:1075200087FC042105F1100000F0ACFA034B5C71FC
:1075300038BD00BFFC0B0300602A0020682A002031
:10754000037813F0040216D003F00303012B03D0D9
:10755000022B09D0012070470A6800880232C0F36C
:10756000831002440A60F5E70B684288023303EB9C
:1075700092130B60EEE71046704700002DE9F04FC4
:1075800087B000230446861C0DF107000F46154600
:107590008DF8073000F0ACFF454801683960D0E94C
:1075A0000132134401335B1A824600F21C4700F596
:1075B000836900F21448B3421CD30020002D73D01D
:1075C00004F00F039B0143F0050363F30F00DAF8A7
:1075D0000020DAF808301340033316444AF8230039
:1075E0009DF80700CAF8006000F0A6FF012007B070
:1075F000BDE8F08F0121384601F02DFA484601F030
:1076000050FA404601F04DFADAF80400DAF808B012
:10761000029000EA0B0003300AEB800002A9FFF79A
:107620008FFF029B50BB0BEA03020AEB820203F1BD
:10763000020CD2680392013303EA0B0B0AEB8B0BAB
:1076400002F00302012ADBF80C10CDF808C023D0A9
:10765000022A16D08346404601F026FA10B1029B5A
:10766000CAF804305946384601F0F5F9DAE9012341
:107670001344DAF8002001339B1A9CE70BEA03005D
:10768000C9E7BDF80E30C3F3891303334FEA114B3A
:107690000CEB93030293DEE7BDF80C30C3F38313C6
:1076A0004FEA114B6344F5E7A40544F006008EE76A
:1076B000AC3100200B4B0C48FF2210B59A60002221
:1076C000C3F81824C3E90022C3F8142483F8202443
:1076D00001F05DFC044610B9044801F01BFE204691
:1076E00010BD00BFAC310020680B03006C0C030020
:1076F00030B50A4C71B10A4A0A49121BD20800235C
:107700009A4201D1002030BD31F82350854202D089
:107710000133F5E7034654F83300F4E7A80A030001
:10772000680B0300602A0020094B013903EBC000FD
:10773000032909D8DFE801F00A0204060420704793
:1077400000797047407970470020704702207047E9
:10775000A80A0300034BD3E90030C31A584258412A
:10776000704700BFAC3100202DE9F04387B0FFF730
:10777000F1FF0646002840F0F9807D4DC5F8180459
:10778000BFF34F8F6B68AC6802932340033305EB64
:10779000830002A9FFF7D4FE029B18B1D5F8182484
:1077A000002A5FD004EA0302991C013305EB820230
:1077B000234005EB8303D268DB68049302F00303E4
:1077C000022B0392029160D1BDF80E306948C3F3D9
:1077D0008917502FB84628BF4FF0500868F38F1311
:1077E00008F10801ADF80E3001F0E9FB064600286B
:1077F00000F0A78001F012FC0023082203A9304604
:1078000001F01FFC029924EA01020132B8EB820F59
:107810004FEA820332D95FFA88F85BB32140DCB2C9
:10782000A8EB040803315FFA88F9A046524C05EB37
:10783000810108234246304601F003FC34B108F1CF
:1078400008034A462146304601F0FBFB029B033702
:1078500003EB97070297D5F81834002B49D1D5F8D8
:10786000104459E02A689A428FD86A60304607B0BF
:10787000BDE8F08340491C469946DAE70C40E11C1C
:107880000823424605EB8101DDE7012B59D1BDF804
:107890000C303848C3F38311062928BF062161F351
:1078A000891302318900ADF80C3001F088FB0646DF
:1078B000002846D001F0B2FB0023082203A930467D
:1078C00001F0BFFB0027BDF80C20C2F38312BB0000
:1078D000974203F10803BED202994A1C21400331AA
:1078E000029205EB81010422304601F0AAFB013728
:1078F000E9E7304601F096FBFFF72CFF80F001002E
:10790000C6B2B3E7E3685B7923B1236831461B68ED
:1079100020469847E3681C68002CF3D1304601F0FC
:1079200081FB0DF107008DF8074000F0E1FDD5F86F
:1079300018340BB9029B6B609DF8070000F0FCFD4A
:10794000DAE7D5F8104454B90C4B0D480D49C01A6C
:10795000C008000440F0020000F062F8CCE72368A1
:1079600020469B689847E3681C68ECE700267DE7A3
:10797000AC310020680B0300B8310020A80A0300D6
:10798000D80A0300550C03002DE9F74F224D044699
:107990000F46924601A901221846D5F808909B4649
:1079A000FFF7ECFD20B3019E4FF00008B21CD84554
:1079B00008EB020126D11948002101F029F880F3D3
:1079C0001000000440EA1440E400731C04F0380482
:1079D00003EA090306EA090644F0010405EB830300
:1079E000033644EA881444EA8724D86045F82640E0
:1079F00095F820341BB1FFF7B7FE0028FBD103B088
:107A0000BDE8F08F09EA010105EB81015AF8283041
:107A1000CB6008F10108CAE7AC310020C83500206E
:107A200000231A46FFF7B0BF07B50123019201AA50
:107A3000FFF7AAFF03B05DF804FB07B5CDE900230B
:107A400002236A46FFF7A0FF03B05DF804FB1FB5F1
:107A5000CDE90123069B039301AA0323FFF794FFBB
:107A600005B05DF804FB1FB5CDE90023069B02932A
:107A7000079B03936A460423FFF786FF05B05DF872
:107A800004FB000030B50F49D1F810240346002054
:107A9000144634B9DC6820714AB9C1F81034226048
:107AA00030BDE4682579854206D02468F1E7D268C4
:107AB000116821601360F3E701300A28E8D14FF024
:107AC000FF30EDE7AC310020094A38B50123D2F888
:107AD000104482F820341D4604B938BDE3685D7156
:107AE000236820465B689847E3681C68F4E700BF9A
:107AF000AC31002007B503460846197A052911D094
:107B00005B7A2BB1094A0A49019001F030F80198DB
:107B10000849019001F02BF8019803B05DF804EBDF
:107B200001F01AB8002AF8D0F2E700BF780C030081
:107B30007D0C03009D0C030030B5C38885B004465E
:107B40000D4633B1144A00921449154A284601F0F3
:107B50000EF8217A05291DD0637A4BB1A088FFF772
:107B6000E3FD104B104953F82020284600F0FFFF9A
:107B7000227A0E4BA08853F8222003920021FFF7AF
:107B8000B7FD039A0A490346284605B0BDE83040D0
:107B900000F0EDBF05B030BD780C0300880C030089
:107BA000800C0300040D03007D0C0300280D03006E
:107BB000A00C03002DE9F04385B01F460C9D002367
:107BC00095F80C902B7306460C469046294638468D
:107BD000FFF7B2FFB8F1060F09D8DFE808F004128A
:107BE000181F283340003146284600F0C0FF00220D
:107BF00029463846FFF77EFF85F80C9005B0BDE8B2
:107C0000F08322683146284600F0B1FFEFE7D4E95F
:107C100000233146284600F0AAFFE8E7A368009356
:107C20003146D4E90023284600F0A1FFDFE7E368EE
:107C30000193A36800933146D4E90023284600F05D
:107C400096FFD4E723690293E3680193A368009346
:107C50003146D4E90023284600F089FFC7E763696D
:107C6000039323690293E3680193A3680093314669
:107C7000D4E90023284600F07AFFB8E708292DE967
:107C8000F74F80460E4617461C463CD8002593F811
:107C90000C901D7319461046FFF74EFFDFF888A0C1
:107CA000DFF888B0AE4231D918F805205946204691
:107CB00000F05DFF0135082DF4D11949194DDFF8A9
:107CC00070A0204600F053FF4FF0000B5E4522D914
:107CD00018F80B207E2A05D81046019208F0A0FA69
:107CE000019A00B92E225146204600F040FF0BF1C8
:107CF000010BBBF1080FE9D1012221463846FFF7FD
:107D0000F9FE84F80C9003B0BDE8F08F5146204690
:107D100000F02DFFCEE72946204600F028FFE6E7D9
:107D2000B40C0300B20C0300B00C0300AA0C030057
:107D3000B60C0300014B01221A707047A9360020CF
:107D40007047000070B5124D06460FCD88B06C46E6
:107D50000FC495E80F00002E84E80F004FF0FF33AA
:107D60004FF00602CDE90023CDE90233094A0A4863
:107D70004FF0EB7308BF00226946069303F0C0FB87
:107D800008B100F0C5F9054B1E7008B070BD00BF0A
:107D90003C0D0300357D0200702A0020683600206B
:107DA00007B5044B0093044A4023FFF74CFB03B094
:107DB0005DF804FBBD7D02006936002038B50D4B2F
:107DC0000D4D002018700D4804782D5DD2B21C4670
:107DD00065B1043004F024FB08B100F099F9084BB8
:107DE0001A7812B12378002BFBD038BD0C3004F088
:107DF000D3F8F1E7A9360020343A0020702A002099
:107E00006836002008B50848084A0378D35C3BB1BF
:107E1000043004F09FFABDE808400020FFF792BF4D
:107E20000C3004F065F8F6E7702A0020343A0020A0
:107E30000120FFF787BF0000C30710B507D4F02368
:107E4000054A4008145C23401943115410BD090130
:107E5000C9B20F23F4E700BFD836002030B5094B74
:107E60001C78094B196800239C4202DC0022104652
:107E700030BD11F83350854201EBC302F7D0013316
:107E8000F2E700BFAA360020F836002013B50446FA
:107E90000191FFF7E3FF38B143682BB10199204608
:107EA00002B0BDE81040184702B010BD034B0448B3
:107EB00019680022490800F02ABA00BFAC36002039
:107EC000B036002010B5C0B2FFF7C8FF04460078F6
:107ED00003F032FD63785A1E53425341834208D166
:107EE000044BD3E90023134303D1BDE81040FFF74F
:107EF000DDBF10BDD036002037B54308354AD35C0E
:107F0000C2074CBF1B0903F00F0304460D46042BA8
:107F100035D8DFE803F003252C383C0079B3012184
:107F2000FFF78AFF00230DF107008DF8073000F0FE
:107F3000DFFA0120A4F12003C4F12001264A20FA2F
:107F400001F100FA03F30B43A040D2E900412043C2
:107F50000B43C2E900039DF8070000F0EDFA0EE0C4
:107F6000002918BF02212046FFF766FF07E041B154
:107F70000321FFF761FF01212046FFF787FF03B0D0
:107F800030BD0121EFE70029F9D10421EBE709B168
:107F90000321E8E7FFF750FF29462046FFF776FF69
:107FA0000DF107008DF8075000F0A2FA0120A4F1AE
:107FB0002003C4F12001084A20FA01F100FA03F37A
:107FC0000B43A040D2E9004124EA000021EA030368
:107FD000BFE700BFD8360020D03600202DE9F041A1
:107FE000124E134F00243378A34208DC114BD3E91F
:107FF0000023134318D0BDE8F041FFF757BF3D6899
:1080000005EBC40815F8340003F096FC98F801302D
:108010005A1E53425341181A4142414115F8340047
:10802000FFF76AFF0134DEE7BDE8F081AA360020E1
:10803000F8360020D0360020092AF7B505460C4650
:1080400016463CD903F0A0FBD8B11E4B1E481D605C
:108050001E4B1F4F1C701F4B002120221E6008F07A
:108060007AF91D4B00200021C3E90001013CE4B274
:108070000326FF2C0BD1194A1948002100F03CF9C6
:1080800003E003F04FFB0028DFD003B0F0BD9DF804
:10809000063015F834008DF8046005EBC40223F0B7
:1080A00007038DF8063001A993788DF805303A461C
:1080B00003F074FB013CE4B20028DAD0E5E70720C6
:1080C000E3E700BFF8360020D8360020AA360020AB
:1080D000C57E0200AC360020D0360020DD7F0200D5
:1080E000740D030070B5084D084E00242B789C4297
:1080F00001D3002070BD3368012113F8340003F070
:10810000CDFB0134F2E700BFAA360020F83600208C
:108110001FB50021039001AA44F20100CDE901112D
:1081200000F004F805B05DF804FB000010B572B66D
:10813000FFF7CAFCFFF718FB0028FBD1104B114CCE
:108140001149E41AE408240444F00100FFF768FC34
:108150000E4B1B68DB0700D500BE0D4944F0020042
:10816000FFF75EFCBFF34F8F0A490B4BCA6802F45E
:10817000E0621343CB60BFF34F8F00BFFDE700BF4A
:10818000A80A0300D80A0300780D0300F0ED00E010
:10819000840D030000ED00E00400FA05D0E902239D
:1081A000D1E90201994208BF90422CBF0120002072
:1081B0007047000008B50B4800F0F5FA0A4B0B4970
:1081C000D3E900231218D1E9000143F100038B42E7
:1081D00008BF824203D212F1807243F100031046BD
:1081E000194608BD842A0020003700207837002077
:1081F00037B505460C460A4801A900F094FB60B16A
:108200000570446001A9064800F0B7FB18B10548A5
:1082100000F0CEFA002003B030BD0420FBE700BF21
:1082200064370020842A002038B5184B1B78044698
:1082300013B90025284638BD0028FAD0037F03F083
:10824000FF05002BF5D0FFF7B5FFD4E902239942D3
:1082500008BF904214D3236903B92377D4E90530CA
:10826000984721690029E4D0237F03F0FF05002B04
:10827000DFD0D4E90223521843F10003C4E90223FA
:108280000348214601F065F8D4E700BF0837002015
:10829000A00D030013B5114B114918680190082374
:1082A0001048582200F02CFB044698B90E4A0F489B
:1082B00001A900F065F9044660B90C48012100F0FD
:1082C00055FA01230A4A0948194600F0B7F9094B43
:1082D00001221A70204602B010BD00BF9C0D0300A1
:1082E0000C3700206437002059830200842A0020C4
:1082F000FFFF7F00083700203AB103685A614A1E29
:10830000514251411961002070470720704738B52C
:10831000037F04460D4683B98261FFF74BFF236953
:10832000401941F10001C4E9020103B12561214670
:108330000020BDE83840FFF75BBF002038BD0023B8
:10834000014603770120FFF753BF0000014800F00A
:108350002ABA00BF842A00202DE9F04F85B080465C
:1083600000F00CFA40B15A4AD2E9003113F180739F
:1083700041F10001C2E900310021404600F00DFA50
:1083800038B1544E336823B13068FFF74DFF0023F6
:1083900033600121404600F000FA20B1FFF70AFFE8
:1083A0004D4BC3E900014D484A4F4D4EDFF838911F
:1083B00003A900F0F2FA002845D1DFF82491454ED8
:1083C000DFF828A1484600F0DAFF3368002875D0AE
:1083D0007BB13368D0E90201D3E90223994208BF97
:1083E00090422DD233681B7F1BB13168484600F0A4
:1083F000B0FF484600F0BDFFD0E902B30746019345
:10840000FFF7D8FE019BBBEB000463EB0105012CD9
:1084100075F1000345DBB4F5350F40D3FFF796FF48
:10842000304A02444FF496030021504600F026F9EA
:1084300000283ED1336813B9404600F0F7F83760A2
:1084400005B0BDE8F08F0378012B1DD0022B09D1B8
:108450004FF0000A304600F08CFF002834D080F83E
:108460001CA0F7E73BB941680B7F23B901230B77C9
:10847000304600F06EFF03A9184800F0B9FA03A9CE
:10848000164800F08AFA96E741683B68994202D1A3
:1084900000233B60EFE7304600F074FFEBE7BA687B
:1084A000C0E70021504600F06EF93846FFF7BCFEE9
:1084B00001E00D28F9D00023336083E7002BBFD102
:1084C000404600F0B7F8BBE7012389F80030D2E757
:1084D00000370020803700207837002064370020E4
:1084E000A00D0300FFFFB40008370020842A0020FD
:1084F00070B5EFF3108672B60C4A946801239CB9EC
:1085000093600B4B0B4DD3F8801029401160C3F8DA
:108510008050D3F8841051604FF0FF32C3F88420AC
:10852000047006B962B670BD0370FAE784370020A4
:1085300000E100E0FC06FFBD084B9A6810B55AB197
:1085400050B9EFF3108172B6054A1C6814605C687C
:108550005460986001B962B610BD00BF8437002036
:1085600000E100E0435882B03BB100234350435840
:108570000193019B012002B070471846FBE7000001
:10858000F8B5224B4579224E43F82520214A224B4B
:108590009B1A06EBC502DB0812791B04EF0032B10F
:1085A00043F002001D49FFF73BFA0820F8BD0268BE
:1085B0000C88C2F8084590F9044002798978002CAB
:1085C000ADBF04F1604CDFF85CC002F00F0E0CF59B
:1085D000614C4FEA4111C9B2B4BF0CF80E108CF8CF
:1085E000001364090121DFF840C002F01F0201FA04
:1085F00002F24CF82420F21946F83500117143F0CC
:1086000003000749FFF70CFA0020CFE79837002056
:1086100090370020A80A0300E80A0300AC0D03000D
:10862000CE0D030014ED00E000E100E0036801223C
:108630001A607047036801225A60704773B501F1F0
:108640005005AD000068ADB24FF480348C40002678
:10865000C0F80843C0F84843465101F5A871455990
:10866000019522F07F42019D40F82120C0F844434B
:108670000BB1C0F8044302B070BD00002DE9F74F04
:108680000D4622F07F4402684FF4803705F1500612
:108690008F408046B60002EB8500C2F84873B6B240
:1086A000C2F80873D2F8041599464FF0000BD0F8C1
:1086B0004035C0F8401542F806B05B1A9259009256
:1086C00023F07F43012B009A4FEA850A0CD1264BF9
:1086D0004FF4806043F001039847D8F8003043F826
:1086E00006B09B590193019BD8F80010D1F804659E
:1086F000C1F84473A31B23F07F43012B1CD11A4BF9
:1087000005F5A875013443F0010341F825404FF405
:1087100080609847D8F80030D3F804359E4209D1DC
:10872000D8F800300020C3F84473C3F8047303B0D2
:10873000BDE8F08F0D20FAE78A44C9F1FF13CAF8AB
:108740004045D1F80405221A013A22F07F4203F590
:108750007F439342EED3002AE2D10134CAF8404568
:10876000D1F804359842DAE7E00D030003680222ED
:10877000C3F8442309B1C3F80423704700684FF4D9
:108780008271FFF7EFBE4FF4803303FA01F1036803
:10879000C3F84813C3F808137047503189000068C4
:1087A00089B2FFF7DFBE0368D3F804057047000005
:1087B00090F9043001215A0903F01F0301FA03F371
:1087C0004032024941F82230704700BF00E100E02A
:1087D000024B034A1B681068184700BF98370020F7
:1087E00090370020BFF34F8F0549064BCA6802F44B
:1087F000E0621343CB60BFF34F8F00BFFDE700BFC4
:1088000000ED00E00400FA052DE9F3470546FFF707
:108810005BF9FEF7A9FF0028FBD12D4C2D482E4B0C
:10882000241AE40824049F6A44F00104002D49D06E
:10883000AA692A492046FFF7F7F8EB680193AB686D
:10884000274900932046D5E90023FFF70CF9EB698F
:1088500000932449D5E904232046FFF7F8F81E4B7E
:10886000DB6A990703D520492046FFF7D9F8DFF8DE
:108870008890DFF888A000264FF0010808FA06F378
:108880003B4206D059F826201AB151462046FFF740
:10889000CBF801361A2EF1D13A0605D50E4B134905
:1088A0005A6B2046FFF7C0F83B0405D50A4B104928
:1088B0009A6B2046FFF7B8F82846FFF793FF02B0FF
:1088C000BDE8F0870B492046FFF7AAF8C7E700BFCD
:1088D000280B0300A80A030000ED00E0E60D0300EA
:1088E000FB0D0300300E03008B0E0300DA0E0300B5
:1088F000FA0E0300580E0300D4130300CF0E03003A
:1089000010B561B1B2FBF3F403FB1424A4B244B973
:10891000C0E9001484608281C381204610BD0E200E
:10892000FCE70920FAE737B550E8013F9DB2C4895A
:1089300025448489A54228BF2D1B0489A54202BF76
:10894000BFF32F8F002207E0C5EA030540E801547A
:10895000002CE9D14FF001028DF803200193019B17
:108960009DF803200B6002F0FF0322B10B88006822
:10897000184403B030BD1846FBE70A884B889A427A
:1089800009D150E8012FC2EA024240E80123002B3E
:10899000F7D1012070470020704737B550E8023FFB
:1089A0001FFAA3F5C488A54202BFBFF32F8F002290
:1089B0000DE0C48925448489A54228BF2D1BC3EA44
:1089C000054540E80254002CE8D14FF001028DF833
:1089D00003200193019B9DF803200B6002F0FF032D
:1089E00022B14B880068184403B030BD1846FBE73D
:1089F0000A884B889A4209D150E8022FC2EA2242E3
:108A000040E80223002BF7D1012070470020704777
:108A100010B5034653E8000F0A4643E8002494F0DB
:108A2000000FF7D110BD10B5034653E8002F42EAFE
:108A3000010043E8000494F0000FF6D110BD10B51A
:108A4000034653E8000F00EA010243E8002494F0D3
:108A5000000FF6D110BD10B5034653E8002F02EB0E
:108A6000010043E8000494F0000FF6D110BD10B5EA
:108A7000034653E8002FA2EB010043E8000494F002
:108A8000000FF6D110BD10B5034653E8002F8A42FF
:108A90002CBF501A104643E8000494F0000FF4D1A4
:108AA00010BD0121FFF7BFBF0021FFF7C8BF10B500
:108AB00090B1D0E9012301689B1ADBB20A60013B47
:108AC000DBB2FF2B026802D10020107110BD1168CB
:108AD0004C1C14600B70F2E70E20F7E737B5054623
:108AE00000240DF107008DF80740FFF701FD2A680B
:108AF0006B68116899420ED9481E106011F8014C3C
:108B0000EB68298A01FB0434AB6811791B1ADBB2CC
:108B1000994238BF13719DF80700FFF70DFD2046FD
:108B200003B030BD37B5054600230DF107000C46F4
:108B30008DF80730FFF7DCFC2A681368591C1160B8
:108B4000E968641A298AB4FBF1F41C709DF80700E7
:108B5000FFF7F2FC03B030BD826810B504462AB1BD
:108B600043690168006998470023A36010BD0EB4F3
:108B700003B5039921B104AB01AA019300F076F883
:108B800002B05DF804EB03B070470A2938B504461B
:108B90000D4602D10D21FFF7F8FFA3682268591C8A
:108BA000A160D554D4E901329A4204D32046BDE8ED
:108BB0003840FFF7D1BF38BD2DE9F84F9846DDE9C1
:108BC0000A43154682460F460A464FF00109AA425B
:108BD0000FD2C14538BFC14613F0010B01D16CB9AA
:108BE00000240126B8F1010F1BD908F1FF386E43AC
:108BF000F8E709F10109B2FBF5F2E8E79B070ED5AA
:108C0000B8F1000F0CBF30262026A145E9D2013C67
:108C100031465046FFF7B9FF002CF6D1E0E7202699
:108C2000F3E7B7FBF6F39D42E1D9DFF83C80B7FBF1
:108C3000F6F3504618F8031006FB1377FFF7A5FF6D
:108C40003346AB42B6FBF5F6F1D2BBF1000F02D0D2
:108C50000CB1A14501D3BDE8F88F20215046013C5D
:108C6000FFF793FFF4E700BF3C1403002DE9F74F33
:108C7000054617468846002900F0428118F8011B76
:108C800049B92B7B002B00F03B81284603B0BDE89F
:108C9000F04FFFF761BF252940F0B780002698F814
:108CA00000302D2B424608F1010823D0302B24D070
:108CB0002B2B25D000242A2B02F1010123D13B6864
:108CC0001A1D1B683A601C440A4613782E2B26D1C5
:108CD00001324FF0000A104610F8011BA1F1300CD0
:108CE000BCF1090F1DD80A2303FB0A13A3F1300AB4
:108CF0000246F0E746F00106D1E746F00206CEE76D
:108D000046F00406CBE711F8013CA3F13000092836
:108D1000DBD80A2202FB0434303C0A46CBE74FF092
:108D2000000A12F8011B01F0FB0068289046F8D0F9
:108D3000782909D86F290CD8632962D022D825292F
:108D400063D0582900F0888098F80030002B95D126
:108D500097E770390829F7D801A353F821F000BF2D
:108D6000DB8E0200498D0200498D0200698E0200EF
:108D7000498D0200478E0200498D0200498D020094
:108D8000598E0200642901D06929DDD13A68D2F8F0
:108D90000090111D89EAE9723960A2EBE9724FF087
:108DA000010B092A35DCD34538BFD3462CB1B9F1C4
:108DB000000F01DB720700D5013CB30702D5BAF101
:108DC000000F03D0F00701D44CBB0024B9F1000F11
:108DD0002DDAC9F100092D212846FFF7D6FE06F04D
:108DE0000302022A04D1BAF1000F01D11CBB0024F6
:108DF000CDE9004653460A2249462846FFF7DCFEE5
:108E0000A2E73B681A1D19783A602846FFF7BDFEB5
:108E10009AE70A230BF1010BB2FBF3F2C1E7A3457A
:108E2000D4D220212846013CFFF7AFFECCE77107E2
:108E3000D5D52B21D0E7A345DAD230212846013CF5
:108E4000FFF7A3FED2E73968CDE900460A1D3A6074
:108E500053460A220968D0E739680A1D3A60CDE90D
:108E6000004653461022F5E73B681A1D3A6016F09B
:108E70000106D3F8009028D1B9F1000F03D048467D
:108E800007F0BEFA0646B44200D904BB09F1FF3927
:108E900019F8011F00293FF457AF2846FFF775FE68
:108EA000F6E728460136FFF770FE19F8061000298C
:108EB000F7D1A642BFF448AF002C3FF445AF2021C4
:108EC0002846013CFFF761FEF3E70026EDE720218D
:108ED0002846013CFFF759FED5E73B681A1D3A606A
:108EE000302128461C68FFF750FE78212846FFF7FE
:108EF0004CFE00220823CDE90032214610227CE7F7
:108F000003B0BDE8F08F00BF2DE9F84FB0F806A020
:108F10004579D2F800B09DF828900AFB05F5043D8C
:108F200088460BEB0301A94203F1040488BFA5EBBB
:108F3000030BB4FBFAF607460AFB1644C2F800B06E
:108F40004EB9AAEB04055D4528BF5D46BBF1000F95
:108F500004D1BDE8F88F3F68013EF1E7043408EB27
:108F600006003C442A46B9F1000F0DD02146ABEB78
:108F7000050B07F0C7F9DA452E443F6855464FF018
:108F8000000428BF5D46E1E701462046EFE7FFF712
:108F90008EBDF8B546790146721E05460023934200
:108FA0002D6803D30024A64202D8F8BD0133F6E7AA
:108FB0000F682846FFF7B6FD01343946F3E72DE97F
:108FC000F843068ACD1C0746FFF788FD043E35446A
:108FD0000446B5FBF6F5F0B14FF48073EDB2838033
:108FE000C680013D076081464FF00008A84512D2B7
:108FF0003846FFF773FD064648B163790133637164
:1090000008F10108C9F8000007608146EEE7204634
:10901000FFF7BFFF34462046BDE8F8830121043046
:10902000FFF719BD10B5012104460430FFF71FFDFD
:1090300010F0FF0F04D12046BDE81040FFF7A9BF94
:1090400010BD1FB503920022009203AAFFF75CFF38
:1090500005B05DF804FB1FB503920122009203AA3C
:10906000FFF752FF05B05DF804FB33DF704741DFC7
:1090700070470000064B10B500241C70054B1C60A7
:10908000BFF35F8F0449054800F04DF9204610BD3D
:10909000A5370020A8370020581403009C37002073
:1090A00007B500230DF107008DF80730FFF720FA10
:1090B000F1EE103A23F09F03E1EE103ABFF35F8F19
:1090C000094B4022C3F884219DF80700FFF734FACA
:1090D00006F00CFE20B1FFF7CAFF03B05DF804FBF9
:1090E00020BF40BF20BFF8E700E100E070B5264D8B
:1090F000044601212846FFF78BFCBFF35F8F2E4605
:1091000038B9042C0AD0214B1A781AB1BFF35F8FFB
:10911000286070BD1E4A147001221A701D4C1C4D2F
:109120006368BBB9FEF7D0FCFEF71EFB0028FBD13D
:10913000174B1B78023B012B14D8BFF34F8F1649F6
:10914000164BCA6802F4E0621343CB60BFF34F8F43
:1091500000BFFDE71B682878984788B1204600F0DB
:10916000ECF8DDE706F0C2FD08B1FFF77EFF4FF037
:1091700080430122C3F80025BFF34F8F20BFFDE7D6
:10918000BFF35F8F3060C4E7A8370020A537002009
:10919000A43700209C37002000ED00E00400FA0511
:1091A000026813685268934291BFD01A80680130F8
:1091B000801888BFC01A7047036881681A685B68A6
:1091C0008B4234BF01330023D31A584258417047B1
:1091D000F7B5002304460DF107000D468DF8073062
:1091E000FFF786F92046FFF7E7FF10B1237C002B3D
:1091F0003CD12268A66853685168B14234BF01313E
:109200000021516030B11168A068814234BF013142
:1092100000211160E2686068511E072920D8DFE84C
:1092200001F004101F141F1F1F182A78C254204673
:10923000FFF7B6FF23689A68824200D29860002444
:1092400015E02A8820F81320F1E72A6840F8232047
:10925000EDE7D5E9006700EBC300C0E90067E6E78A
:10926000294602FB030007F04DF8E0E704249DF8CF
:109270000700FFF761F9204603B0F0BD03681868E6
:109280005B68C31A58425841704773B500230546BE
:109290000DF107000C4616468DF80730FFF728F948
:1092A0002846FFF7EBFF002832D129680B682EB95A
:1092B0000A68A868824238BF561C0E60EA6869686E
:1092C000501E07281ED8DFE800F0040E1D121D1DD9
:1092D0001D16CB5C237000249DF80700FFF72CF9C6
:1092E000204602B070BD31F813302380F3E751F807
:1092F00023302360EFE701EBC301D1E90023C4E988
:109300000023E8E703FB0211204606F0FBFFE2E73B
:109310000524E1E7836800225A60C3E904229A60C9
:10932000DA601A6070470B684A684360934208BF6E
:109330000023016008BF43607047436843B102687F
:10934000916852680B449342436004BF002343601A
:10935000704770B5446806460D46206818B1B3687A
:109360002946984718B923682B60256070BD24688A
:10937000F3E74368186808B102681A6070474368E9
:10938000186870474368186800B97047884203D16D
:1093900002681A600120704703460068F4E7000085
:1093A00010B50D49A1F59472914201D800200FE04B
:1093B0008C1AE30F03EBE4035B1002EBC30452F8D7
:1093C0003330834205D802D204F10802ECE760682A
:1093D00010BD2146E8E700BF6419030008B5FFF798
:1093E000DFFF024B002808BF184608BD27180300FE
:1093F00043681B6818470000024B5B6803B11847BD
:10940000704700BFB0370020020600F00F034CBFCA
:1094100002480348DB001844704700BFBC370020F7
:109420000438002008B5FFF7EFFF016009B14B6871
:109430001968416008BD0000024B0146D3E90002F3
:10944000104700BF0438002038B5831EDBB2062B5E
:1094500098BF1A4A1A4D98BFD25C2B78A3F1020329
:10946000DBB288BF0022062B9ABF1449CB5C0023D5
:109470009342044603D0B2B1124801F0B1FF022C6E
:1094800014D0A4F10800424242412B78022B0FD0A5
:10949000A3F108014B424B41934202D052B103F079
:1094A00035FD2C7038BD01F0D5FFE8E70122ECE76F
:1094B0000123F1E703F020FDF3E700BF6D1903007E
:1094C0007C3900208C2A00200378052B73B50446D4
:1094D0000CD1304AD2F88434D2F8802412F0FF0F35
:1094E00004D12D4ADBB2052B08BF144623782BBBD1
:1094F0002A4B1D68DDB98DF80450294D01A8FEF7EF
:10950000F7FF2A6812B9274B62881A800121244884
:10951000FFF7A1FA9DF80400FFF70EF8224B1B6835
:1095200013B10121204698472B6802B070BD2B680B
:1095300060889B6898472B685D68DBE71B4801A93A
:10954000FFF7F1F905460028EFD0236803600026F5
:109550000DF103008DF80360FEF7CAFF114B1048B0
:109560001B88026801339B1AEB803146FFF750FAE3
:10957000A8809DF80300FEF7DFFF01A90B48FFF765
:10958000FCF9094B1B680146002BCED020469847BA
:10959000CBE700BF0070024084190300703900203F
:1095A000783900204C380020B0370020583900208E
:1095B000FFF78ABF012805D0022805D030B904483A
:1095C000FFF782BF0348FBE70348F9E7704700BF96
:1095D000781903007C190300801903000148FFF784
:1095E00073BF00BF881903002DE9F04F87B0002634
:1095F0000546884691461F4602966B6800225C68C5
:109600002946012302A8A047044638B98DF8060070
:1096100004908246564503D8052028E00136ECE741
:109620006B680DF10602D3F804B02946012304A8A3
:10963000D8476B680DF10702D3F804B0294601231F
:1096400004A8D8479DF8073043459DF8063013D14C
:109650004C450FD1109A13603B7087F801806A68FF
:10966000023B54682946BA1C04A8A047002007B052
:10967000BDE8F08F0134E4B26A68023BD2F804B06E
:109680002946002204A8D8479DF806309A44C1E72D
:109690002DE9F743082305462D492E484FF48472DF
:1096A000FFF72EF9002851D12B4803F045FC044662
:1096B000002847D1294B1870294B1860294B0146C7
:1096C00018604822284806F046FE284848222146CD
:1096D00006F041FE264B8DB9C3E900551D720020EE
:1096E00004F0ECF918B1852801D0FEF711FD214FE7
:1096F000002697F8089007F1090810E095E80700A0
:1097000083E80700EBE7A37823443946985CFFF72A
:1097100089FE01356378EAB29342F4D80136F4B297
:10972000A14504D904EB440444440025F2E70B238B
:1097300010488DF8043001A9FFF75AFE044608B11D
:1097400003F09AFA204603B0BDE8F0830324F9E75A
:109750004E38002058390020B19502007C39002095
:10976000683900206C390020BC3700200438002004
:10977000B03700209C19030010B503F073FB10B93B
:109780000823184610BD03F075FB04460028F7D1E6
:10979000044804F0C6F903460028F2D0FEF7B8FCEE
:1097A0002346EEE77419030003F070BA03F07EBF9E
:1097B0004FF08043D3F83824920702D50348FFF7CF
:1097C00083BED3F83824D107F4D470478919030035
:1097D00007B5822301A88DF80430FFF775FE03B0AA
:1097E0005DF804FB2DE9F74300F1090190F80890BA
:1097F000054600260F46F3B24B452AD291F8018068
:109800000024E3B298450AD98B780A190134D05C58
:10981000FFF7FAFD0368002BF3D0112028E0013692
:109820000331E8E7A37823442946985CFFF7FAFD63
:1098300001366378F2B29342F4D808F101082B7A2A
:109840005FFA88F4A34216D904EB44043C44002692
:10985000EFE74FF00008F2E713681A68002AFBD11F
:109860001D6001A90B2328468DF80430FFF7C0FDC9
:1098700003B0BDE8F083014BEFE700BF683900207B
:10988000024B1878003818BF012070477439002047
:10989000030710B5044604D403F08EFC204603F001
:1098A000D3FF2046BDE8104003F078BF03F044BF6B
:1098B000014B1868704700BF68390020F0B50A4BAB
:1098C0000246186878B1057A0023861DDCB2A542ED
:1098D00001D80368F5E7013303EB4307F75D9742CF
:1098E000F4D101B10C70F0BD683900201146FFF7CA
:1098F0007FBD08B500F00F03082B07D8FFF784FDE4
:10990000006818B1BDE80840FFF772BD102008BD1F
:1099100038B5054B05461C6804B938BD29462046B4
:10992000FFF766FD2368F6E76839002038B5074B76
:1099300005461C680CB9062038BD29462046FFF7AD
:1099400057FD0628F8D12368F3E700BF68390020E7
:1099500013B50446019103F035FB50B1064B1B785B
:10996000022B06D10199204602B0BDE8104003F059
:1099700039BB082002B010BD7C39002013B5044665
:10998000019103F01FFB50B1064B1B78022B06D14F
:109990000199204602B0BDE8104003F09DBB0820AD
:1099A00002B010BD7C390020F8B543689B680546BD
:1099B0000C46164613B92EB1072002E09847062838
:1099C000F9D0F8BD2B7AA34213D9093504EB44042E
:1099D0002C446778F3B29F4201D80020F1E7627807
:1099E0009A4208D9A219A378D05CFFF751FF01363B
:1099F000F0E77378FFDE00231B78FBE74368DB6842
:109A000070B505460C4603B198472B7AA34213D98B
:109A1000093504EB44042C4400256678EBB29E42E1
:109A200000D870BD62789A4209D96219A378D05CD7
:109A300003F082FE0135F1E700235B78FFDE0023AF
:109A40001B78FBE743681B6903B11847184670474A
:109A500070B5084B1C6804B970BD267A0025E9B2C0
:109A60008E4201D82368F5E700222046FFF79CFFCD
:109A70000135F4E76839002070B5084B1C6804B95B
:109A800070BD267A0025E9B28E4201D82368F5E739
:109A90002046FFF7B3FF0135F5E700BF6839002026
:109AA00038B503780F2B044610D9A3F1800283F058
:109AB0008003052B00D938BD052AFCD8DFE812F059
:109AC00067002C00490073007E00E0000F2BF2D8E5
:109AD00001A252F823F000BFDF9B02000F9C02009E
:109AE0006F9C0200339C0200519C0200819C02008A
:109AF000939C0200B79A0200BD9C0200C19C020028
:109B0000C59C0200B79A0200B79A0200B79A0200F9
:109B1000B79A02008B9C02006B48FFF78DFC6A48E5
:109B2000FFF7F6FE0D20FFF767FCFFF7A5FF00F03B
:109B3000CCF9664B1B6853B9654B187A00F00100ED
:109B400003F066F90120BDE83840FFF77DBC012035
:109B5000F4E7FFF791FF03F08BFD0020FFF774FCA3
:109B60005C48FFF7D5FE5B48FFF766FC0E20FFF769
:109B700043FC594B1B78023BDBB2062B9BD8574A60
:109B8000D35C002B97D0BDE8384001F063BC524B4A
:109B90001B78062B05D003F0FD03052B8BD102208B
:109BA000D1E70820CFE74C4B1B78032B83D103F080
:109BB00097FD00283FF47FAF0420C4E7464B1B7895
:109BC000032B05D103F08CFD10B10420FFF73CFC02
:109BD00003F05AF900283FF46EAF0620B3E73E4B7E
:109BE0001B78032B01D0082B02D13D48FFF758FF0B
:109BF0000020FFF701FC354B1D68002D3FF45BAFE3
:109C000028462146FFF7F4FB2B685D68F5E7FFF770
:109C100033FF00F051F90220FFF716FC0120FFF797
:109C2000EBFB2046FFF708FC2046BDE83840FFF775
:109C30006FBE294B1B78082B06D10220FFF704FCCE
:109C400003F06EF90320EAE70520FFF7FDFBF9E7D3
:109C50000320FFF7D1FB2348FFF7EEFB2148FFF776
:109C600057FE1D4B1B78062B99D107206BE703206D
:109C7000FFF7EAFB0220FFF7BFFB2046FFF748FE95
:109C80002046BDE83840FFF7D7BB0F20FFF7B4FBF5
:109C9000CAE78078FFF7B8FB214643680068984719
:109CA00000283FF408AFA07802073FF404AF030791
:109CB0003FF501AFBDE8384003F058BA0820E5E7AA
:109CC0000920E3E70A20E1E78A1903006C39002044
:109CD000B03700208B1903007C3900206D19030078
:109CE0008C1903008D19030073B5244D00230193D3
:109CF0002B6823B922492348FEF74FFE28602C68C1
:109D0000ECB1A68886B1E388B3F5006F24BF0023C9
:109D1000E380E388ADF806305A1C013EE280A6805D
:109D200001A8FFF7BDFE07E02046FFF7B9FE144982
:109D30001448FEF75DFE2E60012002B070BD124B8C
:109D400018680028F9D00DF103008DF80340FEF7E4
:109D5000CFFB0E4B0C481A88B2F5006F28BF1C8051
:109D60001A88ADF80620511C19800121FEF78BFEE0
:109D70009DF80300FEF7E0FBD2E700BF803900202A
:109D8000AC37002058390020783900204C380020AA
:109D9000002070472DE9F04F2DED028B4B6885B008
:109DA00080460C4601926BB90B681B681B684BB967
:109DB0008D683DB9C0E90055284605B0BDEC028B61
:109DC000BDE8F08F03F0CEF9019BE7689F4228BF02
:109DD0001F4604F110034FF0000A08EE103A8146C6
:109DE000564601254FB3A3686168BB429B4628BF16
:109DF000BB4629B35A4609EB060006F083FA002356
:109E00006360A268E368A2EB0B02A3EB0B03A26002
:109E1000E360A7EB0B075E440ABBBAF1000F03D067
:109E20002268126812682260DBB12368DBB96360C4
:109E30001EB1019BB34288BF0025C8E90096BBE76D
:109E4000002BDED021684B6818EE100AD3F804A06E
:109E500009EB06025B46D0474FF0010AD1E7002B21
:109E6000C0D10025BEE70023029321684B68002281
:109E7000D3F804B002A80123D84708B92061B1E79C
:109E8000A3680133A360F0E7084B1A7882420CD034
:109E9000052818BF064A187018BF137805481CBF5C
:109EA00023F002031370FFF7FBBD704790390020C9
:109EB000AC390020AC19030008B50020FFF7E8FC1E
:109EC000BDE808408020FFF7E3BC08B50020FFF79D
:109ED000EDFCBDE808408020FFF7E8BC38B505463A
:109EE0000C4603F0E3F9A84205BFD4E90001034B97
:109EF0001020C3E9000108BF002038BDB0390020A0
:109F00007FB5C38893421E4628BF164693420D462E
:109F1000144625D9802003F04FF8B4FBF0F202FB81
:109F20001040B0FA80F04009002303900DF10300C7
:109F30008DF80330CDE90156FEF7DAFA01A9802049
:109F4000FFF706FD044620B906498020FFF7C6FF4B
:109F500004469DF80300FEF7EFFA204604B070BDFA
:109F60000020E1E7E01903002DE9F04F0B780E2BFC
:109F700089B00D4613D8A3B1013B0D2B11D8DFE8F2
:109F800013F012001A00160010002A00FB01100046
:109F90001000100010001A00E501E901F901852BFD
:109FA00013D00624E2E10320FFF76EFFF9E7B4487F
:109FB000FEF77AFD08B90024D8E1B24B01221A60FD
:109FC000BFF36F8FBFF34F8FF5E7AF4B1B78032BBA
:109FD000E7D10420E8E70523AC4D8DF814300DF1EE
:109FE000150003F0F9F800232B609DF8153003F0FD
:109FF0001F07032F00F26381DFE817F00400FB0066
:10A0000058013E0013F0600FC3F3411834D1DB094F
:10A010009DF8161000F0A680062916D0082900F039
:10A02000938049BB9A4C0222204606F094F923788B
:10A0300043F001022270974A1278920744BF43F01E
:10A0400003032370022292490EE09DF81830022B80
:10A0500016D0032B68D0012B0ED1BDF81B30002B7E
:10A0600000F071818C4912220DF11500FFF748FFB5
:10A070000446062C40F02B8105A8FFF757FCFCE0B6
:10A08000BDF81B60002E00F05E81092E28BF092656
:10A09000FFF70EFC4FF00909044674BB7C4C7F4966
:10A0A0003246204606F02EF92771A4F80290FFF7F9
:10A0B000E7FB18B1E37943F02003E371FFF7F8FB06
:10A0C000774BC3E900049E60BDF81B20DA6003A84B
:10A0D00000238DF80C30FEF70BFA72498020FFF751
:10A0E0004DFC044620B970498020FFF7F7FE044676
:10A0F0009DF80C00FEF720FABBE7CDF80C804FF07E
:10A10000000A63680022D3F804B02146012303A8A3
:10A11000D84730B9237A1F442368D1441C68FFB262
:10A12000BBE70AF1010AECE7BDF81B30002B00F099
:10A130000A81BDF819109DF8170000F09BF901463F
:10A14000002899D002788FE74F4A1278052A03D168
:10A150004F4A1370012276E7042A8DD14C4B83F8C5
:10A160000080F7E7032910D009292CD0012983D1D9
:10A17000BDF81730012B7FF47FAFFFF781FB60B193
:10A18000444A137823F002030FE0BDF81730012B87
:10A190007FF472AFFFF774FB18B90F2403F083F854
:10A1A000E4E03C4A137843F0020313702B68002B61
:10A1B00000F0C98003F07AF8044600287FF4FBAE73
:10A1C00003F030F8D2E0304B1B78043B012B01D96F
:10A1D0000824E3E79DF817302BB9FFF74DFC042066
:10A1E000FFF752FEE2E7012B40D1FFF731FC0520DB
:10A1F000F6E79DF8190003A9FFF760FB064608B9CA
:10A200001024CBE79DF80C1005AAFFF76FFB06287A
:10A2100004465CD19DF8152012F0600FBED11A4B98
:10A220009DF80C1018789DF81630D20916D07BB125
:10A230000A2BB3D10528CBD130460192FFF702FC9F
:10A240001349019A08700DF11500FFF759FE14E04B
:10A250000528BDD10E490B800222F4E70B2B9DD1BE
:10A260000528B5D1BDF81730FF2B01D9072495E794
:10A270009DF817203046FFF797FB044627E000BF04
:10A28000B83900205C70024090390020B0390020BD
:10A29000BC390020AC390020CC190300AD190300F3
:10A2A00094390020E8190300E01903009DF8190013
:10A2B000070706D19DF8153013F0600F0BD0062468
:10A2C0006CE705A9FFF715FB06280446F2D0002C21
:10A2D0003FF46CAF62E79DF81620394B9DF81940AA
:10A2E0001B78012A1DD0032A0CD0002AE7D1052BA8
:10A2F00002D026077FF46CAF204602F043FF3149BD
:10A300000880A9E72007DAD4BDF81720002AD6D1A3
:10A31000052B02D021077FF45BAF204602F026FF19
:10A3200044E72207CBD4BDF81720002AC7D1052B5C
:10A3300002D023077FF44CAF204602F03DFF2046B9
:10A3400003F082FA32E702F0ABFF34E60020FFF7B9
:10A350009BFD30E64FF08043D3F8384414F00104FD
:10A3600001D00220F3E70120FFF78EFD204609B05F
:10A37000BDE8F08F0120EAE7C87803283FF411AE6A
:10A38000114E3368D3B10022716832609847044699
:10A3900000287FF403AF336823B1AB78002B7FF440
:10A3A0000AAE0DE7094B1B68082B04D1084B1B684C
:10A3B000002B3FF400AE02F073FFD7E70E24EDE66A
:10A3C00090390020BC390020B03900203001001045
:10A3D0003401001008B1402303600148704700BFFA
:10A3E000BC39002070B54FF0805286B0D2F8A8304A
:10A3F000D2F8A42000926FEA83436FEA93430B4A9A
:10A400000B4E9BB20D2102A805F042FF02AD0024C5
:10A4100002A805F0F5FF844201D306B070BD15F81F
:10A42000013B06F8013B0134F2E700BFF0190300DD
:10A43000FC39002010B50E4B53F8204023780BB99F
:10A44000A01C10BD0020FFF7C5FF013C00235A1CD3
:10A45000A15C39B9DBB201335B00DBB243F440737A
:10A460000380EEE7D3B220F813101346EFE700BFE6
:10A47000581A030008B9FFF7DDBF052807D8054AB9
:10A48000105C20B1044B53F82030002BF3D1002096
:10A49000704700BF701A0300581A0300C36903B164
:10A4A0001847704703680022C3E91E22C3E920222F
:10A4B0001A845A62DA6203F134025A677047CA6931
:10A4C0009A4210B543600CD38C690460086F18443D
:10A4D0000867D01A1C44C86100388C6118BF01207D
:10A4E00010BD01F1280202608B670020F8E7000030
:10A4F000F0B504680D7A002C00F08780A4F21234C5
:10A500007C2C00F222837C2C00F21F83DFE814F005
:10A5100085008F009D00A900B500C100CD00D900C5
:10A520001D031D031D031D031D031D03EF00FB0081
:10A530001D031D031D031D031801240132011D030A
:10A540001D031D03450151017F011D031D031D0353
:10A550001D03670173017F011D031D031D031D03FF
:10A560001D031D038B011D031D031D031D039F01FF
:10A57000AB01B701C301CF011D031D03DB01E701DF
:10A58000F301FF010B021D031D0317022302340216
:10A5900040021D031D034C025802640270027C023B
:10A5A0001D031D031D031D031D031D031D031D03AB
:10A5B0001D031D031D031D031D031D031D031D039B
:10A5C0001D031D031D039B02A7021D031D031D0385
:10A5D000C0021D031D031D031D03DD021D031D031A
:10A5E0001D031D03DD021D031D031D031D031D03AC
:10A5F0001D03E902F5021D031D031D031D031303C3
:10A600001D031D031D031D0313030824047123B937
:10A6100040F2123303600120F0BD0AB104791470D6
:10A620000B24012B04710ED840F21333F2E70024FF
:10A630000AB10679165501340E7D06719C4205D388
:10A640004FF44573E6E70124F2E700240AB10679E6
:10A650001655013402269C42067103D340F215338D
:10A66000D8E700240AB106791655013402269C4227
:10A67000067103D340F21633CCE700240AB1067901
:10A680001655013402269C42067103D340F217335B
:10A69000C0E700240AB10679165501344E7E0671D2
:10A6A0009C4203D34FF44673B4E700240AB1067901
:10A6B0001655013400269C42067103D340F219332B
:10A6C000A8E700240AB106791655A94E00270134DF
:10A6D0003770A74E3678AE4202D340F2993399E7ED
:10A6E0000926A342067103D84FF4487392E7002469
:10A6F0000AB106791655013404269C42067103D32B
:10A7000040F2213386E700240AB106791655984EA7
:10A710000F7A3678DFF85CC2B74204F1010440F2E8
:10A72000188201F1090706EB460607EB060E9C426C
:10A73000BE5DCCF800E0067103D340F2263369E732
:10A7400000240AB106791655013400269C42067190
:10A7500003D340F227335DE700240AB1067916558A
:10A76000844E36680134767806719C4203D34FF4E8
:10A770004A734FE700240AB1067916557D4E0F7DC6
:10A7800036683678B74204F101041ED102269C4295
:10A79000067103D34FF44B733CE700240AB10679EA
:10A7A0001655013402269C42067103D340F22D3324
:10A7B00030E700240AB10679165501344E7E067141
:10A7C0009C4225D340F22E3324E78F7DB74223D11C
:10A7D0000A269C42067103D340F233331AE7002461
:10A7E0000AB106791655013400269C42067103D33E
:10A7F0004FF44D730EE700240AB106791655013463
:10A8000000269C42067103D340F2353302E7002450
:10A810000AB10679165501340026A342067103D801
:10A820004FF44F73F6E600240AB106791655514EDF
:10A830000F7D36683678B74204F1010440F0E980B4
:10A8400005269C42067103D340F24133E2E6002420
:10A850000AB106791655013424269C42067103D3A9
:10A8600040F24233D6E600240AB106791655013487
:10A8700000269C42067103D340F24333CAE600240B
:10A880000AB106791655013410269C42067103D38D
:10A890004FF45173BEE600240AB10679165501340F
:10A8A00001269C42067103D340F24533B2E60024F0
:10A8B0000AB106791655013405269C42067103D368
:10A8C0004FF45273A6E600240AB1067916550134F6
:10A8D00024269C42067103D340F249339AE60024B1
:10A8E0000AB106791655013401269C42067103D33C
:10A8F00040F24A338EE600240AB106791655013437
:10A9000003269C42067103D340F24B3382E60024B7
:10A910000AB10679165501348E7D06719C4203D327
:10A920004FF4537376E600240AB1067916550134C4
:10A9300004269C42067103D340F24F336AE600249A
:10A940000AB106791655013424269C42067103D3B8
:10A950004FF454735EE600240AB1067916550134AB
:10A9600002269C42067108D340F2513352E600BFE2
:10A970000A3A00200C3A002000240AB10679165544
:10A98000013402269C42067103D340F2523341E661
:10A9900000240AB106791655013405269C42067139
:10A9A00003D340F2553335E600240AB10679165533
:10A9B000013424269C42067103D340F2563329E623
:10A9C00000240AB106791655013406269C42067108
:10A9D00003D340F257331DE600240AB10679165519
:10A9E00001340E7D06719C4203D34FF4567311E679
:10A9F00000240AB10679165501348E7D06719C42F9
:10AA000003D340F2593305E600240AB106791655FE
:10AA10000134534E36687778524E3770524E0027C5
:10AA20003770514E37784F4E3678B74204D34F4F78
:10AA30003E7801363E704CE60726A342067103D8E5
:10AA400040F26D33E6E500240AB10679165501346B
:10AA500005269C42067103D340F26E33DAE50024EA
:10AA60000AB1067916553E4E3F4F36683F7896F844
:10AA700001C0BC4504F1010470D996F802C03E44FF
:10AA80009C4216F80C60067103D340F27233C1E5A4
:10AA900000240AB106791655314E0F7D3668367896
:10AAA000B74204F1010406D103269C4206710DD37E
:10AAB00040F27733AEE58F7DB7420BD102269C4240
:10AAC000067103D34FF45F73A4E500240AB106793D
:10AAD000165501344026A342067103D840F2833351
:10AAE00098E500240AB106791655013400269C42E7
:10AAF000067103D34FF461738CE500240AB1067923
:10AB00001655174E0F7D36683678B74204F10104AA
:10AB100007D10E6A9C42367806710DD340F2893314
:10AB200078E58F7DB7420BD100269C42067103D396
:10AB300040F28E336EE500240AB1067916550134D1
:10AB4000094F3E7801363E706BE7002303601846DC
:10AB500062E50023CCF800301B78FFDE0023FBE722
:10AB60000C3A0020093A00200B3A00200A3A002053
:10AB700010B5044658B90868037B202B09D100F1B1
:10AB80000E010722183005F0BDFB204610BD032042
:10AB9000FCE70620FAE7037A012B08D9427B012A59
:10ABA00000F10C0306D9827B1344587870470023C8
:10ABB0005B78FFDE00231B78FBE700002DE9F04700
:10ABC0000B7888B005460E460E2B17D8DFE803F049
:10ABD0000A080A0A160CA2161608160A0A0A0A0019
:10ABE000FFF760FC002427E04A78D1094FEA5213AE
:10ABF00030D013F0030303D0012B21D006241BE037
:10AC000002F01F02012AF9D1B478062CF6D105A86A
:10AC10000393FFF7DFFB03AB0093F2783179034630
:10AC200007462846FEF7E0FC052805D0039A39467A
:10AC3000701CFFF765F90446204608B0BDE8F087B0
:10AC4000B378212BDAD1B6F80720072AD6D10168CC
:10AC50001831EDE7012BD1D1B3780768202B35D01F
:10AC6000222BCBD1B6F80730002BC7D197F8202084
:10AC7000B6F803303B8402F0010203F001018A427E
:10AC8000B0D08CB2C1F10301C9B2FFF707FC002CB0
:10AC9000A8D12B7A012B40F2D3806B7B05F10C02FB
:10ACA000002B00F0CF80AB7BD05C02F0C1FB2846CC
:10ACB000FFF771FF02F0BCFB07F13403C7E91E4444
:10ACC000C7E920447C62FC627B67B5E7B6F80730D1
:10ACD000072B93D14FF4E462BA8100240DF10B00ED
:10ACE0000E37CDE9057307948DF80B40FDF700FC96
:10ACF000204605A9FEF72CFE044630B9534B03A9A4
:10AD0000CDE90335FFF7EAF804469DF80B00FDF79F
:10AD100013FC91E7037A002B00F09680837A00F110
:10AD20000901002B00F08E80C27AB3788A5C9A42C7
:10AD30003FF458AF1B06F77809D527B1032F14BF8E
:10AD40000324002478E70121FFF7A8FB4AE707F076
:10AD5000FD03012B3FF446AF002F6FD10668FFF7CC
:10AD60001AFF3B4BB46A059306F10C038146069328
:10AD7000C4B9F36FB467C6E91F43F36A63B1D6E998
:10AD80000B0106F1240383E80300F46205A9484699
:10AD9000FEF7F4FD044600E0746200212846FFF748
:10ADA0007DFB49E7D6F884A0706A544528BF544615
:10ADB00006F134082246414605F0A4FAF36F234415
:10ADC000C6E91F73AAEB0403B367F36A44447467CC
:10ADD0002BB306F1240406F12C0898E8030084E85C
:10ADE0000300B36F706AF7621BB9736A002BCDD191
:10ADF00016E0B26A716F9A4214D805F083FAB36A0A
:10AE0000B26FC6F88030D21AB267726F1A44726796
:10AE100000212846FFF742FBF36A002BDDD1736265
:10AE20000024BAE71A4605F06DFAB26FB36AF2670A
:10AE30009B1AB362736A13447362D6E70324FBE67A
:10AE40006378FFDE1B78FCE75B78FAE771AB020002
:10AE5000BFA402001FB503681B8CDC0714D5037A5E
:10AE6000012B13D9437B00F10C0493B1837BE05C8D
:10AE70009306CDE901120CBF0123002301A903931E
:10AE8000FEF766FD04B010BD0820FBE700235B78E9
:10AE9000FFDE1B78FCE70368D3F8800070470000F2
:10AEA000F7B50468238CDB070F4616463BD5656A69
:10AEB000002D32D1A16F91420ED3616F384605F05B
:10AEC00021FAA36FC4F880609B1BA367636F3344B0
:10AED0006367284603B0F0BDC4E90972FFF75BFE63
:10AEE000134B009304F10C030646019369B10A4623
:10AEF0003846616F05F006FAA36FA26AD21AA26201
:10AF0000626AC4E91E531A44626269463046FEF71B
:10AF100035FD002808BF9220DCE7E36A2BB9C4E9BD
:10AF20000B129220D6E70820D4E71120D2E700BF09
:10AF3000BFA402001EF0040F1CBFEFF309800AE05B
:10AF4000EFF308800549064A884201D8904202D8AA
:10AF50008D464FF00000034B18470000000004200E
:10AF600000E0032009880200054B1B68082B01BF85
:10AF7000044B1868B0FA80F0400918BF00207047F1
:10AF8000300100103401001008B54FF0804300225A
:10AF9000C3F80C21C3F81021C3F838254FF08052B4
:10AFA00003F54043D2F80414C3F82015D2F808146E
:10AFB000C3F82415D2F80C14C3F82815D2F81014CD
:10AFC000C3F82C15D2F81414C3F83015D2F818149D
:10AFD000C3F83415D2F81C14C3F84015D2F8201465
:10AFE000C3F84415D2F82414C3F84815D2F828142D
:10AFF000C3F84C15D2F82C14C3F85015D2F83014FD
:10B00000C3F85415D2F83414C3F86015D2F83814C4
:10B01000C3F86415D2F83C14C3F86815D2F840148C
:10B02000C3F86C15D2F84424C3F87025FFF79CFFD1
:10B0300010B1384B384A1A60FFF796FF18B1374BFA
:10B04000FB22C3F81825FFF78FFF48B13449354B71
:10B050000A681B6822F00F0203F00F0313430B6012
:10B06000FFF782FF18B1304B4FF400721A604FF0B7
:10B070008043D3F80024D20744BF6FF00102C3F825
:10B0800000242A4AD2F8883043F47003C2F888308A
:10B09000BFF34F8FBFF36F8F4FF01023D3F8002211
:10B0A000002A03DBD3F80432002B2FDA204B0122D5
:10B0B000C3F80425D3F80024002AFBD04FF0102257
:10B0C0001221C2F80012D3F80024002AFBD04FF05E
:10B0D00010231222C3F80422154B1A46D3F8001489
:10B0E0000029FBD00021C3F80415D2F80034002B4E
:10B0F000FBD0BFF34F8F0D490E4BCA6802F4E062DC
:10B100001343CB60BFF34F8F00BFFDE70A4B0B4AE1
:10B110001A6008BD8C5600404881030000F00040D2
:10B12000E40E0040580200104096024000ED00E09E
:10B1300000E001400400FA05942A00200090D003AA
:10B14000074B1B5C1F2B8ABF064A4FF0A04203F03F
:10B150001F03D2F80405D840C04300F00100704737
:10B16000981A030000030050074B1B5C1F2B86BF7F
:10B17000064903F01F034FF0A041012202FA03F336
:10B18000C1F80C35704700BF981A03000003005047
:10B19000074B1B5C1F2B86BF064903F01F034FF0B4
:10B1A000A041012202FA03F3C1F80835704700BF3D
:10B1B000981A03000003005008B50020FFF7E8FFCD
:10B1C0000120FFF7E5FF0220FFF7E2FFBDE808409E
:10B1D0000320FFF7DDBF08B50020FFF7C5FF012002
:10B1E000FFF7C2FF0220FFF7BFFFBDE808400320C2
:10B1F000FFF7BABF0A4B185C1F288ABF094B4FF0F4
:10B20000A04300F01F00D3F804250121814021EA6A
:10B2100002000A40C3F80805C3F80C25704700BFB8
:10B22000981A030000030050074B1B5C1F2B8ABFBA
:10B23000064A4FF0A04203F01F03D2F81005D84091
:10B24000C04300F001007047941A0300000300504F
:10B250000B2809D00C2809D0182809D019280CBFB0
:10B2600003204FF0FF3070470020704701207047E7
:10B2700002207047014B185C704700BF941A03000E
:10B28000C20710B504460CD54FF0A0430322C3F803
:10B290003427C3F85827C3F83C27C3F86027FFF7C3
:10B2A0008BFFA3070AD54FF0A0430C22C3F82C272D
:10B2B000C3F83027C3F86027C3F8642710BD42DF06
:10B2C000704743DF7047000038B5074C051E04F196
:10B2D000080318BF1C4623682BB11A6822605B68FC
:10B2E00028469847F7E738BD183A002020B9054BA3
:10B2F00001225A70FFF7E8BF012802D1014A90707D
:10B30000F8E77047103A002020B9034B01225A7029
:10B31000FFF7DABF704700BF103A002038B50B4C7A
:10B32000237883B90A486360A3602361E36000F077
:10B3300031F9054604F0DAFC08B900F037F90123C9
:10B340002370284638BD8525FBE700BF103A002052
:10B35000EDB2020037B50B4C00230DF107008DF85C
:10B360000730FDF7C5F8E368013BE360E56815B910
:10B3700000F032F9A5709DF80700FDF7DDF803B085
:10B3800030BD00BF103A0020012813B508D00328B3
:10B390001CD018B9104B0122C3F8802002B010BD98
:10B3A0000E4C00230DF107008DF80730FDF7A0F8D3
:10B3B00023780BB9FFF7B2FFE3689DF8070001336C
:10B3C000E3600123A370FDF7B7F8E7E700F0EEF8BC
:10B3D000FFF7C0FFE2E700BF00E100E0103A002005
:10B3E00037B51B4C6378054603F0FF029BB110B1E3
:10B3F00043680020984700230DF107008DF80730BF
:10B40000FDF776F863689DF8070001336360FDF788
:10B4100093F803B030BD0DF107008DF80720FDF75C
:10B4200067F825B1A268134653B92A60A56063681E
:10B43000002BE7D104F05AFC30B1FFF740FFE1E701
:10B440009D42F4D01B68EFE700F0CFF8DAE700BFC9
:10B45000103A002073B50F4C00230DF107008DF852
:10B460000730FDF745F86368013B6360666836B9ED
:10B4700004F03CFC054640B1FFF723FF66709DF8E1
:10B480000700FDF759F802B070BD00F0BFF8657015
:10B49000F5E700BF103A00201FB503788DF80030A3
:10B4A0004368019383688DF80830C368054A0393A5
:10B4B000054B684653F8213052F82110984705B0E3
:10B4C0005DF804FB243A00202C3A00201FB50378D5
:10B4D0008DF800304368019383688DF80830C368A5
:10B4E000054A0393054B684653F8213052F8211062
:10B4F000984705B05DF804FB243A00202C3A002060
:10B50000F0B5194B90F800C0DFF86CE043F82C2040
:10B51000164B16460A6943F82C204B7F0EF80C3068
:10B520000C4607460FCC89B06D460FC594E80F0056
:10B5300085E80F001EF80C30CDF810C04BB1002E7E
:10B540000B4A694608BF3246381D00F01FFE09B09D
:10B55000F0BD002E074A694608BF324607F10C00CD
:10B5600000F0F0FBF3E700BF2C3A0020243A002063
:10B5700099B40200CDB40200343A002010B503465D
:10B5800053E8000F00EA010243E8002494F0000FA2
:10B59000F6D110BD044A137923B9012110609180BE
:10B5A0001846704785207047383A0020084B1A68C3
:10B5B000D2075FBFC02283F8002301221A604FF038
:10B5C00080420123C2F81835024A1370704700BF49
:10B5D00000E100E0403A00204FF080430122DA60B1
:10B5E000D3F81824D203FBD470474FF080430022D5
:10B5F000C3F8002182B0D3F800210192019A012200
:10B60000C3F804231A6002B0704700004FF0804274
:10B6100001235360D2F80C3403F00113B3F1011F7E
:10B62000F8D0024B00225A71704700BF383A002010
:10B630004FF0804307B5D3F800217AB10022C3F858
:10B640000021D3F800210092009A0122C3F80823B8
:10B650000F4B587910B95A711B6898474FF08043C7
:10B66000D3F8042182B10022C3F80421D3F80421C5
:10B670000192019A0222C3F80823054B1B6801209E
:10B6800003B05DF804EB184703B05DF804FB00BF9E
:10B69000383A002000F1804000F5C040002382B01D
:10B6A000036003680193019B02B0704703681F2B7E
:10B6B00083BF03F01F03036001484FF0A0407047B1
:10B6C0000003005007B5019001A8FFF7EFFF019BB1
:10B6D00000EB8300D0F8003723F44033C0F8003784
:10B6E000D0F8003743EA0141C0F8001703B05DF815
:10B6F00004FBC208012300F0070003FA00F08B5C92
:10B700001843885470470000054B4FF0FF3207285C
:10B7100043F8202084BFC01880F85820704700BF2D
:10B72000443A002038B5144D95F86A4014BB3022D5
:10B73000FF21A81804F00FFEE0B20134FFF7E4FF88
:10B740000C2CF9D10D4B00226A669A800C4BC0215B
:10B7500083F80613402119604FF4BE70FFF79AFF7B
:10B76000084B4FF00041C3F80413012385F86A30F9
:10B77000104638BD0820FCE7443A0020A83A0020D3
:10B7800000E100E000600040034B93F86A000038DD
:10B7900018BF0120704700BF443A00202DE9F34153
:10B7A000DFF8F48008EB0003054693F93030002BF6
:10B7B0000F466CDA8B78C3F34003002B0BBF0824D1
:10B7C00000240C2108218C4203D1042002B0BDE8E2
:10B7D000F08158F82400013041D108EB050166B230
:10B7E00048F8242081F830601BB908EB040383F883
:10B7F0005850BB785A0712D4D90732D501A8019501
:10B80000FFF754FF019B00EB8300D0F8003723F0D3
:10B810000203C0F800371F492846FFF76AFFBB78CC
:10B820003A7813F0020328D0A40004F1804404F510
:10B83000C0442D02D4F8103523F44F3323F4407361
:10B84000C4F810351204D4F8103505F47C5502F410
:10B85000403215431D43C4F810550020B6E70134AB
:10B86000B1E701A87A780195FFF720FF019B03F566
:10B87000E073920040F82320CDE7083E48FA86F8AE
:10B8800098F8605045EA821288F86020E5E70820C1
:10B890009CE700BFA83A0020443A002073B5244D2D
:10B8A0002E18044696F93020072A1DDD083A45FA7D
:10B8B00082F595F860309B09032B10D1019001A807
:10B8C000FFF7F4FE019BD0F81015D94001F00101FB
:10B8D0000231204602B0BDE87040FFF7F3BE012BF5
:10B8E0000CBF02210321F4E7D3B2072B1DD893002C
:10B8F00003F1804303F5C043D3F8100540F0010085
:10B90000C3F8100502F1400040B2800080B2FFF79A
:10B91000C1FE51B196F9303055F823302BB10123D7
:10B9200003FA02F2034BC3F8042302B070BD00BF58
:10B93000443A00200060004007B5019001A8FFF7DD
:10B94000B5FE019BD0F81005D84000F0010003B00F
:10B950005DF804FB2DE9F04F00248BB0CDE90444E1
:10B96000644D4FF48072012102F1804303F5C0431E
:10B9700090B21B68012B06D1D5F804330B4202D0DC
:10B98000FFF788FE0C430432B2F5907F4FEA410185
:10B99000EAD1584BD3F87C31012B0ED14FF4BE7055
:10B9A000FFF778FE4FF0A04344F00044D3F8103581
:10B9B0000493514BD3F810350593E3B2D3B14F4FF5
:10B9C00000250126344210D0AB0003F1804303F57B
:10B9D000C043D3F81005D3F8101557F8253023B11C
:10B9E000C1F30141C0F3052098470135082D4FEA06
:10B9F0004606E7D1002C79DA0023CDE906334FF073
:10BA0000FF33CDE90833DFF8F4A03D4B0193002666
:10BA10003546019B13F9014B0193631C4DD0C4F3D0
:10BA2000C2070122E3B204F03F0B04F0070402FA5C
:10BA300004F40AAA174417F8081C21423DD00AEB67
:10BA40000B014FEA931991F930105AF82180B8F19F
:10BA5000000F07D1B9F1030F2FD106A95846FFF700
:10BA600048FE02E0B9F1030FF7D003A8CDF80CB0FF
:10BA7000FFF71CFE039901F5E07150F8211017F84B
:10BA8000180C2042C1F3014106D0022915D1B9F1A9
:10BA9000030F0CD1494605E003290ED1B9F1030F7C
:10BAA00005D102215846FFF70DFE0135EDB2B8F180
:10BAB000000F02D049465846C0470136042EA8D18F
:10BAC000A5B14FF0A0430499D3F8102503F54073B6
:10BAD0009142D3F8103502D10599994206D00492CB
:10BAE0000593069A079B089209938EE70BB0BDE871
:10BAF000F08F00BF0060004000030050443A002077
:10BB0000A43A0020014B1B68184700BFB03A002040
:10BB10000E4B984237B50C4602D0002003B030BD22
:10BB200000230DF107008DF80730FCF7E1FC084B0E
:10BB30001D7915B901221C601A719DF80700FCF7E8
:10BB4000FBFC002DE9D01120E8E700BF00200040F9
:10BB5000B03A0020034B984201BF034B00221A6009
:10BB60001A71704700200040B03A00200023435073
:10BB700082B043580193019B02B070470A4610B54A
:10BB80004FF48E71FFF7F2FF136A9168C95C136A74
:10BB900001331362C0F81C1510BD8B690A4610B53D
:10BBA0004FF4847123B9FFF7E1FFD0F8183510BDC9
:10BBB000FFF7DCFF536AD168D0F81805C854536A00
:10BBC00001335362F3E700001FB501238DF8003005
:10BBD000044BCDE90110D3E900126846904705B047
:10BBE0005DF804FBB83A002030B54C48D0F8043377
:10BBF00013F4007F85B005464DD0D0F82431002BDA
:10BC000049D04FF49271FFF7B1FF4FF40173C0F8C0
:10BC10000833434B93F829200AB9012242603F4977
:10BC200002228DF80020D1F88024C1F880240392EC
:10BC30009A690292DA6801920022C3E906226846F4
:10BC4000D3E9001290473548D0F81C315BB1344934
:10BC50004A690B6A9A420A464AD991F82830002B61
:10BC600046D1FFF78BFF2D48D0F844318BB14FF40C
:10BC7000A271FFF77BFF2A4B93F829200AB101221A
:10BC800002609A692AB10022586AD9689A61FFF75E
:10BC90009BFF05B030BDD5F804335B07D3D5D5F88D
:10BCA0000831002BCFD01E4C1C482146FFF775FFF2
:10BCB000636AA2699A422346C5D1E269E1684AB142
:10BCC0002369E3600023606AA261E3616362FFF7B6
:10BCD0007BFFB8E794F829200AB901226A600F4A6D
:10BCE0004FF40170C2F808030022586A9A61EEE727
:10BCF0000A484FF48E71FFF739FF5369002BB2D019
:10BD000051690291002391688DF8003001915361CF
:10BD10006846D2E900139847A5E700BF002000401D
:10BD2000B83A00201F2886BF00F01F00044B4FF0D8
:10BD3000A04300F5E070022243F82020704700BFC6
:10BD4000000300502DE9F843634B057991462C22FE
:10BD500002FB0532064692F82A200C469846002A35
:10BD600040F0B6805D490068FFF7D2FE0746002824
:10BD700040F0B08021684A1C10D01F2987BF584A64
:10BD800001F01F030B464FF0A0420120984003F53D
:10BD9000E073C2F80805032042F823006068431CE2
:10BDA0000DD01F288BBF00F01F0303464C4A4FF0F5
:10BDB000A04203F5E0734FF0000C42F823C0336853
:10BDC000A269C3F8242594F814C0627DBCF1010F68
:10BDD0004CEA0202C3F86C25C3F81405C3F80C152D
:10BDE0002BD1A168481C0DD01F298BBF01F01F0269
:10BDF0000A463B484FF0A04002F5E0724FF0000CBD
:10BE000040F822C0E068421C13D01F2887BF344A84
:10BE100000F01F0C84464FF0A0424FF0010E0EFAC6
:10BE20000CFE0CF5E07CC2F808E54FF0030E42F87A
:10BE30002CE0C3F80805C3F810152C236B4308EB5E
:10BE40000302C2F80490226948F80320B9F1000FF8
:10BE50002BD03068247F4FF48E71FFF787FE306857
:10BE60004FF4A271FFF782FE32681E4BC2F8043312
:10BE7000110B42F30732002AA8BF02F160404FEADB
:10BE80004413BABF184801F00F0400F56140DBB25B
:10BE9000B4BF035580F8003301F01F01012303FAFA
:10BEA00001F15209114B43F8221033680422C3F800
:10BEB00000252C2303FB05830022C3E9062283F817
:10BEC00029205A61012283F82A203846BDE8F883E8
:10BED0000827FAE71127F8E7B83A0020E9BB020083
:10BEE000000300508000020014ED00E000E100E0DB
:10BEF0002DE9F04103680479244D0022C3F80025A0
:10BF00002C2202FB0452014652686AB1204AC3F84F
:10BF1000082343F30732C3F3043652090120B0402B
:10BF200020321C4E46F82200D3F80C05D3F81485B5
:10BF3000D3F80865D3F810754FF0FF329042C3F87C
:10BF40001425C3F80C25C3F80825C3F8102501D023
:10BF5000FFF7E8FEB8F1FF3F02D04046FFF7E2FEF0
:10BF60007A1C02D03846FFF7DDFE731C02D0304643
:10BF7000FFF7D8FE0868FFF7EDFD2C2303FB045400
:10BF8000002384F82A306360BDE8F081B83A0020CD
:10BF90008402020000E100E02DE9F047204F90F814
:10BFA00004904FF02C0808FB097405466669002EC2
:10BFB00034D162610068A16026624FF48E7184F80A
:10BFC0002860FFF7D3FD2868012383602146FFF72F
:10BFD000D5FD6368A0468BB92868D4F814A0236AFD
:10BFE0009A4511D82A68D2F81C31002BFBD00123C6
:10BFF000D3602C2303FB097300225A613046BDE84D
:10C00000F08794F828303BB9D0F81C31002BF8D0D9
:10C010004146FFF7B3FDE2E70F26EAE71126EDE719
:10C02000B83A00200023435082B043580193019B4B
:10C0300002B070471FB501238DF80030044BCDE9E5
:10C040000110D3E900126846904705B05DF804FB83
:10C05000E43A00201F2886BF00F01F00044B4FF079
:10C06000A04300F5E070022243F82020704700BF93
:10C07000000300507FB5434AD2F82461002E60D0FF
:10C0800010464FF49271FFF7CDFF02238DF8003078
:10C09000D2F88034C2F880340393D2F83C3502934E
:10C0A000394BDA6801920022C3E906226846D3E9D7
:10C0B000001290473348D0F8443173B14FF4A27165
:10C0C000FFF7B0FF304B9A693AB10022C3E906226C
:10C0D000D968D0F83C05FFF7ADFF2A48D0F82031E9
:10C0E000ABB14FF49071FFF79DFF0123C360264B66
:10C0F0005A6962B1D0F84C150291002299688DF806
:10C10000002001915A616846D3E9001290471D480A
:10C11000D0F858319BB14FF4AC71FFF783FF1A4B45
:10C120005A6962B1D0F84C150291002299688DF8D5
:10C13000002001915A616846D3E90012904704B08B
:10C1400070BDD2F81031002BB4D04FF48871104676
:10C15000FFF768FF0C4BD2F83C0599698842A9D1DA
:10C16000DC69D96864B1D2F8005225F02005C2F824
:10C1700000521A699C61DA60DE61FFF75BFF99E7A4
:10C180009C61FAE700200040E43A00202DE9F843E2
:10C190006A4B06799146242202FB0632044692F845
:10C1A00020200D469846002A40F0C380644900686C
:10C1B000FFF7AEFC0746002840F0BD802868421C0F
:10C1C00010D01F2887BF5F4A00F01F0303464FF0BF
:10C1D000A0420121994003F5E073C2F8081503213C
:10C1E00042F8231069684B1C0DD01F298BBF01F04A
:10C1F0001F030B46534A4FF0A04203F5E0734FF084
:10C20000000C42F823C02368AA69C3F8242595F8D6
:10C2100014C06A7DBCF1010F4CEA0202C3F86C2520
:10C22000C3F80C05C3F814152BD1A968481C0DD010
:10C230001F298BBF01F01F020A4642484FF0A04061
:10C2400002F5E0724FF0000C40F822C0E868421C92
:10C2500013D01F2887BF3B4A00F01F0C84464FF0C5
:10C26000A0424FF0010E0EFA0CFE0CF5E07CC2F875
:10C2700008E54FF0030E42F82CE0C3F80805C3F8B8
:10C2800010152423734308EB0302C2F804902A69B3
:10C2900048F80320B9F1000F3AD020682A7F4FF404
:10C2A0008871FFF7BFFE20684FF49071FFF7BAFE68
:10C2B00020684FF49271FFF7B5FE20684FF4A27129
:10C2C000FFF7B0FE20684FF4AC71FFF7ABFE2368B8
:10C2D0001D49C3F80413190B43F30733002BAEBFFA
:10C2E00003F1604001F00F0518484FEA4212A8BF61
:10C2F00000F56140D2B2B4BF425580F8002301F08E
:10C300001F01012202FA01F15B09114A42F82310D0
:10C3100023680822C3F80025242303FB0683002298
:10C32000C3E906225A61012283F820203846BDE87D
:10C33000F8830827FAE71127F8E700BFE43A00205E
:10C3400075C00200000300501003420014ED00E02D
:10C3500000E100E02DE9F0412E4E0579242303FB96
:10C36000056304465B6800686BB12B4BC0F808336B
:10C3700040F30733C0F304315B0901228A402033C4
:10C38000264941F82320D0F80032012223F020036F
:10C39000C0F800324FF4AC714260FFF743FE2368EF
:10C3A000DA60D3F85821002AFBD00022C3F8002518
:10C3B000D3F80C05D3F81485D3F80815D3F8107505
:10C3C0004FF0FF329042C3F80C25C3F81425C3F890
:10C3D0000825C3F8102501D0FFF73CFEB8F1FF3F58
:10C3E00002D04046FFF736FE7A1C02D03846FFF7EF
:10C3F00031FE4B1C02D00846FFF72CFE2068FFF7E9
:10C40000A9FB242303FB0565002385F820306B601E
:10C41000BDE8F081E43A00201003420000E100E0B2
:10C4200001F06043B3F1005F2DE9F041064638D1D9
:10C430001E4B0779242505FB073598466C69002CAF
:10C4400031D16A610068A9604FF49071FFF7EAFD8D
:10C450004FF4AC713068FFF7E5FD33686A69A9688D
:10C46000C3F84415C3F8482501229A606A68AAB93E
:10C47000D3F82021D3F858411AB9002CF8D00F2452
:10C4800007E0002CFBD10122DA60D3F85821002A02
:10C49000FBD0242303FB078700237B612046BDE8F4
:10C4A000F0811024FAE71124F8E700BFE43A0020F5
:10C4B00000F1804000F51C3001230360BFF36F8F53
:10C4C000BFF34F8F70470000064B1B68082B01BF5E
:10C4D000054B1868B0FA80F0400918BF002000F042
:10C4E00001007047300100103401001030B54C6875
:10C4F0000D689C4229BFC0E900530021E41AED18E1
:10C5000032BFC0E900514C600D60934203D1201E40
:10C5100018BF012030BD0020FCE74B6810B59A42DF
:10C520000C6828BF1A46C0E90042981A0B68486098
:10C530001A4400380A6018BF012010BD30B54C689D
:10C540000B68A24228BF2246002A14BF1D460025C0
:10C55000C0E90052A4EB02041A444C600A6014BF04
:10C560000120002030BD0000054B10F0800FA3F12A
:10C57000900208BF134600F00F0003EB0010704755
:10C580007C3C002010F0800F14BF0023102300F02B
:10C590000F00184470470000054B1B68082B02BFB2
:10C5A000044B00221A60044B00221A70704700BF2F
:10C5B000300100101C7C0240093B002007B5094AED
:10C5C00000231370084AADF8053013708DF807305A
:10C5D00001238DF80430054B01A81B68984703B070
:10C5E0005DF804FB083B0020103D00200C3D0020BE
:10C5F00070470000F8B54B680B4F93420C4628BFBC
:10C60000134606461A46096838461D4603F07AFE68
:10C6100060682268401BC6E900752A4460600038E3
:10C62000226018BF0120F8BD183D0020F8B54B6806
:10C63000934228BF134606460D461C468BB10A4F4F
:10C6400009681A46384603F05DFE37606B6874600F
:10C650001B1B6B602B68201E23442B6018BF01201E
:10C66000F8BD0360F2E700BF183D002007B50023C6
:10C670008DF804300B4BD3F82025ADF80620D3F805
:10C68000C034094A002B13680CBF4FF480714FF07F
:10C6900001210B431360054B01A81B68984703B0A9
:10C6A0005DF804FB00700240E83B00200C3D0020D8
:10C6B00008B50146FFF770FFFFF756FF837B032B9A
:10C6C0000BD10846FFF75EFF012303FA00F0C143D8
:10C6D000BDE808400348FEF751BF0368002BF0D0C7
:10C6E00008BD00BF783B00208720FFF7E1BF862010
:10C6F000FFF7DEBF8520FFF7DBBF8420FFF7D8BF41
:10C700008320FFF7D5BF8220FFF7D2BF8120FFF73C
:10C71000CFBF000008B5FFF73FFF084B93F89E20FE
:10C72000032A06D1BDE8084005486FF00101FEF775
:10C7300025BFD3F89030002BF4D008BDEC3B00208F
:10C74000783B0020FFF7E6BF07B5FFF725FF0D4B4D
:10C7500093F88E20032A11D0D3F8803073B90A4899
:10C760006FF08071FEF70AFF06238DF8043008236E
:10C77000ADF80630054B01A81B68984703B05DF87B
:10C7800004FB00BFEC3B0020783B00200C3D002068
:10C7900007B5FFF701FF104B93F81E21032A07D1BD
:10C7A0000E486FF48071FEF7E9FE03B05DF804FBFC
:10C7B000D3F81031002BF8D16FF480710748FEF7E1
:10C7C000DDFE06238DF804308823ADF80630044BD7
:10C7D00001A81B689847E8E7EC3B0020783B002065
:10C7E0000C3D0020244B13B5D3F80044C3F800449B
:10C7F000BFF36F8FBFF34F8FBFF36F8FBFF34F8FB9
:10C80000E1050ED51D4B01221A700023ADF805304D
:10C810008DF8073002238DF80430194B01A81B68EE
:10C820009847A2050DD5154A00231370ADF80530C1
:10C830008DF8073003238DF80430114B01A81B68D5
:10C840009847630516D50D4B1A789AB100221A70D5
:10C85000094B0121C3F808155820FFF729FE0423CE
:10C860008DF80430064BADF805201B688DF80720C5
:10C8700001A8984702B010BD00700240083B00209C
:10C880000C3D0020064B1868082802D104331B68B1
:10C8900023B9A0F10D035842584170470120704759
:10C8A00030010010012273B502FA01F51E491F4E36
:10C8B0000B6810F0800F43EA050304460B6027D095
:10C8C00000F00F021A4B33F8123003F1804303F5E6
:10C8D0001C331A684AB100221A60BFF36F8FBFF38E
:10C8E0004F8F802811D0FFF7E3FE316829400AD12D
:10C8F00006238DF804308DF806408DF807100D4B97
:10C9000001A81B68984702B070BDFFF703FFECE772
:10C9100033681D42F7D106238DF804308DF80600E8
:10C920008DF80720EBE700BFE83B0020783B0020B4
:10C93000CC1A03000C3D002008B5054B1A781046B0
:10C94000FFF720FEBDE8084001461046FFF7AABFEA
:10C95000103D00202DE9F04F7C4B87B01A780093F2
:10C96000002A40F08380DFF810A2DFF8E4B1784BB2
:10C97000DAF800101D68294078D011F0012578D030
:10C9800095FAA5F5B5FA85F50F2D86BFA5F110042A
:10C99000E4B245F080042046FFF7E6FD4FFA84F844
:10C9A000B8F1000F8289064604F0080966DAD0E97A
:10C9B000003104A8984700B93060664B1B68082B0B
:10C9C00002BF654B82221A60009B059A04980121E0
:10C9D0001970B368A940DBF80050134425EA01013F
:10C9E000B8F1000FB360CBF800105C4B04F00F04FB
:10C9F0007FDAB9F1000F74D0C3F8A006C3F8A426FB
:10CA0000FFF762FD25B2A300554A5649640000288D
:10CA100000F08180B8F1000FB2BF042528250A4636
:10CA2000514E524F1D4414444FF00008C6F8008088
:10CA3000BFF36F8FBFF34F8F2846FFF739FD0220FA
:10CA400001F09CF83368002BF0D01E2001F096F81E
:10CA50003B689B065DD5012001F090F8238803F127
:10CA6000804303F51C331B68002BDFD007B0BDE803
:10CA7000F08F91FAA1F1B1FA81F585E73749B9F163
:10CA8000000F27D0D1F8C03413F4803F18BF002323
:10CA900071683768019304A8B847049A002A8AD0BD
:10CAA000059A019B9A4286D201214FF00208A940C3
:10CAB00086F80E80C9435046FEF760FD06238DF8C8
:10CAC0000C302B4B8DF80E401B688DF80F8003A89F
:10CAD00098474CE704F00F0303F5947351F82330A3
