:020000022000DC
:1070000000000420797302006173020099B002004D
:1070100065730200677302006973020000000000DC
:107020000000000000000000000000006B73020080
:107030006D730200000000006F73020071730200A4
:107040001DDB02007373020069BC0200737302004F
:107050007373020073730200C5BA020073730200F7
:107060007373020073730200737302007373020080
:107070007373020073730200737302007373020070
:10708000737302003D880200737302007373020081
:107090007373020073730200A1FE02007373020097
:1070A0007373020073730200737302007373020040
:1070B0007373020073730200000000000000000000
:1070C0007373020073730200737302007373020020
:1070D000737302007373020073730200FDD5020024
:1070E00073730200737302007373020000000000E8
:1070F00000000000737302000000000073730200C0
:10710000000000000000000000000000000000007F
:10711000000000000000000000000000000000006F
:10712000000000000000000000000000000000005F
:10713000000000000000000000000000000000004F
:10714000000000000000000000000000000000003F
:10715000000000000000000000000000000000002F
:10716000000000000000000000000000000000001F
:10717000000000000000000000000000000000000F
:1071800000000000000000000000000000000000FF
:1071900000000000000000000000000000000000EF
:1071A00000000000000000000000000000000000DF
:1071B00000000000000000000000000000000000CF
:1071C00000000000000000000000000000000000BF
:1071D00000000000000000000000000000000000AF
:1071E000000000000000000000000000000000009F
:1071F000000000000000000000000000000000008F
:10720000364937480A1A02D0072291438D4635493C
:1072100035480A1A06D00722914381F309880222D1
:1072200082F3148831483249324A00F045F8324836
:107230003249334A00F040F832483349334A00F0CB
:107240003BF833483349344A00F036F83348344980
:10725000344A00F031F834483449354A00F02CF80B
:1072600034483549354A00F027F835483549002279
:1072700000F02DF834483549002200F028F8344851
:107280003449091A082903DB002202600430016036
:10729000314A90471F482049884205D0026804308F
:1072A00003B4904703BCF7E700208646EC46002075
:1072B00000212A4A9047FEE7884207D0521A05D09B
:1072C000037801300B700131013AF9D170478842DF
:1072D00002D002700130FAE770470000000004207D
:1072E00000E0032000000420000004209428030094
:1072F000382A00207C300020D4730200D4730200AE
:10730000B80C030094280300382A0020382A0020F3
:10731000300E0300300E0300300E0300300E030069
:10732000300E0300300E0300300E0300300E030059
:1073300094280300D82E03007C3000207C300020ED
:107340007C3000205442002054420020544200204F
:107350005442002054620020A173020045E702005D
:10736000FEE7FEE7FEE7FEE7FEE7FEE7FEE7FEE7F5
:10737000FEE7FEE700F002B8FFF7FCBF0F484FF052
:107380000701884385460E4880470E48016841F44E
:1073900070010160BFF34F8FBFF36F8FFFF730BFF6
:1073A00009480A490A4A884207D0521A05D0037888
:1073B00001300B700131013AF9D17047000004200F
:1073C000EDB0020088ED00E0300E0300382A002006
:0473D000382A002037
:1073D400F0B595B01C46164608460D4601F03DFE34
:1073E4001A9B0D93CDE9086400242346082205A9BD
:1073F40028460A948DF82C400C9401F04CFE079B0F
:107404000293BDF81830ADF80C30BDF81A30ADF861
:107414000E309DF814308DF8114003F00302012A58
:107424001DD1BDF81440059EC3F3C203C4F38314F5
:107434008DF81030A20008230EA9284601F02BFE77
:10744400C6F3952608AB0093224602AB0EA930463C
:1074540000F088FB284601F004FE15B0F0BD022AB6
:10746400F8D1BDF81640C3F3C203A4098DF8103057
:107474000827082C264628BF08263B4632460EA974
:10748400284601F008FEA41B08AB02AA31460EA848
:10749400374400F0CBFB002CEBD1DBE708B500F060
:1074A40095FC0421034800F0CBFA034B01225A71E6
:1074B40008BD00BF200E0300382A0020037813F013
:1074C400040216D003F00303012B03D0022B09D0CE
:1074D400012070470A6800880232C0F38310024416
:1074E4000A60F5E70B684288023303EB92130B60E2
:1074F400EEE71046704700002DE9F04F89B00546CD
:10750400861C08A8484C019200230F4600F8113D40
:1075140001F024F823683B60D4E901231344226872
:1075240001339B1A04F21C4704F5836A04F21448DD
:10753400B3421AD3019A0023002A6DD0012262F3C8
:10754400010343F0040365F389132168A2689DF8DD
:107554000F000A4003320E4444F82230266001F042
:1075640021F8012009B0BDE8F08F0121384601F06F
:10757400A3FA504601F0C3FA404601F0C0FA0DF1F7
:1075840020096068D4F808B049F8100D00EA0B002F
:10759400033004EB80004946FFF790FF049BB0B929
:1075A4000BEA030204EB8202D16805919A1C0133B1
:1075B40003EA0B0B04EB8B0C01F00303012B049285
:1075C400DCF80CB020D0022B04D083460BE00BEA8D
:1075D4000300DDE7BDF816309B0903334FEA1B4B6C
:1075E40002EB93030493404601F08CFA08B1049B28
:1075F40063605946384601F05FFAD4E90123134425
:10760400226801339B1A93E7BDF81430C3F3831344
:107614004FEA1B4B1344E5E7022262F3010343F0F4
:10762400040365F39F5390E74C3100200B4B0C4847
:10763400FF2210B59A600022C3F81824C3E900227F
:10764400C3F8142483F8202401F0C0FC044610B9C4
:10765400044801F07DFE204610BD00BF4C310020DF
:107664008C0D0300440E030030B50A4C71B10A4A74
:107674000A49121BD20800239A4201D1002030BDCE
:1076840031F82350854202D00133F5E7034654F81C
:107694003300F4E7CC0C03008C0D0300382A0020DF
:1076A400094B013903EBC000032909D8DFE801F0D5
:1076B4000A02040604207047007970474079704735
:1076C4000020704702207047CC0C0300034BD3E921
:1076D4000030C31A58425841704700BF4C31002053
:1076E4002DE9F04387B0FFF7F1FF0646002840F08C
:1076F400FC807F4DC5F81804BFF34F8F6868AC68F1
:1077040006AF47F8100D2040033005EB80003946E2
:10771400FFF7D4FE029B18B1D5F81824002A5FD0D5
:1077240004EA0302991C013305EB8202234005EBB2
:107734008303D268DB68049302F00303022B0392F1
:10774400029162D1BDF80E306A484FEA9318B8F13D
:10775400500FC14628BF4FF0500969F38F1309F148
:107764000801ADF80E3001F049FC0746002800F08E
:10777400A78001F072FC03A900230822384601F017
:107784007FFC029924EA01060136B600B14535D9D9
:107794005FFA89F97EB3F6B2A9EB060921400331F9
:1077A4005FFA89F4B146544E05EB810108234A4639
:1077B400384601F065FC36B109F10803224631462A
:1077C400384601F05DFC029B08F1030803EB9803C3
:1077D4000293D5F81834002B4BD1D5F810445BE054
:1077E4002A689A4204D86A60304607B0BDE8F0833C
:1077F40004EA030088E740493446D7E721400331CF
:1078040008234A4605EB8101DAE7012B58D1BDF87C
:107814000C303848C3F38311062928BF062161F3CD
:10782400891302318900ADF80C3001F0E7FB0746FB
:10783400002845D001F011FC0023082203A9384692
:1078440001F01EFC0026BDF80C20C2F38312B31C09
:1078540096424FEA8303BCD202994A1C2140033169
:10786400029205EB81010422384601F009FC01363D
:10787400E9E7384601F0F5FBFFF728FF80F0010047
:10788400C6B2B1E7E3685B7923B1236839461B6864
:1078940020469847E3681C68002CF3D1384601F071
:1078A400E0FB06A800F8114D00F058FED5F8183496
:1078B4000BB9029B6B609DF8070000F073FEDBE7D9
:1078C400D5F8104454B90D4B0D480E49C01AC008E0
:1078D400000440F0020000F06FF8CDE72368204672
:1078E4009B689847E3681C68ECE700267CE700BFC8
:1078F4004C3100208C0D030058310020CC0C0300C7
:10790400FC0C0300500E03002DE9F74F284C804671
:107914000F46924601A9012218469B46D4F80890C6
:10792400FFF7EAFD88B3019D0026A91C5E4506EB1E
:10793400010234D100211F4801F09EF880F31000A9
:107944006A1C02EA090204EB8202000405EA090344
:10795400033340EA1840D06014F8232068F3C502CA
:1079640004F8232034F8232066F3891224F8232012
:1079740054F82320012167F39F2244F8232061F364
:1079840001026FF3820204F8232094F820341BB11F
:10799400FFF7A6FE0028FBD103B0BDE8F08F09EA8B
:1079A400020204EB82025AF82630D3600136BDE7A6
:1079B4004C3100206835002000231A46FFF7A4BF8D
:1079C40013B502AC012344F8042D2246FFF79CFFB3
:1079D40002B010BD07B5CDE9002302236A46FFF7C4
:1079E40093FF03B05DF804FB1FB5CDE90123069BAB
:1079F400039301AA0323FFF787FF05B05DF804FB97
:107A04001FB5CDE90023069B0293079B03936A46A7
:107A14000423FFF779FF05B05DF804FB7FB5CDE9DA
:107A24000023089B0293099B03930A9B04930B9BDB
:107A340005936A460623FFF767FF07B05DF804FB6A
:107A440030B50F49D1F81024002314463CB9C4685A
:107A5400237152B9C1F810042260184630BDE4689D
:107A640025799D4206D02468F0E7D2681168216028
:107A74001060F2E701330A2BE7D14FF0FF33ECE754
:107A84004C310020094A38B50123D2F8104482F859
:107A940020341D4604B938BDE3685D71236820466F
:107AA4005B689847E3681C68F4E700BF4C3100202A
:107AB400037A052B10B50C460FD0437A23B1084A3C
:107AC4000849204601F07FF80749204601F07BF879
:107AD4002046BDE8104001F06BB8002AF8D0F3E767
:107AE4009B0E03003A1E0300651F0300C38873B591
:107AF40004460D4633B1144A00921449144A2846E8
:107B040001F061F8217A05291CD0637A4BB1A08871
:107B1400FFF7C6FD0F4B104953F82020284601F00B
:107B240052F8227A0D4BA08853F822600021FFF707
:107B34009BFD0B4903463246284602B0BDE870401F
:107B440001F041B802B070BD9B0E0300A80E030003
:107B5400A00E0300680E03003A1E0300CC0E0300BF
:107B6400C00E03002DE9F04385B01F460C9D002391
:107B740006460C46904695F80C902B7329463846D9
:107B8400FFF7B4FFB8F1060F09D8DFE808F00412D4
:107B9400181F283340003146284601F014F800220B
:107BA40029463846FFF784FF85F80C9005B0BDE8F8
:107BB400F08322683146284601F005F8EFE7D4E95E
:107BC40000233146284600F0FEFFE8E7A36800934F
:107BD4003146D4E90023284600F0F5FFDFE7E368E7
:107BE4000193A36800933146D4E90023284600F0AA
:107BF400EAFFD4E723690293E3680193A36800933F
:107C04003146D4E90023284600F0DDFFC7E7636965
:107C1400039323690293E3680193A36800933146B5
:107C2400D4E90023284600F0CEFFB8E708292DE95F
:107C3400F84F80460E4617461C463AD8002593F85E
:107C44000C901D7319461046FFF750FFDFF884A00F
:107C5400DFF884B0AE422ED918F8052059462046E4
:107C640000F0B1FF0135082DF4D11849DFF86CB0EC
:107C7400204600F0A8FF4FF0000A564520D918F816
:107C84000A507E2D03D8284608F06EFB00B92E2535
:107C94002A465946204600F096FF0AF1010ABAF135
:107CA400080FEAD1012221463846FFF701FF84F884
:107CB4000C90BDE8F88F5146204600F084FFD1E7D0
:107CC4000349204600F07FFFE7E700BF960E03005C
:107CD400940E0300920E03008C0E0300980E030012
:107CE400014B01221A70704749360020704700008A
:107CF40070B50E4D06460FCD88B06C460FC495E89E
:107D04000F0084E80F0008A9002E4FF00603084A6C
:107D140041F8203D08BF0022064803F09FFC08B14B
:107D240000F0CCF9044B1E7008B070BD2C0F03009A
:107D3400E57C0200402A00200836002007B5044BE9
:107D44000093044A4023FFF743FB03B05DF804FBB0
:107D54005D7D02000936002038B50D4B0D4D002025
:107D640018700D4804782D5DD2B21C4665B10430FC
:107D740004F01CFC08B100F0A1F9084B1A7812B108
:107D84002378002BFBD038BD0C3004F0B5F9F1E7B3
:107D940049360020EC390020402A00200836002013
:107DA40008B50848084A0378D35C3BB1043004F0B2
:107DB40095FB0020BDE80840FFF79ABF0C3004F0A3
:107DC40045F9F6E7402A0020EC3900200120FFF7AE
:107DD4008FBF0000C30710B507D4F0234008054A3D
:107DE400145C23401943115410BD0901C9B20F2377
:107DF400F4E700BF7836002030B5094B1C78094BF6
:107E0400196800239C4202DC0022104630BD11F8A0
:107E14003350854201EBC302F7D00133F2E700BFD0
:107E24004A3600209836002070B504460D46FFF708
:107E3400E3FF30B1436823B129462046BDE87040D2
:107E4400184770BD034B044819680022490800F024
:107E54005CBA00BF4C3600205036002010B5C0B2CA
:107E6400FFF7CAFF0446007803F01AFE63785A1E2F
:107E740053425341834208D1044BD3E900231343B3
:107E840003D1BDE81040FFF7DDBF10BD7036002000
:107E94002DE9F348394A43080446D35CC2074CBF72
:107EA4001B0903F00F030D46042B39D8DFE803F058
:107EB4000328303D410099B30121FFF78BFF02A84D
:107EC400002600F8016D00F049FB2D4D0121A4F1BD
:107ED4002007C4F1200001FA07FC21FA00F04CEA63
:107EE400000C01FA04FBD5E900014BEA00024CEA5C
:107EF4000103C5E900239DF8070000F053FB0FE0E0
:107F0400002914BF022100212046FFF763FF07E088
:107F140049B10321FFF75EFF01212046FFF784FFEB
:107F240002B0BDE8F0880121EEE70029F8D1042170
:107F3400EAE709B10321E7E7FFF74CFF29462046AA
:107F4400FFF772FF02A80E4E00F8015D00F006FB79
:107F5400A4F120070121C4F1200001FA07FC21FA51
:107F640000F04CEA000C01FA04FBD6E9000120EA17
:107F74000B0221EA0C03C6E90023BCE77836002093
:107F8400703600202DE9F041124E134F002433784F
:107F9400A34208DC114BD3E90023134318D0BDE8F6
:107FA400F041FFF74FBF3D6805EBC40815F83400F6
:107FB40003F076FD98F801104B1E594259410A1AF4
:107FC400514215F834005141FFF762FF0134DEE7F6
:107FD400BDE8F0814A360020983600207036002033
:107FE400092AF7B505460C4616463FD903F07EFC30
:107FF400D8B11F4B1F481D601F4B204F1C70204BD6
:10800400002120221E6008F058FA1E4B0020002197
:10801400C3E90001013CE4B20326FF2C0BD11A4A48
:108024001A48002100F066F903E003F029FC002857
:10803400DFD003B0F0BD9DF806308DF8046020B2A7
:1080440003F0FC0305EBC0026FF382038DF80630E6
:10805400937815F830008DF805303A4601A903F0FD
:108064004FFC013CE4B20028D7D0E2E70720E0E768
:1080740098360020783600204A360020617E0200BF
:108084004C36002070360020897F0200580F030010
:1080940070B5084D084E00242B789C4201D3002073
:1080A40070BD3368012113F8340003F0AFFC0134D0
:1080B400F2E700BF4A360020983600201FB50021A1
:1080C400039001AA44F20100CDE9011100F004F883
:1080D40005B05DF804FB000010B572B6FFF7D2FCE2
:1080E400FFF7FEFA0028FBD1104B114C1149E41A9A
:1080F400E408240444F00100FFF75EFC0E4B1B6807
:10810400DB0700D500BE0D4944F00200FFF754FC24
:10811400BFF34F8F0A490B4BCA6802F4E062134362
:10812400CB60BFF34F8F00BFFDE700BFCC0C030053
:10813400FC0C0300670F0300F0ED00E0730F030075
:1081440000ED00E00400FA0510B58468C268838875
:10815400121B934208D3C26813400268D154C36807
:108164000133C360002010BD0420FCE78268C368AB
:108174009A420AD08268838813400268D35C0B70E9
:108184008368013383600020704705207047D0E97D
:108194000223D1E90201994208BF90422CBF012079
:1081A400002070472DE900480C4800F031FB0C4BCF
:1081B400D3E9002312EB000B43F1000C094BD3E984
:1081C40000239C4508BF93455846614603D21BF1E2
:1081D40080704CF10001BDE8008800BF542A0020E3
:1081E400A03600201837002037B505460C460A484B
:1081F40001A900F0CCFB60B10570446001A90648F8
:1082040000F0EFFB18B1054800F006FB002003B0B6
:1082140030BD0420FBE700BF04370020542A0020AF
:10822400194B1B782DE9304804461BB90025284614
:10823400BDE830880028F9D0037F03F0FF05002B48
:10824400F4D0FFF7AFFFD4E90223994208BF90426C
:1082540015D3236903B92377D4E9053098472169F5
:108264000029E3D0237F03F0FF05002BDED0D4E9FF
:10827400022312EB010B43F1000CC4E902BC2146BA
:10828400024801F084F8D2E7A8360020840F0300E6
:1082940013B5114B1149186801900823582210484E
:1082A40000F062FB044698B90E4A0F4801A900F099
:1082B4009DF9044660B901210B4800F08BFA0123B3
:1082C4000A4A0948194600F0EFF9094B01221A70CD
:1082D400204602B010BD00BF800F0300AC36002062
:1082E4000437002059830200542A0020FFFF7F0036
:1082F400A83600203AB103685A614A1E51425141DE
:108304001961002070470720704738B5037F044681
:108314000D4683B98261FFF745FF421941F100031D
:10832400C4E90223236903B1256121460020BDE885
:108334003840FFF759BF002038BD002301460377BA
:108344000120FFF751BF0000014800F061BA00BFEF
:10835400542A00202DE9F74F064600F043FA40B1B5
:108364005849D1E9002312F1807443F10005C1E9B1
:1083740000450021304600F044FA38B1524C2368DD
:1083840023B12068FFF74CFF00232360012130460E
:1083940000F037FA20B1FFF705FF4C4BC3E90001A9
:1083A40001A94B48484D4B4C4B4F00F02AFB002889
:1083B40044D1DFF820A1444CDFF824B1504600F04A
:1083C400FCFF2368002874D07BB12368D0E9020144
:1083D400D3E90223994208BF90422CD223681B7F21
:1083E4001BB12168504600F0D2FF504600F0DFFF79
:1083F400D0E902890746FFF7D5FEB8EB000869EB20
:10840400010940464B46012873F1000344DB334D18
:10841400A8453FD9FFF798FF42194FF4960300216E
:10842400584600F061F900283ED1236813B930465C
:1084340000F032F9276003B0BDE8F08F0378012B18
:108444001DD00BD3022B11D14FF00008204600F0B1
:10845400AEFF002833D080F81C80F7E741680B7F1B
:1084640023B901230B77204600F091FF01A9184896
:1084740000F0F2FA01A9164800F0C3FA97E7416840
:108484002B68994202D100232B60EFE7204600F0CD
:1084940097FFEBE7BA68C0E70021584600F0A7F958
:1084A4003846FFF7BDFE01E00D28F9D00023236014
:1084B40084E7002BBFD1304600F0F2F8BBE701237C
:1084C4003B70D3E7A0360020203700201837002067
:1084D40004370020840F0300A8360020FFFFB400F7
:1084E400542A00200648074A03780749D35C01222E
:1084F40013B1043004F05AB80C3003F0FDBD00BFD2
:108504005C2A0020EC3900203437002010B50146E5
:108514000E48FFF719FE0446A8B90D480D4A037822
:10852400D35C63B1043004F08BF860B90A4907489E
:10853400FFF71CFE38B9BDE81040FFF7D3BF0C307D
:1085440003F026FEF1E7204610BD00BF24370020CB
:108554005C2A0020EC3900203437002070B5EFF39A
:10856400108672B60C4A946801239CB993600B4B35
:108574000B4DD3F8801029401160C3F88050D3F814
:10858400841051604FF0FF32C3F88420047006B9A0
:1085940062B670BD0370FAE73837002000E100E0EE
:1085A400FC06FFBD084B9A6810B55AB150B9EFF3F9
:1085B400108172B6054A1C6814605C685460986047
:1085C40001B962B610BD00BF3837002000E100E0F9
:1085D400435882B03BB10023435043580193019B5D
:1085E400012002B070471846FBE70000F8B5224BA3
:1085F4004679224D43F82620214A224BF7009B1A44
:10860400EA19DB0812791B0432B143F002001E4957
:10861400FFF7D2F90820F8BD02680C88C2F80845B3
:1086240090F904208978002AA8BF02F1604CD4B2E2
:10863400BABF04F00F0EDFF858C00CF5614C4FEAD6
:108644004111C9B2B4BF0CF80E108CF800135209D2
:108654000121DFF840C004F01F042F4401FA04F4A0
:108664004CF82240397145F83600084943F00300BC
:10867400FFF7A2F90020CEE74C3700204437002052
:10868400CC0C03000C0D0300A60F0300C80F03005D
:1086940014ED00E000E100E0036801221A60704775
:1086A400036801225A60704773B58D0005F5A07503
:1086B4000068ADB24FF480348C400026C0F8084303
:1086C400C0F84843465101F5A8714559019522F077
:1086D4007F42019D40F82120C0F844430BB1C0F80B
:1086E400044302B070BD00002DE9F74F8E00984698
:1086F4004FF4803503688D4006F5A079C3F84853DC
:108704001FFA89F9C3F80853074698198A464FF0A7
:10871400000BD3F8041522F07F44D0F84025C0F8AC
:10872400401543F809B053F809300093009B531ADD
:1087340023F07F43012B0CD1254B4FF4806043F091
:10874400010398473B6843F809B053F80930019393
:10875400019B3868D0F80495C0F84453A4EB09038E
:1087640023F07F43012B1AD10AF5A87A184B013460
:1087740040F82A4043F001034FF4806098473B6877
:10878400D3F80435994508D13B680020C3F8445315
:10879400C3F8045303B0BDE8F08F0D20FAE7064494
:1087A400C8F1FF18C6F84045D0F80435E21A013A7A
:1087B40022F07F4208F57F489045EED3002AE3D1AA
:1087C4000134C6F84045D0F804259342DBE700BFE6
:1087D400A00F030003680222C3F8442309B1C3F8BD
:1087E400042370474FF482710068FFF7F1BE4FF421
:1087F400803303FA01F10368C3F84813C3F808137C
:108804007047890001F5A07189B20068FFF7E0BEE6
:108814000368D3F80405704790F9043001215A091C
:1088240003F01F0301FA03F34032024941F82230F6
:10883400704700BF00E100E0024B034A1B68106868
:10884400184700BF4C37002044370020BFF34F8F38
:108854000549064BCA6802F4E0621343CB60BFF3D8
:108864004F8F00BFFDE700BF00ED00E00400FA05F4
:108874002DE9F3470546FFF705F9FEF731FF002818
:10888400FBD12D4B2D4C9F6A2D4BE41AE408240494
:1088940044F00104002D49D0AA692A492046FFF773
:1088A4008FF8EB680193AB6800932749D5E900235F
:1088B4002046FFF7A5F8EB6900932449D5E9042382
:1088C4002046FFF791F81C4BDB6A990703D5204932
:1088D4002046FFF771F8DFF88890DFF888A00026BB
:1088E4004FF0010808FA06F33B4206D059F8262057
:1088F4001AB151462046FFF763F801361A2EF1D11A
:108904003A0605D50C4B13495A6B2046FFF758F825
:108914003B0405D5084B10499A6B2046FFF750F8E5
:108924002846FFF793FF02B0BDE8F0870B492046C5
:10893400FFF742F8C7E700BF00ED00E04C0D03006D
:10894400CC0C0300DA0F0300EF0F03002410030024
:108954007F100300CE100300EE1003004C10030040
:1089640008110300C310030010B561B1B2FBF3F4A6
:1089740003FB1424A4B244B9C0E9001484608281C6
:10898400C381204610BD0E20FCE70920FAE737B565
:1089940050E8013F9DB2C48925448489A54228BF7B
:1089A4002D1B0489A54202BFBFF32F8F002207E0CD
:1089B400C5EA030540E80154002CE9D14FF0010257
:1089C4008DF803200193019B9DF803200B6002F0B6
:1089D400FF0322B10B880068184403B030BD184669
:1089E400FBE70A884B889A4209D150E8012FC2EA72
:1089F400024240E80123002BF7D1012070470020F8
:108A0400704737B550E8023F1FFAA3F5C488A54262
:108A140002BFBFF32F8F00220DE0C489254484894F
:108A2400A54228BF2D1BC3EA054540E80254002C8B
:108A3400E8D14FF001028DF803200193019B9DF8CA
:108A440003200B6002F0FF0322B14B880068184436
:108A540003B030BD1846FBE70A884B889A4209D117
:108A640050E8022FC2EA224240E80223002BF7D149
:108A7400012070470020704750E8002F0B4640E863
:108A8400003C9CF0000FF7D11046704750E8003FBF
:108A940043EA010240E8002C9CF0000FF6D1104696
:108AA400704750E8002F02EA010340E8003C9CF0C4
:108AB400000FF6D11046704750E8003F03EB010267
:108AC40040E8002C9CF0000FF6D11046704750E8A7
:108AD400003FA3EB010240E8002C9CF0000FF6D10C
:108AE4001046704750E8003F8B422CBF5A1A1A4672
:108AF40040E8002C9CF0000FF4D11046704701218F
:108B0400FFF7C4BF0021FFF7CCBF10B590B1D0E987
:108B1400012301689B1ADBB20A60013BDBB2FF2B25
:108B2400026802D10020107110BD11684C1C146041
:108B34000B70F2E70E20F7E737B5054602A80024CC
:108B440000F8014DFFF70AFD2A686B681168994225
:108B54000ED9481E106011F8014CEB68298A01FBFC
:108B64000434AB6811791B1ADBB2994238BF137114
:108B74009DF80700FFF716FD204603B030BD37B55A
:108B8400054602A8002300F8013D0C46FFF7E6FC69
:108B94002A681368591C1160E968641A298AB4FBAD
:108BA400F1F41C709DF80700FFF7FCFC03B030BD26
:108BB400826810B504462AB1436901680069984780
:108BC4000023A36010BD0EB403B5039929B102AA12
:108BD40004AB42F8043D00F073F802B05DF804EB16
:108BE40003B070470A2938B504460D4602D10D2159
:108BF400FFF7F8FFA3682268591CA160D554D4E993
:108C040001329A4204D32046BDE83840FFF7D0BF72
:108C140038BD00002DE9F84F9946DDE90A431746AF
:108C2400824688460A460126BA420FD24E4538BFCC
:108C34004E4613F0010B01D164B900240125B9F1AA
:108C4400010F1AD909F1FF397D43F8E7B2FBF7F2B6
:108C54000136E9E79B070ED5B9F1000F0CBF3025AB
:108C64002025A642EAD2013C29465046FFF7BAFF26
:108C7400002CF6D1E1E72025F3E7B8FBF5F39F429A
:108C8400E2D9DFF83890B8FBF5F3504619F8031031
:108C940005FB1388FFF7A6FFB5FBF7F5002DF2D10E
:108CA400BBF1000F02D00CB1A64201D3BDE8F88F8E
:108CB40020215046013CFFF795FFF4E730160300EE
:108CC4002DE9F74F054690460E46002900F03A81FB
:108CD40016F8011B002958D0252940F0D18000271F
:108CE40002E047F001071646324612F8013B2D2BED
:108CF400F7D0302B04D02B2B05D147F00407F2E733
:108D040047F00207EFE700242A2B06F101021BD1EA
:108D1400D8F80030191D1B68C8F800101C4416460A
:108D240033782E2B1CD101364FF0000A314611F84E
:108D3400012BA2F13000092814D80A2303FB0A23CB
:108D4400A3F1300A0E46F1E712F8013CA3F1300119
:108D54000929E5D80A2101FB0434303C1646D3E73F
:108D64004FF0000A324612F8011B01F0FB0068289C
:108D74001646F8D0692916D054D8582970D00ED880
:108D840025297DD03378002BA2D12B7B002B00F03A
:108D9400D980284603B0BDE8F04FFFF709BF632927
:108DA40068D06429EED1D8F80020D2F80090111DC3
:108DB40089EAE972C8F80010A2EBE9724FF0010BDE
:108DC400092A61DCD34538BFD3462CB1B9F1000F71
:108DD40001DB790700D5013CBA0702D5BAF1000FCF
:108DE40004D0FB0702D4002C54D10024B9F1000FA5
:108DF40058DAC9F100092D212846FFF7F3FE07F0E0
:108E04000302022A05D1BAF1000F02D1002C4DD180
:108E14000024CDE9004753460A2249462846FFF775
:108E2400F9FEAFE7732954D016D87029AAD1D8F81F
:108E340000301A1DC8F80020302128461C68FFF7AE
:108E4400D1FE78212846FFF7CDFE00220823CDE984
:108E5400003221461022E1E775292FD0782991D1DB
:108E6400D8F800100A1DC8F80020CDE90047534681
:108E740010222CE0D8F800301A1D1978C8F8002008
:108E84002846FFF7AFFE7DE70A230BF1010B92FBA7
:108E9400F3F295E7A345A9D220212846013CFFF728
:108EA400A1FEA0E77807AAD52B21A5E7A345B0D258
:108EB40030212846013CFFF795FEA7E7D8F80010BB
:108EC400CDE900470A1DC8F8002053460A22096864
:108ED400A4E7D8F800301A1DC8F80020F907D3F821
:108EE400009012D54F46A7EB090B17F8011B41B9A7
:108EF400A345BFF447AF20212846013CFFF772FE8B
:108F0400F6E72846FFF76EFEEDE7B9F1000F17D03C
:108F1400484607F005FB0746BC4200D954B909F19D
:108F2400FF3919F8011F00293FF42CAF2846FFF739
:108F340059FEF6E720212846013CFFF753FEEBE7F4
:108F44004F46E9E703B0BDE8F08F2DE9F047B0F8EC
:108F540006904479D2F800A09DF8208009FB04F41F
:108F6400043C06460AEB0300A0420F4688BFA4EB6C
:108F7400030A191DC2F800A0B1FBF9F509FB15118C
:108F84004DB9A9EB0104544528BF5446BAF1000F6A
:108F940004D1BDE8F0873668013DF1E704317B195F
:108FA40070182246B8F1000F0ED001461846AAEBFD
:108FB400040A07F059FAD145254436684C464FF067
:108FC400000128BF5446E1E71946F0E7FFF79DBDCD
:108FD400F8B546790146721E0546002393422D6872
:108FE40003D30024A64202D8F8BD0133F6E70F6884
:108FF4002846FFF7C4FD01343946F3E72DE9F84369
:10900400068ACD1C0746FFF797FD043E3544044607
:10901400B5FBF6F5F0B14FF48073EDB28380C680F2
:10902400013D076081464FF00008A84512D238463A
:10903400FFF782FD064648B163790133637108F195
:109044000108C9F8000007608146EEE72046FFF7F3
:10905400BFFF34462046BDE8F88301210430FFF702
:109064002BBD10B5012104460430FFF730FD10F08C
:10907400FF0F04D12046BDE81040FFF7A9BF10BD83
:109084001FB504AC44F8042D002200922246FFF7D9
:109094005CFF04B010BD1FB504AC44F8042D0122DC
:1090A40000922246FFF751FF04B010BD33DF704732
:1090B40041DF7047064B10B500241C70054B1C6043
:1090C400BFF35F8F0449054800F04BF9204610BDFB
:1090D400593700205C370020401603005037002029
:1090E40007B502A8002300F8013DFFF737FAF1EEB7
:1090F400103A23F09F03E1EE103ABFF35F8F0A4B5F
:109104004022C3F884219DF80700FFF74BFA06F0CC
:10911400ABFE20B1FFF7CCFF03B05DF804FB20BF2A
:1091240040BF20BFF8E700BF00E100E070B5264C67
:10913400054601212046FFF79FFCBFF35F8F2646BB
:1091440038B9042D0AD0214B1A781AB1BFF35F8FB6
:10915400206070BD1E4A157001221A701D4C1C4DF2
:109164006368BBB9FEF78EFCFEF7BAFA0028FBD1A0
:10917400174B1B78023B012B14D8BFF34F8F1649B2
:10918400164BCA6802F4E0621343CB60BFF34F8FFF
:1091940000BFFDE71B682878984788B1204600F097
:1091A400EAF8DDE706F060FE08B1FFF77FFF4FF055
:1091B40080430122C3F80025BFF34F8F20BFFDE792
:1091C400BFF35F8F3060C4E75C370020593700205D
:1091D400583700205037002000ED00E00400FA0565
:1091E400026813685268934291BFD01A80680130B4
:1091F400801888BFC01A7047036881681A685B6862
:109204008B4234BF01330023D31A5842584170476C
:10921400F7B5044602A8002300F8013D0D46FFF708
:109224009DF92046FFF7E8FF10B1237C002B3CD1C9
:109234002268A66853685168B14234BF01310021E5
:10924400516030B11168A068814234BF01310021FE
:109254001160E2686068511E072920D8DFE801F038
:1092640004101F141F1F1F182A78C2542046FFF72A
:10927400B7FF23689A68824200D29860002415E000
:109284002A8820F81320F1E72A6840F82320EDE724
:10929400D5E9006700EBC300C0E90067E6E72946AB
:1092A40002FB030007F0E0F8E0E704249DF8070060
:1092B400FFF778F9204603B0F0BD036818685B68CF
:1092C400C31A58425841704773B5054602A8002393
:1092D40000F8013D0C461646FFF740F92846FFF713
:1092E400ECFF002832D129680B682EB90A68A868F7
:1092F400824238BF561C0E60EA686968501E07280F
:109304001ED8DFE800F0040E1D121D1D1D16CB5CD7
:10931400237000249DF80700FFF744F9204602B0AB
:1093240070BD31F813302380F3E751F82330236004
:10933400EFE701EBC301D1E90023C4E90023E8E727
:1093440003FB0211204607F08FF8E2E70524E1E76A
:10935400836800225A609A60C3E90422DA601A60C2
:1093640070470B684A684360934208BF002301605A
:1093740008BF43607047436843B10268916852680C
:109384000B449342436004BF00234360704770B5AD
:10939400446806460D46206818B1B36829469847C4
:1093A40018B923682B60256070BD2468F3E743680F
:1093B400186808B102681A607047436818687047F3
:1093C4004368186800B970478842026802D11A607D
:1093D4000120704703461046F4E700000D4930B5FC
:1093E400A1F594720225914201D800200EE08B1A57
:1093F400DB1093FBF5F302EBC30452F833308342E2
:1094040005D802D204F10802EDE7606830BD2146B8
:10941400E9E700BF9C17030008B5FFF7DFFF024B25
:10942400002808BF184608BD5E16030010B50446A0
:10943400C0B2FFF76BF8204610BD43681B6818479D
:10944400024B5B6803B11847704700BF64370020C4
:10945400020600F00F034CBF02480348DB00184427
:10946400704700BF70370020B837002008B5FFF7F9
:10947400EFFF016009B9416008BD4B681B68436098
:10948400FAE70000024B01465A681868104700BF0B
:10949400B837002038B5831EDBB2062B98BF194AB3
:1094A400194C98BFD25C2378A3F10203DBB288BFC6
:1094B4000022062B9ABF1349CB5C00239342054636
:1094C40003D0A2B1114802F03BF8022D01D0082DBF
:1094D40010D101232278022A01D0082A0CD10122BA
:1094E4009A4202D053B103F0D3FD257038BD02F087
:1094F40061F8EAE70023EDE70022F1E703F0BEFD9F
:10950400F3E700BF561B030030390020702A002007
:109514000378052B73B504460CD12F4AD2F8843452
:10952400D2F8802412F0FF0F04D12C4ADBB2052BB1
:1095340008BF144623782BBB294B1D68DDB902A84C
:1095440000F8045D274DFFF709F82A6812B9264B85
:1095540062881A8001212348FFF7AEFA9DF80400BF
:10956400FFF720F8214B1B6813B1012120469847CF
:109574002B6802B070BD2B6860889B6898472B6885
:109584005D68DBE701A91A48FFF701FA05460028E0
:10959400EFD02368036002A8002600F8056DFEF7EB
:1095A400DDFF114B0F481B88026801339B1AEB80C7
:1095B4003146FFF761FAA8809DF80300FEF7F2FF39
:1095C40001A90B48FFF70DFA084B1B680146002B55
:1095D400CFD020469847CCE700700240701B0300B0
:1095E400243900202C390020003800206437002062
:1095F4000C390020FFF78CBF012806D002D30228C3
:1096040005D070470348FFF783BF0348FBE70348CF
:10961400F9E700BF641B0300681B03006C1B030015
:109624000148FFF775BF00BF741B03002DE9F04F1D
:1096340087B006AC002644F8106D0546894692466C
:1096440098466B6800225F68294601232046B84784
:1096540040B98DF80600049004460746BE4203D87C
:1096640005202AE00136ECE76B680DF10602D3F819
:1096740004B02946012304A8D8476B680DF10702FA
:10968400D3F804B02946012304A8D8479DF807302D
:109694004B459DF8063015D1544511D1109A1360ED
:1096A40088F8003088F801906A68023B54682946BB
:1096B40008F1020204A8A047002007B0BDE8F08F1B
:1096C4000134E4B26A68023BD2F804B029460022AD
:1096D40004A8D8479DF806301F44BFE72DE9F74397
:1096E400082305464FF484722F493048FFF73CF9AC
:1096F400002856D12E4803F0E1FC0446002835D159
:109704002C4B18702C4B18602C4B014618604822C7
:109714002B4806F0D2FE482221462A4806F0CDFE08
:10972400294B3DBBC3E900551D72002004F06AFAC1
:1097340018B1852801D0FEF7C1FC244E96F8089094
:10974400002506F10908ECB2A14504D904EB440450
:1097540014EB080423D102A90B2301F8043D1B4890
:10976400FFF76BFE044608B103F04EFB204603B03E
:10977400BDE8F08395E8070083E80700D5E73146A4
:10978400E05CFFF773FE6378FAB2934205D9A378DD
:109794001344DC4207F10107F1D10135D3E7002777
:1097A400F1E70324E2E700BF023800200C3900206F
:1097B400F9950200303900201C390020203900209E
:1097C40070370020B837002064370020841B030062
:1097D40010B503F00BFC08B9082010BD03F00EFC13
:1097E40004460028F8D1044804F03EFA0028F4D0D6
:1097F400FEF764FC2046F0E7601B030003F00EBB99
:1098040003F0FABF4FF08043D3F83824920702D50F
:109814000348FFF77DBED3F83824D107F4D470474A
:10982400751B030007B502A8822300F8043DFFF767
:109834006FFE03B05DF804FB2DE9F341037A00F1F8
:1098440009040325064615FB03452746AC4231D0DF
:109854001CB394F80180002106E0E05CFFF7F8FDFA
:1098640003680131002B36D1CBB2984503D9A378D4
:109874000B44DC42F1D10334E8E73146E85CFFF7FE
:10988400F5FD6A785FFA88F39A4205D9AA781344F9
:10989400DD4208F10108F0D10134337AE5B2AB427C
:1098A40003D905EB45057D1901D10C4B05E04FF0BB
:1098B4000008E6E70024F0E713681A68002AFBD1E1
:1098C40002A91E600B2301F8043D3046FFF7B5FDE5
:1098D40002B0BDE8F0811120FAE700BF1C39002076
:1098E400024B1878003018BF012070472839002037
:1098F40000F00F03072B10B5044604D803F008FD4D
:10990400204604F041F82046BDE8104003F0ECBFC7
:1099140003F0B8BF014B1868704700BF1C39002022
:1099240070B50A4B1B687BB11E7A0022D5B2B542D2
:1099340001D31B68F6E7013202EB42041C44A4790C
:109944008442F3D101B10D70184670BD1C3900205A
:109954001146FFF772BD08B500F00F03082B07D8B6
:10996400FFF776FD006818B1BDE80840FFF765BD54
:10997400102008BD38B5054B05461C6804B938BD30
:1099840029462046FFF759FD2368F6E71C390020D5
:1099940038B5074B05461C680CB9062038BD294666
:1099A4002046FFF74AFD0628F8D12368F3E700BFF5
:1099B4001C39002038B504460D4603F0C0FB48B1FD
:1099C400054B1B78022B05D129462046BDE83840BB
:1099D40003F0B8BB082038BD3039002038B5044640
:1099E4000D4603F0ACFB48B1054B1B78022B05D1A7
:1099F40029462046BDE8384003F01CBC082038BD89
:109A040030390020F8B543689B6805460C46164675
:109A140013B92EB1072002E098470628F9D0F8BD03
:109A24002B7AA34213D9093504EB44042C446778F8
:109A3400F3B29F4201D80020F1E762789A4208D934
:109A4400A219A378D05CFFF753FF0136F0E77378CF
:109A5400FFDE00231B78FBE74368DB6870B505462F
:109A64000C4603B198472B7AA34213D9093504EB6A
:109A740044042C4400256678EBB29E4200D870BDA5
:109A840062789A4209D96219A378D05C03F0FAFE8D
:109A94000135F1E700235B78FFDE00231B78FBE749
:109AA40043681B6903B118471846704770B5084BE3
:109AB4001C6804B970BD267A0025E9B2B14201D30D
:109AC4002368F5E700222046FFF79CFF0135F4E701
:109AD4001C39002070B5084B1C6804B970BD267A87
:109AE4000025E9B2B14201D32368F5E72046FFF728
:109AF400B3FF0135F5E700BF1C39002038B5047801
:109B0400092C054620D023D8032C00F0BC8012D8A1
:109B1400012C00F0A68040F28D800320FFF7BAFCF0
:109B24000220FFF78DFC2846FFF724FF2846BDE8F6
:109B34003840FFF7A7BC052CF8D0C0F0B380062C42
:109B440000F0BF80082C13D12046FFF779FC95E084
:109B5400812C0ED005D80F2CF6D0802C44D00A2CA2
:109B6400F1E7832C4CD021D3842C53D0852CDDD029
:109B740038BD5E48FFF786FC5C48FFF7FBFE0D200E
:109B8400FFF75EFCFFF7A6FF00F0B9F9584B1B681E
:109B940053B9584B187A00F0010003F0FDF9012085
:109BA400BDE83840FFF776BC0120F4E7FFF792FFE9
:109BB40003F004FE0020FFF76DFC4F48FFF7DAFEC8
:109BC4004D48FFF75FFC0E20FFF73AFC4B4B1B7828
:109BD400023BDBB2062BCBD8494AD35C002BC7D05F
:109BE400BDE8384001F0E6BC444B1B78062B05D099
:109BF400072B01D0052BBBD10220D1E70820CFE7EA
:109C04003E4B1B78032BB3D103F010FE0028AFD0DA
:109C14000420C5E7394B1B78032B05D103F006FE5E
:109C240010B10420FFF736FC03F0F2F900289FD0AE
:109C34000620B5E7314B1B78032B01D0082B02D14A
:109C44003048FFF75BFF0020FFF7FAFB284B1C6846
:109C5400002C8DD020462946FFF7EFFB23685C6873
:109C6400F6E7FFF737FF00F041F90220FFF712FC97
:109C74002046FFF7E5FB2846FFF704FC2846BDE82D
:109C84003840FFF777BE1D4B1B78082B06D1022006
:109C9400FFF700FC03F006FA0320EAE70520FFF7CC
:109CA400F9FBF9E70320FFF7CBFB1748FFF7EAFBC3
:109CB4001548FFF75FFE114B1B78062B9CD107203C
:109CC4006EE78078FFF7C4FB29464368006898472D
:109CD40000283FF44DAFA87800F00F03013B062B9A
:109CE4003FF646AFBDE8384003F0ECBA761B0300FC
:109CF4002039002064370020771B0300303900200E
:109D0400561B0300781B0300791B030073B5234D16
:109D1400002301932B6823B921492248FEF771FEE1
:109D240028602C68ECB1A68886B1E388B3F5006F8F
:109D340024BF0023E380E388ADF806305A1C013EBB
:109D4400E280A68001A8FFF7D9FE07E02046FFF7CE
:109D5400D5FE13491348FEF77FFE2E60012002B0A2
:109D640070BD114B18680028F9D002A800F8054D01
:109D7400FEF7F4FB0D4B0C481A88B2F5006F28BFB0
:109D84001C801A88ADF80620511C19800121FEF7A9
:109D9400A9FE9DF80300FEF705FCD3E73439002043
:109DA400603700200C3900202C39002000380020B6
:109DB400002070472DE9F04F4B6887B081460C4670
:109DC40002925BB90B681B681B683BB98D682DB99F
:109DD400C0E90055284607B0BDE8F08F03F06EFADD
:109DE400E768029B9F4228BF1F464FF0000804F11A
:109DF400100383460197464601250393019B002BDC
:109E04002DD0A368019A616893429A4628BF92466E
:109E140041B352460BEB060006F026FB00236360B9
:109E2400A268E3680199A2EB0A02A3EB0A03A1EB7F
:109E34000A01A260E360019156440ABBB8F1000F25
:109E440038D02268126812682260002B30D0236850
:109E5400D3B963601EB1029BB34288BF0025C9E930
:109E640000B6B7E7002BDBD0216803984B680BEBF7
:109E74000602D3F804805346C0474FF00108CFE7E9
:109E8400002B08BF0025B9E70DF1180A00234AF892
:109E9400083D21684B685B6800221F465046012339
:109EA400B84708B92061A9E7A3680133A360F0E7C4
:109EB4001D46A3E7002BCAD145469FE7084B1A78F5
:109EC40082420CD0052818BF064A187018BF1378B0
:109ED40005481CBF23F002031370FFF70FBE704741
:109EE4004439002060390020941B030008B5002089
:109EF400FFF7FEFC8020BDE80840FFF7F9BC08B579
:109F04000020FFF705FD8020BDE80840FFF700BDF5
:109F140038B505460C4603F077FAA84205BFD4E9E4
:109F24000001034B1020C3E9000108BF002038BD25
:109F3400643900207FB5C38893421D4628BF154667
:109F440093420E46144624D9802003F0F3F8B4FB60
:109F5400F0F303FB1040B0FA80F04009039004A82A
:109F6400002300F80D3DCDE90165FEF7F7FA01A9DC
:109F74008020FFF71FFD044620B907498020FFF722
:109F8400C7FF04469DF80300FEF70CFB204604B00F
:109F940070BD0020E2E700BFC81B03002DE9F04FAD
:109FA4000C78062C87B00E4600F0008220D8022CD4
:109FB4003DD003D8012C32D00624F1E1032C32D059
:109FC400052CF9D10DF10D00B24D8DF80C4003F0C4
:109FD400AFF900232B609DF80D3003F01F02032A14
:109FE40000F28881DFE812F02D0022017D01650076
:109FF4000D2C00F0C98107D80B2C18D00C2CDBD108
:10A004000020FFF75BFF12E00E2C00F0CD81852CC1
:10A01400D2D1A14B1B78032BCED1042000E0032026
:10A02400FFF74CFFC8E79D48FEF76CFD08B9002414
:10A03400B6E19B4B01221A60BFF36F8FBFF34F8FC2
:10A04400F5E7C3F34116A6BBDB099DF80E1000F03B
:10A05400A680062916D0082900F0948049BB914CAB
:10A064000222204606F029FA237843F001022270E6
:10A074008D4A1278910744BF43F0030323700222F0
:10A0840088490EE09DF81030022B16D0032B69D0BE
:10A09400012B0ED1BDF81330002B00F072818349DF
:10A0A40012220DF10D00FFF745FF0446062C40F087
:10A0B400298103A8FFF76CFC11E1BDF81370002F90
:10A0C40000F05F81092F28BF0927FFF723FC4FF019
:10A0D40009080446B14674BB724C75493A46204699
:10A0E40006F0C2F92671A4F80280FFF7F9FB18B153
:10A0F400E37943F02003E371FFF70CFC6D4BC3E9F4
:10A1040000049F60BDF81320DA6001A800238DF8D5
:10A114000430FEF723FA68498020FFF75FFC044609
:10A1240020B966498020FFF7F3FE04469DF8040039
:10A13400FEF738FABAE7CDF804904FF0000A6368E6
:10A144000022D3F804B02146012301A8D84730B92E
:10A15400237A1E442368D044F6B21C68BBE70AF194
:10A16400010AECE7BDF81330002B00F00A81BDF8BA
:10A1740011109DF80F0000F095F90146002898D0C1
:10A1840002788EE7444A1278052A03D1454A1370AF
:10A19400012275E7042A8CD1424B1E70F8E703298B
:10A1A40010D009292CD0012983D1BDF80F30012BFF
:10A1B4007FF47FAFFFF794FB60B13B4A137823F041
:10A1C40002030FE0BDF80F30012B7FF472AFFFF7ED
:10A1D40087FB18B90F2403F014F9E1E0324A13782D
:10A1E40043F0020313702B68002B00F0CA8003F0C5
:10A1F4000BF9044600287FF41AAF03F0BFF8CFE050
:10A20400254B1B78043B012B01D90824E3E79DF877
:10A214000F302BB9FFF75EFC0420FFF74FFEE2E797
:10A22400012B55D1FFF742FC0520F6E701A99DF863
:10A234001100FFF775FB074608B91024CBE703AA02
:10A244009DF80410FFF784FB062804465AD19DF8B4
:10A254000D2012F0600FBED10F4B9DF8041018783A
:10A264009DF80E30D6092BD073B10A2BB3D1052833
:10A27400CBD13846FFF714FC0A49324608700DF179
:10A284000D00FFF757FE2AE00528BED105490B80D3
:10A294000222F4E764390020443900206C3900209C
:10A2A4005C7002407039002060390020B41B030048
:10A2B400951B030048390020E01B0300C81B030062
:10A2C4000B2B88D10528A0D1BDF80F30FF2B01D965
:10A2D400072480E79DF80F203846FFF793FB0446D8
:10A2E40010E09DF81100020706D19DF80D3013F01F
:10A2F400600F0BD006246EE703A9FFF72CFB06289A
:10A304000446F2D0002C3FF46EAF64E79DF80E20B3
:10A31400384B9DF811401B78012A1ED012D3032A12
:10A32400E8D104F00F02072AE4D8BDF80F10002981
:10A33400E0D1052B02D0002A7FF467AF204602F05B
:10A34400C1FF50E7052B02D023077FF45EAF204600
:10A3540002F0C4FF284908809AE704F00F02072A94
:10A36400C8D8BDF80F100029C4D1052B02D0002A8B
:10A374007FF44BAF204602F0CBFF204603F004FBF2
:10A3840031E703F03BF852E64FF08043D3F838440A
:10A3940014F0010401D0022033E60120FFF78EFD02
:10A3A400204607B0BDE8F08F01202AE6C8780328CC
:10A3B400F6D0124D2B68D3B100222A606968984701
:10A3C400044600287FF407AF2B6823B1B378002B31
:10A3D4007FF42DAE11E70A4B1B68082B04D1094BFF
:10A3E4001B68002B3FF423AE03F008F8D8E70E24D3
:10A3F400F1E600BF443900207039002064390020A0
:10A40400300100103401001008B1402303600148FA
:10A41400704700BF7039002070B54FF0805286B08D
:10A42400D2F8A830D2F8A42000926FEA83436FEAEE
:10A43400934302AD9BB2094A094E0D21284605F00B
:10A44400EFFF0024284606F06BF8844201D306B0DF
:10A4540070BD2B5DA3550134F4E700BFE81B030076
:10A46400B039002010B50E4B53F8204023780BB9B7
:10A47400A01C10BD0020FFF7C7FF2246E4B2131B47
:10A4840012F8011BDBB231B901335B00DBB243F4D8
:10A4940040730380EDE7131BDBB220F81310EEE7E3
:10A4A400501C030008B9FFF7DDBF052807D8054A8B
:10A4B400105C20B1044B53F82030002BF3D1002062
:10A4C400704700BF681C0300501C0300C36903B13C
:10A4D40018477047036800221A845A62DA62C3E993
:10A4E4001E22C3E9202203F134025A677047CA6965
:10A4F4009A4210B543600CD38C690460086F184409
:10A504000867D01A1C44C86100308C6118BF012050
:10A5140010BD01F1280202608B670020F8E70000FB
:10A52400F0B5BB4D0C7A2C700468B4F5517F00F083
:10A53400CA8200F2DA8040F22636B44200F03E824B
:10A544006DD840F21636B44200F0FB8126D840F2B2
:10A554001336B44200F0DA81B4F5457F0BD2002CF7
:10A5640000F0C28140F21236B44200F0C5810023EB
:10A5740003601846BFE100F0D78140F21536B442BB
:10A58400F5D100240AB106791655013402269C42FD
:10A594000671C0F0D78140F21633AAE140F21936B1
:10A5A400B44200F0E78114D840F21736B44200F008
:10A5B400D481B4F5467FDAD100240AB10679165560
:10A5C400013400269C420671C0F0D58140F2193353
:10A5D4008FE1B4F5487F00F0E48140F22136B442C3
:10A5E400C5D100240AB1067916558A4E0F7A3678F9
:10A5F400DFF824C2B74204F1010440F2548301F1AC
:10A60400090706EB460607EB060E9C42BE5DCCF836
:10A6140000E00671C0F0D38140F2263369E140F2D4
:10A624003336B44200F00982B4F54D7F38D2B4F524
:10A634004B7F00F0DE811CD840F22736B44200F094
:10A64400C981B4F54A7F92D100240AB1067916551E
:10A65400714E0F7D36683678B74204F1010440F03C
:10A66400E18102269C420671C0F0C4814FF44B7311
:10A674003FE140F22D36B44200F0C78140F22E365D
:10A68400B4427FF474AF00240AB10679165501343C
:10A694000026A342067100F2EA814FF44F7328E1C9
:10A6A400B4F54F7F00F0E28106D8B4F54D7F00F099
:10A6B400D08140F23536E3E740F24236B44200F04E
:10A6C400EA8100F2F48140F24136B4427FF44FAFA4
:10A6D40000240AB106791655013424269C420671D9
:10A6E400C0F0DA8140F2423303E140F25636B4421C
:10A6F40000F053826AD8B4F5537F00F01C8232D83C
:10A7040040F24936B44200F0FD8115D840F2453696
:10A71400B44200F0E481B4F5527F7FF428AF002402
:10A724000AB106791655013424269C420671C0F0FC
:10A73400EA8140F24933DCE040F24A36B44200F0A8
:10A74400ED8140F24B36B4427FF411AF00240AB1DC
:10A754000679165501348E7D06719C42C0F0EC8159
:10A764004FF45373C5E040F25136B44200F0FC811B
:10A7740015D840F24F36B44200F0E981B4F5547F65
:10A784007FF4F5AE00240AB1067916550134022689
:10A794009C420671C0F0E98140F25133A9E040F2D5
:10A7A4005236B44200F0EC8140F25536B4427FF4A4
:10A7B400DEAE00240AB106791655013424269C42E3
:10A7C4000671C0F0EB8140F2563392E040F27236EB
:10A7D400B44200F0278246D840F25936B44200F021
:10A7E400F5811BD840F25736B44200F0E281B4F54B
:10A7F400567F7FF4BCAE00240AB1067916550134A5
:10A804008E7D06719C42C0F0E28140F2593370E0C3
:10A81400BF390020BE390020C439002040F26D3613
:10A82400B44200F0F28140F26E36B4427FF49FAE3F
:10A8340000240AB106791655AF4EB04F36683F78FA
:10A8440096F801C0BC4504F1010440F2318296F847
:10A8540002C03E449C4216F80C600671C0F0E381CD
:10A8640040F2723345E040F28336B44200F0FA819C
:10A87400B4F5617F14D240F27736B44203D0B4F514
:10A884005F7F7FF474AE00240AB106791655013453
:10A894004026A342067100F2E68140F2833328E0A9
:10A8A40040F28936B44200F0F48140F28E36B4426C
:10A8B40000F0EF81B4F5617F7FF459AE00240AB152
:10A8C400067916558C4E0F7D36683678B74204F1FA
:10A8D400010440F0D4810E6A9C4236780671C0F0BF
:10A8E400D98140F2893304E00824047123B940F289
:10A8F400123303600120F0BD0AB1047914700B24F3
:10A90400012B04710ED840F21333F2E700240AB18C
:10A914000679165501340E7D06719C4205D34FF419
:10A924004573E6E70124F2E700240AB106791655D7
:10A93400013402269C420671FFF424AE40F2153322
:10A94400D7E700240AB106791655013402269C4241
:10A95400067103D340F21733CBE700240AB106791A
:10A96400165501344E7E06719C42FFF426AE4FF418
:10A974004673BEE700240AB106791655604E0027D7
:10A98400013437705E4E37782E78B74202D340F2E6
:10A994009933AEE70926A342067103D84FF44873EE
:10A9A400A7E700240AB106791655013404269C420F
:10A9B4000671FFF417AE40F221339AE700240AB17E
:10A9C40006791655013400269C42067103D340F2E1
:10A9D40027338EE700240AB106791655464E3668A9
:10A9E4000134767806719C42FFF42FAE4FF44A731B
:10A9F4007FE700240AB106791655013402269C42E9
:10AA0400067103D340F22D3373E700240AB10679AB
:10AA1400165501344E7E06719C42FFF435AE40F269
:10AA24002E3366E78F7DB7427FF432AE0A269C420E
:10AA3400067103D340F233335BE700240AB106798D
:10AA44001655013400269C42067103D34FF44D730E
:10AA54004FE700240AB106791655013400269C42BA
:10AA64000671FFF411AE40F2353342E700240AB117
:10AA740006791655204E0F7D36683678B74204F1B4
:10AA8400010440F0A88005269C420671FFF421AE23
:10AA940040F241332DE700240AB1067916550134FA
:10AAA40000269C42067103D340F2433321E700247D
:10AAB4000AB106791655013410269C42067103D357
:10AAC4004FF4517315E700240AB106791655013481
:10AAD40001269C42067103D340F2453309E7002462
:10AAE4000AB106791655013405269C420671FFF415
:10AAF40017AE4FF45273FCE6C4390020C03900206D
:10AB0400BE39002000240AB1067916550134012605
:10AB14009C42067103D340F24A33EAE600240AB1A8
:10AB240006791655013403269C420671FFF40FAED4
:10AB340040F24B33DDE600240AB1067916550134A0
:10AB440004269C42067103D340F24F33D1E600241D
:10AB54000AB106791655013424269C420671FFF485
:10AB640012AE4FF45473C4E600240AB106791655A4
:10AB7400013402269C42067103D340F25233B8E6F4
:10AB840000240AB106791655013405269C42067143
:10AB9400FFF410AE40F25533ABE600240AB1067957
:10ABA4001655013406269C42067103D340F25733EE
:10ABB4009FE600240AB10679165501340E7D06710C
:10ABC4009C42FFF419AE4FF4567392E600240AB186
:10ABD400067916550134374E36687778364E377015
:10ABE400364E00273770354E3778334E3678B742B5
:10ABF40004D3334F3E7801363E70C3E60726A342A2
:10AC0400067103D840F26D3373E600240AB1067965
:10AC14001655013405269C420671FFF40AAE40F233
:10AC24006E3366E600240AB106791655214E0F7D6F
:10AC340036683678B74204F1010407D103269C42F2
:10AC44000671FFF421AE40F2773352E68F7DB742AE
:10AC54007FF41EAE02269C420671FFF415AE4FF43B
:10AC64005F7346E600240AB10679165501340026BE
:10AC74009C420671FFF423AE4FF4617339E68F7D75
:10AC8400B7420BD100269C42067103D340F28E33A7
:10AC94002FE600240AB1067916550134074F3E7891
:10ACA40001363E709FE70023CCF800301B78FFDEAE
:10ACB4000023FBE7C4390020BD390020C03900203F
:10ACC400BE39002010B5044658B90868037B202B10
:10ACD40009D100F10E010722183005F0C5FB20460A
:10ACE40010BD0320FCE70620FAE7037A012B08D9FC
:10ACF400427B012A00F10C0306D9827B1344587865
:10AD0400704700235B78FFDE00231B78FBE700001D
:10AD14002DE9F0430B7889B005460E460E2B17D863
:10AD2400DFE803F00A080A0A160CA2161608160A27
:10AD34000A0A0A00FFF7CEFB002427E04A78D1096B
:10AD44004FEA521330D013F0030303D0012B21D068
:10AD540006241BE002F01F02012AF9D1B478062C64
:10AD6400F6D105A80393FFF74FFB03ABF2783179D3
:10AD74000093074603462846FEF758FC052805D0ED
:10AD8400039A3946701CFFF7D5F80446204609B0EB
:10AD9400BDE8F083B378212BDAD1B6F80720072A6F
:10ADA400D6D101681831EDE7012BD1D1B37807680A
:10ADB400202B36D0222BCBD1B6F80730002BC7D1AD
:10ADC40097F82030B6F803403C8403F0010304F004
:10ADD4000104A342B0D0A4B2002C0CBF0321022171
:10ADE400FFF774FB002CA7D12B7A012B40F2D780FC
:10ADF4006B7B05F10C02002B00F0D380AB7BD05CA5
:10AE040002F0BEFB2846FFF770FF02F0B9FB07F122
:10AE140034037C62FC62C7E91E44C7E920447B67B3
:10AE2400B4E7B6F80730072B92D108A800244FF4F2
:10AE3400E462BA8100F8154D0E37CDE90573079425
:10AE4400FDF78CFB204605A9FEF7B4FD044630B996
:10AE5400564B03A9CDE90335FFF75AF804469DF88C
:10AE64000B00FDF79FFB91E7037A002B00F09B801A
:10AE7400837A00F10901002B00F09380C27AB37841
:10AE84008A5C9A423FF458AF1B06F4780AD524B181
:10AE9400032C0CBF0024032478E701212846FFF784
:10AEA40015FB73E7012C3FF447AF04D3032C3FF4A5
:10AEB40043AF03246AE70668FFF717FF3C4BB76A02
:10AEC400059306F10C0380460693B7B9F36FF46A51
:10AED400B767C6E91F736CB106F12C0103C906F10B
:10AEE400240383E80300F76205A94046FEF776FDD4
:10AEF400044600E074620021D0E7D6F88490706ABA
:10AF04004F4528BF4F4606F134043A46214605F022
:10AF1400ABFAF36F3B44C6F88030A9EB0703B36781
:10AF2400F36A00223C44F2677467002B35D006F1C3
:10AF34002C0999E8030006F1240787E80300144666
:10AF4400F262B36F706A1BB9746A002CCCD1D2E779
:10AF5400B26A716F9A4216D805F086FAB36AB26F74
:10AF6400C6F88030D21AB267726F1A447267002131
:10AF74002846FFF7ABFAF36A7BB199E8030087E848
:10AF84000300F462DDE71A4605F06EFAB26FB36AA5
:10AF9400F2679B1AB362736A13447362D4E76378EB
:10AFA400FFDE1B78FCE75B78FAE700BFC9AC020060
:10AFB400F3A402001FB503681B8CDC0714D5037AC5
:10AFC400012B13D9437B00F10C0493B1837BE05C28
:10AFD4009306CDE901120CBF0123002301A90393B9
:10AFE400FEF7E8FC04B010BD0820FBE700235B7803
:10AFF400FFDE1B78FCE70368D3F88000704700008D
:10B00400F7B50468238CDB070F4616463BD5656A03
:10B01400002D32D1A16F91420ED3616F384605F0F5
:10B0240023FAA36FC4F880609B1BA367636F334448
:10B034006367284603B0F0BDC4E90972FFF755FE03
:10B04400134B009304F10C030646019369B10A46BD
:10B054003846616F05F008FAA36FA26AD21AA26299
:10B06400626AC4E91E531A44626269463046FEF7B6
:10B07400B5FC002808BF9220DCE7E36A2BB9C4E9D9
:10B084000B129220D6E70820D4E71120D2E700BFA4
:10B09400F3A402001EF0040F1CBFEFF309800AE0C2
:10B0A400EFF308800549064A884201D8904202D845
:10B0B4008D464FF00000034B1847000000000420A9
:10B0C40000E0032075880200054B1B68082B01BFB4
:10B0D400044B1868B0FA80F0400918BF002070478C
:10B0E400300100103401001008B54FF080430022F5
:10B0F400C3F80C21C3F81021C3F838254FF080524F
:10B1040003F54043D2F80414C3F82015D2F8081408
:10B11400C3F82415D2F80C14C3F82815D2F8101467
:10B12400C3F82C15D2F81414C3F83015D2F8181437
:10B13400C3F83415D2F81C14C3F84015D2F82014FF
:10B14400C3F84415D2F82414C3F84815D2F82814C7
:10B15400C3F84C15D2F82C14C3F85015D2F8301497
:10B16400C3F85415D2F83414C3F86015D2F838145F
:10B17400C3F86415D2F83C14C3F86815D2F8401427
:10B18400C3F86C15D2F84424C3F87025FFF79CFF6C
:10B1940010B1384B384A1A60FFF796FF18B1374B95
:10B1A400FB22C3F81825FFF78FFF48B13449354B0C
:10B1B4000A681B6822F00F0203F00F0313430B60AD
:10B1C400FFF782FF18B1304B4FF400721A604FF052
:10B1D4008043D3F80024D20744BF6FF00102C3F8C0
:10B1E40000242A4AD2F8883043F47003C2F8883025
:10B1F400BFF34F8FBFF36F8F4FF01023D3F80022AC
:10B20400002A03DBD3F80432002B2FDA204B01226F
:10B21400C3F80425D3F80024002AFBD04FF01022F1
:10B224001221C2F80012D3F80024002AFBD04FF0F8
:10B2340010231222C3F80422154B1A46D3F8001423
:10B244000029FBD00021C3F80415D2F80034002BE8
:10B25400FBD0BFF34F8F0D490E4BCA6802F4E06276
:10B264001343CB60BFF34F8F00BFFDE70A4B0B4A7C
:10B274001A6008BD8C5600404881030000F000406D
:10B28400E40E0040580200104096024000ED00E039
:10B2940000E001400400FA05782A00200090D00361
:10B2A400074B1B5C1F2B8ABF064A4FF0A04203F0DA
:10B2B4001F03D2F80405D840C04300F001007047D2
:10B2C400901C030000030050074B1B5C1F2B86BF20
:10B2D40003F01F0305494FF0A041012202FA03F3D2
:10B2E400C1F80C35704700BF901C030000030050E8
:10B2F400074B1B5C1F2B86BF03F01F0305494FF050
:10B30400A041012202FA03F3C1F80835704700BFD7
:10B31400901C03000003005008B50020FFF7E8FF6D
:10B324000120FFF7E5FF0220FFF7E2FF0320BDE85D
:10B334000840FFF7DDBF08B50020FFF7C5FF012077
:10B34400FFF7C2FF0220FFF7BFFF0320BDE808405C
:10B35400FFF7BABF0A4B185C1F288ABF094B4FF08E
:10B36400A04300F01F00D3F804250121814021EA05
:10B3740002000A40C3F80805C3F80C25704700BF53
:10B38400901C030000030050074B1B5C1F2B8ABF5B
:10B39400064A4FF0A04203F01F03D2F81005D8402C
:10B3A400C04300F0010070478C1C030000030050F0
:10B3B4000B2809D00C2809D0182809D019280CBF4B
:10B3C40003204FF0FF307047002070470120704782
:10B3D40002207047014B185C704700BF8C1C0300AF
:10B3E400C20710B504460CD54FF0A0430322C3F89E
:10B3F4003427C3F83827C3F83C27C3F84027FFF79E
:10B404008BFFA3070AD54FF0A0430C22C3F82C27C7
:10B41400C3F83027C3F86027C3F8642710BD42DFA0
:10B42400704743DF7047000038B5084C04F1080347
:10B434000546002818BF1C4623682BB11A682260F1
:10B444005B6828469847F7E738BD00BFD03900202D
:10B4540020B9054B01225A70FFF7E6BF012802D13B
:10B46400014A9070F8E77047C839002020B9034BAF
:10B4740001225A70FFF7D8BF704700BFC8390020B7
:10B4840038B50B4C237883B90A486360A360236101
:10B49400E36000F02DF9054604F0E6FC08B900F07D
:10B4A40035F901232370284638BD8525FBE700BF05
:10B4B400C839002055B4020037B502A80023094C4E
:10B4C40000F8013DFDF74AF8E368013BE360E568F5
:10B4D40015B900F031F9A5709DF80700FDF762F881
:10B4E40003B030BDC8390020012813B509D003D3F7
:10B4F40003281BD002B010BD0F4B0122C3F88020DB
:10B50400F8E702A800230D4C00F8013DFDF726F8EA
:10B5140023780BB9FFF7B4FFE3689DF80700013304
:10B52400E3600123A370FDF73DF8E3E700F0EEF8D4
:10B53400FFF7C2FFDEE700BF00E100E0C8390020EA
:10B5440037B51B4C6378054603F0FF029BB110B17D
:10B5540043680020984700230DF107008DF8073059
:10B56400FCF7FCFF63689DF8070001336360FDF797
:10B5740019F803B030BD0DF107008DF80720FCF772
:10B58400EDFF25B1A268134653B92A60A56063682C
:10B59400002BE7D104F068FC30B1FFF740FFE1E78E
:10B5A4009D42F4D01B68EFE700F0D2F8DAE700BF61
:10B5B400C839002073B502A800230D4C00F8013DE2
:10B5C400FCF7CCFF6368013B6360666836B904F03E
:10B5D4004BFC054640B1FFF724FF66709DF8070059
:10B5E400FCF7E0FF02B070BD00F0C4F86570F5E749
:10B5F400C83900201FB503788DF8003043680193E3
:10B6040083688DF80830C3680393054A054B684680
:10B6140053F8213052F82110984705B05DF804FB27
:10B62400DC390020E43900201FB503788DF80030A0
:10B634004368019383688DF80830C3680393054A0F
:10B64400054B684653F8213052F82110984705B04D
:10B654005DF804FBDC390020E4390020F0B5194B17
:10B664000678DFF870E043F82620174B94460A6901
:10B6740043F826204B7F0EF806300C4607460FCCC5
:10B6840089B06D460FC594E80F0085E80F001EF8D9
:10B694000630049653B1BCF1000F0C4A694608BF4A
:10B6A4000022381D00F038FE09B0F0BDBCF1000FD7
:10B6B400074A694608BF002207F10C0000F0F2FBBC
:10B6C400F2E700BFE4390020DC390020F9B50200BC
:10B6D4002DB60200EC39002050E8002F02EA0103E5
:10B6E40040E8003C9CF0000FF6D110467047000083
:10B6F400054A13792BB90121106011715371184651
:10B7040070478520704700BFF0390020084B1A6845
:10B71400D2075FBFC02283F8002301221A604FF0D2
:10B7240080420123C2F81835024A1370704700BFE3
:10B7340000E100E0F8390020044B01221A604FF0C8
:10B744008042D2F81834DB03FBD470470C0000406D
:10B75400074B00221A6082B01B680193019B4FF0D3
:10B7640080430122C3F804231A6002B0704700BF6B
:10B7740000010040074B01221A604FF08042D2F8CA
:10B784000C3403F00113B3F1011FF8D0024B002273
:10B794005A71704704000040F0390020154B07B57A
:10B7A4001A687AB100221A601B680093009B4FF05C
:10B7B40080430122C3F808230F4B587910B95A71FA
:10B7C4001B6898470D4B1A6882B100221A601B68E7
:10B7D4000193019B4FF080430222C3F80823064BD8
:10B7E4001B68012003B05DF804EB184703B05DF853
:10B7F40004FB00BF00010040F039002004010040B8
:10B8040000F1804000F5C040002382B0036003686B
:10B814000193019B02B0704703681F2B83BF03F0A1
:10B824001F03036001484FF0A0407047000300501D
:10B8340007B502AB43F8040D1846FFF7EDFF019B73
:10B8440000EB8300D0F8003723F44033C0F800370E
:10B85400D0F8003743EA0141C0F8001703B05DF89F
:10B8640004FB0000054B4FF0FF32072843F820206B
:10B8740084BF1B1883F85820704700BFFC39002090
:10B8840010B5164C94F86A3033BBFF21E21801332B
:10B89400302B82F83010F9D10021C8B2FFF7E2FF53
:10B8A40001310C29F9D1062200210D4804F005FECE
:10B8B4000C4BC02283F8062340221A604FF4BE705A
:10B8C400FFF79EFF084B4FF00042C3F80423012307
:10B8D40084F86A30002010BD0820FCE7FC39002001
:10B8E400603A002000E100E000600040034B93F860
:10B8F4006A00003018BF0120704700BFFC390020E7
:10B90400F7B5404F3B18044693F93030002B94466A
:10B9140075DA8B78C3F34003002B15BF0025082587
:10B9240008200C20854202D1042003B0F0BD57F852
:10B93400252001324FEA850649D1381947F825C038
:10B9440080F8305013B97B1983F858408B785A0724
:10B954001BD4D8073DD502A840F8084DFFF75CFF7B
:10B96400009B00EB8300D0F8003723F00203C0F8FB
:10B9740000372548E20804F0070C012303FA0CF30E
:10B9840010F802C043EA0C038354887891F800C08D
:10B9940010F002002AD006F1804303F5C0432402CC
:10B9A400D3F8102522F44F3222F44072C3F8102544
:10B9B4004FEA0C4CD3F8102504F47C540CF4403CAE
:10B9C40044EA0C041443C3F810450020ADE70135E4
:10B9D400A8E702A84A7840F8044DFFF71DFF019B31
:10B9E40003F5E073920040F82320C2E7083D3D448C
:10B9F40095F8604044EA8C1C85F860C095E70820FF
:10BA040093E700BFFC390020603A002073B5224C54
:10BA14002518064695F93020072A1ADD224492F8A3
:10BA240058309B09032B10D102A840F8046DFFF78E
:10BA3400F3FE019AD0F81035D340DB0707D4022176
:10BA44003046FFF7F5FE02B070BD012BF7D003219D
:10BA5400F6E7D3B2072BF6D8930003F1804303F53E
:10BA6400C043D3F8100540F00100C3F8100502F1FB
:10BA74004000800080B2FFF7C3FE0029E3D095F9AF
:10BA8400303054F82330002BDDD0012303FA02F2C6
:10BA9400024BC3F80423D6E7FC39002000600040C1
:10BAA40007B502AB43F8040D1846FFF7B5FE019B3A
:10BAB400D0F81005D84000F0010003B05DF804FB95
:10BAC4002DE9F04F002489B0CDE902445F4A604E6D
:10BAD400604D01211368A2F5C040012B80B206D14C
:10BAE400D6F804330B4202D0FFF78AFE0C4304322B
:10BAF400AA424FEA4101EDD1574B1B68012B0ED1ED
:10BB04004FF4BE70FFF77CFE4FF0A04344F00044B6
:10BB1400D3F810350293514BD3F81035039314F036
:10BB2400FF0F1AD04E4F00250126344210D0AB002F
:10BB340003F1804303F5C043D3F81005D3F810157F
:10BB440057F82530C0F30520C1F3014103B19847EC
:10BB54000135082D4FEA4606E7D1002C72DA04AE0F
:10BB64000023049373604FF0FF33CDE906333C4F59
:10BB74004FF0010800252C467B1993F96020531CD3
:10BB840047D0D2B222F0C00908A84FEAD90300EB8B
:10BB9400030B02F007011BF8080C08FA01F1084234
:10BBA40037D007EB0900920990F9300057F820A02C
:10BBB400BAF1000F05D1032A2BD1F05C0843F054ED
:10BBC40001E0032AF9D001A8CDF80490FFF724FE80
:10BBD400019B03F5E07350F823301BF8180C08425E
:10BBE400C3F3014305D0022B13D1032A0BD1114611
:10BBF40004E0032B0DD1032A05D102214846FFF7A7
:10BC040017FE0134E4B2BAF1000F02D011464846DF
:10BC1400D0470135042DAFD1A4B14FF0A043029910
:10BC2400D3F8102503F540739142D3F8103502D1AF
:10BC34000399994206D002920393049A059B0692B3
:10BC4400079397E709B0BDE8F08F00BF006100409B
:10BC540000600040206100407C610040000300500F
:10BC6400FC390020014B1B68184700BF683A0020CC
:10BC74000D4B984237B50D4610D102A8002300F8A9
:10BC8400013DFCF76BFC094B1C7914B901221D60C2
:10BC94001A719DF80700FCF785FC14B9002003B065
:10BCA40030BD1120FBE700BF00200040683A0020AF
:10BCB400034B984201BF034B00221A601A7170476C
:10BCC40000200040683A00200023435082B04358CB
:10BCD4000193019B02B070470A4610B54FF48E7170
:10BCE400FFF7F2FF136A9168C95C136A01331362A8
:10BCF400C0F81C1510BD8B690A4610B54FF4847149
:10BD040023B9FFF7E1FFD0F8183510BDFFF7DCFFCA
:10BD1400536AD168D0F81805C854536A0133536282
:10BD2400F3E700001FB501238DF80030044BCDE983
:10BD34000110D3E900126846904705B05DF804FB92
:10BD4400703A002030B54D4AD2F8043313F4007F22
:10BD540085B015464FD0D2F82431002B4BD04FF488
:10BD640092711046FFF7B0FF4FF40173C2F8083325
:10BD7400434B93F8291009B9012151603F4902222C
:10BD84008DF80020D1F88024C1F8802403929A69A8
:10BD94000292DA6801920022C3E906226846D3E9D6
:10BDA400001290473548D0F81C315BB134494A69D8
:10BDB4000B6A9A420A464BD991F82830002B47D196
:10BDC400FFF78AFF2D4AD2F8443193B14FF4A271A0
:10BDD4001046FFF779FF2A4B93F8291009B1012186
:10BDE40011609A692AB100229A61586AD968FFF7EA
:10BDF40099FF05B030BDD5F804335B07D2D5D5F82B
:10BE04000831002BCED01E4C1C482146FFF773FF8F
:10BE1400636AA2699A422346C4D1E269E1684AB1DD
:10BE24002369E3600023606AA261E3616362FFF750
:10BE340079FFB7E794F829200AB901226A600F4A0A
:10BE44004FF40170C2F8080300229A61586AEEE7C1
:10BE54004FF48E710948FFF737FF5369002BB1D0B7
:10BE640051690291002391688DF80030019153616A
:10BE74006846D2E900139847A4E700BF00200040B9
:10BE8400703A00201F2886BF00F01F00044B4FF0BB
:10BE9400A04300F5E070022243F82020704700BF61
:10BEA400000300502DE9F843624F047991462C2297
:10BEB40002FB0472064692F82A200D46002A40F03E
:10BEC400B3805D490068FFF7D3FE8046002840F048
:10BED400AE8029684A1C10D01F2987BF01F01F03B8
:10BEE400564A0B464FF0A0420120984003F5E073F8
:10BEF400C2F80805032042F823006868431C0DD0EB
:10BF04001F288BBF00F01F0303464C4A4FF0A0428A
:10BF140003F5E0734FF0000C42F823C03368AA69BC
:10BF240095F814C0C3F824256A7DBCF1010F4CEACE
:10BF34000202C3F86C25C3F81405C3F80C152BD101
:10BF4400A968481C0DD01F298BBF01F01F020A46A7
:10BF54003A484FF0A04002F5E0724FF0000C40F870
:10BF640022C0E868421C13D01F2887BF00F01F0CB2
:10BF7400324A84464FF0A0424FF0010E0EFA0CFEF6
:10BF84000CF5E07CC2F808E54FF0030E42F82CE013
:10BF9400C3F80805C3F810152C236343FA18C2F834
:10BFA40004902A69FA50B9F1000F2AD04FF48E7127
:10BFB40030682D7FFFF788FE30684FF4A271FFF7D9
:10BFC40083FE32681E4BC2F80433120B51B20029AF
:10BFD400A8BF01F160404FEA4513BABF194802F007
:10BFE4000F0500F56140DBB2B4BF435580F8003360
:10BFF40002F01F02012303FA02F24909124B43F82B
:10C00400212033680422C3F800252C2303FB047386
:10C014000022C3E9062283F829205A61012283F809
:10C024002A204046BDE8F8834FF00808F9E74FF0AE
:10C034001108F6E7703A002049BD020000030050E1
:10C044008000020014ED00E000E100E02DE9F04181
:10C0540003680479254D0022C3F800252C2202FB35
:10C0640004520646526872B1214AC3F80823190BD8
:10C074004AB20120520901F01F0100FA01F12032F5
:10C084001C4840F82210D3F80C05D3F81485D3F8D3
:10C094000815D3F810754FF0FF329042C3F81425F9
:10C0A400C3F80C25C3F80825C3F8102501D0FFF701
:10C0B400E9FEB8F1FF3F02D04046FFF7E3FE7A1CE9
:10C0C40002D03846FFF7DEFE4B1C02D00846FFF7CD
:10C0D400D9FE3068FFF7ECFD2C2303FB0454002346
:10C0E40084F82A306360BDE8F08100BF703A002014
:10C0F4008402020000E100E02DE9F047234F0679B5
:10C104004FF02C0909FB067480466569002D38D16F
:10C114006261A16025624FF48E71006884F8285032
:10C12400FFF7D2FDD8F80000012383602146FFF712
:10C13400D3FD6368A14633BBD8F80050D4F814A0EB
:10C14400236A9A4512D8D8F80030D3F81C21002A63
:10C15400FBD00122DA6000202C2303FB06760023A7
:10C164007361BDE8F08794F8283043B9D5F81C31E1
:10C17400002BF8D049462846FFF7AEFDE0E70F2034
:10C18400EAE71120EDE72846EBE700BF703A00200C
:10C194000379044A2C2101FB03235869003018BF9A
:10C1A40001207047703A00200023435082B0435866
:10C1B4000193019B02B070471FB501238DF8003035
:10C1C400044BCDE90110D3E900126846904705B04D
:10C1D4005DF804FB9C3A00201F2886BF00F01F0076
:10C1E400044B4FF0A04300F5E070022243F82020F6
:10C1F400704700BF000300507FB5454AD2F8246160
:10C20400002E63D010464FF49271FFF7CDFF022346
:10C214008DF80030D2F88034C2F880340393D2F819
:10C224003C3502933B4BDA6801920022C3E90622B3
:10C234006846D3E900129047354AD2F844317BB1BD
:10C244004FF4A2711046FFF7AFFF324B996939B131
:10C254000021C3E90611D968D2F83C05FFF7ACFF09
:10C264002B4AD2F82031B3B14FF490711046FFF746
:10C274009BFF0123D360274B596961B1D2F84C1558
:10C284000291002299688DF8002001915A61684654
:10C29400D3E9001290471E4AD2F85831A3B14FF4A3
:10C2A400AC711046FFF780FF1A4B596961B1D2F89F
:10C2B4004C150291002299688DF8002001915A6171
:10C2C4006846D3E90012904704B070BDD2F810312B
:10C2D400002BB1D04FF488711046FFF765FF0D4B6A
:10C2E400D2F83C0599698842A6D1DC69D96864B161
:10C2F400D2F8005225F02005C2F800521A699C6158
:10C30400DA60DE61FFF758FF96E79C61FAE700BF49
:10C31400002000409C3A00202DE9F843694F06793B
:10C324009146242202FB0672044692F820200D4610
:10C33400002A40F0C08064490068FFF799FC8046F9
:10C34400002840F0BB802868421C10D01F2887BFFB
:10C3540000F01F035D4A03464FF0A04201219940BB
:10C3640003F5E073C2F80815032142F82310696845
:10C374004B1C0DD01F298BBF01F01F030B46534AE2
:10C384004FF0A04203F5E0734FF0000C42F823C0D5
:10C394002368AA6995F814C0C3F824256A7DBCF102
:10C3A400010F4CEA0202C3F86C25C3F80C05C3F86C
:10C3B40014152BD1A968481C0DD01F298BBF01F07F
:10C3C4001F020A4641484FF0A04002F5E0724FF0C8
:10C3D400000C40F822C0E868421C13D01F2887BF15
:10C3E40000F01F0C394A84464FF0A0424FF0010E72
:10C3F4000EFA0CFE0CF5E07CC2F808E54FF0030ED3
:10C4040042F82CE0C3F80805C3F81015242373433D
:10C41400FA18C2F804902A69FA50B9F1000F39D019
:10C424004FF4887120682D7FFFF7BEFE4FF49071A2
:10C434002068FFF7B9FE4FF492712068FFF7B4FE4D
:10C444004FF4A2712068FFF7AFFE20684FF4AC717F
:10C45400FFF7AAFE22681E4BC2F80433120B51B236
:10C464000029A8BF01F160404FEA4513BABF19483B
:10C4740002F00F0500F56140DBB2B4BF435580F80C
:10C48400003302F01F02012303FA02F24909124B9E
:10C4940043F8212023680822C3F80025242303FB42
:10C4A40006730022C3E906225A61012283F8202080
:10C4B4004046BDE8F8834FF00808F9E74FF011084B
:10C4C400F6E700BF9C3A0020FDC1020000030050C3
:10C4D4001003420014ED00E000E100E02DE9F0411A
:10C4E4002F4D0479242303FB045306465B6800683C
:10C4F40073B12C4BC0F80833020B53B201215B0912
:10C5040002F01F0201FA02F22033274941F82320E6
:10C51400D0F80032012223F02003C0F800324FF497
:10C52400AC714260FFF740FE3368DA60D3F85821FB
:10C53400002AFBD00022C3F80025D3F80C05D3F859
:10C544001485D3F80815D3F810754FF0FF329042D4
:10C55400C3F80C25C3F81425C3F80825C3F810251F
:10C5640001D0FFF739FEB8F1FF3F02D04046FFF794
:10C5740033FE7A1C02D03846FFF72EFE4B1C02D045
:10C584000846FFF729FE3068FFF792FB242303FBDC
:10C594000454002384F820306360BDE8F08100BFB8
:10C5A4009C3A00201003420000E100E001F06043E7
:10C5B400B3F1005F2DE9F041074638D11F4B0679EE
:10C5C400242505FB063598466C69002C31D16A6137
:10C5D400A96000684FF49071FFF7E6FD4FF4AC7169
:10C5E4003868FFF7E1FD3B686A69A968C3F8441538
:10C5F400C3F8482501229A606A68E2B9D3F8201189
:10C60400D3F8582119B9002AF8D00F2008E0002ADD
:10C61400FBD10122DA60D3F85821002AFBD0002094
:10C62400242303FB068600237361BDE8F0811020F8
:10C63400FBE71120F9E72046F7E700BF9C3A00200A
:10C644000379044A242101FB03235869003018BFED
:10C65400012070479C3A002000F1804000F51C3016
:10C6640001230360BFF36F8FBFF34F8F7047000048
:10C67400064A10F0800F00F00F0314BFD2F8100523
:10C68400D2F81405D84000F0010070470070024051
:10C69400054B1B68082B01BF044B1868B0FA80F0E7
:10C6A400400918BF00207047300100103401001009
:10C6B40030B54C680D689C4229BFC0E90053002185
:10C6C400E41AED1832BFC0E900514C600D6093428A
:10C6D40003D1201C18BF012030BD0020FCE74B68AB
:10C6E40010B59A420C6828BF1A46C0E90042981A4D
:10C6F4000B684860134400300B6018BF012010BD64
:10C7040030B54C680B68A24228BF2246002A14BFE9
:10C714001D460025A4EB02041344C0E900524C60FA
:10C724000B6014BF0120002030BD0000054B10F049
:10C73400800FA3F1900208BF134600F00F0003EB33
:10C7440000107047343C002010F0800F14BF002309
:10C75400102300F00F00184470470000054B1B68BD
:10C76400082B02BF044B00221A60044B00221A70EB
:10C77400704700BF300100101C7C0240C13A002009
:10C7840007B5084A00231370074A019302A81370DF
:10C79400012300F8043D054B1B68984703B05DF87E
:10C7A40004FB00BFC03A0020C83C0020C43C002069
:10C7B40070470000F8B54D680B4F954228BF1546E9
:10C7C4000C4606462A460968384603F04DFE606862
:10C7D4002368401BC6E9007560601D440030256075
:10C7E40018BF0120F8BD00BFD03C0020F8B54C684C
:10C7F400944228BF144606460D468CB1094F096879
:10C804002246384603F030FE37606B6874601B1BA9
:10C814006B602B68201C23442B6018BF0120F8BDDB
:10C824000460F2E7D03C002007B500238DF8043003
:10C834000B4BD3F82025ADF80620D3F8C034094AB1
:10C84400002B13680CBF4FF480714FF001210B4390
:10C854001360054B01A81B68984703B05DF804FBFF
:10C8640000700240A03B0020C43C002008B50146F3
:10C87400FFF774FFFFF75AFF837B032B0AD10846A7
:10C88400FFF762FF01218140C9430448BDE8084025
:10C89400FEF722BF0368002BF1D008BD303B002017
:10C8A4008720FFF7E3BF8620FFF7E0BF8520FFF76F
:10C8B400DDBF8420FFF7DABF8320FFF7D7BF8220D4
:10C8C400FFF7D4BF8120FFF7D1BF000013B5FFF7F6
:10C8D40045FF114B93F81E21032A06D16FF4807192
:10C8E4000E48FEF7F9FE02B010BDD3F81041002C3B
:10C8F400F9D16FF480710948FEF7EEFE06238DF836
:10C90400043088238DF80630054B8DF807401B68EA
:10C9140001A89847E7E700BFA43B0020303B002074
:10C92400C43C002008B5FFF719FF084B93F89E207C
:10C93400032A06D16FF001010548BDE80840FEF75F
:10C94400CBBED3F89030002BF4D008BDA43B00201C
:10C95400303B0020012273B502FA01F51E491F4E37
:10C964000B6810F0800F43EA050304460B6027D0E0
:10C9740000F00F021A4B33F8123003F1804303F531
:10C984001C331A684AB100221A60BFF36F8FBFF3D9
:10C994004F8F802811D0FFF769FF316829400AD1F1
:10C9A40006238DF804308DF806408DF807100D4BE2
:10C9B40001A81B68984702B070BDFFF7B3FFECE70E
:10C9C40033681D42F7D106238DF804308DF8060034
:10C9D4008DF80720EBE700BFA03B0020303B002090
:10C9E400C01C0300C43C002008B5054B1A7810464F
:10C9F400FFF7AAFEBDE8084001461046FFF7AABFAC
:10CA0400C83C0020FFF78EBF13B5FFF7A7FE0D4B00
:10CA140093F88E20032A13D0D3F8804084B96FF0A2
:10CA240080710948FEF758FE06238DF80430082368
:10CA34008DF80630054B8DF807401B6801A8984710
:10CA440002B010BDA43B0020303B0020C43C0020B9
:10CA5400204B13B5D3F80044C3F80044BFF36F8FE1
:10CA6400BFF34F8FBFF36F8FBFF34F8FE1050BD52C
:10CA7400194B01221A7002A800230193022300F823
:10CA8400043D164B1B689847A2050AD5124A002399
:10CA940002A801931370032300F8043D0F4B1B6895
:10CAA4009847630513D50C4B1A7882B100221A708B
:10CAB400084B0121C3F808155820FFF7CDFD02A843
:10CAC4000423019200F8043D044B1B68984702B00C
