:020000022000DC
:1070000000000420757302005D7302000DAF0200E2
:1070100061730200637302006573020000000000E8
:107020000000000000000000000000006773020084
:1070300069730200000000006B7302006D730200B0
:1070400081DA02006F73020019BB02006F73020045
:107050006F7302006F73020069B902006F73020060
:107060006F7302006F7302006F7302006F73020090
:107070006F7302006F7302006F7302006F73020080
:107080006F730200D18702006F7302006F730200FA
:107090006F7302006F7302006DFD02006F730200D8
:1070A0006F7302006F7302006F7302006F73020050
:1070B0006F7302006F730200000000000000000008
:1070C0006F7302006F7302006F7302006F73020030
:1070D0006F7302006F7302006F73020049D50200E4
:1070E0006F7302006F7302006F73020000000000F4
:1070F000000000006F730200000000006F730200C8
:10710000000000000000000000000000000000007F
:10711000000000000000000000000000000000006F
:10712000000000000000000000000000000000005F
:10713000000000000000000000000000000000004F
:10714000000000000000000000000000000000003F
:10715000000000000000000000000000000000002F
:10716000000000000000000000000000000000001F
:10717000000000000000000000000000000000000F
:1071800000000000000000000000000000000000FF
:1071900000000000000000000000000000000000EF
:1071A00000000000000000000000000000000000DF
:1071B00000000000000000000000000000000000CF
:1071C00000000000000000000000000000000000BF
:1071D00000000000000000000000000000000000AF
:1071E000000000000000000000000000000000009F
:1071F000000000000000000000000000000000008F
:10720000354936480A1A02D0072291438D4634493F
:1072100034480A1A06D00722914381F309880222D2
:1072200082F3148830483149314A00F044F831483B
:107230003149324A00F03FF831483249324A00F0D1
:107240003AF832483249334A00F035F83248334987
:10725000334A00F030F833483349344A00F02BF811
:1072600033483449344A00F026F83448344900227F
:1072700000F02CF833483449002200F027F8334856
:107280003349091A082902DB002202604160314AB1
:1072900090471F481F49884205D00268043003B454
:1072A000904703BCF7E700208646EC46002000210B
:1072B000294A9047FEE7884207D0521A05D0037842
:1072C00001300B700131013AF9D17047884202D088
:1072D00002700130FAE770470000042000E003204C
:1072E0000000042000000420E8240300602A00209D
:1072F00098300020D0730200D0730200D80A030037
:10730000E8240300602A0020602A0020600C0300AB
:10731000600C0300600C0300600C0300600C0300B1
:10732000600C0300600C0300600C0300E724030002
:10733000202B030098300020983000209830002047
:1073400020C6002020C6002020C6002020C6002025
:1073500020E600209D730200BDE40200FEE7FEE788
:10736000FEE7FEE7FEE7FEE7FEE7FEE7FEE7FEE7F5
:1073700000F002B8FFF7FCBF0F484FF00701884349
:1073800085460E4880470E48016841F4700101604F
:10739000BFF34F8FBFF36F8FFFF732BF09480A4922
:1073A0000A4A884207D0521A05D0037801300B7080
:1073B0000131013AF9D17047000004205DAF0200AD
:1073C00088ED00E0600C0300602A0020602A0020A5
:1073D0007047000007B5044B0093044A402300F0B7
:1073E00032F803B05DF804FBF1730200993000201D
:1073F0002DE9F84388461446B2B10F4B0F4E0325D2
:10740000002743F00109224608EB0701002007F09E
:10741000ABF90744241A48B933782BB14FF47A40BA
:10742000C847013D02D13570BDE8F88301233370B0
:10743000002CE8D1F8E700BF600C03009830002072
:10744000704707F0C1B9F0B595B01D46164608461D
:107450000C4601F0DFFD1A9B0D93CDE90865002570
:107460002B46082205A920460A958DF82C500C952C
:1074700001F0ECFD079B0293069B03939DF81430EB
:107480008DF8115003F00302012A1DD1BDF814201C
:10749000059DC3F3C203C2F383168DF81030B2000A
:1074A00008230EA9204601F0D1FDC5F3952508ABB0
:1074B0000093324602AB0EA9284600F081FB20461D
:1074C00001F0ACFD15B0F0BD022AF8D1BDF81650A0
:1074D000C3F3C203C5F389158DF810300827082DB2
:1074E0002E4628BF08263B4632460EA9204601F00C
:1074F000ADFDAD1B08AB02AA31460EA8374400F023
:10750000C3FB002DEBD1DAE738B50A4DFFF799FF41
:107510000421284600F0BEFA074B01245C7100F0FC
:1075200089FC042105F1100000F0B4FA034B5C71F2
:1075300038BD00BF400C0300602A0020682A0020EC
:10754000037813F0040216D003F00303012B03D0D9
:10755000022B09D0012070470A6800880232C0F36C
:10756000831002440A60F5E70B684288023303EB9C
:1075700092130B60EEE71046704700002DE9F04FC4
:10758000DFF830A187B00F4600230446861C0DF1BA
:10759000070015468DF8073000F0AAFFDAF8001052
:1075A0003960DAE90132134401335B1A0AF21C47ED
:1075B0000AF583690AF21448B3421CD30020002D57
:1075C00073D004F00F039B0143F0050363F30F0036
:1075D000DAF80020DAF808301340033332444AF86E
:1075E00023009DF80700CAF8002000F0A5FF012045
:1075F00007B0BDE8F08F0121384601F02CFA48466B
:1076000001F04FFA404601F04CFADAF80400DAF8DB
:1076100008B0029000EA0B0003300AEB800002A9D8
:10762000FFF78EFF029B50BB0BEA03020AEB8202BC
:1076300003F1020CD2680392013303EA0B0B0AEB4D
:107640008B0B02F00302012ADBF80C10CDF808C006
:1076500023D0022A16D08346404601F025FA10B105
:10766000029BCAF804305946384601F0F4F9DAE9C9
:1076700001231344DAF8002001339B1A9CE70BEA3C
:107680000300C9E7BDF80E30C3F3891303334FEA93
:10769000114B0CEB93030293DEE7BDF80C30C3F300
:1076A00083134FEA114B6344F5E7A40544F0060049
:1076B0008EE700BFAC3100200B4B0C48FF2210B509
:1076C0009A600022C3F81824C3E90022C3F81424E6
:1076D00083F8202401F057FC044610B9044801F057
:1076E00010FE204610BD00BFAC310020AC0B0300E3
:1076F000AC0C030030B50A4C71B10A4A0A49121B9E
:10770000D20800239A4201D1002030BD31F8235025
:10771000854202D00133F5E7034654F83300F4E71D
:10772000EC0A0300AC0B0300602A0020094B01396E
:1077300003EBC000032909D8DFE801F00A020406C0
:1077400004207047007970474079704700207047E7
:1077500002207047EC0A0300034BD3E90030C31A40
:1077600058425841704700BFAC3100202DE9F0432A
:1077700087B0FFF7F1FF0646002840F0FE80804CFE
:10778000C4F81804BFF34F8F6368A56802932B40B9
:10779000033304EB830002A9FFF7D2FE029B18B16A
:1077A000D4F81824002A62D005EA0302991C013398
:1077B00004EB82022B4004EB8303D268DB68049362
:1077C00002F00303022B0392029163D1BDF80E3045
:1077D0006C48C3F38917502FB84628BF4FF05008A4
:1077E00008F1080168F38F13C1F30901ADF80E30F9
:1077F00001F0E1FB0646002800F0AA8001F00AFC37
:107800000023082203A9304601F016FC029925EA5C
:1078100001020132B8EB820F4FEA820333D95FFADB
:1078200088F863B32940DDB2A8EB050803315FFA9D
:1078300088F9A846544D04EB81010823424630469E
:1078400001F0FAFB3DB108F10803DBB24A462946D4
:10785000304601F0F1FB029B033703EB97070297D9
:10786000D4F81834002B4BD1D4F810545BE02268C4
:107870009A428CD86260304607B0BDE8F083424936
:107880001D469946D9E7294003310823424604EBB7
:107890008101DDE7012B5BD1BDF80C303948C3F322
:1078A0008311062928BF062161F38913023101F0F3
:1078B0000F018900ADF80C3001F07DFB0646002871
:1078C00046D001F0A7FB0023082203A9304601F0AF
:1078D000B3FB0027BDF80C20C2F38312BB00974214
:1078E00003F10803BCD202994A1C294003310292D9
:1078F00004EB81010422304601F09EFB0137E9E7E9
:10790000304601F08BFBFFF727FF80F00100C6B285
:10791000B1E7EB685B7923B12B6831461B682846D9
:107920009847EB681D68002DF3D1304601F076FBD7
:107930000DF107008DF8075000F0DAFDD4F8183487
:107940000BB9029B63609DF8070000F0F5FDDAE7D4
:10795000D4F8104454B90D4B0D480E49C01AC00854
:10796000000440F0020000F063F8CCE723682046F2
:107970009B689847E3681C68ECE700267BE700BF3C
:10798000AC310020AC0B0300B8310020EC0A03003E
:107990001C0B0300950C03002DE9F74F224E044603
:1079A0000F46924601A901221846D6F808909B4638
:1079B000FFF7E4FD20B3019D4FF00008AA1CD84555
:1079C00008EB020126D11948002101F021F880F3CB
:1079D0001000000440EA1440E4006B1C04F038047A
:1079E00003EA090305EA090544F0010406EB8303F1
:1079F000033544EA881444EA8724D86046F82540D1
:107A000096F820341BB1FFF7B1FE0028FBD103B07C
:107A1000BDE8F08F09EA010106EB81015AF8283030
:107A2000CB6008F10108CAE7AC310020C83500205E
:107A300000231A46FFF7B0BF07B50123019201AA40
:107A4000FFF7AAFF03B05DF804FB07B5CDE90023FB
:107A500002236A46FFF7A0FF03B05DF804FB1FB5E1
:107A6000CDE90123069B039301AA0323FFF794FFAB
:107A700005B05DF804FB1FB5CDE90023069B02931A
:107A8000079B03936A460423FFF786FF05B05DF862
:107A900004FB000030B50F4CD4F81024034600203E
:107AA000114631B9D96808714AB9C4F810340A606E
:107AB00030BDC9680D79854206D00968F1E7D26802
:107AC00014680C601360F3E701300A28E8D14FF026
:107AD000FF30EDE7AC31002038B5084B0125D3F875
:107AE000104483F8205404B938BDE3685D712368FD
:107AF00020465B689847E3681C68F4E7AC310020D7
:107B000030B5C38885B004460D4633B1144A00929F
:107B10001449154A284601F02AF8217A05291DD072
:107B2000637A4BB1A088FFF701FE104B104953F860
:107B30002020284601F01BF8227A0E4BA08853F82B
:107B4000222003920021FFF7D5FD039A0A4903463C
:107B5000284605B0BDE8304001F009B805B030BD99
:107B6000D80C0300C00C0300B80C0300440D030044
:107B7000DD0C0300680D0300E00C030007B50346AD
:107B80000846197A052911D05B7A2BB1094A0A49AE
:107B9000019000F0ECFF01980849019000F0E7FF28
:107BA000019803B05DF804EB00F0D6BF002AF8D0CE
:107BB000F2E700BFD80C0300DD0C0300D50C030076
:107BC0002DE9F04385B01F460C9D002395F80C90DD
:107BD0002B7306460C46904629463846FFF790FF21
:107BE000B8F1060F09D8DFE808F00412181F28338F
:107BF00040003146284600F0BAFF002229463846A8
:107C0000FFF7BCFF85F80C9005B0BDE8F083226853
:107C10003146284600F0ABFFEFE7D4E900233146B8
:107C2000284600F0A4FFE8E7A36800933146D4E9B2
:107C30000023284600F09BFFDFE7E3680193A36879
:107C400000933146D4E90023284600F090FFD4E7A2
:107C500023690293E3680193A36800933146D4E952
:107C60000023284600F083FFC7E763690393236975
:107C70000293E3680193A36800933146D4E900239B
:107C8000284600F074FFB8E708292DE9F74F804631
:107C90000E4617461C463DD800251B7B2573214602
:107CA00010460193FFF72CFFDFF88CA0DFF88CB0B3
:107CB000AE4232D918F805205946204600F057FF49
:107CC0000135082DF4D11B49DFF874A0DFF874B03A
:107CD000204600F04CFF4FF000094E4524D918F81B
:107CE00009507E2D1ED8284608F0B6FA002814BF89
:107CF0002A462E225946204600F039FF09F1010993
:107D0000B9F1080FE9D1012221463846FFF736FFC5
:107D1000019B237303B0BDE8F08F5146204600F06D
:107D200026FFCDE72E22E5E75146204600F01FFF53
:107D3000E4E700BFF40C0300F00C0300EA0C0300BE
:107D4000F20C0300F60C0300014B01221A7070477D
:107D5000A93600207047000070B50E4D06460FCDC5
:107D600088B06C460FC495E80F00002E84E80F0021
:107D7000094A0A484FF0060308BF002269460093EB
:107D800003F0C8FB08B100F0CBF9054B1E7008B03A
:107D900070BD00BF7C0D0300497D0200702A0020E9
:107DA0006836002007B5044B0093044A4023FFF7D0
:107DB0004AFB03B05DF804FBC17D02006936002078
:107DC00038B50D480D4C0E4D002323700378EB5C45
:107DD000D2B263B1043004F04DFB08B100F0A0F959
:107DE000084B1A7812B12378002BFBD038BD0C3029
:107DF00004F0E8F8F1E700BF702A0020A93600205F
:107E0000343A00206836002008B50848084A03784C
:107E1000D35C3BB1043004F0BBFABDE8084000205D
:107E2000FFF79ABF0C3004F06DF8F6E7702A0020D7
:107E3000343A00200120FFF78FBF0000C30710B5C0
:107E400007D4F023054A4008145C23401943115419
:107E500010BD0901C9B20F23F4E700BFD8360020D6
:107E600030B5094B1C78094B196800239C4202DC91
:107E70000022104630BD11F83350854201EBC30299
:107E8000F7D00133F2E700BFAA360020F836002011
:107E900013B504460191FFF7E3FF38B143682BB1F6
:107EA0000199204602B0BDE81040184702B010BD4D
:107EB000034B044819680022490800F02CBA00BF9F
:107EC000AC360020B036002010B5C0B2FFF7C8FFB6
:107ED0000446007803F03AFD63785A1E534253413A
:107EE000834208D1044BD3E90023134303D1BDE8F7
:107EF0001040FFF7DDBF10BDD036002037B5430876
:107F0000374AD35CC2074CBF1B0903F00F0304467A
:107F10000D46042B25D8DFE803F003262F3C400054
:107F2000F9B10121FFF78AFF00230DF107008DF859
:107F3000073000F0DDFA0120A4F12003C4F1200194
:107F4000284A20FA01F100FA03F30B43A040D2E9DA
:107F5000004120430B43C2E900039DF8070000F0F5
:107F6000EBFA03B030BD002918BF0221204603B050
:107F7000BDE83040FFF762BF49B10321FFF75EFF64
:107F80000121204603B0BDE83040FFF781BF012149
:107F9000ECE70029E5D10421E8E709B10321E5E791
:107FA000FFF74CFF29462046FFF772FF0DF107004F
:107FB0008DF8075000F09CFA0120A4F12003C4F1D1
:107FC0002001084A20FA01F100FA03F30B43A04014
:107FD000D2E9004124EA000021EA0303BBE700BF25
:107FE000D8360020D03600202DE9F041124E134F34
:107FF00000243378A34208DC114BD3E90023134358
:1080000018D0BDE8F041FFF753BF3D6805EBC40849
:1080100015F8340003F09AFC98F801305A1E5342C8
:108020005341181A4142414115F83400FFF766FFE9
:108030000134DEE7BDE8F081AA360020F8360020E2
:10804000D0360020092AF7B505460C4616463ED91B
:1080500003F0A4FBE8B11F4B1F481D601F4B204FCE
:108060001C70204B002120221E6008F094F91E4B4A
:1080700000200021C3E90001013CE4B20326FF2CEB
:108080000DD11A4A1A48002103B0BDE8F04000F0B3
:1080900037B903F051FB0028DDD003B0F0BD9DF8E7
:1080A000063015F834008DF8046005EBC40223F0A7
:1080B00007038DF8063001A993788DF805303A460C
:1080C00003F076FB013CE4B20028D8D0E5E70720B6
:1080D000E3E700BFF8360020D8360020AA3600209B
:1080E000C97E0200AC360020D0360020E97F0200B5
:1080F000B40D030070B5084D084E00242B789C4247
:1081000001D3002070BD3368012113F8340003F05F
:10811000CFFB0134F2E700BFAA360020F83600207A
:108120001FB50021039001AA44F20100CDE901111D
:1081300000F004F805B05DF804FB000038B572B635
:10814000FFF7CAFCFFF712FB0028FBD1104B114CC4
:10815000114D1249E41AE408240444F00100FFF729
:1081600067FCD5F8F030DB0700D500BE0C4944F0C1
:108170000200FFF75DFCBFF34F8FEA68094B02F482
:10818000E0621343EB60BFF34F8F00BFFDE700BF1A
:10819000EC0A03001C0B030000ED00E0B80D030027
:1081A000C40D03000400FA0510B5D0E90243D1E97B
:1081B0000202A04272EB03032CBF0120002010BD7D
:1081C00008B50A4800F0EFFA094AD2E90031C018B0
:1081D000084BD3E9002341F10001904271EB030306
:1081E00003D210F1807041F1000108BD842A002003
:1081F000003700207837002037B505460C460A487E
:1082000001A900F090FB60B10570446001A9064827
:1082100000F0B3FB18B1054800F0CAFA002003B023
:1082200030BD0420FBE700BF64370020842A002013
:1082300038B5184B1B78044613B90025284638BDBD
:108240000028FAD0037F03F0FF05002BF5D0FFF7DD
:10825000B7FFD4E90223904271EB030314D32369DF
:1082600003B92377D4E90530984721690029E4D080
:10827000237F03F0FF05002BDFD0D4E902325B1827
:1082800042F10002C4E902320348214601F058F8E5
:10829000D4E700BF08370020E00D030013B5114BF1
:1082A00011491868019008231048582200F028FB53
:1082B000044698B90E4A0F4801A900F061F9044636
:1082C00060B90C48012100F051FA01230A4A09481B
:1082D000194600F0B3F9094B01221A70204602B08A
:1082E00010BD00BFDC0D03000C37002064370020F8
:1082F00061830200842A0020FFFF7F0008370020EE
:108300003AB103685A614A1E514251411961002035
:1083100070470720704738B5037F04460D4683B980
:108320008261FFF74DFF2369281841F10001C4E97C
:10833000020103B1256121460020BDE83840FFF766
:108340005BBF002038BD0023014603770120FFF703
:1083500053BF0000014800F026BA00BF842A002065
:108360002DE9F347064600F009FA40B1584AD2E930
:10837000003113F1807341F10001C2E900310021A5
:10838000304600F00AFA38B1524C236823B1206815
:10839000FFF74EFF002323600121304600F0FDF976
:1083A00020B1FFF70DFF4C4BC3E900014B48494D8D
:1083B0004B4C4C4F01A900F0F0FA002842D1DFF8F5
:1083C0002081444CDFF82491404600F0CFFF236821
:1083D000002872D07BB12368D0E90252D3E902139E
:1083E0008D4272EB03032AD223681B7F1BB12168E5
:1083F000404600F0A5FF404600F0B2FFD0E9027A07
:108400000546FFF7DDFE381A6AEB010A01287AF10A
:10841000000345DBB0F5350F40D3FFF79BFF324A31
:1084200002444FF496030021484600F027F9002843
:108430003ED1236813B9304600F0F8F8256002B049
:10844000BDE8F0870378012B1DD0022B09D14FF036
:108450000008204600F084FF002836D080F81C80F9
:10846000F7E73BB941680B7F23B901230B7720461F
:1084700000F066FF01A9194800F0BAFA01A91748EF
:1084800000F08BFA99E741682B68994202D10023EA
:108490002B60EFE7204600F06CFFEBE7AA68C0E72F
:1084A0000021484600F06FF92846FFF7C1FE01E0C1
:1084B0000D28F9D00023236086E7002BBFD130467A
:1084C00002B0BDE8F04700F0B5B801233B70D1E73A
:1084D00000370020803700207837002064370020E4
:1084E000E00D030008370020FFFFB400842A0020BD
:1084F00070B5EFF3108672B60C4A946801239CB9EC
:1085000093600B4B0B4DD3F8801029401160C3F8DA
:108510008050D3F8841051604FF0FF32C3F88420AC
:10852000047006B962B670BD0370FAE784370020A4
:1085300000E100E0FC06FFBD084B9A6810B55AB197
:1085400050B9EFF3108172B6054A1C6814605C687C
:108550005460986001B962B610BD00BF8437002036
:1085600000E100E0435882B03BB100234350435840
:108570000193019B012002B070471846FBE7000001
:10858000F8B5224B4579224E43F82520214A224B4B
:108590009B1A06EBC502DB0812791B04EF0032B10F
:1085A00043F002001D49FFF743FA0820F8BD0268B6
:1085B0000C88C2F8084590F9044002798978002CAB
:1085C000ADBF04F1604CDFF85CC002F00F0E0CF59B
:1085D000614C4FEA4111C9B2B4BF0CF80E108CF8CF
:1085E000001364090121DFF840C002F01F0201FA04
:1085F00002F24CF82420F21946F83500117143F0CC
:1086000003000749FFF714FA0020CFE7983700204E
:1086100090370020EC0A03002C0B0300EC0D030044
:108620000E0E030014ED00E000E100E003680122FB
:108630001A607047036801225A60704773B501F1F0
:108640005005AD000068ADB24FF480348C40002678
:10865000C0F80843C0F84843465101F5A871455990
:10866000019522F07F42019D40F82120C0F844434B
:108670000BB1C0F8044302B070BD00002DE9F74F04
:108680000D4622F07F4402684FF4803705F1500612
:108690008F408046B60002EB8500C2F84873B6B240
:1086A000C2F80873D2F8041599464FF0000BD0F8C1
:1086B0004035C0F8401542F806B05B1A9259009256
:1086C00023F07F43012B009A4FEA850A0CD1264BF9
:1086D0004FF4806043F001039847D8F8003043F826
:1086E00006B09B590193019BD8F80010D1F804659E
:1086F000C1F84473A31B23F07F43012B1CD11A4BF9
:1087000005F5A875013443F0010341F825404FF405
:1087100080609847D8F80030D3F804359E4209D1DC
:10872000D8F800300020C3F84473C3F8047303B0D2
:10873000BDE8F08F0D20FAE78A44C9F1FF13CAF8AB
:108740004045D1F80405221A013A22F07F4203F590
:108750007F439342EED3002AE2D10134CAF8404568
:10876000D1F804359842DAE7200E030003680222AC
:10877000C3F8442309B1C3F80423704700684FF4D9
:108780008271FFF7EFBE4FF4803303FA01F1036803
:10879000C3F84813C3F808137047503189000068C4
:1087A00089B2FFF7DFBE0368D3F804057047000005
:1087B00090F9043001215A0903F01F0301FA03F371
:1087C0004032024941F82230704700BF00E100E02A
:1087D000024B034A1B681068184700BF98370020F7
:1087E00090370020BFF34F8F0549064BCA6802F44B
:1087F000E0621343CB60BFF34F8F00BFFDE700BFC4
:1088000000ED00E00400FA052DE9F3470546FFF707
:1088100063F9FEF7ABFF0028FBD12D4C2D482E4B02
:10882000241AE40824049F6A44F00104002D49D06E
:10883000AA692A492046FFF7FFF8EB680193AB6865
:10884000274900932046D5E90023FFF714F9EB6987
:1088500000932449D5E904232046FFF700F91E4B75
:10886000DB6A990703D520492046FFF7E1F8DFF8D6
:108870008890DFF888A000264FF0010808FA06F378
:108880003B4206D059F826201AB151462046FFF740
:10889000D3F801361A2EF1D13A0605D50E4B1349FD
:1088A0005A6B2046FFF7C8F83B0405D50A4B104920
:1088B0009A6B2046FFF7C0F82846FFF793FF02B0F7
:1088C000BDE8F0870B492046FFF7B2F8C7E700BFC5
:1088D0006C0B0300EC0A030000ED00E0260E030021
:1088E0003B0E0300700E0300CB0E03001A0F0300B3
:1088F0003A0F0300980E0300141403000F0F030037
:1089000010B561B1B2FBF3F403FB1424A4B244B973
:10891000C0E9001484608281C381204610BD0E200E
:10892000FCE70920FAE737B550E8013F9DB2C4895A
:1089300025448489A54228BF2D1B0489A54202BF76
:10894000BFF32F8F002207E0C5EA030540E801547A
:10895000002CE9D14FF001028DF803200193019A18
:108960000A609DF8031001F0FF0321B1006810FABE
:1089700082F003B030BD1846FBE70A884B889A4264
:1089800009D150E8012FC2EA024240E80123002B3E
:10899000F7D1012070470020704737B550E8023FFB
:1089A0001FFAA3F5C488A54202BFBFF32F8F002290
:1089B0000DE0C48925448489A54228BF2D1BC3EA44
:1089C000054540E80254002CE8D14FF001028DF833
:1089D00003200193019A0A609DF8031001F0FF0340
:1089E00021B1006800EB124003B030BD1846FBE730
:1089F0000A884B889A4209D150E8022FC2EA2242E3
:108A000040E80223002BF7D1012070470020704777
:108A100010B5034653E8000F0A4643E8002494F0DB
:108A2000000FF7D110BD10B5034653E8002F42EAFE
:108A3000010043E8000494F0000FF6D110BD10B51A
:108A4000034653E8000F00EA010243E8002494F0D3
:108A5000000FF6D110BD10B5034653E8002F02EB0E
:108A6000010043E8000494F0000FF6D110BD10B5EA
:108A7000034653E8002FA2EB010043E8000494F002
:108A8000000FF6D110BD10B5034653E8002F8A42FF
:108A90002CBF501A104643E8000494F0000FF4D1A4
:108AA00010BD0121FFF7BFBF0021FFF7C8BF10B500
:108AB00090B1D0E9012301689B1ADBB20A60013B47
:108AC000DBB2FF2B026802D10020107110BD1168CB
:108AD0004C1C14600B70F2E70E20F7E737B5054623
:108AE00000240DF107008DF80740FFF701FD2A680B
:108AF0006B68116899420ED9481E106011F8013C4C
:108B0000EC68298A01FB0344AB6811791B1ADBB2BC
:108B1000994238BF13719DF80700FFF70DFD2046FD
:108B200003B030BD37B5054600230DF107000C46F4
:108B30008DF80730FFF7DCFC2A681368591C1160B8
:108B4000E968641A298AB4FBF1F41C709DF80700E7
:108B5000FFF7F2FC03B030BD826810B504462AB1BD
:108B600043690168006998470023A36010BD0EB4F3
:108B700003B5039921B104AB01AA019300F076F883
:108B800002B05DF804EB03B070470A2938B504461B
:108B90000D4602D10D21FFF7F8FFA3682268591C8A
:108BA000A160D554D4E901329A4204D32046BDE8ED
:108BB0003840FFF7D1BF38BD2DE9F84F9846DDE9C1
:108BC0000A43154682460F460A464FF00109AA425B
:108BD0000FD2C14538BFC14613F0010B01D16CB9AA
:108BE00000240126B8F1010F1BD908F1FF386E43AC
:108BF000F8E709F10109B2FBF5F2E8E79B070ED5AA
:108C0000B8F1000F0CBF30262026A145E9D2013C67
:108C100031465046FFF7B9FF002CF6D1E0E7202699
:108C2000F3E7B7FBF6F39D42E1D9DFF83C80B7FBF1
:108C3000F6F3504618F8031006FB1377FFF7A5FF6D
:108C40003346AB42B6FBF5F6F1D2BBF1000F02D0D2
:108C50000CB1A14501D3BDE8F88F20215046013C5D
:108C6000FFF793FFF4E700BF7C1403002DE9F74FF3
:108C7000054617468846002900F03E8118F8011B7A
:108C800049B92B7B002B00F03781284603B0BDE8A3
:108C9000F04FFFF761BF252940F0B780002698F814
:108CA00000302D2B424608F1010823D0302B24D070
:108CB0002B2B25D000242A2B02F1010123D13B6864
:108CC0001A1D1B683A601C440A4613782E2B26D1C5
:108CD00001324FF0000A104610F8011BA1F1300CD0
:108CE000BCF1090F1DD80A2303FB0A13A3F1300AB4
:108CF0000246F0E746F00106D1E746F00206CEE76D
:108D000046F00406CBE711F8013CA3F13000092836
:108D1000DBD80A2202FB0434303C0A46CBE74FF092
:108D2000000A12F8011B01F0FB0068289046F8D0F9
:108D3000782909D86F290CD8632962D022D825292F
:108D400063D0582900F0888098F80030002B95D126
:108D500097E770390829F7D801A353F821F000BF2D
:108D6000D38E0200498D0200498D0200698E0200F7
:108D7000498D0200478E0200498D0200498D020094
:108D8000598E0200642901D06929DDD13A68D2F8F0
:108D90000090111D89EAE9723960A2EBE9724FF087
:108DA000010B092A35DCD34538BFD3462CB1B9F1C4
:108DB000000F01DB720700D5013CB30702D5BAF101
:108DC000000F03D0F00701D44CBB0024B9F1000F11
:108DD0002DDAC9F100092D212846FFF7D6FE06F04D
:108DE0000302022A04D1BAF1000F01D11CBB0024F6
:108DF000CDE9004653460A2249462846FFF7DCFEE5
:108E0000A2E73B681A1D19783A602846FFF7BDFEB5
:108E10009AE70A230BF1010BB2FBF3F2C1E7A3457A
:108E2000D4D220212846013CFFF7AFFECCE77107E2
:108E3000D5D52B21D0E7A345DAD230212846013CF5
:108E4000FFF7A3FED2E73968CDE900460A1D3A6074
:108E500053460A220968D0E739680A1D3A60CDE90D
:108E6000004653461022F5E73B681A1D3A6016F09B
:108E70000106D3F8009024D1B9F1000F03D0484681
:108E800007F0DEFA0646B4421DD809F1FF3919F899
:108E9000011F00293FF458AF2846FFF776FEF6E79A
:108EA00028460136FFF771FE19F806100029F7D1A0
:108EB000A642BFF449AF20212846013CFFF765FEDA
:108EC000F6E70026F0E720212846013CFFF75DFE8B
:108ED000D9E73B681A1D3A60302128461C68FFF725
:108EE00054FE78212846FFF750FE00220823CDE9E2
:108EF00000322146102280E703B0BDE8F08F00BFAA
:108F00002DE9F84FB0F806A04579D2F800B09DF8E9
:108F100028900AFB05F5043D88460BEB0301A942A6
:108F200003F1040488BFA5EB030BB4FBFAF6074674
:108F30000AFB1644C2F800B04EB9AAEB04055D4521
:108F400028BF5D46BBF1000F04D1BDE8F88F3F6834
:108F5000013EF1E7043408EB06003C442A46B9F12F
:108F6000000F0DD02146ABEB050B07F0EBF9DA450E
:108F70002E443F6855464FF0000428BF5D46E1E7A8
:108F800001462046EFE7FFF792BDF8B54679014666
:108F9000721E0546002393422D6803D30024A64287
:108FA00002D8F8BD0133F6E70F682846FFF7BAFD8F
:108FB00001343946F3E72DE9F843068ACD1C07460C
:108FC000FFF78CFD043E35440446B5FBF6F5F0B1E1
:108FD0004FF48073EDB28380C680013D0760814607
:108FE0004FF00008A84512D23846FFF777FD064635
:108FF00048B163790133637108F10108C9F80000D1
:1090000007608146EEE72046FFF7BFFF3446204663
:10901000BDE8F88301210430FFF71DBD10B5012123
:1090200004460430FFF723FDC0B220B92046BDE856
:109030001040FFF7AABF10BD1FB503920022009297
:1090400003AAFFF75DFF05B05DF804FB1FB50392AF
:109050000122009203AAFFF753FF05B05DF804FB5D
:1090600033DF704741DF7047064B10B500241C709A
:10907000054B1C60BFF35F8F0449054800F04AF9B7
:10908000204610BDA5370020A83700209814030003
:109090009C37002007B500230DF107008DF807303D
:1090A000FFF726FAF1EE103A23F09F03E1EE103AB3
:1090B000BFF35F8F0A4B4022C3F884219DF807005D
:1090C000FFF73AFA06F038FE20B103B05DF804EB82
:1090D000FFF7C8BF20BF40BF20BF03B05DF804FB4F
:1090E00000E100E070B5244D044601212846FFF759
:1090F0008FFCBFF35F8F38B9042C0AD01F4B1A784E
:109100001AB1BFF35F8F286070BD1D4A1470012231
:109110001A701C4C1A4E6368BBB9FEF7DDFCFEF7F3
:1091200025FB0028FBD1164B1B78023B012B15D8E1
:10913000BFF34F8F1449154BCA6802F4E062134322
:10914000CB60BFF34F8F00BFFDE71B6830789847B7
:109150000028D6D0204600F0E7F8DCE706F0ECFD6A
:1091600008B1FFF77DFF4FF080430122C3F80025CF
:10917000BFF34F8F20BFFDE7A8370020A5370020A1
:10918000A43700209C37002000ED00E00400FA0521
:10919000026813685268934291BFD01A8068013008
:1091A000801888BFC01A7047036881681A685B68B6
:1091B0008B4234BF01330023D31A584258417047C1
:1091C00073B5002304460DF107000D468DF80730F6
:1091D000FFF78EF92046FFF7E7FF10B1237C002B45
:1091E0003BD12368A1685E685A688A4234BF013265
:1091F00000225A6028B11A688A4234BF0132002224
:109200001A60E2686368511E072920D8DFE801F080
:1092100004101F141F1F1F182A789A552046FFF7A5
:10922000B7FF23689A68824200D29860002415E054
:109230002A8823F81620F1E72A6843F82620EDE76C
:10924000D5E9000103EBC603C3E90001E6E72946BF
:1092500002FB063007F076F8E0E704249DF80700EB
:10926000FFF76AF9204602B070BD036818685B68B2
:10927000C31A58425841704773B5002305460DF193
:1092800007000C4616468DF80730FFF731F92846DF
:10929000FFF7EBFF002832D12B6819682EB91A6846
:1092A000A868824238BF561C1E60EA686B68501E70
:1092B00007281ED8DFE800F0040E1D121D1D1D1624
:1092C0005B5C237000249DF80700FFF735F920460A
:1092D00002B070BD33F811302380F3E753F821302A
:1092E0002360EFE703EBC103D3E90023C4E90023C4
:1092F000E8E701FB0231204607F024F8E2E7052405
:10930000E1E7836800225A60C3E904229A60DA60C8
:109310001A6070470B684A684360934208BF002395
:10932000016008BF43607047436843B102689168B9
:1093300052680B449342436004BF0023436070476C
:1093400070B5446806460D46206818B1B3682946D2
:10935000984718B923682B60256070BD2468F3E72F
:109360004368186808B102681A6070474368186853
:1093700070474368186800B97047884203D1026893
:109380001A600120704703460068F4E710B50D49E4
:10939000A1F59472914201D800200FE08C1AE30FDE
:1093A00003EBE4035B1002EBC30452F83330834257
:1093B00005D802D204F10802ECE7606810BD21462E
:1093C000E8E700BFA419030008B5FFF7DFFF024B71
:1093D000002808BF184608BD6718030043681B68CB
:1093E00018470000024B5B6803B11847704700BF85
:1093F000B0370020020600F00F034CBF02480348BC
:10940000DB001844704700BFBC3700200438002040
:1094100008B5FFF7EFFF016009B14B6819684160BB
:1094200008BD0000024B0146D3E90002104700BF0F
:109430000438002038B5831EDBB2062B98BF1A4AC9
:109440001A4D98BFD25C2B78A3F10203DBB288BF20
:109450000022062B9ABF1449CB5C0023934204469A
:1094600003D0B2B1124801F0C5FF022C14D0A4F110
:109470000800424242412B78022B0FD0A3F1080191
:109480004B424B41934202D052B103F0A1FD2C70EC
:1094900038BD01F0E9FFE8E70122ECE70123F1E73D
:1094A00003F08CFDF3E700BFAD1903007C39002009
:1094B0008C2A00200378052B73B504460BD12F4A64
:1094C000D2F88434D2F88024D2B222B92C4ADBB24A
:1094D000052B08BF144623782BBB2A4B1D68DDB92A
:1094E0008DF80450284D01A8FFF702F82B6813B936
:1094F000264B62881A8001212348FFF7ACFA9DF8B9
:109500000400FFF719F8224B1B6813B10121204614
:1095100098472B6802B070BD2B6860889B6898479D
:109520002B685D68DBE71B4801A9FFF7FCF90546DE
:109530000028EFD02368036000260DF103008DF8AA
:109540000360FEF7D5FF114B0F481B8802680133FB
:109550009B1AEB803146FFF75BFAA8809DF8030069
:10956000FEF7EAFF01A90B48FFF707FA084B1B6853
:109570000146002BCED020469847CBE70070024032
:10958000C419030070390020783900204C380020BD
:10959000B037002058390020FFF78CBF012805D0D4
:1095A000022805D030B90448FFF784BF0348FBE721
:1095B0000348F9E7704700BFBC190300B81903005E
:1095C000C01903000148FFF775BF00BFC8190300A9
:1095D0002DE9F04F87B000260546884691461F4684
:1095E00002966B6800225C682946012302A8A04706
:1095F000044638B98DF8060004908246564503D8D3
:10960000052028E00136ECE76B680DF10602D3F87F
:1096100004B02946012304A8D8476B680DF107025E
:10962000D3F804B02946012304A8D8479DF8073091
:1096300043459DF8063013D14C450FD1109A136065
:109640003B7087F801806A68023B54682946BA1C5F
:1096500004A8A047002007B0BDE8F08F0134E4B2B1
:109660006A68023BD2F804B02946002204A8D84711
:109670009DF806309A44C1E72DE9F74308230546D3
:109680002D492E484FF48472FFF73AF9002851D142
:109690002B4803F0B3FC0446002847D1294B18702F
:1096A000294B1860294B014618604822284806F0CB
:1096B00072FE28484822214606F06DFE264B8DB9E1
:1096C000C3E900551D72002004F052FA18B1852834
:1096D00001D0FEF725FD214F002697F8089007F1ED
:1096E000090810E095E8070083E80700EBE7A37896
:1096F00023443946985CFFF78BFE01356378EAB264
:109700009342F4D80136F4B2A14504D904EB4404E1
:1097100044440025F2E70B2310488DF8043001A9DA
:10972000FFF75CFE044608B103F0EAFA204603B0F6
:10973000BDE8F0830324F9E74E38002058390020B3
:10974000999502007C390020683900206C3900208E
:10975000BC37002004380020B0370020DC1903009B
:1097600010B503F0E1FB10B90823184610BD03F053
:10977000E3FB04460028F7D1044804F02DFA034621
:109780000028F2D0FEF7CCFC2346EEE7B419030024
:1097900003F0C0BA03F0EABF4FF08043D3F8382497
:1097A000920702D50348FFF785BED3F83824D107C6
:1097B000F4D47047CD19030007B5822301A88DF8B2
:1097C0000430FFF777FE03B05DF804FB2DE9F743A3
:1097D00000F1090190F80890054600270E46FBB2FB
:1097E0004B452AD291F801800024E3B298450AD96A
:1097F0008B780A190134D05CFFF7FCFD0368002B5D
:10980000F3D0112028E001370331E8E7A2782344A0
:109810002946985CFFF7FCFD01376278FBB29A425B
:10982000F4D808F101082B7A5FFA88F4A34216D91C
:1098300004EB440434440027EFE74FF00008F2E75C
:1098400013681A68002AFBD11D6001A90B23284662
:109850008DF80430FFF7C2FD03B0BDE8F083014B83
:10986000EFE700BF68390020024B1878003818BFB6
:109870000120704774390020030710B5044604D452
:1098800003F0E4FC204604F03FF82046BDE8104019
:1098900003F0E4BF03F0B0BF014B1868704700BF8E
:1098A00068390020F0B50A4B0246186878B1057A8D
:1098B0000023861DDCB2A54201D80368F5E7013319
:1098C00003EB4307F75D9742F4D101B10C70F0BD93
:1098D000683900201146FFF781BD08B500F00F037D
:1098E000082B07D8FFF786FD006818B1BDE80840CF
:1098F000FFF774BD102008BD38B5054B05461C6840
:1099000004B938BD29462046FFF768FD2368F6E70D
:109910006839002038B5074B05461C680CB906208D
:1099200038BD29462046FFF759FD0628F8D123689F
:10993000F3E700BF6839002013B50446019103F036
:10994000A3FB50B1064B1B78022B06D10199204690
:1099500002B0BDE8104003F0A7BB082002B010BD64
:109960007C39002013B50446019103F08DFB50B102
:10997000064B1B78022B06D10199204602B0BDE8A8
:10998000104003F00BBC082002B010BD7C39002051
:10999000F8B543689B6805460C46164613B92EB1C8
:1099A000072002E098470628F9D0F8BD2B7AA34299
:1099B00013D9093504EB44042C446778F3B29F4271
:1099C00001D80020F1E762789A4208D9A219A37859
:1099D000D05CFFF751FF0136F0E77378FFDE00231C
:1099E0001B78FBE74368DB6870B505460C4603B19E
:1099F00098472B7AA34213D9093504EB44042C442D
:109A000000256678EBB29E4200D870BD62789A421B
:109A100009D96219A378D05C03F0EEFE0135F1E7B5
:109A200000235B78FFDE00231B78FBE743681B699C
:109A300003B118471846704770B5084B1C6804B945
:109A400070BD267A0025E9B28E4201D82368F5E779
:109A500000222046FFF79CFF0135F4E7683900201B
:109A600070B5084B1C6804B970BD267A0025E9B2B0
:109A70008E4201D82368F5E72046FFF7B3FF013592
:109A8000F5E700BF6839002038B503780F2B04468E
:109A900010D9A3F1800283F08003052B00D938BDD3
:109AA000052AFCD8DFE812F067002C00490073009B
:109AB0007E00E0000F2BF2D801A252F823F000BF85
:109AC000C79B0200F79B0200579C02001B9C0200F0
:109AD000399C0200699C02007B9C02009F9A020054
:109AE000A59C0200A99C0200AD9C02009F9A020066
:109AF0009F9A02009F9A02009F9A0200739C0200A4
:109B00006B48FFF78FFC6A48FFF7F6FE0D20FFF762
:109B100069FCFFF7A5FF00F0CCF9664B1B6853B951
:109B2000654B187A00F0010003F0D4F90120BDE87C
:109B30003840FFF77FBC0120F4E7FFF791FF03F007
:109B4000F7FD0020FFF776FC5C48FFF7D5FE5B4889
:109B5000FFF768FC0E20FFF745FC594B1B78023BD2
:109B6000DBB2062B9BD8574AD35C002B97D0BDE8BD
:109B7000384001F079BC524B1B78062B05D003F01E
:109B8000FD03052B8BD10220D1E70820CFE74C4BFA
:109B90001B78032B83D103F003FE00283FF47FAF33
:109BA0000420C4E7464B1B78032B05D103F0F8FDD6
:109BB00010B10420FFF73EFC03F0C8F900283FF481
:109BC0006EAF0620B3E73E4B1B78032B01D0082B6A
:109BD00002D13D48FFF758FF0020FFF703FC354B4B
:109BE0001D68002D3FF45BAF28462146FFF7F6FBCA
:109BF0002B685D68F5E7FFF733FF00F051F90220AD
:109C0000FFF718FC0120FFF7EDFB2046FFF70AFCE9
:109C10002046BDE83840FFF76FBE294B1B78082B64
:109C200006D10220FFF706FC03F0DCF90320EAE787
:109C30000520FFF7FFFBF9E70320FFF7D3FB2348DD
:109C4000FFF7F0FB2148FFF757FE1D4B1B78062B53
:109C500099D107206BE70320FFF7ECFB0220FFF709
:109C6000C1FB2046FFF748FE2046BDE83840FFF71D
:109C7000D9BB0F20FFF7B6FBCAE78078FFF7BAFB26
:109C8000214643680068984700283FF408AFA07851
:109C900002073FF404AF03073FF501AFBDE83840CA
:109CA00003F0C6BA0820E5E70920E3E70A20E1E768
:109CB000CC1903006C390020B0370020CB19030009
:109CC0007C390020AD190300CA190300C91903002B
:109CD00073B5244E00230193336823B922492348E6
:109CE000FEF75BFE30603468ECB1A58885B1E3888F
:109CF000B3F5006F24BF0023E380E388ADF806309E
:109D00005A1C013DE280A58001A8FFF7BDFE07E0D7
:109D10002046FFF7B9FE14491448FEF769FE356086
:109D2000012002B070BD124B18680028F9D00DF167
:109D300003008DF80340FEF7DBFB0E4B0C481A883E
:109D4000B2F5006F28BF1C801A88ADF80620511CA0
:109D500019800121FEF797FE9DF80300FEF7ECFB4A
:109D6000D2E700BF80390020AC37002058390020EE
:109D7000783900204C380020002070472DE9F04F42
:109D80002DED028B4B6885B080460C4601926BB975
:109D90000B681B681B684BB98D683DB9C0E900555D
:109DA000284605B0BDEC028BBDE8F08F03F03CFA0D
:109DB000019BE7689F4228BF1F4604F110034FF044
:109DC000000A08EE103A8146564601254FB3A368B3
:109DD0006168BB429B4628BFBB4629B35A4609EB84
:109DE000060006F0AFFA00236360A268E368A2EB06
:109DF0000B02A3EB0B03A260E360A7EB0B075E442F
:109E00000ABBBAF1000F03D0226812681268226000
:109E1000DBB12368DBB963601EB1019BB34288BF2D
:109E20000025C8E90096BBE7002BDED021684B680F
:109E300018EE100AD3F804A009EB06025B46D047DF
:109E40004FF0010AD1E7002BC0D10025BEE7002367
:109E5000029321684B680022D3F804B002A80123C2
:109E6000D84708B92061B1E7A3680133A360F0E7E0
:109E7000084B1A7882420CD0052818BF064A187081
:109E800018BF137805481CBF23F002031370FFF7B7
:109E9000FBBD704790390020AC390020EC1903005D
:109EA00008B50020FFF7E8FCBDE808408020FFF778
:109EB000E3BC08B50020FFF7EDFCBDE808408020BA
:109EC000FFF7E8BC38B505460C4603F039FAA8425E
:109ED00005BFD4E90001034B1020C3E9000108BF0E
:109EE000002038BDB03900207FB5C38893421E469C
:109EF00028BF164693420D46144625D9802003F00C
:109F0000BDF8B4FBF0F202FB1044B4FA84F4640927
:109F100000230DF1030003948DF80330CDE90156C1
:109F2000FEF7E6FA01A98020FFF706FD044620B9F6
:109F300006498020FFF7C6FF04469DF80300FEF7A0
:109F4000FBFA204604B070BD0024E1E7201A0300AC
:109F50002DE9F04F0B780E2B89B00D4613D8A3B125
:109F6000013B0D2B11D8DFE813F012001A00160088
:109F700010002A00F40110001000100010001A0058
:109F8000DE01E201F201852B13D00624DBE1032080
:109F9000FFF76EFFF9E7A848FEF786FD08B9002431
:109FA000D1E1A64B0122DA65BFF36F8FBFF34F8F6C
:109FB000F5E7A34B1B78032BE7D10420E8E7052343
:109FC000A04D8DF814300DF1150003F04FF900236A
:109FD0002B609DF8153003F01F07032F00F25C8102
:109FE000DFE817F00400F4005101370013F0600FB0
:109FF000C3F341182DD1DB099DF8162000F09F8096
:10A00000062A0FD0082A00F08C8012BB8E490B70F4
:10A010008E4B4A701B789B0744BF03230B700222B0
:10A0200089490EE09DF81830022B16D0032B68D01A
:10A03000012B0ED1BDF81B30002B00F0718184493B
:10A0400012220DF11500FFF74FFF0446062C40F0D9
:10A050002B8105A8FFF75EFC13E1BDF81B60002E05
:10A0600000F05E81092E28BF0926FFF715FC4FF08E
:10A070000909044674BB744C76493246204606F002
:10A0800061F92771A4F80290FFF7EEFB18B1E379AC
:10A0900043F02003E371FFF7FFFB6F4BC3E90004BC
:10A0A0009E60BDF81B20DA6003A800238DF80C30F9
:10A0B000FEF71EFA69498020FFF754FC044620B9D8
:10A0C00067498020FFF7FEFE04469DF80C00FEF76E
:10A0D00033FABBE7CDF80C804FF0000A636800222A
:10A0E000D3F804B02146012303A8D84730B9237A16
:10A0F0001F442368D1441C68FFB2BBE70AF1010A80
:10A10000ECE7BDF81B30002B00F00A81BDF81910F8
:10A110009DF8170000F09AF90146002899D00278BE
:10A120008FE7474A1278052A03D1474A1370012264
:10A1300076E7042A8DD1444B83F80080F7E7032AA1
:10A1400010D0092A2CD0012A83D1BDF81730012B59
:10A150007FF47FAFFFF788FB60B13C4A137823F0B0
:10A1600002030FE0BDF81730012B7FF472AFFFF749
:10A170007BFB18B90F2403F0E0F8E4E0334A1378CE
:10A1800043F0020313702B68002B00F0C98003F02A
:10A19000D7F8044600287FF402AF03F089F8D2E034
:10A1A000274B1B78043B012B01D90824E3E79DF8DA
:10A1B00017302BB9FFF754FC0420FFF759FEE2E7F4
:10A1C000012B57D1FFF738FC0520F6E79DF8190061
:10A1D00003A9FFF767FB064608B91024CBE79DF8F3
:10A1E0000C1005AAFFF776FB062804465CD19DF803
:10A1F000152012F0600FBED1114B9DF80C1018788D
:10A200009DF81630D2092DD07BB10A2BB3D1052889
:10A21000CBD130460192FFF709FC0B49019A087037
:10A220000DF11500FFF760FE2BE00528BDD10649B2
:10A230000B800222F4E700BFB83900200070024012
:10A2400090390020B0390020BC390020AC39002002
:10A250000C1A0300ED19030094390020281A03009A
:10A26000201A03000B2B86D105289ED1BDF817308C
:10A27000FF2B01D907247EE79DF817203046FFF712
:10A2800087FB044610E09DF81900070706D19DF8EA
:10A29000153013F0600F0BD006246CE705A9FFF70B
:10A2A0001CFB06280446F2D0002C3FF46CAF62E79A
:10A2B0009DF816203A4B9DF819401B78012A1DD0B5
:10A2C000032A0CD0002AE7D1052B02D026077FF401
:10A2D0006CAF204602F0B8FF32490880A9E720079A
:10A2E000DAD4BDF81720002AD6D1052B02D02107D9
:10A2F0007FF45BAF204602F09BFF44E72207CBD4FC
:10A30000BDF81720002AC7D1052B02D023077FF400
:10A310004CAF204602F09AFF204603F0F5FA32E7F0
:10A3200003F008F83BE60020FFF7A2FD37E64FF008
:10A330008043D3F8384414F0010401D00220F3E73D
:10A340000120FFF795FD204609B0BDE8F08F012000
:10A35000EAE7C87803283FF418AE134E3368E3B138
:10A360000022716832609847044600287FF403AFEA
:10A37000336823B1AB78002B7FF411AE0DE74FF0BB
:10A380008053D3F83021082A04D1D3F83431002B7C
:10A390003FF405AE02F0CEFFD5E70E24EBE600BF9A
:10A3A00090390020BC390020B039002008B140238A
:10A3B00003600148704700BFBC39002070B54FF002
:10A3C000805286B0D2F8A830D2F8A42000926FEA6A
:10A3D00083436FEA93430B4A0B4E9BB20D2102A8B5
:10A3E00005F076FF02AD002402A806F029F88442A9
:10A3F00001D306B070BD15F8013B06F8013B0134EE
:10A40000F2E700BF301A0300FC39002010B50E4BF4
:10A4100053F8204023780BB9A01C10BD0020FFF793
:10A42000C5FF013C00235A1CA15C39B9DBB20133E2
:10A430005B00DBB243F440730380EEE7D3B220F855
:10A4400013101346EFE700BF981A030008B9FFF78F
:10A45000DDBF052807D8054A105C20B1044B53F82E
:10A460002030002BF3D10020704700BFB01A03004A
:10A47000981A0300C36903B11847704703680022A4
:10A48000C3E91E22C3E920221A845A62DA6203F168
:10A4900034025A677047CA699A4210B543600CD3B8
:10A4A0008C690460086F18440867D01A1C44C8619E
:10A4B00000388C6118BF012010BD01F12802026034
:10A4C0008B670020F8E758B90B681A7B202A09D15E
:10A4D000D3F80E209A615A8A9A831A7D9A77704728
:10A4E0000320704706207047F0B504680D7A002CF1
:10A4F00000F08780A4F212347C2C00F222837C2CA2
:10A5000000F21F83DFE814F085008F009D00A90092
:10A51000B500C100CD00D9001D031D031D031D039F
:10A520001D031D03EF00FB001D031D031D031D0381
:10A530001801240132011D031D031D0345015101B2
:10A540007F011D031D031D031D03670173017F01AF
:10A550001D031D031D031D031D031D038B011D038F
:10A560001D031D031D039F01AB01B701C301CF01F3
:10A570001D031D03DB01E701F301FF010B021D03B6
:10A580001D031C022802340240021D031D034C025D
:10A590005802640270027C021D031D031D031D038B
:10A5A0001D031D031D031D031D031D031D031D03AB
:10A5B0001D031D031D031D031D031D031D039B021E
:10A5C000A7021D031D031D03C0021D031D031D0360
:10A5D0001D03DD021D031D031D031D03DD021D03FD
:10A5E0001D031D031D031D031D03E902F5021D03C9
:10A5F0001D031D031D0313031D031D031D031D0365
:10A6000013030824047123B940F2123303600120BC
:10A61000F0BD0AB1047914700B24012B04710ED81B
:10A6200040F21333F2E700240AB1067916550134DB
:10A630000E7D06719C4205D34FF44573E6E7012475
:10A64000F2E700240AB106791655013402269C422D
:10A65000067103D340F21533D8E700240AB1067916
:10A660001655013402269C42067103D340F216337C
:10A67000CCE700240AB106791655013402269C4223
:10A68000067103D340F21733C0E700240AB10679FC
:10A69000165501344E7E06719C4203D34FF4467327
:10A6A000B4E700240AB106791655013400269C420D
:10A6B000067103D340F21933A8E700240AB10679E2
:10A6C00016559D4E0027013437709B4E3678AE42AA
:10A6D00002D340F2993399E70926A342067103D8C1
:10A6E0004FF4487392E700240AB1067916550134F5
:10A6F00004269C42067103D340F2213386E70024EE
:10A700000AB1067916558C4E0F7A3678DFF82CC2CE
:10A71000B74204F1010440F2188201F1090706EB87
:10A72000460607EB060E9C42BE5DCCF800E00671C3
:10A7300003D340F2263369E700240AB1067916559F
:10A74000013400269C42067103D340F227335DE7B3
:10A7500000240AB106791655784E366801347678A9
:10A7600006719C4203D34FF44A734FE700240AB1A9
:10A7700006791655714E0F7D36683678B74204F16A
:10A7800001041ED102269C42067103D34FF44B7381
:10A790003CE700240AB106791655013402269C4292
:10A7A000067103D340F22D3330E700240AB1067955
:10A7B000165501344E7E06719C4225D340F22E334D
:10A7C00024E78F7DB74223D10A269C42067103D32A
:10A7D00040F233331AE700240AB1067916550134E2
:10A7E00000269C42067103D34FF44D730EE70024FC
:10A7F0000AB106791655013400269C42067103D32E
:10A8000040F2353302E700240AB1067916550134C7
:10A810000026A342067103D84FF44F73F6E60024D6
:10A820000AB106791655454E0F7D36683678B7421F
:10A8300004F1010440F0E98005269C42067103D32F
:10A8400040F24133E2E600240AB10679165501349C
:10A8500024269C42067103D340F24233D6E60024FC
:10A860000AB106791655013400269C42067103D3BD
:10A8700040F24333CAE600240AB106791655013482
:10A8800010269C42067103D34FF45173BEE6002498
:10A890000AB106791655013401269C42067103D38C
:10A8A00040F24533B2E600240AB106791655013468
:10A8B00005269C42067103D34FF45273A6E600248A
:10A8C0000AB106791655013424269C42067103D339
:10A8D00040F249339AE600240AB10679165501344C
:10A8E00001269C42067103D340F24A338EE60024CF
:10A8F0000AB106791655013403269C42067103D32A
:10A9000040F24B3382E600240AB106791655013431
:10A910008E7D06719C4203D34FF4537376E6002478
:10A920000AB106791655013404269C42067108D3F3
:10A9300040F24F336AE600BF0A3A00200C3A00208A
:10A9400000240AB106791655013424269C4206716A
:10A9500003D34FF4547359E600240AB1067916550F
:10A96000013402269C42067103D340F251334DE676
:10A9700000240AB106791655013402269C4206715C
:10A9800003D340F2523341E600240AB1067916554A
:10A99000013405269C42067103D340F2553335E657
:10A9A00000240AB106791655013424269C4206710A
:10A9B00003D340F2563329E600240AB1067916552E
:10A9C000013406269C42067103D340F257331DE63C
:10A9D00000240AB10679165501340E7D06719C4299
:10A9E00003D34FF4567311E600240AB106791655C5
:10A9F00001348E7D06719C4203D340F2593305E643
:10AA000000240AB1067916550134534E366877781A
:10AA1000524E3770524E00273770514E37784F4E96
:10AA20003678B74204D34F4F3E7801363E704CE63D
:10AA30000726A342067103D840F26D33E6E50024F1
:10AA40000AB106791655013405269C42067103D3D6
:10AA500040F26E33DAE500240AB1067916553E4E0F
:10AA60003F4F36683F7896F801C0BC4504F10104B9
:10AA700070D996F802C03E449C4216F80C600671EC
:10AA800003D340F27233C1E500240AB106791655AA
:10AA9000314E0F7D36683678B74204F1010406D195
:10AAA00003269C4206710DD340F27733AEE58F7DCD
:10AAB000B7420BD102269C42067103D34FF45F7359
:10AAC000A4E500240AB10679165501344026A342B4
:10AAD000067103D840F2833398E500240AB1067961
:10AAE0001655013400269C42067103D34FF461735E
:10AAF0008CE500240AB106791655174E0F7D36688D
:10AB00003678B74204F1010407D10E6A9C423678C8
:10AB100006710DD340F2893378E58F7DB7420BD1B2
:10AB200000269C42067103D340F28E336EE500246A
:10AB30000AB1067916550134094F3E7801363E7048
:10AB40006BE700230360184662E50023CCF8003071
:10AB50001B78FFDE0023FBE70C3A0020093A0020B7
:10AB60000B3A00200A3A0020037A012B08D9427BD5
:10AB7000012A00F10C0306D9827B134458787047F0
:10AB800000235B78FFDE00231B78FBE72DE9F0470D
:10AB90000B7888B005460E460E2B17D8DFE803F079
:10ABA0000A080A0A160CA6161608160A0A0A0A0045
:10ABB000FFF764FC002427E04A78D1094FEA5213DA
:10ABC00035D013F0030303D0012B21D006241BE062
:10ABD00002F01F02012AF9D1B478062CF6D105A89B
:10ABE0000393FFF7E3FB03AB0093F278317903465D
:10ABF00007462846FEF7ECFC052805D0039A39469F
:10AC0000701CFFF771F90446204608B0BDE8F087D4
:10AC1000B378212BDAD1B6F80720072AD6D10168FC
:10AC2000701C183108B0BDE8F047FFF75DB9012B83
:10AC3000CCD1B3780768202B34D0222BC6D1B6F8FC
:10AC40000730002BC2D13A8CB6F803303B8402F0B7
:10AC5000010203F001018A42ACD08CB2C1F10301C0
:10AC6000C9B2FFF707FC002CA4D12B7A012B40F2CC
:10AC7000D3806B7B05F10C02002B00F0CF80AB7B07
:10AC8000D05C02F023FC2846FFF76EFF02F01EFCAA
:10AC900007F13403C7E91E44C7E920447C62FC6223
:10ACA0007B67B1E7B6F80730072B8FD14FF4E4622A
:10ACB000BA8100240DF10B000E37CDE9057307941E
:10ACC0008DF80B40FDF714FC204605A9FEF734FE75
:10ACD000044630B9534B03A9CDE90335FFF7F2F829
:10ACE00004469DF80B00FDF727FC8DE7037A002B47
:10ACF00000F09680837A00F10901002B00F08E802D
:10AD0000C27AB3788A5C9A423FF454AF1B06F77854
:10AD100009D527B1032F14BF0324002474E70121B0
:10AD2000FFF7A8FB46E707F0FD03012B3FF442AF16
:10AD3000002F6FD10668FFF717FF3B4BB46A0593EE
:10AD400006F10C0381460693C4B9F36FB467C6E9F4
:10AD50001F43F36A63B1D6E90B0106F1240383E8CC
:10AD60000300F46205A94846FEF7FCFD044600E036
:10AD7000746200212846FFF77DFB45E7D6F884A0E2
:10AD8000706A544528BF544606F1340822464146AD
:10AD900005F0D8FAF36F2344C6E91F73AAEB040346
:10ADA000B367F36A444474672BB306F1240406F1D5
:10ADB0002C0898E8030084E80300B36F706AF76218
:10ADC0001BB9736A002BCDD116E0B26A716F9A423B
:10ADD00014D805F0B7FAB36AB26FC6F88030D21A49
:10ADE000B267726F1A44726700212846FFF742FB70
:10ADF000F36A002BDDD173620024BAE71A4605F02E
:10AE0000A1FAB26FB36AF2679B1AB362736A134412
:10AE10007362D6E70324F7E66378FFDE1B78FCE76E
:10AE20005B78FAE7C7A4020097A402001FB5036885
:10AE30001B8CDC0714D5037A012B13D9437B00F15B
:10AE40000C0493B1837BE05C9306CDE901120CBF47
:10AE50000123002301A90393FEF76EFD04B010BD8A
:10AE60000820FBE700235B78FFDE1B78FCE7036824
:10AE7000D3F8800070470000F7B50468238CDB0727
:10AE80000F4616463BD5656A002D32D1A16F91421F
:10AE90000ED3616F384605F055FAA36FC4F8806091
:10AEA0009B1BA367636F33446367284603B0F0BD01
:10AEB000C4E90972FFF758FE134B009304F10C0329
:10AEC0000646019369B10A463846616F05F03AFAC1
:10AED000A36FA26AD21AA262626AC4E91E531A441C
:10AEE000626269463046FEF73DFD002808BF9220A9
:10AEF000DCE7E36A2BB9C4E90B129220D6E70820FD
:10AF0000D4E71120D2E700BF97A402001EF0040F7F
:10AF10001CBFEFF309800AE0EFF308800549064AF9
:10AF2000884201D8904202D88D464FF00000034B72
:10AF3000184700000000042000E0032009880200F8
:10AF40004FF08053D3F83021082A03BFD3F83401DF
:10AF5000B0FA80F0400900207047000008B54FF0BB
:10AF600080430022C3F80C21C3F81021C3F8382510
:10AF70004FF0805203F54043D2F80414C3F8201573
:10AF8000D2F80814C3F82415D2F80C14C3F8281505
:10AF9000D2F81014C3F82C15D2F81414C3F83015D5
:10AFA000D2F81814C3F83415D2F81C14C3F840159D
:10AFB000D2F82014C3F84415D2F82414C3F8481565
:10AFC000D2F82814C3F84C15D2F82C14C3F8501535
:10AFD000D2F83014C3F85415D2F83414C3F86015FD
:10AFE000D2F83814C3F86415D2F83C14C3F86815C5
:10AFF000D2F84014C3F86C15D2F84424C3F8702575
:10B00000FFF79EFF18B13B4B3B4AC3F88C26FFF776
:10B0100097FF18B1394BFB22C3F81825FFF790FFB3
:10B0200070B14FF080414FF08053D1F8E42ED3F847
:10B03000583222F00F0203F00F031343C1F8E43E2D
:10B04000FFF77EFF20B12E4B4FF40072C3F840266D
:10B050004FF08043D3F80024D20744BF6FF00102C1
:10B06000C3F80024274AD2F8883043F47003C2F8AA
:10B070008830BFF34F8FBFF36F8F4FF01023D3F89B
:10B080000022002A03DBD3F80432002B2EDA1E4BF9
:10B090000122C3F80425D3F80024002AFBD04FF086
:10B0A00010221221C2F80012D3F80024002AFBD08B
:10B0B0004FF010231222C3F80422134BD3F80024BC
:10B0C000002AFBD00022C3F80425D3F80024002A6C
:10B0D000FBD0BFF34F8F0B490C4BCA6802F4E06200
:10B0E0001343CB60BFF34F8F00BFFDE7084B094A06
:10B0F0001A6008BD005000404881030000F0004085
:10B100000090024000ED00E000E001400400FA057C
:10B11000942A00200090D003074B1B5C1F2B8ABF92
:10B12000064A4FF0A04203F01F03D2F80405D840AE
:10B13000C04300F001007047D41A03000003005020
:10B14000074B1B5C1F2B86BF064903F01F034FF004
:10B15000A041012202FA03F3C1F80C35704700BF89
:10B16000D41A030000030050074B1B5C1F2B86BF43
:10B17000064903F01F034FF0A041012202FA03F336
:10B18000C1F80835704700BFD41A0300000300500F
:10B1900008B50020FFF7E8FF0120FFF7E5FF0220D8
:10B1A000FFF7E2FFBDE808400320FFF7DDBF08B569
:10B1B0000020FFF7C5FF0120FFF7C2FF0220FFF7C5
:10B1C000BFFFBDE808400320FFF7BABF0A4B185C79
:10B1D0001F288ABF094B4FF0A04300F01F00D3F88F
:10B1E00004250121814021EA02000A40C3F8080534
:10B1F000C3F80C25704700BFD41A030000030050A9
:10B20000034BD3F810056FEA901000F0010070476F
:10B2100000030050263818BF4FF0FF30704726203B
:10B2200070470000C10710B5044642D54FF0804377
:10B23000D3F84036DA072ED54FF01023D3F8043375
:10B2400003F00703072B26D11D4A0123C2F804355A
:10B25000D2F80034002BFBD04FF01021D1F804338A
:10B2600023F0070343F00403C1F804330023C2F8BA
:10B270000435134AD2F80034002BFBD0BFF34F8FB4
:10B280001049114BCA6802F4E0621343CB60BFF36C
:10B290004F8F00BFFDE74FF0A0420C490323C2F8D7
:10B2A0001837C2F82037C1F82437C2F83037FFF713
:10B2B0006FFFA30742BF054B0C22C3F8182710BD30
:10B2C00000E0014000ED00E00400FA05000300503A
:10B2D00042DF704743DF704738B5074C051E04F165
:10B2E000080318BF1C4623682BB11A6822605B68EC
:10B2F00028469847F7E738BD183A002020B9054B93
:10B3000001225A70FFF7E8BF012802D1014A90706C
:10B31000F8E77047103A002020B9034B01225A7019
:10B32000FFF7DABF704700BF103A002038B50B4C6A
:10B33000237883B90A486360A3602361E36000F067
:10B3400033F9054604F0F8FC08B900F039F9012397
:10B350002370284638BD8525FBE700BF103A002042
:10B36000FDB2020037B50B4C00230DF107008DF83C
:10B370000730FDF7BDF8E368013BE360E56815B908
:10B3800000F034F9A5709DF80700FDF7D5F803B07B
:10B3900030BD00BF103A0020012813B508D00328A3
:10B3A0001CD018B9114B0122C3F8802002B010BD87
:10B3B0000F4C00230DF107008DF80730FDF798F8CA
:10B3C00023780BB9FFF7B2FFE3689DF8070001335C
:10B3D000E3600123A370FDF7AFF8E7E700F0F0F8B2
:10B3E00002B0BDE81040FFF7BDBF00BF00E100E0C4
:10B3F000103A002037B51B4C6378054603F0FF0276
:10B400009BB110B143680020984700230DF107005D
:10B410008DF80730FDF76CF863689DF8070001337D
:10B420006360FDF789F803B030BD0DF107008DF8BA
:10B430000720FDF75DF825B1A268134653B92A60CD
:10B44000A5606368002BE7D104F076FC30B1FFF70C
:10B450003FFFE1E79D42F4D01B68EFE700F0CFF833
:10B46000DAE700BF103A002073B50F4C00230DF14E
:10B4700007008DF80730FDF73BF86368013B636018
:10B48000666836B904F058FC054640B1FFF722FF64
:10B4900066709DF80700FDF74FF802B070BD00F030
:10B4A000BFF86570F5E700BF103A00201FB50378BC
:10B4B0008DF800304368019383688DF80830C368C5
:10B4C000054A0393054B684653F8213052F8211082
:10B4D000984705B05DF804FB243A00202C3A002080
:10B4E0001FB503788DF800304368019383688DF8A9
:10B4F0000830C368054A0393054B684653F821306A
:10B5000052F82110984705B05DF804FB243A00205A
:10B510002C3A0020F0B5194B90F800C0DFF86CE031
:10B5200043F82C20164B16460A6943F82C204B7F13
:10B530000EF80C300C4607460FCC89B06D460FC58F
:10B5400094E80F0085E80F003B78CDF810C01EF896
:10B5500003304BB1002E0B4A694608BF3246381DF6
:10B5600000F034FE09B0F0BD002E074A694608BF5E
:10B57000324607F10C0000F0F1FBF3E72C3A002013
:10B58000243A0020ADB40200E1B40200343A0020B5
:10B5900010B5034653E8000F00EA010243E8002417
:10B5A00094F0000FF6D110BD044A137923B901219C
:10B5B000106091801846704785207047383A002007
:10B5C000084B1A68D2075FBFC02283F8002301220C
:10B5D0001A604FF080420123C2F81835024A1370F6
:10B5E000704700BF00E100E0403A00204FF0804388
:10B5F0000122DA60D3F81824D203FBD470474FF04D
:10B6000080430022C3F8002182B0D3F800210192C8
:10B61000019A0122C3F804231A6002B070470000A7
:10B620004FF0804201235360D2F80C3403F0011331
:10B63000B3F1011FF8D0024B00225A71704700BFCE
:10B64000383A00204FF0804307B5D3F800217AB193
:10B650000022C3F80021D3F800210092009A0122B1
:10B66000C3F808230F4B587910B95A711B689847D3
:10B670004FF08043D3F8042182B10022C3F80421A3
:10B68000D3F804210192019A0222C3F80823054B42
:10B690001B68012003B05DF804EB184703B05DF8A8
:10B6A00004FB00BF383A002000F1804000F5C040A4
:10B6B000002382B0036003680193019B02B07047CE
:10B6C00003681F2B83BF03F01F03036001484FF083
:10B6D000A04070470003005007B5019001A8FFF794
:10B6E000EFFF019B00EB8300D0F8003723F44033D9
:10B6F000C0F80037D0F8003743EA0141C0F800171E
:10B7000003B05DF804FBC208012300F0070003FA50
:10B7100000F08B5C1843885470470000054B4FF0D5
:10B72000FF32072843F8202084BFC01880F8582033
:10B73000704700BF443A002038B5144D95F86A4070
:10B7400014BB3022FF21A81804F025FEE0B201341A
:10B75000FFF7E4FF0C2CF9D10D4B00226A669A80AA
:10B760000C4BC02183F80613402119604FF4BE70C2
:10B77000FFF79AFF084B4FF00041C3F80413012371
:10B7800085F86A30104638BD0820FCE7443A0020AE
:10B79000A83A002000E100E000600040034B93F86D
:10B7A0006A00003818BF0120704700BF443A0020EB
:10B7B0002DE9F341DFF8F48008EB0003054693F927
:10B7C0003030002B0F466CDA8B78C3F34003002B2C
:10B7D0000BBF082400240C2108218C4203D1042033
:10B7E00002B0BDE8F08158F82400013041D108EBE7
:10B7F000050166B248F8242081F830601BB908EBD7
:10B80000040383F85850BB785A0712D4D90732D5AD
:10B8100001A80195FFF754FF019B00EB8300D0F8CE
:10B82000003723F00203C0F800371F492846FFF70E
:10B830006AFFBB783A7813F0020328D0A40004F121
:10B84000804404F5C0442D02D4F8103523F44F335E
:10B8500023F44073C4F810351204D4F8103505F4FD
:10B860007C5502F4403215431D43C4F810550020A6
:10B87000B6E70134B1E701A87A780195FFF720FF18
:10B88000019B03F5E073920040F82320CDE7083ECA
:10B8900048FA86F898F8605045EA821288F86020E5
:10B8A000E5E708209CE700BFA83A0020443A0020C2
:10B8B00073B5244D2E18044696F93020072A1DDD55
:10B8C000083A45FA82F595F860309B09032B10D1B0
:10B8D000019001A8FFF7F4FE019BD0F81015D940A4
:10B8E00001F001010231204602B0BDE87040FFF7CF
:10B8F000F3BE012B0CBF02210321F4E7D3B2072BC7
:10B900001DD8930003F1804303F5C043D3F810051D
:10B9100040F00100C3F8100502F1400040B2800081
:10B9200080B2FFF7C1FE51B196F9303055F823309F
:10B930002BB1012303FA02F2034BC3F8042302B034
:10B9400070BD00BF443A00200060004007B5019080
:10B9500001A8FFF7B5FE019BD0F81005D84000F014
:10B96000010003B05DF804FB2DE9F04F00248BB01B
:10B97000CDE90444644D4FF48072012102F180430B
:10B9800003F5C04390B21B68012B06D1D5F80433F0
:10B990000B4202D0FFF788FE0C430432B2F5907FD1
:10B9A0004FEA4101EAD1584BD3F87C31012B0ED13B
:10B9B0004FF4BE70FFF778FE4FF0A04344F0004410
:10B9C000D3F810350493514BD3F810350593E3B2F7
:10B9D000D3B14F4F00250126344210D0AB0003F104
:10B9E000804303F5C043D3F81005D3F8101557F87A
:10B9F000253023B1C1F30141C0F30520984701353B
:10BA0000082D4FEA4606E7D1002C79DA0023CDE96C
:10BA100006334FF0FF33CDE90833DFF8F4A03D4B98
:10BA2000019300263546019B13F9014B0193631CDA
:10BA30004DD0C4F3C2070122E3B204F03F0B04F07F
:10BA4000070402FA04F40AAA174417F8081C214252
:10BA50003DD00AEB0B014FEA931991F930105AF8D7
:10BA60002180B8F1000F07D1B9F1030F2FD106A93A
:10BA70005846FFF748FE02E0B9F1030FF7D003A8DC
:10BA8000CDF80CB0FFF71CFE039901F5E07150F8FA
:10BA9000211017F8180C2042C1F3014106D00229E9
:10BAA00015D1B9F1030F0CD1494605E003290ED198
:10BAB000B9F1030F05D102215846FFF70DFE0135FC
:10BAC000EDB2B8F1000F02D049465846C0470136E2
:10BAD000042EA8D1A5B14FF0A0430499D3F81025A6
:10BAE00003F540739142D3F8103502D1059999427C
:10BAF00006D004920593069A079B089209938EE755
:10BB00000BB0BDE8F08F00BF0060004000030050A4
:10BB1000443A0020A43A0020014B1B68184700BF9C
:10BB2000B03A00200E4B984237B50C4602D00020A8
:10BB300003B030BD00230DF107008DF80730FCF78E
:10BB4000D7FC084B1D7915B901221C601A719DF8AC
:10BB50000700FCF7F1FC002DE9D01120E8E700BF59
:10BB600000200040B03A0020034B984201BF034B35
:10BB700000221A601A71704700200040B03A00207D
:10BB80000023435082B043580193019B02B0704799
:10BB90000A4610B54FF48E71FFF7F2FF136A9168F1
:10BBA000C95C136A01331362C0F81C1510BD8B69A0
:10BBB0000A4610B54FF4847123B9FFF7E1FFD0F8BE
:10BBC000183510BDFFF7DCFF536AD168D0F81805AF
:10BBD000C854536A01335362F3E700001FB50123D1
:10BBE0008DF80030044BCDE90110D3E9001268460E
:10BBF000904705B05DF804FBB83A002030B54D4DD4
:10BC0000D5F804339A0585B051D5D5F82431002BE9
:10BC10004DD04FF492712846FFF7B2FF4FF40173F5
:10BC2000C5F80833444B93F829200AB901226A6009
:10BC3000404902228DF80020D1F88024C1F88024E8
:10BC400003929A690292DA6801920022C3E90622FD
:10BC50006846D3E9001290473648D0F81C315BB1F2
:10BC6000354A5169136A99424DD992F82830002B10
:10BC700049D11146FFF78CFF2E48D0F84431002BF4
:10BC800056D04FF4A271FFF77BFF2B4B93F829207E
:10BC90000AB1012202609A69002A49D0586AD9681B
:10BCA00000229A6105B0BDE83040FFF797BFD5F894
:10BCB00004335B07D0D5D5F80831002BCCD01E4C0F
:10BCC0001C482146FFF773FF636AA2699A42C3D1F9
:10BCD000E369E1684BB1A3612369E3600023606A13
:10BCE000E3616362FFF77AFFB6E794F829300BB996
:10BCF00001236B600F4B4FF40172C3F8082300233C
:10BD0000606AA361EEE70B484FF48E71FFF738FFCE
:10BD10005369002BB0D051690291002391688DF8CE
:10BD20000030019153616846D2E900139847A3E7B8
:10BD300005B030BD00200040B83A00201F2886BF63
:10BD400000F01F00044B4FF0A04300F5E07002220A
:10BD500043F82020704700BF000300502DE9F8434E
:10BD6000624D90F804802C2303FB0853064693F899
:10BD70002A300C469146002B40F0B4805C490068A4
:10BD8000FFF7D0FE0746002840F0AE802268531C23
:10BD900010D01F2A87BF574902F01F0313464FF0E8
:10BDA000A0410120984003F5E073C1F80805032085
:10BDB00041F823006168481C0DD01F298BBF01F09A
:10BDC0001F030B464B484FF0A04003F5E0734FF0C4
:10BDD000000C40F823C03068A369C0F8243594F8FB
:10BDE00014C0637DBCF1010F4CEA0303C0F86C354D
:10BDF000C0F81415C0F80C252BD1A368591C0DD020
:10BE00001F2B8BBF03F01F021A463A494FF0A04187
:10BE100002F5E0724FF0000C41F822C0E1684A1CC4
:10BE200013D01F2987BF334A01F01F0C8C464FF0F7
:10BE3000A0424FF0010E0EFA0CFE0CF5E07CC2F8A9
:10BE400008E54FF0030E42F82CE0C0F80815C0F8E2
:10BE500010352C2202FB08F2AB18C3F804902369BA
:10BE6000AB50B9F1000F2AD04FF48E71247FFFF749
:10BE700087FE30684FF4A271FFF782FE32681E4BD6
:10BE8000C2F80433130B42F30732002AA8BF02F1B1
:10BE900060404FEA4411BABF184803F00F0400F5A0
:10BEA0006140C9B2B4BF015580F8001303F01F030D
:10BEB000012101FA03F35209114941F82230336894
:10BEC0000422C3F800252C2303FB08530022C3E9F6
:10BED000062283F829205A61012283F82A20384655
:10BEE000BDE8F8830827FAE71127F8E7B83A0020F9
:10BEF000FDBB0200000300508000020014ED00E0D2
:10BF000000E100E02DE9F04103680579244C0022AE
:10BF1000C3F800252C2202FB0542014652686AB193
:10BF2000204AC3F8082343F30732C3F30436520907
:10BF30000120B04020321C4E46F82200D3F80C05F8
:10BF4000D3F81485D3F80865D3F810754FF0FF3295
:10BF50009042C3F81425C3F80C25C3F80825C3F88C
:10BF6000102501D0FFF7EAFEB8F1FF3F02D04046AE
:10BF7000FFF7E4FE7A1C02D03846FFF7DFFE731CA1
:10BF800002D03046FFF7DAFE0868FFF7EDFD2C23FC
:10BF900003FB0544002384F82A306360BDE8F08188
:10BFA000B83A00208402020000E100E00279044B6C
:10BFB0002C2101FB02335869003818BF012070475B
:10BFC000B83A00202DE9F84F064690F804808946DB
:10BFD0009246FFF7EBFF044600283CD1204F2C256A
:10BFE00008FB057B4FF48E71CBF814A0CBF80890BA
:10BFF000CBF820008BF828003068FFF7C1FD3068CF
:10C00000012383605946FFF7C3FDDBF804305D462A
:10C010001BBB3068DBF814402B6A9C4211D8336894
:10C02000D3F81C21002AFBD00122DA6000202C2347
:10C0300003FB087700237B61BDE8F88F95F8283073
:10C040003BB9D0F81C31002BF8D05946FFF7A0FDC2
:10C05000E2E70F20EBE71120EEE72046ECE700BF18
:10C06000B83A00200023435082B043580193019B0B
:10C0700002B070471FB501238DF80030044BCDE9A5
:10C080000110D3E900126846904705B05DF804FB43
:10C09000E43A00207FB5434AD2F82461002E60D0F4
:10C0A00010464FF49271FFF7DDFF02238DF8003048
:10C0B000D2F88034C2F880340393D2F83C3502932E
:10C0C000394BDA6801920022C3E906226846D3E9B7
:10C0D000001290473348D0F8443173B14FF4A27145
:10C0E000FFF7C0FF304B9A693AB10022C3E906223C
:10C0F000D968D0F83C05FFF7BDFF2A48D0F82031B9
:10C10000ABB14FF49071FFF7ADFF0123C360264B35
:10C110005A6962B1D0F84C150291002299688DF8E5
:10C12000002001915A616846D3E9001290471D48EA
:10C13000D0F858319BB14FF4AC71FFF793FF1A4B15
:10C140005A6962B1D0F84C150291002299688DF8B5
:10C15000002001915A616846D3E90012904704B06B
:10C1600070BDD2F81031002BB4D04FF48871104656
:10C17000FFF778FF0C4BD2F83C0599698842A9D1AA
:10C18000DC69D96864B1D2F8005225F02005C2F804
:10C1900000521A699C61DA60DE61FFF76BFF99E774
:10C1A0009C61FAE700200040E43A00201F2886BF87
:10C1B00000F01F00044B4FF0A04300F5E070022296
:10C1C00043F82020704700BF000300502DE9F843DA
:10C1D000694E90F80480242303FB0863044693F817
:10C1E00020300D469146002B40F0C1806349006825
:10C1F000FFF798FC0746002840F0BB8029684B1CDD
:10C2000010D01F2987BF5E4A01F01F030B464FF075
:10C21000A0420120984003F5E073C2F8080503200E
:10C2200042F823006A68501C0DD01F2A8BBF02F011
:10C230001F03134652484FF0A04003F5E0734FF040
:10C24000000C40F823C02068AB69C0F8243595F88D
:10C2500014C06B7DBCF1010F4CEA0303C0F86C35D0
:10C26000C0F80C15C0F814252BD1AB68591C0DD0A3
:10C270001F2B8BBF03F01F021A4641494FF0A0410C
:10C2800002F5E0724FF0000C41F822C0E9684A1C48
:10C2900013D01F2987BF3A4A01F01F0C8C464FF07C
:10C2A000A0424FF0010E0EFA0CFE0CF5E07CC2F835
:10C2B00008E54FF0030E42F82CE0C0F80815C0F86E
:10C2C0001035242202FB08F2B318C3F804902B693E
:10C2D000B350B9F1000F39D04FF488712A7FFFF7BE
:10C2E000C1FE20684FF49071FFF7BCFE20684FF448
:10C2F0009271FFF7B7FE20684FF4A271FFF7B2FE0C
:10C3000020684FF4AC71FFF7ADFE23681D49C3F8F8
:10C310000413190B43F30733002BAEBF03F1604046
:10C3200001F00F0518484FEA4212A8BF00F561401E
:10C33000D2B2B4BF425580F8002301F01F010122A0
:10C3400002FA01F15B09114A42F82310236808221E
:10C35000C3F80025242303FB08660023C6E906333F
:10C360007361012386F820303846BDE8F88308273A
:10C37000FAE71127F8E700BFE43A002095C0020071
:10C38000000300501003420014ED00E000E100E063
:10C390002DE9F0412E4D0679242303FB0653044674
:10C3A0005B6800686BB12B4BC0F8083340F3073370
:10C3B000C0F304315B0901228A402033264941F849
:10C3C0002320D0F80032012223F02003C0F80032ED
:10C3D0004FF4AC714260FFF745FE2368DA60D3F892
:10C3E0005821002AFBD00022C3F80025D3F80C0501
:10C3F000D3F81485D3F80815D3F810754FF0FF3231
:10C400009042C3F80C25C3F81425C3F80825C3F8D7
:10C41000102501D0FFF7CAFEB8F1FF3F02D0404619
:10C42000FFF7C4FE7A1C02D03846FFF7BFFE4B1C54
:10C4300002D00846FFF7BAFE2068FFF795FB2423D9
:10C4400003FB0655002385F820306B60BDE8F081C2
:10C45000E43A00201003420000E100E00279044BBE
:10C46000242101FB02335869003818BF01207047AE
:10C47000E43A002001F06043B3F1005F2DE9F0479A
:10C480000646884692463BD190F80490FFF7E6FFB7
:10C490000446002836D11D4F3068242505FB097558
:10C4A0004FF49071C5F814A0C5F80880FFF7DAFDC5
:10C4B0004FF4AC713068FFF7D5FD33686A69A9683D
:10C4C000C3F84415C3F8482501229A606A68DAB9AE
:10C4D000D3F82021D3F858011AB90028F8D00F203A
:10C4E00007E00028FBD10122DA60D3F85821002AA6
:10C4F000FBD0242303FB097700237B61BDE8F08791
:10C500001020FBE71120F9E72046F7E7E43A002086
:10C5100000F1804000F51C3001230360BFF36F8FF2
:10C52000BFF34F8F70470000020713D400F00F03D2
:10C5300010F0800F084A0BBF03F5887303F584736E
:10C5400002EB830352F8230008BF5868431E584289
:10C5500058417047002070470070024010F0080FEB
:10C56000074B06D0D3F8C00410F4803F18BF00205A
:10C57000704700F00F0000F5947053F820007047EA
:10C58000007002404FF08053D3F83021082A05D1C3
:10C59000D3F83401003818BF0120704700207047DD
:10C5A00008B54FF08053D3F83031082B07D1FFF78F
:10C5B000E9FF80F00100C0B200F0010008BD0020DA
:10C5C000FAE730B54C680D689C4229BFC0E90053BA
:10C5D0000021E41AED1832BFC0E900514C600D6033
:10C5E000934203D1201E18BF012030BD0020FCE77C
:10C5F0004B6810B59A420C6828BF1A46C0E9004241
:10C60000981A0B6848601A4400380A6018BF012065
:10C6100010BD30B54C680B68A24228BF2246002AE4
:10C6200014BF1D460025C0E90052A4EB02041A44C1
:10C630004C600A6014BF0120002030BD054B10F093
:10C64000800FA3F1900208BF134600F00F0003EB28
:10C65000001070477C3C002010F0800F14BF0023B6
:10C66000102300F00F001844704700004FF0805373
:10C67000D3F83031082B02BF034B0022C3F81C2C27
:10C68000024B00221A70704700700240093B0020E4
:10C6900007B5094A00231370084AADF80530137036
:10C6A0008DF8073001238DF80430054B01A81B6875
:10C6B000984703B05DF804FB083B0020103D0020C4
:10C6C0000C3D002070470000244B13B5D3F8004404
:10C6D000C3F80044BFF36F8FBFF34F8FBFF36F8F6B
:10C6E000BFF34F8FE1050ED51D4B01221A700023B9
:10C6F000ADF805308DF8073002238DF80430194B62
:10C7000001A81B689847A2050DD5154A0023137090
:10C71000ADF805308DF8073003238DF80430114B48
:10C7200001A81B689847630516D50D4B1A789AB176
:10C7300000221A70094B0121C3F808155820FFF791
:10C74000E7FE04238DF80430064BADF805201B6886
:10C750008DF8072001A8984702B010BD0070024074
:10C76000083B00200C3D00204B68934228BF134635
:10C7700070B51D46094B0C4606462A460968184600
:10C7800003F0E0FDC6E9000560682268401B6060B8
:10C790002A440038226018BF012070BD183D0020D7
:10C7A0004B68934228BF134670B506460D461C469B
:10C7B0008BB10A4B09682246184603F0C3FD30606E
:10C7C0006B6874601B1B6B602B68201E23442B60FE
:10C7D00018BF012070BD0360F2E700BF183D0020C4
:10C7E00008B5FFF743FF0146FFF728FF837B032BC4
:10C7F0000AD10846FFF730FF01218140BDE808401B
:10C800000348C943FEF7C4BE0368002BF1D008BD3E
:10C81000783B00208720FFF7E3BF8620FFF7E0BFCB
:10C820008520FFF7DDBF8420FFF7DABF8320FFF705
:10C83000D7BF8220FFF7D4BF8120FFF7D1BF000010
:10C8400008B5FFF713FF084B93F89E20032A06D183
:10C85000BDE8084005486FF00101FEF799BED3F826
:10C860009030002BF4D008BDEC3B0020783B00203A
:10C87000012273B502FA01F51E491F4E0B6810F034
:10C88000800F43EA050304460B6027D000F00F0237
:10C890001A4B33F8123003F1804303F51C331A6846
:10C8A0004AB100221A60BFF36F8FBFF34F8F802809
:10C8B00011D0FFF795FF316829400AD106238DF882
:10C8C00004308DF806408DF807100D4B01A81B6849
:10C8D000984702B070BDFFF7B3FFECE733681D4225
:10C8E000F7D106238DF804308DF806008DF8072067
:10C8F000EBE700BFE83B0020783B0020081B03006B
:10C900000C3D002008B5054B1A781046FFF7A4FE31
:10C91000BDE8084001461046FFF7AABF103D0020C1
:10C92000FFF78EBF07B500238DF804300B4BD3F80B
:10C930002025ADF80620D3F8C034094A002B13682F
:10C940000CBF4FF480714FF001210B431360054B76
:10C9500001A81B68984703B05DF804FB0070024013
:10C96000E83B00200C3D002007B5FFF77FFE0D4B94
:10C9700093F88E20032A11D0D3F8803073B90A4877
:10C980006FF08071FEF704FE06238DF80430082353
:10C99000ADF80630054B01A81B68984703B05DF859
:10C9A00004FB00BFEC3B0020783B00200C3D002046
:10C9B00007B5FFF75BFE114B93F81E21032A07D141
:10C9C0000F486FF4807103B05DF804EBFEF7E0BD33
:10C9D000D3F8103173B90A486FF48071FEF7D8FDAF
:10C9E00006238DF804308823ADF80630054B01A8E6
:10C9F0001B68984703B05DF804FB00BFEC3B0020C8
:10CA0000783B00200C3D00202DE9F04FDFF8F0814D
:10CA100098F8003085B0002B40F08680724D734B43
:10CA200019682B6819407FD011F001237FD093FA49
:10CA3000A3F1B1FA81F10F298ABFA1F1100441F0ED
:10CA40008004E4B22046FFF7F9FD4FF0010B4FFAE6
:10CA500084F90BFA01F1B9F1000F82466FEA010B7C
:10CA600068DA03688289416802A8984708B9CAF859
:10CA700000004FF0805304F00800D3F83031082B49
:10CA800002BF5B4B8222C3F81C2C01232968039A46
:10CA900088F80030DAF8083001EA0B011344B9F1E4
:10CAA000000F2960CAF808300299514B04F00F04B6
:10CAB0006EDA002864D0C3F8A016C3F8A426FFF7E6
:10CAC0006FFD25B2A3004B4A4B49640000286FD08C
:10CAD000B9F1000FB2BF042528250A46444E1D4473
