:020000022000DC
:1070000000000420757302005D7302005F730200CC
:1070100061730200637302006573020000000000E8
:107020000000000000000000000000006773020084
:1070300069730200000000006B7302006D730200B0
:10704000119802006F730200C99C02006F73020066
:107050006F7302006F7302001D9B02006F730200CA
:107060006F7302006F7302006F7302006F73020090
:107070006F7302006F7302006F7302006F73020080
:107080006F730200AD8902006F7302006F7302001C
:107090006F7302006F73020071D802006F730200F9
:1070A0006F7302006F7302006F7302006F73020050
:1070B0006F7302006F730200000000000000000008
:1070C0006F7302006F7302006F7302006F73020030
:1070D0006F7302006F7302006F7302006F73020020
:1070E0006F7302006F7302006F73020000000000F4
:1070F000000000006F7302000000000071A9020090
:10710000000000000000000000000000000000007F
:10711000000000000000000000000000000000006F
:10712000000000000000000000000000000000005F
:10713000000000000000000000000000000000004F
:10714000000000000000000000000000000000003F
:10715000000000000000000000000000000000002F
:10716000000000000000000000000000000000001F
:10717000000000000000000000000000000000000F
:1071800000000000000000000000000000000000FF
:1071900000000000000000000000000000000000EF
:1071A00000000000000000000000000000000000DF
:1071B00000000000000000000000000000000000CF
:1071C00000000000000000000000000000000000BF
:1071D00000000000000000000000000000000000AF
:1071E000000000000000000000000000000000009F
:1071F000000000000000000000000000000000008F
:10720000354936480A1A02D0072291438D4634493F
:1072100034480A1A06D00722914381F309880222D2
:1072200082F3148830483149314A00F044F831483B
:107230003149324A00F03FF831483249324A00F0D1
:107240003AF832483249334A00F035F83248334987
:10725000334A00F030F833483349344A00F02BF811
:1072600033483449344A00F026F83448344900227F
:1072700000F02CF833483449002200F027F8334856
:107280003349091A082902DB002202604160314AB1
:1072900090471F481F49884205D00268043003B454
:1072A000904703BCF7E700208646EC46002000210B
:1072B000294A9047FEE7884207D0521A05D0037842
:1072C00001300B700131013AF9D17047884202D088
:1072D00002700130FAE770470000042000E003204C
:1072E000000004200000042074FF0200182C00207D
:1072F000582E0020D0730200D073020060E8020014
:1073000074FF0200182C0020182C00206CE90200E9
:107310006CE902006CE902006CE902006CE9020011
:107320006CE902006CE902006CE9020073FF0200E4
:10733000B4010300582E0020582E0020582E0020A3
:1073400004480020044800200C4800200C4800207D
:107350000C6800209D730200DDB90200FEE7FEE725
:10736000FEE7FEE7FEE7FEE7FEE7FEE7FEE7FEE7F5
:1073700000F002B8FFF7FCBF0F484FF00701884349
:1073800085460E4880470E48016841F4700101604F
:10739000BFF34F8FBFF36F8FFFF732BF09480A4922
:1073A0000A4A884207D0521A05D0037801300B7080
:1073B0000131013AF9D1704700000420899202009E
:1073C00088ED00E06CE90200182C0020182C002049
:1073D00000487047FC4700207047000007B5044B89
:1073E0000093044A402300F032F803B05DF804FB38
:1073F000F9730200592E00202DE9F84388461446FF
:10740000B2B10F4B0F4E0325002743F0010922466E
:1074100008EB0701002004F0E9FE0744241A48B9EC
:1074200033782BB14FF47A40C847013D02D1357013
:10743000BDE8F88301233370002CE8D1F8E700BFE2
:1074400070E90200582E0020704704F003BFF0B529
:1074500095B01D46164608460C4601F059FE1A9B8B
:107460000D93CDE9086500252B46082205A9204685
:107470000A958DF82C500C9501F067FE079B02933E
:10748000069B03939DF814308DF8115003F003020E
:10749000012A1DD1BDF81420059DC3F3C203C2F318
:1074A00083168DF81030B20008230EA9204601F093
:1074B0004CFEC5F3952508AB0093324602AB0EA9EE
:1074C000284600F073FB204601F026FE15B0F0BD03
:1074D000022AF8D1BDF81650C3F3C203C5F38915CB
:1074E0008DF810300827082D2E4628BF08263B4669
:1074F00032460EA9204601F028FEAD1B08AB02AAB9
:1075000031460EA8374400F0B5FB002DEBD1DAE789
:1075100008B5FFF79AFF0448042100F0AFFA034BC7
:1075200001225A7108BD00BF5CE90200182C00203E
:10753000037813F0040216D003F00303012B03D0E9
:10754000022B09D0012070470A6800880232C0F37C
:10755000831002440A60F5E70B684288023303EBAC
:1075600092130B60EEE71046704700002DE9F04FD4
:1075700087B000230446861C0DF107000F46154610
:107580008DF8073001F0A2F8454801683960D0E96C
:107590000132134401335B1A824600F21C4700F5A6
:1075A000836900F21448B3421CD30020002D73D02D
:1075B00004F00F039B0143F0050363F30F00DAF8B7
:1075C0000020DAF808301340033316444AF8230049
:1075D0009DF80700CAF8006001F09CF8012007B090
:1075E000BDE8F08F0121384601F0BDFA484601F0B0
:1075F000D2FA404601F0CFFADAF80400DAF808B01F
:10760000029000EA0B0003300AEB800002A9FFF7AA
:107610008FFF029B50BB0BEA03020AEB820203F1CD
:10762000020CD2680392013303EA0B0B0AEB8B0BBB
:1076300002F00302012ADBF80C10CDF808C023D0B9
:10764000022A16D08346404601F0A8FA10B1029BE8
:10765000CAF804305946384601F085FADAE90123C0
:107660001344DAF8002001339B1A9CE70BEA03006D
:10767000C9E7BDF80E30C3F3891303334FEA114B4A
:107680000CEB93030293DEE7BDF80C30C3F38313D6
:107690004FEA114B6344F5E7A40544F006008EE77A
:1076A0006C2F00200B4B0C48FF2210B59A60002273
:1076B000C3F81824C3E90022C3F81424012283F874
:1076C000202401F0DEFC044610B9044801F05EFD00
:1076D000204610BD6C2F0020C0E80200ACE902007B
:1076E00030B50A4C71B10A4A0A49121BD20800236C
:1076F0009A4201D1002030BD31F82350854202D09A
:107700000133F5E7034654F83300F4E7D4E8020008
:107710005CE90200182C0020094B013903EBC00082
:10772000032909D8DFE801F00A02040604207047A3
:1077300000797047407970470020704702207047F9
:10774000D4E80200034BD3E90030C31A5842584131
:10775000704700BF6C2F00202DE9F04387B0FFF782
:10776000F1FF0646002840F0F9807D4DC5F8180469
:10777000BFF34F8F6B68AC6802932340033305EB74
:10778000830002A9FFF7D4FE029B18B1D5F8182494
:10779000002A5FD004EA0302991C013305EB820240
:1077A000234005EB8303D268DB68049302F00303F4
:1077B000022B0392029160D1BDF80E306948C3F3E9
:1077C0008917502FB84628BF4FF0500868F38F1321
:1077D00008F10801ADF80E3001F06BFC06460028F8
:1077E00000F0A78001F094FC0023082203A9304692
:1077F00001F0A1FC029924EA01020132B8EB820FE8
:107800004FEA820332D95FFA88F85BB32140DCB2D9
:10781000A8EB040803315FFA88F9A046524C05EB47
:10782000810108234246304601F085FC34B108F15D
:1078300008034A462146304601F07DFC029B03378F
:1078400003EB97070297D5F81834002B49D1D5F8E8
:10785000104459E02A689A428FD86A60304607B0CF
:10786000BDE8F08340491C469946DAE70C40E11C2C
:107870000823424605EB8101DDE7012B59D1BDF814
:107880000C303848C3F38311062928BF062161F361
:10789000891302318900ADF80C3001F00AFC06466C
:1078A000002846D001F034FC0023082203A930460A
:1078B00001F041FC0027BDF80C20C2F38312BB008D
:1078C000974203F10803BED202994A1C21400331BA
:1078D000029205EB81010422304601F02CFC0137B5
:1078E000E9E7304601F018FCFFF72CFF80F00100BB
:1078F000C6B2B3E7E3685B7923B1236831461B68FE
:1079000020469847E3681C68002CF3D1304601F00C
:1079100003FC0DF107008DF8074000F0D7FED5F805
:1079200018340BB9029B6B609DF8070000F0F2FE63
:10793000DAE7D5F8104454B90C4B0D480D49C01A7C
:10794000C008000440F0020000F062F8CCE72368B1
:1079500020469B689847E3681C68ECE700267DE7B3
:107960006C2F0020C0E80200782F0020D4E802002D
:1079700004E9020094E902002DE9F74F224D044684
:107980000F46924601A901221846D5F808909B4659
:10799000FFF7ECFD20B3019E4FF00008B21CD84564
:1079A00008EB020126D11948002101F0ADF880F35F
:1079B0001000000440EA1440E400731C04F0380492
:1079C00003EA090306EA090644F0010405EB830310
:1079D000033644EA881444EA8724D86045F82640F0
:1079E00095F820341BB1FFF7B7FE0028FBD103B098
:1079F000BDE8F08F09EA010105EB81015AF8283052
:107A0000CB6008F10108CAE76C2F00208833002002
:107A100000231A46FFF7B0BF07B50123019201AA60
:107A2000FFF7AAFF03B05DF804FB07B5CDE900231B
:107A300002236A46FFF7A0FF03B05DF804FB1FB501
:107A4000CDE90023069B0293079B03936A46042318
:107A5000FFF792FF05B05DF804FB7FB5CDE9012388
:107A6000089B0393099B04930A9B059301AA052392
:107A7000FFF782FF07B05DF804FB000030B50F4947
:107A8000D1F8102403460020144634B9DC68207174
:107A90004AB9C1F81034226030BDE46825798542C6
:107AA00006D02468F1E7D268116821601360F3E71B
:107AB00001300A28E8D14FF0FF30EDE76C2F0020AD
:107AC000094A38B50123D2F8104482F820341D4603
:107AD00004B938BDE3685D71236820465B68984748
:107AE000E3681C68F4E700BF6C2F002007B503466D
:107AF0000846197A052911D05B7A2BB1094A0A493F
:107B0000019001F0AEF801980849019001F0A9F840
:107B1000019803B05DF804EB01F098B8002AF8D0A2
:107B2000F2E700BFB8E9020048F4020088F502005D
:107B300030B5C38885B004460D4633B1144A00926F
:107B40001449154A284601F08CF8217A05291DD0E0
:107B5000637A4BB1A088FFF7DFFD104B104953F853
:107B60002020284601F07DF8227A0E4BA08853F899
:107B7000222003920021FFF7B3FD039A0A4903462E
:107B8000284605B0BDE8304001F06BB805B030BD07
:107B9000B8E90200C5E90200BDE9020048EA0200B6
:107BA00048F402006CEA0200DDE902002DE9F0432E
:107BB00085B01F460C9D002395F80C902B7306464C
:107BC0000C46904629463846FFF7B2FFB8F1060F3B
:107BD00009D8DFE808F00412181F283340003146A6
:107BE000284601F03EF8002229463846FFF77EFF7E
:107BF00085F80C9005B0BDE8F08322683146284630
:107C000001F02FF8EFE7D4E900233146284601F0D0
:107C100028F8E8E7A36800933146D4E90023284612
:107C200001F01FF8DFE7E3680193A3680093314692
:107C3000D4E90023284601F014F8D4E7236902931D
:107C4000E3680193A36800933146D4E900232846F2
:107C500001F007F8C7E76369039323690293E368B8
:107C60000193A36800933146D4E90023284600F02D
:107C7000F8FFB8E708292DE9F74F80460E4617466A
:107C80001C463CD8002593F80C901D7319461046ED
:107C9000FFF74EFFDFF888A0DFF888B0AE4231D999
:107CA00018F805205946204600F0DBFF0135082D65
:107CB000F4D11949194DDFF870A0204600F0D1FF2A
:107CC0004FF0000B5E4522D918F80B207E2A05D80C
:107CD0001046019206F088F8019A00B92E2251460A
:107CE000204600F0BEFF0BF1010BBBF1080FE9D1FC
:107CF000012221463846FFF7F9FE84F80C9003B0C4
:107D0000BDE8F08F5146204600F0ABFFCEE7294694
:107D1000204600F0A6FFE6E7F1E90200EFE90200E5
:107D2000EDE90200E7E90200F3E90200C30710B53C
:107D300007D4F023054A4008145C2340194311542A
:107D400010BD0901C9B20F23F4E700BF5834002069
:107D500030B5094B1C78094B196800239C4202DCA2
:107D60000022104630BD11F83350854201EBC302AA
:107D7000F7D00133F2E700BF283400207834002028
:107D800013B504460191FFF7E3FF38B143682BB107
:107D90000199204602B0BDE81040184702B010BD5E
:107DA000034B044819680022490800F0B6BA00BF26
:107DB0002C3400203034002010B5C0B2FFF7C8FFCB
:107DC0000446007801F09CFE63785A1E53425341EA
:107DD000834208D1044BD3E90023134303D1BDE808
:107DE0001040FFF7DDBF10BD5034002037B5430809
:107DF000354AD35CC2074CBF1B0903F00F0304468E
:107E00000D46042B35D8DFE803F003252C383C0061
:107E100079B30121FFF78AFF00230DF107008DF8E8
:107E2000073000F053FC0120A4F12003C4F120012D
:107E3000264A20FA01F100FA03F30B43A040D2E9ED
:107E4000004120430B43C2E900039DF8070000F006
:107E500061FC0EE0002918BF02212046FFF766FFF3
:107E600007E041B10321FFF761FF01212046FFF741
:107E700087FF03B030BD0121EFE70029F9D10421CC
:107E8000EBE709B10321E8E7FFF750FF2946204659
:107E9000FFF776FF0DF107008DF8075000F016FC94
:107EA0000120A4F12003C4F12001084A20FA01F1C5
:107EB00000FA03F30B43A040D2E9004124EA00009A
:107EC00021EA0303BFE700BF5834002050340020EC
:107ED0002DE9F041124E134F00243378A34208DC01
:107EE000114BD3E90023134318D0BDE8F041FFF74D
:107EF00057BF3D6805EBC40815F8340001F000FEDB
:107F000098F801305A1E53425341181A41424141D8
:107F100015F83400FFF76AFF0134DEE7BDE8F081B1
:107F2000283400207834002050340020092AF7B586
:107F300005460C4616463CD901F012FDD8B11E4B41
:107F40001E481D601E4B1F4F1C701F4B002120221E
:107F50001E6006F0BFF81D4B00200021C3E90001A0
:107F6000013CE4B20326FF2C0BD1194A1948002129
:107F700000F0C8F903E001F0BBFC0028DFD003B03B
:107F8000F0BD9DF8063015F834008DF8046005EB5F
:107F9000C40223F007038DF8063001A993788DF809
:107FA00005303A4601F0E6FC013CE4B20028DAD0A4
:107FB000E5E70720E3E700BF7834002058340020CD
:107FC00028340020B97D02002C34002050340020D9
:107FD000D17E02008CEA020070B5084D084E0024E4
:107FE0002B789C4201D3002070BD3368012113F827
:107FF000340001F03BFD0134F2E700BF28340020DB
:108000007834002082B001238DF807309DF80730C6
:10801000114B1860596044F2010188429A6012D0F5
:1080200044F20201884206D1DA60DA6812889A6165
:10803000DA685268DA6172B69DF80730002BFBD11E
:1080400062B602B070471A611A6992685A611A6979
:1080500012689A611A69ECE77C34002000B583B09D
:1080600002900091019244F2010071466A4600F0CC
:1080700003F803B000BD0000F0B5064687B00F4618
:10808000154672B6FFF71CFDFFF766FB0028FBD113
:10809000234B244CE41AE40844F2010324049E42D6
:1080A00044F001042AD00BD8012E14D041F2010370
:1080B0009E4221D01C493A462046FFF7ADFC0EE017
:1080C00044F202039E42F5D12B886A681749204684
:1080D000FFF7ABFC03E016492046FFF799FC154B70
:1080E0001B68DB0700D500BE2A463946304607B07C
:1080F000BDE8F040FFF786BF0F49EDE7AA6805929B
:10810000104601F0A7F8296802970191696800916B
:1081100003460A49059A2046FFF79FFC0849DBE71A
:10812000D4E8020004E9020023EB0200CFEA0200D7
:1081300090EA0200F0ED00E0ADEA0200E9EA020098
:108140000FEB020049B152B1531E1A4007D18260B1
:1081500001608380C260104670470E20704709207E
:10816000704710B58468C2688388121B934208D395
:10817000C26813400268D154C3680133C360002051
:1081800010BD0420FCE78268C3689A420AD0826866
:10819000838813400268D35C0B708368013383606B
:1081A0000020704705207047D0E90223D1E9020181
:1081B000994208BF90422CBF012000207047000068
:1081C00008B50B4800F0DDFB0A4B0B49D3E900234F
:1081D0001218D1E9000143F100038B4208BF82422B
:1081E00003D212F1807243F100031046194608BD14
:1081F000202C0020A03400201835002037B505467B
:108200000C460A4801A900F0EEFB60B1057044601D
:1082100001A9064800F011FC18B1054800F0B6FBB2
:10822000002003B030BD0420FBE700BF0435002070
:10823000202C002038B5184B1B78044613B90025B4
:10824000284638BD0028FAD0037F03F0FF05002B35
:10825000F5D0FFF7B5FFD4E90223994208BF904259
:1082600014D3236903B92377D4E9053098472169EA
:108270000029E4D0237F03F0FF05002BDFD0D4E9F1
:108280000223521843F10003C4E9022303482146A4
:1082900000F09BFFD4E700BFA83400204CEB0200A5
:1082A00013B5114B11491868019008231048582242
:1082B00000F086FB044698B90E4A0F4801A900F069
:1082C0004DFA044660B90C48012100F03DFB012342
:1082D0000A4A0948194600F09FFA094B01221A7010
:1082E000204602B010BD00BF46EB0200AC340020B7
:1082F0000435002065830200202C0020FFFF7F0052
:10830000A83400203AB103685A614A1E51425141D3
:108310001961002070470720704738B5037F044675
:108320000D4683B98261FFF74BFF2369401941F184
:108330000001C4E9020103B1256121460020BDE826
:108340003840FFF75BBF002038BD002301460377AC
:108350000120FFF753BF0000014800F012BB00BF2F
:10836000202C00202DE9F04F85B0804600F0F4FA73
:1083700040B15A4AD2E9003113F1807341F1000152
:10838000C2E900310021404600F0F5FA38B1544E00
:10839000336823B13068FFF74DFF002333600121BC
:1083A000404600F0E8FA20B1FFF70AFF4D4BC3E961
:1083B00000014D484A4F4D4EDFF8389103A900F0B7
:1083C0004CFB002845D1DFF82491454EDFF828A169
:1083D000484600F010FF3368002875D07BB1336841
:1083E000D0E90201D3E90223994208BF90422DD27D
:1083F00033681B7F1BB13168484600F0E6FE4846F3
:1084000000F0F3FED0E902B307460193FFF7D8FE70
:10841000019BBBEB000463EB0105012C75F100032C
:1084200045DBB4F5350F40D3FFF796FF304A0244E1
:108430004FF496030021504600F00EFA00283ED17A
:10844000336813B9404600F0DFF9376005B0BDE886
:10845000F08F0378012B1DD0022B09D14FF0000AB9
:10846000304600F0C2FE002834D080F81CA0F7E7A8
:108470003BB941680B7F23B901230B77304600F0ED
:10848000A4FE03A9184800F013FB03A9164800F046
:10849000E4FA96E741683B68994202D100233B60C9
:1084A000EFE7304600F0AAFEEBE7BA68C0E700212C
:1084B000504600F056FA3846FFF7BCFE01E00D28A2
:1084C000F9D00023336083E7002BBFD1404600F092
:1084D0009FF9BBE7012389F80030D2E7A0340020E0
:1084E0002035002018350020043500204CEB020018
:1084F000FFFFB400A8340020202C00200648074AC3
:1085000003780749D35C012213B1043002F058B953
:108510000C3001F063BE00BF282C00209C350020E9
:108520004C3500200648074A03780749D35C0122EE
:1085300013B1043002F0C8B80C3001F0D7BD00BF51
:10854000282C00209C3500204D35002037B50578BB
:10855000012D0BD0022D2ED065B91E491E48FFF704
:1085600012FE002832D1FFF7DDFF03E0037A1BB9CA
:10857000FFF7C4FF03B030BD4368184C197820469C
:10858000FFF7EFFD80B18DF800500190144B684665
:108590001B689847A168E368A2885B1A9A42E7D2F1
:1085A000104B01221A70E5E7A268E3689A42F1D005
:1085B0008DF80000EAE7C3688DF800500193FFF7DB
:1085C0009DFF074B68461B689847D3E703238DF848
:1085D0000030F6E74D3500203C35002028350020DE
:1085E0002435002038350020F0B51F46234B89B0D4
:1085F00004461A600D4600293DD08A882048096843
:10860000FFF7A0FD002834D1AA89A9681D48FFF70B
:1086100099FD00282DD11C4E0FCE6D460FC596E852
:108620000F0085E80F0063690693237C174A1848FA
:108630008DF81C70003B18BF01238DF81430637C4B
:10864000002B14BF0E2300238DF81530E36802932E
:10865000A36803932368019369466368009301F05C
:108660006FF830B90B4B18702368013301D0FFF756
:1086700045FF09B0F0BD0720FBE700BF243500200F
:10868000283500203C350020E8EB02004D85020033
:10869000282C00203835002070B5094D01460948C6
:1086A0002E78FFF770FD044646B100232B70FFF7CC
:1086B00025FF18B1044AD621FFF7D0FC204670BD33
:1086C000383500202835002058EB020070B5EFF354
:1086D000108672B60C4A946801239CB993600B4BC8
:1086E0000B4DD3F8801029401160C3F88050D3F8A7
:1086F000841051604FF0FF32C3F88420047006B933
:1087000062B670BD0370FAE75035002000E100E06A
:10871000FC06FFBD084B9A6810B55AB150B9EFF38B
:10872000108172B6054A1C6814605C6854609860D9
:1087300001B962B610BD00BF5035002000E100E075
:10874000435882B03BB10023435043580193019BEF
:10875000012002B070471846FBE70000F8B5224B35
:108760004679224C43F82620214A224B9B1A04EBDF
:10877000C602DB0812791B04F70032B143F0020095
:108780001D49FFF745F90820F8BD02680D88C2F8B9
:10879000085590F9045002798978002DADBF05F194
:1087A000604CDFF85CC002F00F0E0CF5614C4FEA34
:1087B0004111C9B2B4BF0CF80E108CF800136D094A
:1087C0000121DFF840C002F01F0201FA02F24CF86A
:1087D0002520E21944F83600117143F003000749DF
:1087E000FFF716F90020CFE7643500205C35002044
:1087F000D4E8020014E9020008EC02002AEC0200AE
:1088000014ED00E000E100E0036801221A60704707
:10881000036801225A60704773B501F15005AD003D
:108820000068ADB24FF480348C400026C0F8084395
:10883000C0F84843465101F5A8714559019522F009
:108840007F42019D40F82120C0F844430BB1C0F89D
:10885000044302B070BD00002DE9F74F0D4622F031
:108860007F4402684FF4803705F150068F40804600
:10887000B60002EB8500C2F84873B6B2C2F80873BE
:10888000D2F8041599464FF0000BD0F84035C0F8E7
:10889000401542F806B05B1A9259009223F07F43CC
:1088A000012B009A4FEA850A0CD1264B4FF48060C9
:1088B00043F001039847D8F8003043F806B09B59BD
:1088C0000193019BD8F80010D1F80465C1F84473F6
:1088D000A31B23F07F43012B1CD11A4B05F5A87570
:1088E000013443F0010341F825404FF4806098477C
:1088F000D8F80030D3F804359E4209D1D8F80030BA
:108900000020C3F84473C3F8047303B0BDE8F08FCC
:108910000D20FAE78A44C9F1FF13CAF84045D1F89F
:108920000405221A013A22F07F4203F57F43934265
:10893000EED3002AE2D10134CAF84045D1F804351B
:108940009842DAE740EC020003680222C3F84423AD
:1089500009B1C3F80423704700684FF48271FFF730
:10896000EFBE4FF4803303FA01F10368C3F84813F4
:10897000C3F80813704750318900006889B2FFF7C7
:10898000DFBE0368D3F804057047000090F9043097
:1089900001215A0903F01F0301FA03F3403202498F
:1089A00041F82230704700BF00E100E0024B034A6B
:1089B0001B681068184700BF643500205C35002034
:1089C00010B561B1B2FBF3F403FB1424A4B244B9B3
:1089D000C0E9001484608281C381204610BD0E204E
:1089E000FCE70920FAE737B550E8013F9DB2C4899A
:1089F00025448489A54228BF2D1B0489A54202BFB6
:108A0000BFF32F8F002207E0C5EA030540E80154B9
:108A1000002CE9D14FF001028DF803200193019B56
:108A20009DF803200B6002F0FF0322B10B88006861
:108A3000184403B030BD1846FBE70A884B889A42B9
:108A400009D150E8012FC2EA024240E80123002B7D
:108A5000F7D1012070470020704737B550E8023F3A
:108A60001FFAA3F5C488A54202BFBFF32F8F0022CF
:108A70000DE0C48925448489A54228BF2D1BC3EA83
:108A8000054540E80254002CE8D14FF001028DF872
:108A900003200193019B9DF803200B6002F0FF036C
:108AA00022B14B880068184403B030BD1846FBE77C
:108AB0000A884B889A4209D150E8022FC2EA224222
:108AC00040E80223002BF7D10120704700207047B7
:108AD00001F01F024B090121914000EB830000F0DF
:108AE0001EB801F01F0301229A404B0900EB8300DE
:108AF000D14300F02CB84B0901F01F0150F82300BE
:108B0000C84000F00100704710B5034653E8000F5D
:108B10000A4643E8002494F0000FF7D110BD10B5C9
:108B2000034653E8002F42EA010043E8000494F0B2
:108B3000000FF6D110BD10B5034653E8000F00EA50
:108B4000010243E8002494F0000FF6D110BD10B5E7
:108B5000034653E8002F02EA010043E8000494F0C2
:108B6000000FF6D110BD10B5034653E8002F02EBFD
:108B7000010043E8000494F0000FF6D110BD10B5D9
:108B8000034653E8002FA2EB010043E8000494F0F1
:108B9000000FF6D110BD0121FFF7C1BF0021FFF783
:108BA000CABF10B590B1D0E9012301689B1ADBB2AE
:108BB0000A60013BDBB2FF2B026802D1002010717A
:108BC00010BD11684C1C14600B70F2E70E20F7E723
:108BD00037B5054600240DF107008DF80740FFF773
:108BE00075FD2A686B68116899420ED9481E10609D
:108BF00011F8014CEB68298A01FB0434AB68117948
:108C00001B1ADBB2994238BF13719DF80700FFF7BA
:108C100081FD204603B030BD37B5054600230DF178
:108C200007000C468DF80730FFF750FD2A681368DF
:108C3000591C1160E968641A298AB4FBF1F41C70AC
:108C40009DF80700FFF766FD03B030BD826810B5E0
:108C500004462AB143690168006998470023A3606C
:108C600010BD0EB403B5039921B104AB01AA019361
:108C700000F076F802B05DF804EB03B070470A2903
:108C800038B504460D4602D10D21FFF7F8FFA36861
:108C90002268591CA160D554D4E901329A4204D308
:108CA0002046BDE83840FFF7D1BF38BD2DE9F84F69
:108CB0009846DDE90A43154682460F460A464FF0BC
:108CC0000109AA420FD2C14538BFC14613F0010BBA
:108CD00001D16CB900240126B8F1010F1BD908F1AC
:108CE000FF386E43F8E709F10109B2FBF5F2E8E756
:108CF0009B070ED5B8F1000F0CBF30262026A145EA
:108D0000E9D2013C31465046FFF7B9FF002CF6D1BD
:108D1000E0E72026F3E7B7FBF6F39D42E1D9DFF861
:108D20003C80B7FBF6F3504618F8031006FB1377A8
:108D3000FFF7A5FF3346AB42B6FBF5F6F1D2BBF128
:108D4000000F02D00CB1A14501D3BDE8F88F20215E
:108D50005046013CFFF793FFF4E700BF46EC0200EA
:108D60002DE9F74F054617468846002900F0428155
:108D700018F8011B49B92B7B002B00F03B812846DA
:108D800003B0BDE8F04FFFF761BF252940F0B78081
:108D9000002698F800302D2B424608F1010823D018
:108DA000302B24D02B2B25D000242A2B02F10101BB
:108DB00023D13B681A1D1B683A601C440A4613788D
:108DC0002E2B26D101324FF0000A104610F8011B5D
:108DD000A1F1300CBCF1090F1DD80A2303FB0A13C3
:108DE000A3F1300A0246F0E746F00106D1E746F06B
:108DF0000206CEE746F00406CBE711F8013CA3F1EA
:108E000030000928DBD80A2202FB0434303C0A4631
:108E1000CBE74FF0000A12F8011B01F0FB006828B5
:108E20009046F8D0782909D86F290CD8632962D0E8
:108E300022D8252963D0582900F0888098F800307E
:108E4000002B95D197E770390829F7D801A353F87B
:108E500021F000BFCF8F02003D8E02003D8E020048
:108E60005D8F02003D8E02003B8F02003D8E0200AE
:108E70003D8E02004D8F0200642901D06929DDD1A9
:108E80003A68D2F80090111D89EAE9723960A2EBC4
:108E9000E9724FF0010B092A35DCD34538BFD346C0
:108EA0002CB1B9F1000F01DB720700D5013CB3070B
:108EB00002D5BAF1000F03D0F00701D44CBB002457
:108EC000B9F1000F2DDAC9F100092D212846FFF76D
:108ED000D6FE06F00302022A04D1BAF1000F01D136
:108EE0001CBB0024CDE9004653460A2249462846C9
:108EF000FFF7DCFEA2E73B681A1D19783A602846A6
:108F0000FFF7BDFE9AE70A230BF1010BB2FBF3F268
:108F1000C1E7A345D4D220212846013CFFF7AFFE8C
:108F2000CCE77107D5D52B21D0E7A345DAD2302184
:108F30002846013CFFF7A3FED2E73968CDE9004699
:108F40000A1D3A6053460A220968D0E739680A1DAB
:108F50003A60CDE9004653461022F5E73B681A1DFA
:108F60003A6016F00106D3F8009028D1B9F1000F4D
:108F700003D0484605F02AF90646B44200D904BB9E
:108F800009F1FF3919F8011F00293FF457AF2846AE
:108F9000FFF775FEF6E728460136FFF770FE19F871
:108FA00006100029F7D1A642BFF448AF002C3FF4C9
:108FB00045AF20212846013CFFF761FEF3E700267C
:108FC000EDE720212846013CFFF759FED5E73B6835
:108FD0001A1D3A60302128461C68FFF750FE7821A0
:108FE0002846FFF74CFE00220823CDE90032214637
:108FF00010227CE703B0BDE8F08F00BF2DE9F84FE9
:10900000B0F806A04579D2F800B09DF828900AFB88
:1090100005F5043D88460BEB0301A94203F1040466
:1090200088BFA5EB030BB4FBFAF607460AFB164410
:10903000C2F800B04EB9AAEB04055D4528BF5D46F5
:10904000BBF1000F04D1BDE8F88F3F68013EF1E7A6
:10905000043408EB06003C442A46B9F1000F0DD059
:109060002146ABEB050B05F00CF8DA452E443F68C2
:1090700055464FF0000428BF5D46E1E70146204613
:10908000EFE7FFF78EBDF8B546790146721E05463B
:10909000002393422D6803D30024A64202D8F8BDD2
:1090A0000133F6E70F682846FFF7B6FD013439466D
:1090B000F3E72DE9F843068ACD1C0746FFF788FD44
:1090C000043E35440446B5FBF6F5F0B14FF4807329
:1090D000EDB28380C680013D076081464FF00008F5
:1090E000A84512D23846FFF773FD064648B16379AA
:1090F0000133637108F10108C9F800000760814677
:10910000EEE72046FFF7BFFF34462046BDE8F88370
:1091100001210430FFF727BD10B5012104460430BA
:10912000FFF72DFD10F0FF0F04D12046BDE81040E1
:10913000FFF7A9BF10BD1FB503920022009203AA3A
:10914000FFF75CFF05B05DF804FB1FB50392012239
:10915000009203AAFFF752FF05B05DF804FB000080
:10916000064B10B500241C70054B1C60BFF35F8FCD
:109170000449054800F013F8204610BD7035002062
:109180007435002060EC02006835002083680022FE
:109190005A60C3E904229A60DA601A6070470B686B
:1091A0004A684360934208BF0023016008BF4360E0
:1091B0007047436843B10268916852680B44934218
:1091C000436004BF00234360704770B5446806469F
:1091D0000D46206818B1B3682946984718B9236826
:1091E0002B60256070BD2468F3E74368186808B1F8
:1091F00002681A60704743681868704743681868C7
:1092000000B97047884203D102681A600120704794
:1092100003460068F4E7000010B50D49A1F594720B
:10922000914201D800200FE08C1AE30F03EBE40316
:109230005B1002EBC30452F83330834205D802D2EC
:1092400004F10802ECE7606810BD2146E8E700BFC2
:109250006CF1020008B5FFF7DFFF024B002808BFE2
:10926000184608BD2FF00200054B1B68082B01BFF4
:10927000044B1868B0FA80F0400918BF002070470E
:10928000300100103401001008B54FF08043002277
:10929000C3F80C21C3F81021C3F838254FF08052D1
:1092A00003F54043D2F80414C3F82015D2F808148B
:1092B000C3F82415D2F80C14C3F82815D2F81014EA
:1092C000C3F82C15D2F81414C3F83015D2F81814BA
:1092D000C3F83415D2F81C14C3F84015D2F8201482
:1092E000C3F84415D2F82414C3F84815D2F828144A
:1092F000C3F84C15D2F82C14C3F85015D2F830141A
:10930000C3F85415D2F83414C3F86015D2F83814E1
:10931000C3F86415D2F83C14C3F86815D2F84014A9
:10932000C3F86C15D2F84424C3F87025FFF79CFFEE
:1093300010B1384B384A1A60FFF796FF18B1374B17
:10934000FB22C3F81825FFF78FFF48B13449354B8E
:109350000A681B6822F00F0203F00F0313430B602F
:10936000FFF782FF18B1304B4FF400721A604FF0D4
:109370008043D3F80024D20744BF6FF00102C3F842
:1093800000242A4AD2F8883043F47003C2F88830A7
:10939000BFF34F8FBFF36F8F4FF01023D3F800222E
:1093A000002A03DBD3F80432002B2FDA204B0122F2
:1093B000C3F80425D3F80024002AFBD04FF0102274
:1093C0001221C2F80012D3F80024002AFBD04FF07B
:1093D00010231222C3F80422154B1A46D3F80014A6
:1093E0000029FBD00021C3F80415D2F80034002B6B
:1093F000FBD0BFF34F8F0D490E4BCA6802F4E062F9
:109400001343CB60BFF34F8F00BFFDE70A4B0B4AFE
:109410001A6008BD8C5600404881030000F00040EF
:10942000E40E0040580200104096024000ED00E0BB
:1094300000E001400400FA053C2C00200090D0031D
:10944000074B1B5C1F2B8ABF064A4FF0A04203F05C
:109450001F03D2F80405D840C04300F00100704754
:1094600070F1020000030050074B1B5C1F2B86BFEE
:10947000064903F01F034FF0A041012202FA03F353
:10948000C1F80C35704700BF70F1020000030050B6
:10949000074B1B5C1F2B86BF064903F01F034FF0D1
:1094A000A041012202FA03F3C1F80835704700BF5A
:1094B00070F102000003005008B50020FFF7E8FF3C
:1094C0000120FFF7E5FF0220FFF7E2FFBDE80840BB
:1094D0000320FFF7DDBF08B50020FFF7C5FF01201F
:1094E000FFF7C2FF0220FFF7BFFFBDE808400320DF
:1094F000FFF7BABF0A4B185C1F288ABF094B4FF011
:10950000A04300F01F00D3F804250121814021EA87
:1095100002000A40C3F80805C3F80C25704700BFD5
:1095200070F1020000030050074B1B5C1F2B8ABF29
:10953000064A4FF0A04203F01F03D2F81005D840AE
:10954000C04300F0010070476CF1020000030050BE
:109550000B2809D00C2809D0182809D019280CBFCD
:1095600003204FF0FF307047002070470120704704
:1095700002207047014B185C704700BF6CF102007D
:10958000C20710B504460CD54FF0A0430322C3F820
:109590003427C3F85827C3F83C27C3F86027FFF7E0
:1095A0008BFFA3070AD54FF0A0430C22C3F82C274A
:1095B000C3F83027C3F86027C3F8642710BD000044
:1095C00038B5074C051E04F1080318BF1C46236874
:1095D0002BB11A6822605B6828469847F7E738BDC8
:1095E0008035002020B9054B01225A70FFF7E8BFF3
:1095F000012802D1014A9070F8E7704778350020C1
:1096000020B9034B01225A70FFF7DABF704700BF41
:109610007835002038B50B4C237883B90A4863604D
:10962000A3602361E36000F0C9F8054604F006F981
:1096300008B900F0CFF801232370284638BD8525EE
:10964000FBE700BF78350020E595020037B50B4CED
:1096500000230DF107008DF80730FFF737F8E368B6
:10966000013BE360E56815B900F0C6F8A5709DF808
:109670000700FFF74FF803B030BD00BF783500207A
:10968000012813B508D003281CD018B9104B0122AB
:10969000C3F8802002B010BD0E4C00230DF107006E
:1096A0008DF80730FFF712F823780BB9FFF7B2FFF8
:1096B000E3689DF807000133E3600123A370FFF71F
:1096C00029F8E7E700F086F8FFF7C0FFE2E700BF00
:1096D00000E100E0783500201FB503788DF80030F8
:1096E0004368019383688DF80830C368054A039383
:1096F000054B684653F8213052F82110984705B0C1
:109700005DF804FB8C350020943500201FB50378EC
:109710008DF800304368019383688DF80830C36882
:10972000054A0393054B684653F8213052F821103F
:10973000984705B05DF804FB8C3500209435002077
:10974000F0B5194B90F800C0DFF86CE043F82C201E
:10975000164B16460A6943F82C204B7F0EF80C3046
:109760000C4607460FCC89B06D460FC594E80F0034
:1097700085E80F001EF80C30CDF810C04BB1002E5C
:109780000B4A694608BF3246381D00F091FE09B009
:10979000F0BD002E074A694608BF324607F10C00AB
:1097A00000F0A6FBF3E700BF943500208C350020C5
:1097B000D99602000D9702009C350020044A1379C7
:1097C00023B90121106091801846704785207047A9
:1097D000A0350020074B1A68D2075FBFC02283F86C
:1097E000002301221A604FF080430122C3F818259C
:1097F000704700BF00E100E0044B01221A604FF007
:109800008042D2F81834DB03FBD470470C000040D0
:10981000154B07B51A687AB100221A601B680093CD
:10982000009B4FF080430122C3F808230F4B587967
:1098300010B95A711B6898470D4B1A6882B1002203
:109840001A601B680193019B4FF080430222C3F80A
:109850000823064B1B68012003B05DF804EB184792
:1098600003B05DF804FB00BF00010040A0350020FC
:109870000401004000F1804000F5C040002382B0A8
:10988000036003680193019B02B0704703681F2BBC
:1098900083BF03F01F03036001484FF0A0407047EF
:1098A0000003005007B5019001A8FFF7EFFF019BEF
:1098B00000EB8300D0F8003723F44033C0F80037C2
:1098C000D0F8003743EA0141C0F8001703B05DF853
:1098D00004FB0000054B4FF0FF32072843F820201F
:1098E00084BFC01880F85820704700BFA8350020FA
:1098F00010B5174C94F86A3043BB04F130033021A3
:10990000FF22013911F0FF0103F8012BF9D1C8B290
:10991000FFF7E0FF01310C29F9D1062200210D48A3
:1099200004F0D8FB0C4BC02283F8062340221A60B7
:109930004FF4BE70FFF79EFF084B4FF00042C3F894
:109940000423012384F86A30002010BD0820FCE7BE
:10995000A83500200C36002000E100E00060004047
:10996000034B93F86A00003818BF0120704700BF0E
:10997000A8350020F7B53B4E3318054693F9303033
:10998000002B6CDA8B78C3F34003002B0BBF082449
:1099900000240C200820844202D1042003B0F0BD32
:1099A00056F82470013743D1701946F8242080F806
:1099B000304013B9331983F858508B785A0717D4AD
:1099C000D80737D501A80195FFF760FF019B00EB91
:1099D0008300D0F8003723F00203C0F80037224894
:1099E000EA0805F007070123BB40875C3B4383542B
:1099F0008B780A7813F0020328D0A40004F1804485
:109A000004F5C0442D02D4F8103523F44F3323F469
:109A10004073C4F810351204D4F8103505F47C55A1
:109A200002F4403215431D43C4F810550020B5E739
:109A30000134B0E701A84A780195FFF727FF019BA1
:109A400003F5E073920040F82320C8E7083C344453
:109A500094F8605045EA821284F86020E6E7082016
:109A60009CE700BFA83500200C36002073B5224CBF
:109A70002618054696F93020072A1ADD224492F866
:109A800058309B09032B0FD1019001A8FFF7FEFE70
:109A9000019BD0F81015D94001F001010231284690
:109AA000FFF700FF02B070BD012B0CBF02210321A4
:109AB000F5E7D3B2072BF5D8930003F1804303F504
:109AC000C043D3F8100540F00100C3F8100502F1BF
:109AD0004000800080B2FFF7CDFE0029E2D096F969
:109AE000303054F82330002BDCD0012303FA02F28B
:109AF000024BC3F80423D5E7A835002000600040DE
:109B000007B5019001A8FFF7C1FE019BD0F8100531
:109B1000D84000F0010003B05DF804FB2DE9F04FE0
:109B2000002489B0CDE90244624D4FF480720121D6
:109B300002F1804303F5C04390B21B68012B06D1AC
:109B4000D5F804330B4202D0FFF794FE0C430432E5
:109B5000B2F5907F4FEA4101EAD1574B1B68012BC8
:109B60000ED14FF4BE70FFF785FE4FF0A04344F0D6
:109B70000044D3F810350293504BD3F810350393BB
:109B800014F0FF0F1AD04E4F00250126344210D09A
:109B9000AB0003F1804303F5C043D3F81005D3F8BD
:109BA000101557F8253023B1C1F30141C0F305204A
:109BB00098470135082D4FEA4606E7D1002C75DAA3
:109BC00004AF002304937B604FF0FF33CDE90633ED
:109BD000DFF8EC90DFF8EC800026354618F9012B11
:109BE000531C4AD0C2F3C2000123D4B202F03F0B8F
:109BF00002F0070203FA02F208AB191811F8083C48
:109C000013423AD009EB0B03A40993F9303059F809
:109C100023A0BAF1000F08D1032C2ED117F800C0F1
:109C20004CEA020C07F800C001E0032CF6D001A8B2
:109C3000CDF804B0FFF72AFE019B11F8181C03F5BC
:109C4000E07C114250F82C00C0F3014005D00228FE
:109C500013D1032C0BD1214604E003280DD1032C92
:109C600005D102215846FFF71DFE0135EDB2BAF1CC
:109C7000000F02D021465846D0470136042EADD100
:109C8000A5B14FF0A0430299D3F8102503F5407316
:109C90009142D3F8103502D10399994206D002922D
:109CA0000393049A059B0692079393E709B0BDE8D6
:109CB000F08F00BF006000407C6100400003005056
:109CC000A835002008360020014B1B68184700BF4C
:109CD000143600200E4B984237B50C4602D00020B7
:109CE00003B030BD00230DF107008DF80730FEF7FB
:109CF000EDFC084B1D7915B901221C601A719DF805
:109D00000700FEF707FD002DE9D01120E8E700BFAE
:109D100000200040143600200023435082B04358F6
:109D20000193019B02B070470A4610B54FF48E7143
:109D3000FFF7F2FF136A9168C95C136A013313627B
:109D4000C0F81C1510BD024608B500684FF49271AA
:109D5000FFF7E2FF4FF484711068FFF7DDFF13682F
:109D600001221A6008BD8B690A4610B54FF4847150
:109D700023B9FFF7D1FFD0F8183510BDFFF7CCFF9E
:109D8000536AD168D0F81805C854536A0133536236
:109D9000F3E700001FB501238DF80030044BCDE937
:109DA0000110D3E900126846904705B05DF804FB46
:109DB0001C36002030B54C48D0F8043313F4007F33
:109DC00085B005464DD0D0F82431002B49D04FF452
:109DD0009271FFF7A1FF4FF40173C0F80833434BB2
:109DE00093F829200AB9012242603F4902228DF8E6
:109DF0000020D1F88024C1F8802403929A6902924D
:109E0000DA6801920022C3E906226846D3E900120B
:109E100090473548D0F81C315BB134494A690B6A28
:109E20009A420A464AD991F82830002B46D1FFF7CA
:109E30007BFF2D48D0F844318BB14FF4A271FFF76E
:109E40006BFF2A4B93F829200AB1012202609A691C
:109E50002AB10022586AD9689A61FFF79BFF05B0C2
:109E600030BDD5F804335B07D3D5D5F80831002BC6
:109E7000CFD01E4C1C482146FFF775FF636AA269CC
:109E80009A422346C5D1E269E1684AB12369E36099
:109E90000023606AA261E3616362FFF77BFFB8E7BA
:109EA00094F829200AB901226A600F4A4FF4017020
:109EB000C2F808030022586A9A61EEE70A484FF494
:109EC0008E71FFF729FF5369002BB2D051690291BF
:109ED000002391688DF80030019153616846D2E902
:109EE00000139847A5E700BF002000401C36002063
:109EF0002DE9F047734B744C0679E41A734B914685
:109F00002C2202FB0632E40892F82A202404074699
:109F10000D4644F002049A466AB10820FFF79AF908
:109F20006B4A6C4903462046FDF77FFD4FF0080859
:109F30004046BDE8F08768490068FFF7CBFE8046E1
:109F400058B11120FFF786F9614A6249034620465D
:109F5000FDF76BFD4FF01108EAE729684A1C10D0A5
:109F60001F2987BF5D4A01F01F030B464FF0A04237
:109F70000120984003F5E073C2F80805032042F879
:109F800023006868431C0DD01F288BBF00F01F03FF
:109F90000346524A4FF0A04203F5E0734FF0000C25
:109FA00042F823C03B68AA69C3F8242595F814C079
:109FB0006A7DBCF1010F4CEA0202C3F86C25C3F8BC
:109FC0001405C3F80C152CD1AA68511C0DD01F2AFA
:109FD0008BBF02F01F01114640484FF0A04001F531
:109FE000E0714FF0000C40F821C0E968481C14D023
:109FF0001F2987BFDFF8E4C001F01F0008464FF0BB
:10A00000A04C4FF0010E0EFA00FE00F5E070CCF807
:10A0100008E54FF0030E4CF820E0C3F80815C3F82C
:10A0200010252C2373430AEB0302C2F804902A691B
:10A030004AF80320B9F1000F2BD038682D7F4FF478
:10A040008E71FFF769FE38684FF4A271FFF764FE66
:10A050003A68234BC2F80433110B42F30732002A4B
:10A06000A8BF02F160404FEA4513BABF1D4801F096
:10A070000F0500F56140DBB2B4BF435580F80033F3
:10A0800001F01F01012303FA01F15209164B43F8B5
:10A0900022103B680422C3F800252C2303FB06A3EF
:10A0A0000020012283F82A20C3E9060083F8290052
:10A0B0005861FFF7CFF8064A064903462046FDF7E8
:10A0C000B4FC35E7D4E80200F4E802001C360020B6
:10A0D000D3F102008BF10200B59D02000003005095
:10A0E0008000020014ED00E000E100E02DE9F84FEF
:10A0F000344E90F804A0344D2C240AFB04698046A9
:10A100003248D9F814702D1AED084C462D046FB161
:10A110001120FFF79FF82E4A2E49034645F0020012
:10A12000FDF783FC11273846BDE8F88FC9F81420E5
:10A1300045F00305C9F8207089F82870D9F8142073
:10A14000C9F8081028462449FDF766FCD8F8000035
:10A150004FF48E71FFF7E0FDD8F800000123836013
:10A160004946FFF7E1FDD9F804309BB9D8F8000063
:10A17000D9F814B0236A9B4519D8D8F80030D3F821
:10A180001C21002AFBD00122DA602C2303FB0A6386
:10A1900000225A613846FFF75DF80D4A0D49034623
:10A1A0002846FDF742FCBEE794F828303BB9D0F8CA
:10A1B0001C31002BF8D04946FFF7B6FDDAE70F2730
:10A1C000E3E700BF1C360020F4E80200D4E80200F8
:10A1D000E2F102008BF10200A9F102002DE9F84F33
:10A1E0005B4F057906462C2000FB0570D0F804C0B3
:10A1F000BCF1000F04D033684FF40170C3F80803BA
:10A200002C2303FB0573DFF85C819869514CD8B1AE
:10A21000D869002860D0BCF1000F04D033684FF437
:10A220000172C3F804231120FFF714F8A8EB04040B
:10A23000E40824040346484A484944F00200FDF774
:10A24000F4FB1120BDE8F88F9A61D9605862D8619B
:10A250008146A8EB0404E408240444F0030A4049BE
:10A260005046FDF7D9FB2C2303FB057393F82930E7
:10A270002BB9B9F1000F02D13046FFF764FD4FF062
:10A280002C0B0BFB05783068D8F80430002B5AD122
:10A290004FF4A271C346FFF73FFD3068D0F8242188
:10A2A000D0F80831D0F84491DBB9B9F1000F01D1F1
:10A2B000002AF2D02C2303FB05730021996102B31D
:10A2C0000320FEF7C7FF244A2449034644F0020056
:10A2D000FDF7ABFB0320B5E71961DA614FF0010927
:10A2E000B7E7002AE6D1B9F1000FE3D15946FFF7ED
:10A2F0003AFDD8F82430D8F818209A42CDD84A46EA
:10A30000D8E7B9F1000F0BD00F20FEF7A3FF124AD8
:10A310001249034644F00200FDF787FB0F2091E746
:10A3200093F829103268012359B113600020FEF719
:10A3300091FF094A094903465046FDF776FB002084
:10A3400080E75360F2E74FF40173C0F80433EDE7A0
:10A350001C360020D4E80200EFF102008BF102006D
:10A36000BEF10200F4E802000023435082B04358DB
:10A370000193019B02B070471FB501238DF8003097
:10A38000044BCDE90110D3E900126846904705B0AF
:10A390005DF804FB483600207FB5434AD2F82461BB
:10A3A000002E60D010464FF49271FFF7DDFF0223BC
:10A3B0008DF80030D2F88034C2F880340393D2F89C
:10A3C0003C350293394BDA6801920022C3E9062238
:10A3D0006846D3E9001290473348D0F8443173B14E
:10A3E0004FF4A271FFF7C0FF304B9A693AB10022D7
:10A3F000C3E90622D968D0F83C05FFF7BDFF2A481B
:10A40000D0F82031ABB14FF49071FFF7ADFF0123CD
:10A41000C360264B5A6962B1D0F84C1502910022F4
:10A4200099688DF8002001915A616846D3E90012BD
:10A4300090471D48D0F858319BB14FF4AC71FFF7ED
:10A4400093FF1A4B5A6962B1D0F84C150291002261
:10A4500099688DF8002001915A616846D3E900128D
:10A46000904704B070BDD2F81031002BB4D04FF437
:10A4700088711046FFF778FF0C4BD2F83C059969BC
:10A480008842A9D1DC69D96864B1D2F8005225F0BC
:10A490002005C2F800521A699C61DA60DE61FFF79C
:10A4A0006BFF99E79C61FAE70020004048360020E6
:10A4B0002DE9F0477A4B7B4D90F80480ED1A7A4BEA
:10A4C0009146242202FB0832ED0892F820202D0448
:10A4D00004460E4645F002059A4662B10820FEF792
:10A4E000B9FE724A724903462846FDF79EFA0827CC
:10A4F0003846BDE8F0876F490068FFF7EBFB074679
:10A5000050B11120FEF7A6FE684A69490346284665
:10A51000FDF78BFA1127EBE73068421C10D01F289B
:10A5200087BF654A00F01F0303464FF0A042012198
:10A53000994003F5E073C2F80815032142F823108F
:10A5400071684B1C0DD01F298BBF01F01F030B46F8
:10A55000594A4FF0A04203F5E0734FF0000C42F867
:10A5600023C02368B269C3F8242596F814C0727D0D
:10A57000BCF1010F4CEA0202C3F86C25C3F80C05CC
:10A58000C3F814152CD1B268511C0DD01F2A8BBFF3
:10A5900002F01F01114648484FF0A04001F5E0715C
:10A5A0004FF0000C40F821C0F168481C14D01F295E
:10A5B00087BFDFF804C101F01F0008464FF0A04C30
:10A5C0004FF0010E0EFA00FE00F5E070CCF808E541
:10A5D0004FF0030E4CF820E0C3F80815C3F810251F
:10A5E000242303FB08F30AEB0302C2F80490326948
:10A5F0004AF80320B9F1000F3AD02068327F4FF4B7
:10A600008871FFF7B1FE20684FF49071FFF7ACFE40
:10A6100020684FF49271FFF7A7FE20684FF4A271F3
:10A62000FFF7A2FE20684FF4AC71FFF79DFE236890
:10A630002249C3F80413190B43F30733002BAEBFB1
:10A6400003F1604001F00F061D484FEA4212A8BF17
:10A6500000F56140D2B2B4BF825580F8002301F00A
:10A660001F01012202FA01F15B09164A42F8231088
:10A6700023680822C3F80025242303FB08A3002035
:10A68000012283F82020C3E906005861FEF7E2FDAD
:10A69000064A074903462846FDF7C7F928E700BFE1
:10A6A000D4E80200FCE802004836002002F2020072
:10A6B0008BF1020099A30200000300501003420036
:10A6C00014ED00E000E100E02DE9F843364B374C93
:10A6D00090F80480E41A01F06043E408B3F1005FED
:10A6E00007464FEA04440DD01020FEF7B3FD304A70
:10A6F0003049034644F00200FDF797F9102528463B
:10A70000BDE8F8832C4B242606FB0836994675696C
:10A710005DB11120FEF79EFD254A2649034644F00F
:10A720000200FDF782F91125E9E7726144F00304A4
:10A730007269B16020462149FDF76EF938684FF41F
:10A740009071FFF711FE4FF4AC713868FFF70CFE03
:10A750003B687269B168C3F84415C3F84825012203
:10A760009A607268B2B9D3F82021D3F858511AB957
:10A77000002DF8D00F2507E0002DFBD10122DA6073
:10A78000D3F85821002AFBD0242303FB0898002388
:10A79000C8F814302846FEF75DFD054A0549034612
:10A7A0002046FDF742F9AAE7D4E80200FCE80200DF
:10A7B00012F202008BF1020048360020A9F10200DB
:10A7C0002DE9F8434C4C037991464C4AA41A01F008
:10A7D0006042E408B2F1005F054688464FEA04444F
:10A7E0000DD01020FEF736FD454A4649034644F099
:10A7F0000200FDF71AF910252846BDE8F883424EFD
:10A80000242202FB0362526822B101684FF40470F3
:10A81000C1F80803242101FB03639F69A7B1D9692B
:10A82000002955D022B12B684FF40472C3F80423D9
:10A830001120FEF70FFD324A3249034644F0020070
:10A84000FDF7F3F81125D7E7C3F81890C3F80C808B
:10A85000DF6144F003044A462C492046FDF7DCF84A
:10A8600028684FF48871FFF77FFD28684FF4A271C4
:10A87000FFF77AFD2B68C3F83485C3F838956FBBB2
:10A8800001221A602979242202FB0162526862BB0C
:10A89000D3F81001D3F84421D3F82451104302D146
:10A8A000002DF5D00246242303FB016600239D42C0
:10A8B00018BF03259A42B36118BF0F252846FEF73B
:10A8C000C9FC0F4A0F4903462046FDF7AEF893E74F
:10A8D000C3F81080C3F81C900127BAE7D3F8002210
:10A8E00042F02002C3F80022CCE74FF40472C3F810
:10A8F00004230025E2E700BFFCE80200D4E80200E0
:10A9000020F202008BF1020048360020BEF1020066
:10A910001F2886BF00F01F00044B4FF0A04300F536
:10A92000E070032243F82020704700BF000300506E
:10A930001F2886BF054A00F01F004FF0A0420123E8
:10A9400003FA00F0C2F80805704700BF000300508A
:10A950001F2886BF054A00F01F004FF0A0420123C8
:10A9600003FA00F0C2F80C05704700BF0003005066
:10A97000124BD3F8183107B5EBB1114B1149002236
:10A980001A6091F820001B680193FF28019B05D0F5
:10A990008B7F1BB9CB7F5BB1FFF7DAFF00234B77CF
:10A9A0000B72D1E90031084803B05DF804EB184799
:10A9B000FFF7BEFFF2E703B05DF804FB00F00240D2
:10A9C00018F102406C360020743600202DE9F04763
:10A9D000814F06799A46242303FB067380461B7F2A
:10A9E0000C469146002B40F0F08086B18B7BFF2B0C
:10A9F00040F0ED808B68B3F1206F00F0E880B3F198
:10AA0000A05F00F0E4800B7C002B40F0E080D8F8E1
:10AA1000005072492846FFF75DF90146002840F0D2
:10AA2000D880242070433B1847F80090C3F804A056
:10AA3000237B2078012B00F2B680FFF789FF237873
:10AA40001F2B86BF03F01F03654A4FF0A04203F59A
:10AA5000E073012042F8230094F80190B9F1FF0F50
:10AA600000F0A4804846FFF773FF4846FFF750FF09
:10AA7000A378FF2B00F09D801F2B8BBF03F01F02DC
:10AA80001A4657484FF0A04002F5E0724FF0040C10
:10AA900040F822C09A46242202FB067282F8213036
:10AAA000E07882F82000FF281CD02379002B00F0EA
:10AAB0008380FFF74DFFE078FFF72AFF237C2279A0
:10AAC00063B1242303FB067301209877E078637C4D
:10AAD000C5F81405C5F86825C5F86435242303FBBB
:10AAE0000673DA77A07BFF2807D0FFF721FFA07B52
:10AAF000FFF70EFFA37BC5F86C35E37BC5F8603527
:10AB00002378C5F80835A368C5F80C95C5F810A5D5
:10AB1000C5F82435637B227B003B18BF0123022A42
:10AB20004DD0032A4ED0012A01D143F00203C5F8CB
:10AB30005435A379C5F8C03524237343FB5813B1AA
:10AB40004022C5F804230722C5F800250BB3D8F826
:10AB50000030627943F307300028A8BF00F1604459
:10AB6000C3F30733BCBF03F00F051E4C4FEA42127C
:10AB7000A8BF04F56144D2B2B4BF625584F8002383
:10AB800003F01F03012202FA03F34009164A42F8B8
:10AB90002030242303FB06760023737701233377C9
:10ABA0000846BDE8F087FFF7C3FE48E74FF0FF39DE
:10ABB0005EE74FF0FF3A6EE7FFF7BAFE7BE743F040
:10ABC0000403B4E743F00603B1E70821E8E70621F0
:10ABD000E6E71121E4E700BF6C36002071A902000E
:10ABE0000003005014ED00E000E100E02DE9F34126
:10ABF0000679454F242373431446FA180D46517FB6
:10AC0000804600297ED1FB5823B114F0140F04BFF5
:10AC10000123537795E80F004FF0240C0CFB067CC2
:10AC20000CF10C0E8EE80F009CF82000FF2807D0D6
:10AC30009CF81E3023B99CF81F30C3B1FFF778FE93
:10AC4000296821B101F06043B3F1005F06D1AA6821
:10AC500082B102F06043B3F1005F0BD0242303FB09
:10AC6000067600237377102002B0BDE8F081FFF76D
:10AC70006FFEE5E7D8F800306868C3F84415C3F8FC
:10AC80004805E968C3F834250022C3F83815C3F82D
:10AC90001821D3F818210192019A14F0010218BF6B
:10ACA0000122C3F8502514F0020218BF0122C3F894
:10ACB000402522075CBF01221A6124227243BA5840
:10ACC000AAB9D3F81821002AFBD0242303FB067667
:10ACD00096F82000FF2805D0B17F19B9F47F1CB188
:10ACE000FFF736FE0020BFE7FFF722FEFAE714F079
:10ACF00004004FF0400202D0C3F80823F2E7C3F883
:10AD00000423B1E71120AFE76C3600200220FEF7E4
:10AD1000F1BB00002DE9F04780460D46FEF718FC18
:10AD20000328044610D8012D10D0022D30D05DB973
:10AD30001A48FDF70AFB1A4B04EB440213449E78B1
:10AD4000184B1B5DB34219D0BDE8F087144D00EBE2
:10AD50004002A918AE5C4A78470052B1DFF84C9027
:10AD60000E484A464FF48041FDF7D7FA08B989F8F2
:10AD700000803B192B449A780A4B1A55002EE3D0D9
:10AD8000094B1B68002BDFD03046BDE8F047184761
:10AD900000EB4004024804446678EFE7B836002030
:10ADA000F8360020113700200C37002090360020A4
:10ADB00000780221FFF7AEBF08B5094B1B7853B1ED
:10ADC0000020FEF765FB0120FEF762FBBDE80840AE
:10ADD0000320FEF75DBBBDE80840FEF76DBB00BF7A
:10ADE00091360020F8B57B4C237805461BB1002333
:10ADF0002370FFF7E1FF172D00F28880DFE805F0F0
:10AE00000C17174354657680888D888D959A9A9A89
:10AE10009A9AC4C9D1D9E4E4FFF7CEFF6E48FDF792
:10AE200094FA6E4B002204461A702046F8BD0020AA
:10AE3000FEF706FBF8B10020FEF72AFB022D0CBF3F
:10AE40004FF4E1614FF47A61644B1D704FF40040A0
:10AE50004FF47A740025E0FB01454FF4FA620023B9
:10AE60002046294602F09AFE00220146BDE8F8403D
:10AE70005948FDF752BAFEF7F7FA022D0CBFC82168
:10AE80004FF4C871E0E70020FEF7DAFA40B1002085
:10AE9000FEF7FEFA4FF44871504B03221A70D5E7C3
:10AEA000FEF7E2FAC821F7E70020FEF7C9FA38B149
:10AEB0000020FEF7EDFA4FF47A61484B0422EDE7EB
:10AEC000FEF7D2FA4FF4C871F7E70020FEF7B8FAA0
:10AED00048B10020FEF7DCFA404B05221A7040F61C
:10AEE000CD410022C2E7FEF7BFFAF5E70020FEF7EA
:10AEF00001FB3A4B06221A70002240F26661B5E768
:10AF00000020FEF7B1FA354B07221A7000248CE7B7
:10AF100001202070FEF7EEFAEEE701202070FEF728
:10AF2000E9FA00224FF40051A0E7FEF7D4FA2B4BC8
:10AF30000C22EAE72A482B4EFDF707FAD5F1110556
:10AF400004461CD0D8B9012D13D0C8235D434FF45B
:10AF500000474FF47A7000214FF4FA620023C7FBD8
:10AF6000050102F01BFE224601461D48FDF7D5F9FA
:10AF700004460220FEF778FA0123337055E70220D9
:10AF8000FEF786FA0023F8E7FFF716FF134B1222AD
:10AF9000BBE7FFF711FF0020FEF766FA0F4B132205
:10AFA000B3E7FFF709FF0120FEF75EFA0B4B14220F
:10AFB000ABE7FFF701FF0020FEF756FA0120FEF78E
:10AFC00053FA064B1522A0E7FEF785FA034B1D70D6
:10AFD0009CE700BF08370020D8360020103700203B
:10AFE0009836002091360020044B1B68DB0703D500
:10AFF000034B1878FFF7F6BE704700BF04370020F8
:10B0000010370020002910B514BF03240024FEF7D8
:10B01000B1FA1F288ABF0A4B4FF0A04300F01F006F
:10B0200003EB8000D0F8002722F44032C0F800275C
:10B03000D0F8003743EA0443C0F80037002010BDC1
:10B0400000030050032801D8FEF76EBA00207047B5
:10B05000044B1B6813F0010301D0FFF7C3BE184671
:10B06000704700BF0437002038B51C4B18601C4BDC
:10B0700010F00204054619601AD01A4B1A480E2225
:10B080001A700F22DA7010229A7111225A7204215A
:10B0900040F23332FCF74AFF044648B9FCF79CFF04
:10B0A000044628B90146114A1148FDF72BF9044618
:10B0B000EB0711D50120FEF763FA6CB921460D4A62
:10B0C0000D48FDF71FF9044630B9BDE838400B4A7A
:10B0D0000B480121FDF716B9204638BD0437002082
:10B0E0000C370020F836002034F20200B1AD020027
:10B0F00058F20200E9AF02005CF202000DAD02005E
:10B1000054F20200032811D8012A0AD101290FD1D3
:10B1100000F10E02D2B20D4B00EB40001A54002099
:10B1200070470129F7D0022904D049B107207047A0
:10B130000022F8E7054B00EB400018444270EEE7B0
:10B14000024B00EB400018448270E8E7F83600201C
:10B15000032802D80121FFF755BF0620704708B524
:10B16000012202210020FFF7CDFF08B1072810D1EE
:10B17000072202210120FFF7C5FF08B1072808D1E7
:10B1800000210A220846FFF7BDFF10B1072808BFBB
:10B19000002008BD0388102B10B502D0112B1ED043
:10B1A00010BD1A4C2168B1B901220846FFF7AAFF69
:10B1B00008B1072824D1072202210120FFF7A2FFAE
:10B1C00008B107281CD1042202210020FFF79AFFB2
:10B1D00008B1072814D1236801332360E0E70B4A44
:10B1E0001368013B1360002BDAD1FFF7B8FF00288A
:10B1F000D6D0074B1B68002BD2D0BDE810401847B3
:10B20000034B1B68002BE6D09847E4E71C3700206F
:10B210001837002008B50020FFF79AFF08B106286C
:10B2200006D10120FFF794FF10B1062808BF0020C7
:10B2300008BD00000D4B10B518600C4629B1012067
:10B24000FFF700FF40B102232370094B1B6853B97D
:10B25000BDE81040FFF783BFFFF7F4FE08B10B23F2
:10B26000F2E72070F1E7002010BD00BF1837002082
:10B270001C37002076DF70477ADF70477CDF70472D
:10B280007FDF70478FDF7047B1DF704767DF704740
:10B2900033DF7047024A40F25911FCF7DFBE00BFAE
:10B2A00060F20200024A40F28E21FCF7D7BE00BFD6
:10B2B00060F2020008B50020FFF7CAFE20B10C4A78
:10B2C0004FF42C71FCF7CAFEFFF7A4FF20B1084A27
:10B2D0004FF42D71FCF7C2FEFFF7DAFF30B1BDE885
:10B2E0000840034A4FF42E71FCF7B8BE08BD00BFFA
:10B2F00060F2020073B504380B2809D8DFE800F0CB
:10B300000A080818080806080808283BFFF7D2FFB3
:10B3100002B070BD214B13211888FFF7ABFF30F04E
:10B320000803F5D01E4A4FF45C71FCF797FEEFE777
:10B330001A4B1A884FF6FF739A42E9D1194801F067
:10B34000DDFB30F00803E3D0154A40F27A31ECE738
:10B3500015491648114E154D154C02F0C3FDADF8B8
:10B36000060033880DF106022946204602F0A6F9B0
:10B370000028F6D1CCE70F490C48084E0B4D0C4C79
:10B3800002F0B0FDADF8060033880DF10602294643
:10B39000204602F093F90028F6D1B9E7CE2D00201F
:10B3A00060F20200943A0020E8F20200E43F00203C
:10B3B000D02D0020FAF202000388212B13B5044699
:10B3C00048D007D8112B36D0132B50D0102B11D0CA
:10B3D00002B010BD522B57D0562B62D03B2BF7D169
:10B3E00080881321FFF746FF0028F1D0324A40F24F
:10B3F0000B311DE0314B32483249C01AC0080004FD
:10B4000040F00300FCF704FB0720FFF721FE20B10A
:10B41000294A40F2E321FCF721FE2B4BA1882B485F
:10B42000198001F0D5FF0028D2D0234A40F2E6214E
:10B43000FCF714FECCE7214B21482549C01AC0086F
:10B44000000440F00300FCF7E3FA1F4B4FF6FF72D5
:10B450001A80BDE700238088ADF8043001A9FFF70A
:10B4600011FF0028B4D0144A4FF43E71E0E71648AB
:10B47000002300881A468521FFF702FF0028A7D085
:10B480000D4A40F2FE21D3E70F48002300881A46F8
:10B490001946FFF7F9FE00289AD0074A4FF4417188
:10B4A000C6E780881321FFF7E5FE002890D0024A06
:10B4B00040F21231BCE700BF60F20200D4E80200A3
:10B4C00004E902000CF30200CE2D0020D83F00203A
:10B4D00016F3020008B5037863B9074B3B211888BF
:10B4E000FFF7C8FE30B1BDE80840044A40F28321AE
:10B4F000FCF7B4BD08BD00BFCE2D002060F20200F5
:10B500000D4B4A881B889A4214D10A8840F677234B
:10B510009A420FD18B88094A09480A49033B9BB2DA
:10B520001380094A801AC00800041A4640F003003C
:10B53000FCF77BBA704700BFCE2D0020CC2D002039
:10B5400004E9020023F30200D4E8020008B560B168
:10B5500003280ED10220FFF77BFD50B1BDE8084063
:10B56000044A40F2CA21FCF779BDBDE80840FFF764
:10B57000A1BE08BD60F20200F7B50378012B3DD0F3
:10B58000022B34D08BBB1F4C1F4D20782844FDF775
:10B5900083F823780133DBB21D44237015F8012CA6
:10B5A0000A2A05D00D2A03D0184A12889A421CD8BC
:10B5B000012B18D9164D144E164F2378ADF80630CE
:10B5C0000DF106022B883146384602F077F808283C
:10B5D00009D01328F1D0052805D020B10E4A4FF428
:10B5E0006B71FCF73BFD0023237003B0F0BD0A4AEA
:10B5F00040F2B6314068FCF731FDF6E7064A40F20A
:10B60000BA31F7E7923A00206A370020CC2D0020AB
:10B61000CE2D0020D02D002060F2020038B5037836
:10B620000446F3B90F48104B1049114D1B1ADB08A3
:10B630001B0443F00300FCF7EBF90120FDF75AFF70
:10B64000A28A2169284602F01CFDA08AC31CF72BA0
:10B6500004D808490322284402F013FD064B0122B6
:10B660001A7038BDD4E8020004E902003FF302007A
:10B67000DC3E002088F50200693700204FF0A0432F
:10B680004FF00052C3F808257047000070B53D4BDD
:10B690003D4C01221A70FFF7F1FF2378022B17D1DE
:10B6A0003A4B3B483B493C4E3C4DC01AC008000455
:10B6B00040F00300FCF7ACF900232370384C3388CA
:10B6C00038482A46214601F0F9FF0028F7D170BD1D
:10B6D000032B0CD12D4B2E483349C01AC00800044F
:10B6E00040F00300FCF794F900232370EFE7042BEC
:10B6F0001CD1264B26482D49274E2D4DC01AC00877
:10B70000000440F00300FCF783F900232370234C6E
:10B7100023492288264802F0B4FC33882148224677
:10B72000294601F0CBFF0028F7D1D0E7052B0BD13C
:10B730001748164B1F49C01AC0080004BDE87040E6
:10B7400040F00300FCF764B9012BC0D11A4C2378F8
:10B750000133DBB2032B2370B9D1184D18492A8865
:10B76000184802F08EFC00232370174C2368002B2E
:10B77000ADD1094B13491B880A482A4601F09EFFA8
:10B780002060A4E75843002014430020D4E80200BE
:10B7900004E9020071F30200CE2D0020F42D0020F8
:10B7A00015430020D02D002084F3020098F30200FE
:10B7B00028370020B3F3020057430020402C00201C
:10B7C000422C0020052D0020243700204FF0A043FC
:10B7D0004FF00052C3F80C25704700001FB52749F1
:10B7E000002080230B70487081F83F0081F84000F2
:10B7F000FFF7ECFF224B1A78A2B11870214B1A7890
:10B800009AB9214B00911B88204921480193CDE929
:10B8100002136946FFF7EAF920B11E4A4FF4B971E5
:10B82000FCF71CFC05B05DF804FB012A11D1164B96
:10B83000194A1B880091CDE9022369460246144843
:10B840000193FFF7D3F90028ECD0124A4FF4BB71F3
:10B85000E6E7022AE6D10C4B104A1B880091CDE99D
:10B860000223694602460A480193FFF7BFF9002800
:10B87000D8D0084A4FF4BD71D2E700BFF62D0020A2
:10B880005843002057430020F42D0020422C002074
:10B89000BCF5020060F20200832C0020C42C0020C2
:10B8A00030B5214C22781C2A85B034D81F4B204853
:10B8B0002049C01AC008000440F00300FCF7ACF8AF
:10B8C0000320FDF717FE22781B4B1C4913F82200BA
:10B8D000087003EB82030132587848709878DB785F
:10B8E00081F83F0081F840302270FFF76FFF144B62
:10B8F000144A1B880091CDE90223134801930022CA
:10B900006946FFF773F920B1104A4FF4D671FCF77E
:10B91000A5FB05B030BD00250D482570FCF715FDD1
:10B920000C4B1D70F5E700BF933A0020D4E80200ED
:10B9300004E90200C5F30200C8F50200F62D00205C
:10B94000F42D002015430020BCF5020060F2020037
:10B95000804400201443002008B5FCF7A1FC30B15E
:10B96000BDE80840024A4FF48271FCF777BB08BD7E
:10B9700060F2020007B51649164801F0FDFB20B140
:10B98000154A40F24A31FCF769FB1248FB2101F0ED
:10B9900006FC20B1104A40F24D31FCF75FFB00215C
:10B9A0000822684602F096FB9DF80030694643F095
:10B9B000010302208DF80030FFF768FC20B1064A31
:10B9C0004FF45671FCF74AFB03B05DF804FB00BF6F
:10B9D00001B50200C83E002060F202002DE9804857
:10B9E000B64D0FCDB3B007AC0FC495E80300B44B10
:10B9F000B44A03934FF4807384E80300CDE9052330
:10BA00000493B14A072303A907A8FCF7EDFD20B171
:10BA1000AE4A40F2DA31FCF721FB4FF0A04303229B
:10BA2000AB4DC3F87427FFF729FE0FCD07AC0FC449
:10BA30002B6823604FF000430993FF238DF82A30D1
:10BA400001238DF82C30A34B0793A34AA34800236E
:10BA500007A98DF82030FEF7B9FF20B19B4A40F2CC
:10BA60003941FCF7FBFA9E4F01234FF4804100203F
:10BA70003B70FBF717FE20B1944A40F21241FCF7ED
:10BA8000EDFAFBF745FDFFF767FF96490320FFF747
:10BA9000EBFA20B18D4A40F20441FCF7DFFA07A926
:10BAA0000020FFF7C7FB20B1884A40F20741FCF7AE
:10BAB000D5FAFDF755FB20B1844A40F21E41FCF750
:10BAC000CDFA01F07DFE20B1804A40F22531FCF72D
:10BAD000C5FA002307A90120079301F005FF20B153
:10BAE0007A4A40F22B31FCF7B9FA07A801F0E6FFD9
:10BAF00020B1764A40F22F31FCF7B0FA11237A4890
:10BB00008DF80C3002F062FB774982B203A8FFF790
:10BB1000B5FB20B16D4A4FF4A171FCF79FFA0021EB
:10BB2000082207A802F0D6FA70494FF0C87307A898
:10BB3000CDE90713FFF7A0FB20B1644A4FF4A671CB
:10BB4000FCF78CFAFFF716FF694B6A48079307A9C1
:10BB500001F02CFC20B15D4A40F26521FCF77EFA31
:10BB60000021042203A802F0B5FA634B6348039353
:10BB700003A901F029FD20B1544A40F26D21FCF7E0
:10BB80006DFAAC22002107A802F0A4FA02238DF876
:10BB90001C304FF4A0635A4AADF81E300123ADF8B3
:10BBA00068301B928DF89830402244F25063CDE902
:10BBB00029235448544B309307A900F0E1FD20B1EC
:10BBC000424A40F2F531FCF749FA4E48012100F0B3
:10BBD000D4FD1C220DEB0200002102F07BFA0023B1
:10BBE0004FF4A032CDE90732ADF82A304FF4F022FD
:10BBF0008DF82C30454B09920C930322444B8DF861
:10BC0000282007A80D9301F095F820B12F4A40F2A3
:10BC1000A521FCF723FA3F4B3F4C4049E41AE408C6
:10BC2000240444F003042046FBF7F2FE3C4920467E
:10BC3000FBF7EEFE3B4A3C480121FCF763FB3B4A25
:10BC40003B480121FCF75EFB3A492046FBF7E0FE4A
:10BC50002C48032100F00BFE20B11C4A40F24A415F
:10BC6000FCF7FCF93449DFF8E8A0DFF8E88020466B
:10BC7000FBF7CEFEFFF702FDDFF8DC909AF800300C
:10BC8000002B00F0878000232C492D488AF80030D3
:10BC900002F05EF92B49024605462046FBF7BCFE42
:10BCA0002949284602F06BFA0646002840F08880B1
:10BCB00026492046FBF7ACFE50E000BF8CF50200A1
:10BCC000144200208043002079B5020060F2020097
:10BCD000A4F502001A021FFF8DB60200BCF5020097
:10BCE00058430020F5B20200CFF3020006002800FE
:10BCF00095B20200D83F00201DB60200D02D0020D2
:10BD0000C82D0020943A00204DB50200D5B40200A1
:10BD1000A5B20200D4E8020004E90200DBF302004D
:10BD200004F40200DDB70200C4F50200A1B802006D
:10BD300040F602001AF4020029F40200BAF50200EB
:10BD4000DC3E00203FF402004BF402004FF40200FE
:10BD5000693700201443002024370020B4493046BE
:10BD600002F0F6F802F07DF9012802D0022800D096
:10BD700020BBFDF7BFFBAF4B1B88ADF81C30AE4BB3
:10BD800007A91888FFF77EFAAC48FB224FF6FF712F
:10BD900001F011FA98F80030012B7FF46FAFD9F859
:10BDA0000030002B3FF46AAFA34BA54A1B88A5497E
:10BDB000A54801F083FCC9F800005DE70320D8E73F
:10BDC000A249284602F0DBF9064660B9A0492046A0
:10BDD000FBF71EFE01239F4888F8003032460E21F3
:10BDE000FCF79BFAD6E79C49284602F0C8F950B9FF
:10BDF00020469749FBF70CFE0223964888F800304E
:10BE0000FCF7A3FAC6E79549284602F0B8F90246BE
:10BE100030B90523924888F800304FF47A71DFE793
:10BE20009049284602F0ABF9064660BB804902F013
:10BE30008FF802F016F98C4B8C49C0B218700223AF
:10BE400088F800303B7808704E7081F83F6081F8C8
:10BE50004060002B3FF412AFFFF7B8FC844B854ADB
:10BE60001B880791CDE9092383483E70324607A914
:10BE70000893FEF7BBFE00288CD0804A40F20521D3
:10BE8000FCF7ECF886E77E49284602F078F906468A
:10BE900000284DD166497B4DDFF814B202F058F806
:10BEA00002F0DFF8704B62491870304602F050F82B
:10BEB00004220146284602F0E4F873482A786A4BC7
:10BEC00002706A781B784270AA788BF80020EA78B2
:10BED000664D8BF801204033102231462B706E7076
:10BEE00002F06CF8102285F83F003146584602F007
:10BEF00065F8032388F800303B7885F84000002B74
:10BF00003FF4BCAEFFF762FC594B5A4A1B885A48B3
:10BF10003E70CDE9092307A9324607950893FEF73D
:10BF200065FE00283FF436AF544A4FF40971A7E785
:10BF30005649284602F023F90646002847D15449BD
:10BF40002046FBF765FD3A49304602F001F85149B9
:10BF5000024605462046FBF75FFD284602F081F8C1
:10BF6000414B424D1870C2B24B492046FBF754FD7D
:10BF7000802204232A706E7085F83F6085F8406047
:10BF800088F80030CDE90066334644492046FBF787
:10BF900056FD3B78002B3FF4FDAEFFF717FC404900
:10BFA0002046FBF735FD324B324A1B8832483E7043
:10BFB000CDE9092307A9324607950893FEF716FE37
:10BFC00000283FF4E7AE2D4A4FF40F7158E735498A
:10BFD000194E284602F0D3F820B930881321FFF714
:10BFE00049F9D7E63049284602F0C9F8002861D15E
:10BFF0002E492046FBF70CFD0E4B30881B88ADF810
:10C000001C3007A9FFF73EF920B11C4A40F24B2132
:10C01000FCF724F80948FB224FF6FF7101F0CBF83A
:10C0200000283FF4B7AE154A40F24E2128E700BF82
:10C03000BAF50200B8F50200CE2D0020C83E00205F
:10C04000402C0020052D0020D02D002060F402009F
:10C0500066F402006043002079F402007EF40200DE
:10C060008044002086F4020020370020F62D0020B6
:10C07000F42D002015430020BCF5020060F2020000
:10C080008BF402003D2E0020372E002091F4020098
:10C0900098F40200B6F40200C5F40200D3F40200E2
:10C0A000ECF40200FFF4020005F502000CF50200BA
:10C0B0003A2E002008490948DFF820B0084D01F069
:10C0C00011FFADF81C00338807AA5946284601F035
:10C0D000F5FA0028F7D15DE620F50200623800206D
:10C0E000D02D00200369C1688B429DBF8268D218A1
:10C0F00002F1FF3203F1FF3394BF501A581A704710
:10C100002DE9F843D0E902940546A9EB04084068FC
:10C11000904520440F46144404D901F0B2FFEC606E
:10C12000BDE8F8834246A4EB090401F0AAFF686861
:10C13000224607EB0801F0E72DE9F843C5680646FB
:10C14000894617464FF000083469B3687068A54205
:10C1500028BFE418013C621B5C1BBC4228BF3C4664
:10C16000944228BF144649462844224601F089FFDC
:10C17000B3682544AB4208BF00253F1BA044A1443F
:10C18000F560E1D14046BDE8F883000010B5114CE0
:10C19000114AA2610223C4E90433104BE361A26493
:10C1A0004FF400730E4A0F492362E2640023102209
:10C1B000E01DA3626362E362A3656365E3652265D4
:10C1C00001F0BBFF0849204601F0B7FF2023A3710F
:10C1D00010BD00BFA044002044F602002845002006
:10C1E000184500204DF6020051F60200F8B5184C33
:10C1F000182300FB033503FB00402544C46A012CCF
:10C200000F4616460FD0022C1AD0F4B92846FFF775
:10C2100069FF864205D8324639462846FFF770FF47
:10C2200034462046F8BD2846FFF75CFF8642344678
:10C2300028BF0446224639462846FFF761FFF0E74B
:10C240002846BDE8F840FFF777BF0024E9E700BFC4
:10C25000A0440020FFF79ABF6DDF704779DF704779
:10C260007DDF704764DF70472DE9F04F85B0002512
:10C270000E9CBDF83CB0B4F800A001910746904672
:10C280001E46A9463A884A450DDC45B12388013B44
:10C29000A3EB0A039BB2FF2B3AD806F80A30002022
:10C2A00005B0BDE8F08F7A6852F8290003900022AB
:10C2B0000DF10B0103A8FFF7D5FF0028F0D19DF881
:10C2C0000B20424521D12288002D14BF00200220DE
:10C2D00002EB0801014459451ADC3DB9013292B222
:10C2E000019B2280B35422880132228022880DF1E2
:10C2F0000B01324403A8FFF7B5FF0028D0D12188F5
:10C300009DF80B200A442280012509F10109B9E7B3
:10C310000C20C5E72DE9F341089FBDF824801546A0
:10C32000CDE90078022204461E46FFF79DFF50B972
:10C330003346102229462046CDE9087802B0BDE8F0
:10C34000F041FFF791BF02B0BDE8F0812DE9F04F59
:10C3500000231788138090F82D3085B006460D46CF
:10C36000144653B3082F01D80C2027E102A8FFF789
:10C3700073FF002840F0228123880822EA54238892
:10C3800001339BB21B222380EA542088013080B203
:10C39000208006220DF10901284401F072FE238855
:10C3A0009DF8082006339BB212F0FE0218BF01224E
:10C3B0002380EA54238801332380B378FBB1238898
:10C3C0000433BB42D0D802A8FFF748FF002840F052
:10C3D000F58023880322EA54238801339BB2192273
:10C3E0002380EA542388BDF8082001339BB2E91862
:10C3F0002380EA54120A4A70238802332380F27899
:10C400009AB12388D91CB942AED80221E9542388B5
:10C4100001339BB201212380E95423880B449BB252
:10C420002380EA5423880B4423807268AAB12388AE
:10C43000D91CB94298D8022192F90020E9542388E6
:10C4400001339BB20A212380E954238801339BB234
:10C450002380EA542388013323803389002B40F062
:10C46000A180338A5BB1CDE900472B460722032127
:10C4700006F11000FFF74EFF002840F09F80338B3D
:10C480005BB1CDE900472B461522142106F11800B7
:10C49000FFF740FF002840F09180326A002A40F008
:10C4A0009080D6F82480B8F1000F30D0B8F804306E
:10C4B0002188981C8A1C0244BA423FF655AFFE28D8
:10C4C0003FF652AF03336B54238801339BB2FF22F4
:10C4D0002380EA54238801339BB22380B8F80020DC
:10C4E000EA54E918120A4A702088023080B220808B
:10C4F000B8F804205AB1D8F8081000296BD02844A5
:10C5000001F0BFFD2388B8F804201344238096F877
:10C510002C30002B40F09A80307800284ED03388A1
:10C52000012B58D0228802F1020CBC453FF61CAF0B
:10C53000012805D17378023313449F42FFF414AFEE
:10C54000023FBF1ABFB202A905EB0C00ADF808709C
:10C55000FFF786FE90BB3178BDF80830022900F065
:10C56000BA8072789A4202D3BB4240F2B28001296B
:10C5700040F0B380974293B2C0F0AF80ADF808307E
:10C580000821BDF80830FE2B3FF6EEAE22880133BD
:10C59000AB542288013292B22280A95422881344DB
:10C5A00023800BE0CDE900472B460622022106F14D
:10C5B0000800FFF7AFFE00283FF453AF05B0BDE819
:10C5C000F08FB4F800C00CF10603BB423FF6CCAECE
:10C5D0001188052901D80720F0E76FF4486E01EBB8
:10C5E0000E039BB24FF27D3E7345F4D95388052B61
:10C5F000F1D96FF44860181880B27045EBD94FF646
:10C60000FF70814203D0834201D09942E3D80523D1
:10C6100005F80C30238801339BB212212380E954A2
:10C62000238801339BB223801188E954E818090A52
:10C630004170238802339BB223805288EA54E91860
:10C64000120A4A702388023323802AE7B36A002B38
:10C65000C1D04FF000094FF00C0A4FF0160B96F8BE
:10C660002C305FFA89F293427FF656AFB16A0AFB2B
:10C6700002F201EB0208B8F80430981CFE283FF6DD
:10C6800073AE208803332B54238801339BB223805D
:10C6900005F803B0238801339BB223808A5AEA54F9
:10C6A000E918120A4A702088023080B22080B8F857
:10C6B00004205AB1D8F8081000298CD0284401F081
:10C6C000E0FC2388B8F804201344238009F1010911
:10C6D000C5E7092155E7BB42FBD9ADF808704FE724
:10C6E00070B5E8B14AB116880024B44203D30519E5
:10C6F0006D789D4208D0A14201D8002010E0055D70
:10C7000001352C44A4B2F0E7A142F6D9005D01380E
:10C71000A31C80B29DB210FA83F38B42EDDC15802E
:10C7200070BD13B513460022ADF806200DF10602C8
:10C730000446FFF7D5FF10B1BDF80630E01802B08F
:10C7400010BD72DF704773DF704774DF704738B514
:10C75000012204460D46B0F81414D0F81004FFF777
:10C76000E0FF00B1057004F13C0204F5826104F1C0
:10C770005400BDE83840FFF7E4BF80F83010704740
:10C78000F8B504460F4600296DD000286BD091F80B
:10C790007A301BB191F89830002B66D14FF0000C25
:10C7A00084F802C007F178060FCE251D0FC50FCE05
:10C7B0000FC596E8070085E8070084F830C0D7F871
:10C7C000A4306363D7F8A830A3634FF6FF7504F570
:10C7D0008263C4F82034A4F824540722614604F28A
:10C7E000264001F077FC23780BB984F8545094F874
:10C7F0002430002B14BFEE231F2304F15501C4F88D
:10C800001014A4F8143404F214423846FFF79EFDC5
:10C8100040BB94F82430002B14BFEE231F2304F2F6
:10C820003121C4F81814A4F81C3404F21C4207F196
:10C830003C00FFF78BFDA8B9A369A4F848304FF47A
:10C8400080730125A4F8503063692064014684F8A0
:10C850003C50636404F13C0204F15400FFF771FFA3
:10C8600000B92570F8BD0E20FCE70720FAE7F8B5FF
:10C87000077804460D46002F00F0098100F2264695
:10C88000817007220021304601F024FCE38813B1B7
:10C89000A378012B04D0E3794BB1A378022B06D106
:10C8A000636BA3B1012284F82D24082098473346F6
:10C8B00004F22C4113F8012F12B99942FAD117460C
:10C8C0006B1E032B57D8DFE803F0050B0F1284F81B
:10C8D0002D34ECE7A3791BB194F8243003B95FB988
:10C8E000E3790BB1002F48D1237A002B47D1637A2B
:10C8F000002B0CBF00250425636BA570002B40D0D6
:10C90000033D012D3DD86279002A3AD094F82E24B7
:10C91000002A36D184F83024012284F82F240720FD
:10C92000984704F13C0518220021284601F0D2FB6B
:10C93000E26A0123511E994284F83C3001D9042A4D
:10C9400000D1D3B294F8242084F8513042B1A36AC4
:10C95000591E012902D9042B18BF012384F8523033
:10C96000A178002384F8503004291BD8DFE801F0B7
:10C97000770D223559000025BEE70225BCE70325C7
:10C98000BAE7002384F82F34CBE7C4E91063C4F876
:10C9900020340223012284F83C30802384F83120A3
:10C9A000A4F84830A378002B5CD1636B002B6AD1CC
:10C9B000002067E00223002A84F8313014BF0723E7
:10C9C000032384F83C302369A4F848300023C4F8DA
:10C9D0002034E36826646364E4E763696364A369FD
:10C9E000A4F8483012B1062384F83C306379B3B11F
:10C9F00094F82E349BB994F8303483B1022384F830
:10CA0000503004212046FFF7A2FE0028CAD105239A
:10CA100084F8313004F58263C4F82034C2E703237C
:10CA2000F6E7E3696364236AA4F8483012B1062389
:10CA300084F83C30637983B194F82E346BB994F860
:10CA4000303453B1022384F8503004212046FFF7DC
:10CA50007EFE0028A6D10623DAE70423D8E784F86F
:10CA600031309FE7D4F820142A4604F15400FFF730
:10CA700068FE38B994F8301094F85400FFF763FE5C
:10CA8000002892D0F8BD94F83100984790E708202C
:10CA9000F8E70388112B10B50C460AD0262B1FD0BF
:10CAA000102B05D1C37B012B02D18388A1F824343C
:10CAB00010BD0022838881F82E24B1F824249A42E4
:10CAC000F6D10B79002BF3D101212046FFF7CFFEE1
:10CAD0000028EDD0A36B002BEAD0BDE8104018472A
