:020000022000DC
:1070000000000420757302005D7302005F730200CC
:1070100061730200637302006573020000000000E8
:107020000000000000000000000000006773020084
:1070300069730200000000006B7302006D730200B0
:10704000759802006F730200499D02006F73020081
:107050006F7302006F730200999B02006F7302004E
:107060006F7302006F7302006F7302006F73020090
:107070006F7302006F7302006F7302006F73020080
:107080006F730200C98902006F7302006F73020000
:107090006F7302006F7302007DD702006F730200EE
:1070A0006F7302006F7302006F7302006F73020050
:1070B0006F7302006F730200000000000000000008
:1070C0006F7302006F7302006F7302006F73020030
:1070D0006F7302006F7302006F7302006F73020020
:1070E0006F7302006F7302006F73020000000000F4
:1070F000000000006F7302000000000035AA0200CB
:10710000000000000000000000000000000000007F
:10711000000000000000000000000000000000006F
:10712000000000000000000000000000000000005F
:10713000000000000000000000000000000000004F
:10714000000000000000000000000000000000003F
:10715000000000000000000000000000000000002F
:10716000000000000000000000000000000000001F
:10717000000000000000000000000000000000000F
:1071800000000000000000000000000000000000FF
:1071900000000000000000000000000000000000EF
:1071A00000000000000000000000000000000000DF
:1071B00000000000000000000000000000000000CF
:1071C00000000000000000000000000000000000BF
:1071D00000000000000000000000000000000000AF
:1071E000000000000000000000000000000000009F
:1071F000000000000000000000000000000000008F
:10720000354936480A1A02D0072291438D4634493F
:1072100034480A1A06D00722914381F309880222D2
:1072200082F3148830483149314A00F044F831483B
:107230003149324A00F03FF831483249324A00F0D1
:107240003AF832483249334A00F035F83248334987
:10725000334A00F030F833483349344A00F02BF811
:1072600033483449344A00F026F83448344900227F
:1072700000F02CF833483449002200F027F8334856
:107280003349091A082902DB002202604160314AB1
:1072900090471F481F49884205D00268043003B454
:1072A000904703BCF7E700208646EC46002000210B
:1072B000294A9047FEE7884207D0521A05D0037842
:1072C00001300B700131013AF9D17047884202D088
:1072D00002700130FAE770470000042000E003204C
:1072E00000000420000004201CF60200102B0020E7
:1072F000882C0020D0730200D07302006CE00200E2
:107300001CF60200102B0020102B002078E1020058
:1073100078E1020078E1020078E1020078E1020001
:1073200078E1020078E1020078E102001AF602003A
:1073300094F70200882C0020882C0020882C002044
:107340000846002008460020104600201046002075
:10735000106600209D730200A9B90200FEE7FEE757
:10736000FEE7FEE7FEE7FEE7FEE7FEE7FEE7FEE7F5
:1073700000F002B8FFF7FCBF0F484FF00701884349
:1073800085460E4880470E48016841F4700101604F
:10739000BFF34F8FBFF36F8FFFF732BF09480A4922
:1073A0000A4A884207D0521A05D0037801300B7080
:1073B0000131013AF9D1704700000420E99202003E
:1073C00088ED00E078E10200102B0020102B002057
:1073D00000487047004600207047000007B5044B86
:1073E0000093044A402300F032F803B05DF804FB38
:1073F000F9730200892C00202DE9F84388461446D1
:10740000B2B10F4B0F4E0325002743F0010922466E
:1074100008EB0701002004F08BFE0744241A48B94A
:1074200033782BB14FF47A40C847013D02D1357013
:10743000BDE8F88301233370002CE8D1F8E700BFE2
:1074400080E10200882C0020704704F0A1BEF0B556
:1074500095B01D46164608460C4601F063FE1A9B81
:107460000D93CDE9086500252B46082205A9204685
:107470000A958DF82C500C9501F070FE079B029335
:10748000069B03939DF814308DF8115003F003020E
:10749000012A1DD1BDF81420059DC3F3C203C2F318
:1074A00083168DF81030B20008230EA9204601F093
:1074B00055FEC5F3952508AB0093324602AB0EA9E5
:1074C000284600F079FB204601F030FE15B0F0BDF3
:1074D000022AF8D1BDF81650C3F3C203C5F38915CB
:1074E0008DF810300827082D2E4628BF08263B4669
:1074F00032460EA9204601F031FEAD1B08AB02AAB0
:1075000031460EA8374400F0BBFB002DEBD1DAE783
:1075100008B5FFF79AFF0448042100F0B7FA034BBF
:1075200001225A7108BD00BF68E10200102B002043
:10753000037813F0040216D003F00303012B03D0E9
:10754000022B09D0012070470A6800880232C0F37C
:10755000831002440A60F5E70B684288023303EBAC
:1075600092130B60EEE71046704700002DE9F04FD4
:10757000DFF830A187B00F4600230446861C0DF1CA
:10758000070015468DF8073001F0AEF8DAF8001064
:107590003960DAE90132134401335B1A0AF21C47FD
:1075A0000AF583690AF21448B3421CD30020002D67
:1075B00073D004F00F039B0143F0050363F30F0046
:1075C000DAF80020DAF808301340033332444AF87E
:1075D00023009DF80700CAF8002001F0A9F8012057
:1075E00007B0BDE8F08F0121384601F0CAFA4846DD
:1075F00001F0DFFA404601F0DCFADAF80400DAF8CC
:1076000008B0029000EA0B0003300AEB800002A9E8
:10761000FFF78EFF029B50BB0BEA03020AEB8202CC
:1076200003F1020CD2680392013303EA0B0B0AEB5D
:107630008B0B02F00302012ADBF80C10CDF808C016
:1076400023D0022A16D08346404601F0B5FA10B185
:10765000029BCAF804305946384601F092FADAE93A
:1076600001231344DAF8002001339B1A9CE70BEA4C
:107670000300C9E7BDF80E30C3F3891303334FEAA3
:10768000114B0CEB93030293DEE7BDF80C30C3F310
:1076900083134FEA114B6344F5E7A40544F0060059
:1076A0008EE700BF9C2D00200B4B0C48FF2210B52D
:1076B0009A600022C3F81824C3E90022C3F81424F6
:1076C000012283F8202401F0E6FC044610B90448A6
:1076D00001F08EFD204610BD9C2D0020CCE0020064
:1076E000BCE1020030B50A4C71B10A4A0A49121BCA
:1076F000D20800239A4201D1002030BD31F8235036
:10770000854202D00133F5E7034654F83300F4E72D
:10771000E0E0020068E10200102B0020094B013973
:1077200003EBC000032909D8DFE801F00A020406D0
:1077300004207047007970474079704700207047F7
:1077400002207047E0E00200034BD3E90030C31A87
:1077500058425841704700BF9C2D00202DE9F0434E
:1077600087B0FFF7F1FF0646002840F0FE80804C0E
:10777000C4F81804BFF34F8F6368A56802932B40C9
:10778000033304EB830002A9FFF7D2FE029B18B17A
:10779000D4F81824002A62D005EA0302991C0133A8
:1077A00004EB82022B4004EB8303D268DB68049372
:1077B00002F00303022B0392029163D1BDF80E3055
:1077C0006C48C3F38917502FB84628BF4FF05008B4
:1077D00008F1080168F38F13C1F30901ADF80E3009
:1077E00001F071FC0646002800F0AA8001F09AFC26
:1077F0000023082203A9304601F0A6FC029925EADD
:1078000001020132B8EB820F4FEA820333D95FFAEB
:1078100088F863B32940DDB2A8EB050803315FFAAD
:1078200088F9A846544D04EB8101082342463046AE
:1078300001F08AFC3DB108F10803DBB24A46294653
:10784000304601F081FC029B033703EB9707029758
:10785000D4F81834002B4BD1D4F810545BE02268D4
:107860009A428CD86260304607B0BDE8F083424946
:107870001D469946D9E7294003310823424604EBC7
:107880008101DDE7012B5BD1BDF80C303948C3F332
:107890008311062928BF062161F38913023101F003
:1078A0000F018900ADF80C3001F00DFC06460028F0
:1078B00046D001F037FC0023082203A9304601F02E
:1078C00043FC0027BDF80C20C2F38312BB00974293
:1078D00003F10803BCD202994A1C294003310292E9
:1078E00004EB81010422304601F02EFC0137E9E768
:1078F000304601F01BFCFFF727FF80F00100C6B205
:10790000B1E7EB685B7923B12B6831461B682846E9
:107910009847EB681D68002DF3D1304601F006FC56
:107920000DF107008DF8075000F0DEFED4F8183492
:107930000BB9029B63609DF8070000F0F9FEDAE7DF
:10794000D4F8104454B90D4B0D480E49C01AC00864
:10795000000440F0020000F063F8CCE72368204602
:107960009B689847E3681C68ECE700267BE700BF4C
:107970009C2D0020CCE00200A82D0020E0E00200B9
:1079800010E10200A4E102002DE9F74F224E044667
:107990000F46924601A901221846D6F808909B4648
:1079A000FFF7E4FD20B3019D4FF00008AA1CD84565
:1079B00008EB020126D11948002101F0B3F880F349
:1079C0001000000440EA1440E4006B1C04F038048A
:1079D00003EA090305EA090544F0010406EB830301
:1079E000033544EA881444EA8724D86046F82540E1
:1079F00096F820341BB1FFF7B1FE0028FBD103B08D
:107A0000BDE8F08F09EA010106EB81015AF8283040
:107A1000CB6008F10108CAE79C2D0020B831002096
:107A200000231A46FFF7B0BF07B50123019201AA50
:107A3000FFF7AAFF03B05DF804FB07B5CDE900230B
:107A400002236A46FFF7A0FF03B05DF804FB1FB5F1
:107A5000CDE90023069B0293079B03936A46042308
:107A6000FFF792FF05B05DF804FB7FB5CDE9012378
:107A7000089B0393099B04930A9B059301AA052382
:107A8000FFF782FF07B05DF804FB000030B50F4C34
:107A9000D4F8102403460020114631B9D968087182
:107AA0004AB9C4F810340A6030BDC9680D798542FE
:107AB00006D00968F1E7D26814680C601360F3E738
:107AC00001300A28E8D14FF0FF30EDE79C2D00206F
:107AD00038B5084B0125D3F8104483F8205404B975
:107AE00038BDE3685D71236820465B689847E368AA
:107AF0001C68F4E79C2D002030B5C38885B004468F
:107B00000D4633B1144A00921449154A284601F033
:107B1000B6F8217A05291DD0637A4BB1A088FFF70A
:107B2000FDFD104B104953F82020284601F0A7F81E
:107B3000227A0E4BA08853F8222003920021FFF7EF
:107B4000D1FD039A0A490346284605B0BDE83040F6
:107B500001F095B805B030BDE8E10200D0E10200C7
:107B6000C8E1020058E202002AEC02007CE20200B6
:107B7000EDE1020007B503460846197A052911D040
:107B80005B7A2BB1094A0A49019001F078F8019813
:107B90000849019001F073F8019803B05DF804EB17
:107BA00001F062B8002AF8D0F2E700BFE8E1020075
:107BB0002AEC020092ED02002DE9F04385B01F4649
:107BC0000C9D002395F80C902B7306460C469046AE
:107BD00029463846FFF790FFB8F1060F09D8DFE8CD
:107BE00008F00412181F283340003146284601F0DF
:107BF00046F8002229463846FFF7BCFF85F80C906E
:107C000005B0BDE8F08322683146284601F037F818
:107C1000EFE7D4E900233146284601F030F8E8E7E1
:107C2000A36800933146D4E90023284601F027F8E1
:107C3000DFE7E3680193A36800933146D4E90023AA
:107C4000284601F01CF8D4E723690293E368019306
:107C5000A36800933146D4E90023284601F00FF8C9
:107C6000C7E76369039323690293E3680193A368F9
:107C700000933146D4E90023284601F000F8B8E724
:107C800008292DE9F74F80460E4617461C463DD879
:107C900000251B7B2573214610460193FFF72CFF1F
:107CA000DFF88CA0DFF88CB0AE4232D918F805208E
:107CB0005946204600F0E3FF0135082DF4D11B4959
:107CC000DFF874A0DFF874B0204600F0D8FF4FF062
:107CD00000094E4524D918F809507E2D1ED8284693
:107CE00005F0C8FF002814BF2A462E225946204618
:107CF00000F0C5FF09F10109B9F1080FE9D101222E
:107D000021463846FFF736FF019B237303B0BDE8D9
:107D1000F08F5146204600F0B2FFCDE72E22E5E776
:107D20005146204600F0ABFFE4E700BF01E202004D
:107D3000FDE10200F7E10200FFE1020003E20200C0
:107D4000C30710B507D4F023054A4008145C23404C
:107D50001943115410BD0901C9B20F23F4E700BF44
:107D60008832002030B5094B1C78094B1968002374
:107D70009C4202DC0022104630BD11F8335085428F
:107D800001EBC302F7D00133F2E700BF5832002005
:107D9000A832002013B504460191FFF7E3FF38B184
:107DA00043682BB10199204602B0BDE81040184746
:107DB00002B010BD034B044819680022490800F0C6
:107DC000BCBA00BF5C3200206032002010B5C0B2E7
:107DD000FFF7C8FF0446007801F0D0FE63785A1E12
:107DE00053425341834208D1044BD3E90023134348
:107DF00003D1BDE81040FFF7DDBF10BD8032002089
:107E000037B54308374AD35CC2074CBF1B0903F0A0
:107E10000F0304460D46042B25D8DFE803F00326A4
:107E20002F3C4000F9B10121FFF78AFF00230DF13B
:107E300007008DF8073000F057FC0120A4F1200363
:107E4000C4F12001284A20FA01F100FA03F30B43A0
:107E5000A040D2E9004120430B43C2E900039DF852
:107E6000070000F065FC03B030BD002918BF0221F7
:107E7000204603B0BDE83040FFF762BF49B103219F
:107E8000FFF75EFF0121204603B0BDE83040FFF759
:107E900081BF0121ECE70029E5D10421E8E709B120
:107EA0000321E5E7FFF74CFF29462046FFF772FF65
:107EB0000DF107008DF8075000F016FC0120A4F129
:107EC0002003C4F12001084A20FA01F100FA03F36B
:107ED0000B43A040D2E9004124EA000021EA030359
:107EE000BBE700BF88320020803200202DE9F0413E
:107EF000124E134F00243378A34208DC114BD3E910
:107F00000023134318D0BDE8F041FFF753BF3D688D
:107F100005EBC40815F8340001F030FE98F8013084
:107F20005A1E53425341181A4142414115F8340038
:107F3000FFF766FF0134DEE7BDE8F081583200202C
:107F4000A832002080320020092AF7B505460C46E9
:107F500016463ED901F03AFDE8B11F4B1F481D609F
:107F60001F4B204F1C70204B002120221E6005F06B
:107F7000D1FF1E4B00200021C3E90001013CE4B207
:107F80000326FF2C0DD11A4A1A48002103B0BDE880
:107F9000F04000F0C7B901F0E7FC0028DDD003B0E5
:107FA000F0BD9DF8063015F834008DF8046005EB3F
:107FB000C40223F007038DF8063001A993788DF8E9
:107FC00005303A4601F00CFD013CE4B20028D8D05F
:107FD000E5E70720E3E700BFA83200208832002051
:107FE00058320020CD7D02005C320020803200201B
:107FF000ED7E02009CE2020070B5084D084E0024A0
:108000002B789C4201D3002070BD3368012113F806
:10801000340001F065FD0134F2E700BF5832002062
:10802000A832002082B001238DF807309DF8073078
:10803000114B1860596044F2010188429A6012D0D5
:1080400044F20201884206D1DA60DA6812889A6145
:10805000DA685268DA6172B69DF80730002BFBD1FE
:1080600062B602B070471A611A6992685A611A6959
:1080700012689A611A69ECE7AC32002000B583B04F
:1080800002900091019244F2010071466A4600F0AC
:1080900003F803B000BD0000F0B5064687B00F46F8
:1080A000154672B6FFF714FDFFF758FB0028FBD109
:1080B000244B254CE41AE40844F2010324049E42B4
:1080C00044F001042BD00BD8012E14D041F201034F
:1080D0009E4222D01D493A462046FFF7A5FC0EE0FD
:1080E00044F202039E42F5D12B886A681849204663
:1080F000FFF7A3FC03E017492046FFF791FC164B5E
:10810000D3F8F030DB0700D500BE2A4639463046AA
:1081100007B0BDE8F040FFF785BF1049ECE7AA685B
:108120000592104601F0C8F8296802970191696824
:10813000009103460A49059A2046FFF796FC094933
:10814000DAE700BFE0E0020010E1020033E30200E2
:10815000DFE20200A0E2020000ED00E0BDE202006A
:10816000F9E202001FE3020049B152B1531E1A4066
:1081700007D1826001608380C260104670470E2084
:1081800070470920704710B58468C2688388121B45
:10819000934208D3C26813400268D154C3680133C4
:1081A000C360002010BD0420FCE78268C3689A42C7
:1081B0000AD08268838813400268D35C0B7083689E
:1081C00001338360002070470520704710B5D0E967
:1081D0000243D1E90202A04272EB03032CBF01204B
:1081E000002010BD08B50A4800F0D9FB094AD2E9C1
:1081F0000031C018084BD3E9002341F1000190423F
:1082000071EB030303D210F1807041F1000108BD4E
:10821000182B0020D03200204833002037B5054607
:108220000C460A4801A900F0ECFB60B105704460FF
:1082300001A9064800F00FFC18B1054800F0B4FB96
:10824000002003B030BD0420FBE700BF3433002022
:10825000182B002038B5184B1B78044613B900259D
:10826000284638BD0028FAD0037F03F0FF05002B15
:10827000F5D0FFF7B7FFD4E90223904271EB030377
:1082800014D3236903B92377D4E9053098472169CA
:108290000029E4D0237F03F0FF05002BDFD0D4E9D1
:1082A00002325B1842F10002C4E90232034821465F
:1082B00000F0BDFFD4E700BFD83200205CE302002D
:1082C00013B5114B11491868019008231048582222
:1082D00000F084FB044698B90E4A0F4801A900F04B
:1082E0004BFA044660B90C48012100F03BFB012326
:1082F0000A4A0948194600F09DFA094B01221A70F2
:10830000204602B010BD00BF56E30200DC32002060
:108310003433002085830200182B0020FFFF7F00EC
:10832000D83200203AB103685A614A1E5142514185
:108330001961002070470720704738B5037F044655
:108340000D4683B98261FFF74DFF2369281841F17B
:108350000001C4E9020103B1256121460020BDE806
:108360003840FFF75BBF002038BD0023014603778C
:108370000120FFF753BF0000014800F010BB00BF11
:10838000182B00202DE9F347064600F0F3FA40B120
:10839000584AD2E9003113F1807341F10001C2E97A
:1083A00000310021304600F0F4FA38B1524C236815
:1083B00023B12068FFF74EFF0023236001213046E0
:1083C00000F0E7FA20B1FFF70DFF4C4BC3E90001C5
:1083D0004B48494D4B4C4C4F01A900F04CFB002839
:1083E00042D1DFF82081444CDFF82491404600F070
:1083F00034FF2368002872D07BB12368D0E9025291
:10840000D3E902138D4272EB03032AD223681B7F48
:108410001BB12168404600F00AFF404600F017FFFC
:10842000D0E9027A0546FFF7DDFE381A6AEB010A49
:1084300001287AF1000345DBB0F5350F40D3FFF793
:108440009BFF324A02444FF496030021484600F055
:1084500011FA00283ED1236813B9304600F0E2F942
:10846000256002B0BDE8F0870378012B1DD0022BF8
:1084700009D14FF00008204600F0E9FE002836D070
:1084800080F81C80F7E73BB941680B7F23B90123D3
:108490000B77204600F0CBFE01A9194800F016FB2F
:1084A00001A9174800F0E7FA99E741682B6899425B
:1084B00002D100232B60EFE7204600F0D1FEEBE76E
:1084C000AA68C0E70021484600F059FA2846FFF79D
:1084D000C1FE01E00D28F9D00023236086E7002BC0
:1084E000BFD1304602B0BDE8F04700F09FB901238C
:1084F0003B70D1E7D03200205033002048330020B9
:10850000343300205CE30200D8320020FFFFB400C7
:10851000182B00200648074A03780749D35C01223C
:1085200013B1043002F0ACB90C3001F0A5BE00BFAD
:10853000202B0020CC3300207C3300200648074A43
:1085400003780749D35C012213B1043002F016B955
:108550000C3001F019BE00BF202B0020CC330020CE
:108560007D33002037B50578012D0DD0022D30D098
:1085700075B91F491F48FFF718FE002834D103B012
:10858000BDE83040FFF7DABF037A1BB9FFF7C2FF3F
:1085900003B030BD4368184C19782046FFF7F3FD4F
:1085A00080B18DF800500190144B68461B689847C5
:1085B000A168E368A2885B1A9A42E7D2104B0122B5
:1085C0001A70E5E7A268E3689A42F1D08DF80000DE
:1085D000EAE7C3688DF800500193FFF79BFF074B54
:1085E00068461B689847D3E703238DF80030F6E709
:1085F0007D3300206C33002058330020543300209A
:1086000068330020F0B51F46234B89B004461A603A
:108610000D4600293DD08A8820480968FFF7A4FD4F
:10862000002834D1AA89A9681D48FFF79DFD0028BC
:108630002DD11C4E0FCE6D460FC596E80F0085E874
:108640000F0063690693237C174A18488DF81C7045
:10865000003B18BF01238DF81430637C002B14BF3E
:108660000E2300238DF81530E3680293A36803936B
:108670002368019369466368009301F095F830B967
:108680000B4B18702368013301D0FFF743FF09B08B
:10869000F0BD0720FBE700BF543300205833002013
:1086A0006C330020CCE3020065850200202B002003
:1086B0006833002070B5094D014609482E78FFF750
:1086C00074FD044646B100232B70FFF723FF18B159
:1086D000044AD621FFF7D2FC204670BD6833002043
:1086E0005833002068E3020070B5EFF3108672B6CD
:1086F0000C4A946801239CB993600B4B0B4DD3F843
:10870000801029401160C3F88050D3F88410516064
:108710004FF0FF32C3F88420047006B962B670BD12
:108720000370FAE78033002000E100E0FC06FFBDA3
:10873000084B9A6810B55AB150B9EFF3108172B670
:10874000054A1C6814605C685460986001B962B6A0
:1087500010BD00BF8033002000E100E0435882B02C
:108760003BB10023435043580193019B012002B0C9
:1087700070471846FBE70000F8B5224B4579224EBA
:1087800043F82520214A224B9B1A06EBC502DB0841
:1087900012791B04EF0032B143F002001D49FFF7CC
:1087A0003FF90820F8BD02680C88C2F8084590F926
:1087B000044002798978002CADBF04F1604CDFF8E9
:1087C0005CC002F00F0E0CF5614C4FEA4111C9B2CA
:1087D000B4BF0CF80E108CF8001364090121DFF807
:1087E00040C002F01F0201FA02F24CF82420F219F4
:1087F00046F83500117143F003000749FFF710F9FF
:108800000020CFE7943300208C330020E0E002000A
:1088100020E10200ECE302000EE4020014ED00E0AF
:1088200000E100E0036801221A607047036801223A
:108830005A60704773B501F15005AD000068ADB2E4
:108840004FF480348C400026C0F80843C0F84843F9
:10885000465101F5A8714559019522F07F42019DCD
:1088600040F82120C0F844430BB1C0F8044302B0E3
:1088700070BD00002DE9F74F0D4622F07F440268DD
:108880004FF4803705F150068F408046B60002EB6A
:108890008500C2F84873B6B2C2F80873D2F804155E
:1088A00099464FF0000BD0F84035C0F8401542F81B
:1088B00006B05B1A9259009223F07F43012B009A75
:1088C0004FEA850A0CD1264B4FF4806043F0010338
:1088D0009847D8F8003043F806B09B590193019BA4
:1088E000D8F80010D1F80465C1F84473A31B23F035
:1088F0007F43012B1CD11A4B05F5A875013443F0B9
:10890000010341F825404FF480609847D8F80030C3
:10891000D3F804359E4209D1D8F800300020C3F8BE
:108920004473C3F8047303B0BDE8F08F0D20FAE779
:108930008A44C9F1FF13CAF84045D1F80405221A48
:10894000013A22F07F4203F57F439342EED3002A9F
:10895000E2D10134CAF84045D1F804359842DAE74B
:1089600020E4020003680222C3F8442309B1C3F8DB
:108970000423704700684FF48271FFF7EFBE4FF495
:10898000803303FA01F10368C3F84813C3F80813EE
:10899000704750318900006889B2FFF7DFBE036875
:1089A000D3F804057047000090F9043001215A09FA
:1089B00003F01F0301FA03F34032024941F8223069
:1089C000704700BF00E100E0024B034A1B681068DB
:1089D000184700BF943300208C33002010B561B1DC
:1089E000B2FBF3F403FB1424A4B244B9C0E90014AD
:1089F00084608281C381204610BD0E20FCE70920DF
:108A0000FAE737B550E8013F9DB2C489254484890F
:108A1000A54228BF2D1B0489A54202BFBFF32F8F9B
:108A2000002207E0C5EA030540E80154002CE9D123
:108A30004FF001028DF803200193019A0A609DF81E
:108A4000031001F0FF0321B1006810FA82F003B0B7
:108A500030BD1846FBE70A884B889A4209D150E896
:108A6000012FC2EA024240E80123002BF7D1012086
:108A700070470020704737B550E8023F1FFAA3F552
:108A8000C488A54202BFBFF32F8F00220DE0C48926
:108A900025448489A54228BF2D1BC3EA054540E82B
:108AA0000254002CE8D14FF001028DF8032001930D
:108AB000019A0A609DF8031001F0FF0321B10068DC
:108AC00000EB124003B030BD1846FBE70A884B8824
:108AD0009A4209D150E8022FC2EA224240E802231A
:108AE000002BF7D1012070470020704701F01F02D2
:108AF0004B090121914000EB830000F01EB801F00A
:108B00001F0301229A404B0900EB8300D14300F080
:108B10002CB84B0901F01F0150F82300C84000F0A9
:108B20000100704710B5034653E8000F0A4643E8BA
:108B3000002494F0000FF7D110BD10B5034653E8A0
:108B4000002F42EA010043E8000494F0000FF6D140
:108B500010BD10B5034653E8000F00EA010243E8D8
:108B6000002494F0000FF6D110BD10B5034653E871
:108B7000002F02EA010043E8000494F0000FF6D150
:108B800010BD10B5034653E8002F02EB010043E887
:108B9000000494F0000FF6D110BD10B5034653E861
:108BA000002FA2EB010043E8000494F0000FF6D17F
:108BB00010BD0121FFF7C1BF0021FFF7CABF10B5EB
:108BC00090B1D0E9012301689B1ADBB20A60013B36
:108BD000DBB2FF2B026802D10020107110BD1168BA
:108BE0004C1C14600B70F2E70E20F7E737B5054612
:108BF00000240DF107008DF80740FFF775FD2A6886
:108C00006B68116899420ED9481E106011F8013C3A
:108C1000EC68298A01FB0344AB6811791B1ADBB2AB
:108C2000994238BF13719DF80700FFF781FD204678
:108C300003B030BD37B5054600230DF107000C46E3
:108C40008DF80730FFF750FD2A681368591C116032
:108C5000E968641A298AB4FBF1F41C709DF80700D6
:108C6000FFF766FD03B030BD826810B504462AB137
:108C700043690168006998470023A36010BD0EB4E2
:108C800003B5039921B104AB01AA019300F076F872
:108C900002B05DF804EB03B070470A2938B504460A
:108CA0000D4602D10D21FFF7F8FFA3682268591C79
:108CB000A160D554D4E901329A4204D32046BDE8DC
:108CC0003840FFF7D1BF38BD2DE9F84F9846DDE9B0
:108CD0000A43154682460F460A464FF00109AA424A
:108CE0000FD2C14538BFC14613F0010B01D16CB999
:108CF00000240126B8F1010F1BD908F1FF386E439B
:108D0000F8E709F10109B2FBF5F2E8E79B070ED598
:108D1000B8F1000F0CBF30262026A145E9D2013C56
:108D200031465046FFF7B9FF002CF6D1E0E7202688
:108D3000F3E7B7FBF6F39D42E1D9DFF83C80B7FBE0
:108D4000F6F3504618F8031006FB1377FFF7A5FF5C
:108D50003346AB42B6FBF5F6F1D2BBF1000F02D0C1
:108D60000CB1A14501D3BDE8F88F20215046013C4C
:108D7000FFF793FFF4E700BF26E402002DE9F74F69
:108D8000054617468846002900F03E8118F8011B69
:108D900049B92B7B002B00F03781284603B0BDE892
:108DA000F04FFFF761BF252940F0B780002698F803
:108DB00000302D2B424608F1010823D0302B24D05F
:108DC0002B2B25D000242A2B02F1010123D13B6853
:108DD0001A1D1B683A601C440A4613782E2B26D1B4
:108DE00001324FF0000A104610F8011BA1F1300CBF
:108DF000BCF1090F1DD80A2303FB0A13A3F1300AA3
:108E00000246F0E746F00106D1E746F00206CEE75B
:108E100046F00406CBE711F8013CA3F13000092825
:108E2000DBD80A2202FB0434303C0A46CBE74FF081
:108E3000000A12F8011B01F0FB0068289046F8D0E8
:108E4000782909D86F290CD8632962D022D825291E
:108E500063D0582900F0888098F80030002B95D115
:108E600097E770390829F7D801A353F821F000BF1C
:108E7000E38F0200598E0200598E0200798F0200A2
:108E8000598E0200578F0200598E0200598E02003F
:108E9000698F0200642901D06929DDD13A68D2F8CE
:108EA0000090111D89EAE9723960A2EBE9724FF076
:108EB000010B092A35DCD34538BFD3462CB1B9F1B3
:108EC000000F01DB720700D5013CB30702D5BAF1F0
:108ED000000F03D0F00701D44CBB0024B9F1000F00
:108EE0002DDAC9F100092D212846FFF7D6FE06F03C
:108EF0000302022A04D1BAF1000F01D11CBB0024E5
:108F0000CDE9004653460A2249462846FFF7DCFED3
:108F1000A2E73B681A1D19783A602846FFF7BDFEA4
:108F20009AE70A230BF1010BB2FBF3F2C1E7A34569
:108F3000D4D220212846013CFFF7AFFECCE77107D1
:108F4000D5D52B21D0E7A345DAD230212846013CE4
:108F5000FFF7A3FED2E73968CDE900460A1D3A6063
:108F600053460A220968D0E739680A1D3A60CDE9FC
:108F7000004653461022F5E73B681A1D3A6016F08A
:108F80000106D3F8009024D1B9F1000F03D0484670
:108F900005F03CF80646B4421DD809F1FF3919F82E
:108FA000011F00293FF458AF2846FFF776FEF6E789
:108FB00028460136FFF771FE19F806100029F7D18F
:108FC000A642BFF449AF20212846013CFFF765FEC9
:108FD000F6E70026F0E720212846013CFFF75DFE7A
:108FE000D9E73B681A1D3A60302128461C68FFF714
:108FF00054FE78212846FFF750FE00220823CDE9D1
:1090000000322146102280E703B0BDE8F08F00BF98
:109010002DE9F84FB0F806A04579D2F800B09DF8D8
:1090200028900AFB05F5043D88460BEB0301A94295
:1090300003F1040488BFA5EB030BB4FBFAF6074663
:109040000AFB1644C2F800B04EB9AAEB04055D4510
:1090500028BF5D46BBF1000F04D1BDE8F88F3F6823
:10906000013EF1E7043408EB06003C442A46B9F11E
:10907000000F0DD02146ABEB050B04F022FFDA45C3
:109080002E443F6855464FF0000428BF5D46E1E797
:1090900001462046EFE7FFF792BDF8B54679014655
:1090A000721E0546002393422D6803D30024A64276
:1090B00002D8F8BD0133F6E70F682846FFF7BAFD7E
:1090C00001343946F3E72DE9F843068ACD1C0746FB
:1090D000FFF78CFD043E35440446B5FBF6F5F0B1D0
:1090E0004FF48073EDB28380C680013D07608146F6
:1090F0004FF00008A84512D23846FFF777FD064624
:1091000048B163790133637108F10108C9F80000BF
:1091100007608146EEE72046FFF7BFFF3446204652
:10912000BDE8F88301210430FFF72BBD10B5012104
:1091300004460430FFF731FDC0B220B92046BDE837
:109140001040FFF7AABF10BD1FB503920022009286
:1091500003AAFFF75DFF05B05DF804FB1FB503929E
:109160000122009203AAFFF753FF05B05DF804FB4C
:1091700041DF7047064B10B500241C70054B1C6086
:10918000BFF35F8F0449054800F03BF8204610BD4F
:10919000A0330020A433002040E4020098330020D4
:1091A00007B500230DF107008DF80730FFF79CFA93
:1091B000F1EE103A23F09F03E1EE103ABFF35F8F18
:1091C0000A4B4022C3F884219DF80700FFF7B0FA4C
:1091D00004F0BAFA20B103B05DF804EBFFF7C8BFA2
:1091E00020BF40BF20BF03B05DF804FB00E100E0FA
:1091F000836800225A60C3E904229A60DA601A6028
:1092000070470B684A684360934208BF00230160BF
:1092100008BF43607047436843B102689168526871
:109220000B449342436004BF00234360704770B512
:10923000446806460D46206818B1B3682946984729
:1092400018B923682B60256070BD2468F3E7436874
:10925000186808B102681A60704743681868704758
:109260004368186800B97047884203D102681A60E1
:109270000120704703460068F4E7000010B50D496F
:10928000A1F59472914201D800200FE08C1AE30FEF
:1092900003EBE4035B1002EBC30452F83330834268
:1092A00005D802D204F10802ECE7606810BD21463F
:1092B000E8E700BF4CE9020008B5FFF7DFFF024B0B
:1092C000002808BF184608BD0FE802004FF0805381
:1092D000D3F83021082A03BFD3F83401B0FA80F064
:1092E000400900207047000008B54FF0804300227D
:1092F000C3F80C21C3F81021C3F838254FF0805271
:1093000003F54043D2F80414C3F82015D2F808142A
:10931000C3F82415D2F80C14C3F82815D2F8101489
:10932000C3F82C15D2F81414C3F83015D2F8181459
:10933000C3F83415D2F81C14C3F84015D2F8201421
:10934000C3F84415D2F82414C3F84815D2F82814E9
:10935000C3F84C15D2F82C14C3F85015D2F83014B9
:10936000C3F85415D2F83414C3F86015D2F8381481
:10937000C3F86415D2F83C14C3F86815D2F8401449
:10938000C3F86C15D2F84424C3F87025FFF79EFF8C
:1093900018B13B4B3B4AC3F88C26FFF797FF18B137
:1093A000394BFB22C3F81825FFF790FF70B14FF03F
:1093B00080414FF08053D1F8E42ED3F8583222F098
:1093C0000F0203F00F031343C1F8E43EFFF77EFFE3
:1093D00020B12E4B4FF40072C3F840264FF080436B
:1093E000D3F80024D20744BF6FF00102C3F8002471
:1093F000274AD2F8883043F47003C2F88830BFF3AC
:109400004F8FBFF36F8F4FF01023D3F80022002A45
:1094100003DBD3F80432002B2EDA1E4B0122C3F8F3
:109420000425D3F80024002AFBD04FF0102212218B
:10943000C2F80012D3F80024002AFBD04FF010230A
:109440001222C3F80422134BD3F80024002AFBD0C5
:109450000022C3F80425D3F80024002AFBD0BFF370
:109460004F8F0B490C4BCA6802F4E0621343CB6088
:10947000BFF34F8F00BFFDE7084B094A1A6008BDD4
:10948000005000404881030000F00040009002407E
:1094900000ED00E000E001400400FA05342B00205C
:1094A0000090D003074B1B5C1F2B8ABF064A4FF06E
:1094B000A04203F01F03D2F80405D840C04300F0D7
:1094C0000100704750E9020000030050074B1B5C8D
:1094D0001F2B86BF064903F01F034FF0A041012256
:1094E00002FA03F3C1F80C35704700BF50E90200DF
:1094F00000030050074B1B5C1F2B86BF064903F07F
:109500001F034FF0A041012202FA03F3C1F808350E
:10951000704700BF50E902000003005008B500206A
:10952000FFF7E8FF0120FFF7E5FF0220FFF7E2FF6A
:10953000BDE808400320FFF7DDBF08B50020FFF7B6
:10954000C5FF0120FFF7C2FF0220FFF7BFFFBDE804
:1095500008400320FFF7BABF0A4B185C1F288ABFD8
:10956000094B4FF0A04300F01F00D3F80425012160
:10957000814021EA02000A40C3F80805C3F80C251F
:10958000704700BF50E9020000030050074B1B5C0E
:109590001F2B8ABF064A4FF0A04203F01F03D2F8E8
:1095A0001005D840C04300F0010070474CE90200AC
:1095B000000300500B2809D00C2809D0182809D026
:1095C00019280CBF03204FF0FF3070470020704770
:1095D0000120704702207047014B185C704700BFA4
:1095E0004CE90200C20710B504460CD54FF0A04369
:1095F0000322C3F83427C3F83827C3F83C27C3F83D
:109600004027FFF78BFFA3070AD54FF0A0430C229A
:10961000C3F82C27C3F83027C3F86027C3F86427A2
:1096200010BD000038B5074C051E04F1080318BF33
:109630001C4623682BB11A6822605B68284698474D
:10964000F7E738BDB033002020B9054B01225A702E
:10965000FFF7E8BF012802D1014A9070F8E7704790
:10966000A833002020B9034B01225A70FFF7DABF5C
:10967000704700BFA833002038B50B4C237883B95E
:109680000A486360A3602361E36000F0CBF80546FD
:1096900004F05AF808B900F0D1F8012323702846E5
:1096A00038BD8525FBE700BFA8330020499602009E
:1096B00037B50B4C00230DF107008DF80730FFF78D
:1096C00013F8E368013BE360E56815B900F0C8F8FA
:1096D000A5709DF80700FFF72BF803B030BD00BF61
:1096E000A8330020012813B508D003281CD018B9CE
:1096F000114B0122C3F8802002B010BD0F4C002393
:109700000DF107008DF80730FEF7EEFF23780BB957
:10971000FFF7B2FFE3689DF807000133E360012320
:10972000A370FFF705F8E7E700F088F802B0BDE89E
:109730001040FFF7BDBF00BF00E100E0A8330020EC
:109740001FB503788DF800304368019383688DF866
:109750000830C368054A0393054B684653F8213027
:1097600052F82110984705B05DF804FBBC33002087
:10977000C43300201FB503788DF80030436801938F
:1097800083688DF80830C368054A0393054B684623
:1097900053F8213052F82110984705B05DF804FBCA
:1097A000BC330020C4330020F0B5194B90F800C042
:1097B000DFF86CE043F82C20164B16460A6943F894
:1097C0002C204B7F0EF80C300C4607460FCC89B08E
:1097D0006D460FC594E80F0085E80F003B78CDF883
:1097E00010C01EF803304BB1002E0B4A694608BF6B
:1097F0003246381D00F0ACFE09B0F0BD002E074A1D
:10980000694608BF324607F10C0000F0B3FBF3E7EE
:10981000C4330020BC33002041970200759702003A
:10982000CC330020044A137923B9012110609180C0
:109830001846704785207047D0330020074B1A68C0
:10984000D2075FBFC02283F8002301221A604FF0C5
:1098500080430122C3F81825704700BF00E100E0F3
:109860004FF080430122DA60D3F81824D203FBD4EE
:10987000704700004FF0804307B5D3F800217AB15C
:109880000022C3F80021D3F800210092009A01229F
:10989000C3F808230F4B587910B95A711B689847C1
:1098A0004FF08043D3F8042182B10022C3F8042191
:1098B000D3F804210192019A0222C3F80823054B30
:1098C0001B68012003B05DF804EB184703B05DF896
:1098D00004FB00BFD033002000F1804000F5C04001
:1098E000002382B0036003680193019B02B07047BC
:1098F00003681F2B83BF03F01F03036001484FF071
:10990000A04070470003005007B5019001A8FFF781
:10991000EFFF019B00EB8300D0F8003723F44033C6
:10992000C0F80037D0F8003743EA0141C0F800170B
:1099300003B05DF804FBC208012300F0070003FA3E
:1099400000F08B5C1843885470470000054B4FF0C3
:10995000FF32072843F8202084BFC01880F8582021
:10996000704700BFD833002038B5144D95F86A40D1
:1099700014BB3022FF21A81804F0CCFAE0B2013465
:10998000FFF7E4FF0C2CF9D10D4B00226A669A8098
:109990000C4BC02183F80613402119604FF4BE70B0
:1099A000FFF79AFF084B4FF00041C3F8041301235F
:1099B00085F86A30104638BD0820FCE7D83300200F
:1099C0003C34002000E100E000600040034B93F8CD
:1099D0006A00003818BF0120704700BFD83300204C
:1099E0002DE9F341DFF8F48008EB0003054693F915
:1099F0003030002B0F466CDA8B78C3F34003002B1A
:109A00000BBF082400240C2108218C4203D1042020
:109A100002B0BDE8F08158F82400013041D108EBD4
:109A2000050166B248F8242081F830601BB908EBC4
:109A3000040383F85850BB785A0712D4D90732D59B
:109A400001A80195FFF754FF019B00EB8300D0F8BC
:109A5000003723F00203C0F800371F492846FFF7FC
:109A60006AFFBB783A7813F0020328D0A40004F10F
:109A7000804404F5C0442D02D4F8103523F44F334C
:109A800023F44073C4F810351204D4F8103505F4EB
:109A90007C5502F4403215431D43C4F81055002094
:109AA000B6E70134B1E701A87A780195FFF720FF06
:109AB000019B03F5E073920040F82320CDE7083EB8
:109AC00048FA86F898F8605045EA821288F86020D3
:109AD000E5E708209CE700BF3C340020D833002095
:109AE00073B5244D2E18044696F93020072A1DDD43
:109AF000083A45FA82F595F860309B09032B10D19E
:109B0000019001A8FFF7F4FE019BD0F81015D94091
:109B100001F001010231204602B0BDE87040FFF7BC
:109B2000F3BE012B0CBF02210321F4E7D3B2072BB4
:109B30001DD8930003F1804303F5C043D3F810050B
:109B400040F00100C3F8100502F1400040B280006F
:109B500080B2FFF7C1FE51B196F9303055F823308D
:109B60002BB1012303FA02F2034BC3F8042302B022
:109B700070BD00BFD83300200060004007B50190E1
:109B800001A8FFF7B5FE019BD0F81005D84000F002
:109B9000010003B05DF804FB2DE9F04F00248BB009
:109BA000CDE90444644D4FF48072012102F18043F9
:109BB00003F5C04390B21B68012B06D1D5F80433DE
:109BC0000B4202D0FFF788FE0C430432B2F5907FBF
:109BD0004FEA4101EAD1584BD3F87C31012B0ED129
:109BE0004FF4BE70FFF778FE4FF0A04344F00044FE
:109BF000D3F810350493514BD3F810350593E3B2E5
:109C0000D3B14F4F00250126344210D0AB0003F1F1
:109C1000804303F5C043D3F81005D3F8101557F867
:109C2000253023B1C1F30141C0F305209847013528
:109C3000082D4FEA4606E7D1002C79DA0023CDE95A
:109C400006334FF0FF33CDE90833DFF8F4A03D4B86
:109C5000019300263546019B13F9014B0193631CC8
:109C60004DD0C4F3C2070122E3B204F03F0B04F06D
:109C7000070402FA04F40AAA174417F8081C214240
:109C80003DD00AEB0B014FEA931991F930105AF8C5
:109C90002180B8F1000F07D1B9F1030F2FD106A928
:109CA0005846FFF748FE02E0B9F1030FF7D003A8CA
:109CB000CDF80CB0FFF71CFE039901F5E07150F8E8
:109CC000211017F8180C2042C1F3014106D00229D7
:109CD00015D1B9F1030F0CD1494605E003290ED186
:109CE000B9F1030F05D102215846FFF70DFE0135EA
:109CF000EDB2B8F1000F02D049465846C0470136D0
:109D0000042EA8D1A5B14FF0A0430499D3F8102593
:109D100003F540739142D3F8103502D10599994269
:109D200006D004920593069A079B089209938EE742
:109D30000BB0BDE8F08F00BF006000400003005092
:109D4000D833002038340020014B1B68184700BF6F
:109D5000443400200E4B984237B50C4602D0002008
:109D600003B030BD00230DF107008DF80730FEF77A
:109D7000BBFC084B1D7915B901221C601A719DF8B6
:109D80000700FEF7D5FC002DE9D01120E8E700BF61
:109D900000200040443400200023435082B0435848
:109DA0000193019B02B070470A4610B54FF48E71C3
:109DB000FFF7F2FF136A9168C95C136A01331362FB
:109DC000C0F81C1510BD024608B500684FF492712A
:109DD000FFF7E2FF10684FF48471FFF7DDFF1368AF
:109DE00001221A6008BD8B690A4610B54FF48471D0
:109DF00023B9FFF7D1FFD0F8183510BDFFF7CCFF1E
:109E0000536AD168D0F81805C854536A01335362B5
:109E1000F3E700001FB501238DF80030044BCDE9B6
:109E20000110D3E900126846904705B05DF804FBC5
:109E30004C34002030B54D4DD5F804339A0585B02B
:109E400051D5D5F82431002B4DD04FF492712846CE
:109E5000FFF7A2FF4FF40173C5F80833444B93F8A2
:109E600029200AB901226A60404902228DF80020A7
:109E7000D1F88024C1F8802403929A690292DA68AA
:109E800001920022C3E906226846D3E900129047F6
:109E90003648D0F81C315BB1354A5169136A994292
:109EA0004DD992F82830002B49D11146FFF77CFF9D
:109EB0002E48D0F84431002B56D04FF4A271FFF752
:109EC0006BFF2B4B93F829200AB1012202609A699B
:109ED000002A49D0586AD96800229A6105B0BDE8C5
:109EE0003040FFF797BFD5F804335B07D0D5D5F8DE
:109EF0000831002BCCD01E4C1C482146FFF773FFC5
:109F0000636AA2699A42C3D1E369E1684BB1A36174
:109F10002369E3600023606AE3616362FFF77AFF0D
:109F2000B6E794F829300BB901236B600F4B4FF45F
:109F30000172C3F808230023606AA361EEE70B48AF
:109F40004FF48E71FFF728FF5369002BB0D0516991
:109F50000291002391688DF80030019153616846A9
:109F6000D2E900139847A3E705B030BD00200040B8
:109F70004C3400202DE9F047734B744C90F804905A
:109F8000734EE41A2C2303FB0963E40893F82A3088
:109F9000240480460D46924644F0020463B1082032
:109FA000FFF78AF96B4A6C4903462046FDF745FDE9
:109FB00008273846BDE8F08768490068FFF7CAFE01
:109FC000074650B11120FFF777F9624A624903460C
:109FD0002046FDF732FD1127EBE72A68531C10D00D
:109FE0001F2A87BF5E4902F01F0313464FF0A041AE
:109FF0000120984003F5E073C1F80805032041F8FB
:10A0000023006968481C0DD01F298BBF01F01F0376
:10A010000B4653484FF0A04003F5E0734FF0000C9F
:10A0200040F823C0D8F80000AB69C0F8243595F893
:10A0300014C06B7DBCF1010F4CEA0303C0F86C3512
:10A04000C0F81415C0F80C252CD1AB685A1C0DD0E3
:10A050001F2B8BBF03F01F021A4641494FF0A0414E
:10A0600002F5E0724FF0000C41F822C0EA68511C82
:10A0700014D01F2A87BFDFF8E8C002F01F01114685
:10A080004FF0A04C4FF0010E0EFA01FE01F5E07109
:10A09000CCF808E54FF0030E4CF821E0C0F8082595
:10A0A000C0F810352C2202FB09F2B318C3F804A043
:10A0B0002B69B350BAF1000F2CD04FF48E712D7F65
:10A0C000FFF76AFED8F800004FF4A271FFF764FEB4
:10A0D000D8F80020234BC2F80433110B42F30732A7
:10A0E000002AA8BF02F160404FEA4513BABF1E48DC
:10A0F00001F00F0500F56140DBB2B4BF435580F8B5
:10A10000003301F01F01012303FA01F15209174B3B
:10A1100043F82210D8F800300422C3F800252C237D
:10A1200003FB09630020012283F82A20C3E906000B
:10A1300083F829005861FFF7BFF8064A064903462D
:10A140002046FDF77AFC34E7E0E0020000E102007F
:10A150004C340020CDE902006BE90200359E02007C
:10A16000000300508000020014ED00E000E100E078
:10A170000279044B2C2101FB02335869003818BFC7
:10A18000012070474C3400202DE9F74F344E90F8F1
:10A190000490019207468B46FFF7EAFF314BDFF848
:10A1A000D480019AF61A2C25F60809FB058A360494
:10A1B000044670B11120FFF77FF82B4A2B49034664
:10A1C00046F00200FDF739FC1124204603B0BDE83B
:10A1D000F08F05FB098546F003066A61286285F861
:10A1E00028006A692249C5F808B03046FDF71CFC12
:10A1F00038684FF48E71FFF7CFFD38680123836014
:10A200005146FFF7D1FD6B6893B938686C692B6ACA
:10A210009C421AD83B68D3F81C21002AFBD00122AB
:10A22000DA6000242C2303FB09880023C8F81430CB
:10A230002046FFF741F80C4A0C4903463046FDF72B
:10A24000FCFBC2E795F828303BB9D0F81C31002B55
:10A25000F8D05146FFF7A8FDD9E70F24E2E700BF89
:10A2600000E10200E0E00200C0E902006BE9020048
:10A2700089E902004C3400202DE9F74F5C4D077945
:10A280002C2303FB07530646D3F804C0BCF1000F90
:10A2900004D003684FF40170C3F808032C2303FBB8
:10A2A0000753DFF860819869524CE0B1D869002803
:10A2B00063D0BCF1000F04D033684FF40172C3F8CF
:10A2C00004231120FEF7F8FFA8EB0404E40824049B
:10A2D0000346494A494944F00200FDF7AEFB11200C
:10A2E00003B0BDE8F08F9A61D9605862D8618146A9
:10A2F000A8EB0404E408240444F003084049404661
:10A30000FDF792FB2C2303FB075393F829302BB95D
:10A31000B9F1000F02D13046FFF755FD4FF02C097F
:10A3200009FB075A3068DAF80420002A5BD14FF4A1
:10A33000A271D146FFF730FD3068D0F824B1D0F8D3
:10A340000821D0F844310193E2B913B9BBF1000FF1
:10A35000F2D02C2303FB075300229A61BBF1000FBC
:10A3600020D00320FEF7A8FF234A2449034644F0E7
:10A370000200FDF762FB0320B2E71961DA614FF0DA
:10A380000109B5E7BBF1000FE3D1019B002BE0D140
:10A390004946FFF728FDDAF82420DAF81810914230
:10A3A000CAD8D6E7019A5AB10F20FEF785FF124AA4
:10A3B0001249034644F00200FDF73FFB0F208FE7F0
:10A3C00093F829103268012359B113600020FEF779
:10A3D00073FF094A094903464046FDF72EFB00205A
:10A3E0007EE75360F2E74FF40173C0F80433EDE702
:10A3F0004C340020E0E00200B3E902006BE9020007
:10A400009EE9020000E102000023435082B043585D
:10A410000193019B02B070471FB501238DF80030F6
:10A42000044BCDE90110D3E900126846904705B00E
:10A430005DF804FB783400207FB5434AD2F82461EC
:10A44000002E60D010464FF49271FFF7DDFF02231B
:10A450008DF80030D2F88034C2F880340393D2F8FB
:10A460003C350293394BDA6801920022C3E9062297
:10A470006846D3E9001290473348D0F8443173B1AD
:10A480004FF4A271FFF7C0FF304B9A693AB1002236
:10A49000C3E90622D968D0F83C05FFF7BDFF2A487A
:10A4A000D0F82031ABB14FF49071FFF7ADFF01232D
:10A4B000C360264B5A6962B1D0F84C150291002254
:10A4C00099688DF8002001915A616846D3E900121D
:10A4D00090471D48D0F858319BB14FF4AC71FFF74D
:10A4E00093FF1A4B5A6962B1D0F84C1502910022C1
:10A4F00099688DF8002001915A616846D3E90012ED
:10A50000904704B070BDD2F81031002BB4D04FF496
:10A5100088711046FFF778FF0C4BD2F83C0599691B
:10A520008842A9D1DC69D96864B1D2F8005225F01B
:10A530002005C2F800521A699C61DA60DE61FFF7FB
:10A540006BFF99E79C61FAE7002000407834002017
:10A550002DE9F047794B7A4C90F80490794FE41A42
:10A56000242303FB0973E40893F8203024040546F0
:10A570000E46924644F002046BB10820FEF79CFEA2
:10A58000714A724903462046FDF757FA4FF0080812
:10A590004046BDE8F0876E490068FFF7DBFB804668
:10A5A00058B11120FEF788FE674A684903462046E5
:10A5B000FDF743FA4FF01108EAE731684B1C10D061
:10A5C0001F2987BF634A01F01F030B464FF0A042CB
:10A5D0000120984003F5E073C2F80805032042F813
:10A5E00023007268501C0DD01F2A8BBF02F01F037E
:10A5F000134658484FF0A04003F5E0734FF0000CAD
:10A6000040F823C02868B369C0F8243596F814C010
:10A61000737DBCF1010F4CEA0303C0F86C35C0F840
:10A620000C15C0F814252CD1B3685A1C0DD01F2B63
:10A630008BBF03F01F021A4646494FF0A04102F5B6
:10A64000E0724FF0000C41F822C0F268511C14D0A7
:10A650001F2A87BFDFF8FCC002F01F0111464FF030
:10A66000A04C4FF0010E0EFA01FE01F5E071CCF89E
:10A6700008E54FF0030E4CF821E0C0F80825C0F8BB
:10A680001035242202FB09F2BB18C3F804A0336979
:10A69000BB50BAF1000F39D04FF48871327FFFF709
:10A6A000B3FE28684FF49071FFF7AEFE28684FF4B0
:10A6B0009271FFF7A9FE28684FF4A271FFF7A4FE7C
:10A6C00028684FF4AC71FFF79FFE2B682249C3F84E
:10A6D0000413190B43F30733002BAEBF03F16040A3
:10A6E00001F00F061D484FEA4212A8BF00F5614075
:10A6F000D2B2B4BF825580F8002301F01F010122BD
:10A7000002FA01F15B09164A42F823102B6808226D
:10A71000C3F80025242303FB09770020012387F8D1
:10A720002030C7E906007861FEF7C6FD064A0749F2
:10A7300003462046FDF781F92AE700BFE0E002006A
:10A7400008E1020078340020FEE902006BE9020013
:10A7500039A40200000300501003420014ED00E091
:10A7600000E100E00279044B242101FB0233586927
:10A77000003818BF01207047783400202DE9F84FC9
:10A78000394B3A4DED1A01F06043ED08B3F1005F2B
:10A7900007468A4693464FEA05450DD01020FEF73E
:10A7A0008BFD334A3349034645F00200FDF745F976
:10A7B00010242046BDE8F88F90F80480FFF7D2FF00
:10A7C000044658B11120FEF777FD294A294903466E
:10A7D00045F00200FDF731F91124EAE7DFF89C901B
:10A7E0002549242606FB089645F00305C6F814B053
:10A7F0007269C6F808A02846FDF716F938684FF4C4
:10A800009071FFF701FE4FF4AC713868FFF7FCFD63
:10A810003B687269B168C3F84415C3F84825012242
:10A820009A607268B2B9D3F82021D3F858411AB9A6
:10A83000002CF8D00F2407E0002CFBD10122DA60B5
:10A84000D3F85821002AFBD0242303FB08980023C7
:10A85000C8F814302046FEF72FFD054A0549034687
:10A860002846FDF7EAF8A4E7E0E0020008E102006C
:10A87000F0E902006BE9020089E902007834002067
:10A880002DE9F8434D4C037917464D4AA41A01F0BF
:10A890006042E408B2F1005F054688464FEA04448E
:10A8A0000DD01020FEF708FD464A4749034644F004
:10A8B0000200FDF7C2F810252846BDE8F883434E94
:10A8C000242202FB0362526822B101684FF4047033
:10A8D000C1F80803242101FB03639869A0B1D96979
:10A8E000002957D022B12B684FF40472C3F8042317
:10A8F0001120FEF7E1FC334A3349034644F00200DD
:10A90000FDF79BF81125D7E79F61C3F80C80D8614C
:10A91000814644F003042E4920463A46FDF784F868
:10A9200028684FF48871FFF76FFD28684FF4A27113
:10A93000FFF76AFD2B68C3F83485C3F83875B9F1A1
:10A94000000F2DD101221A602879242202FB006217
:10A95000526862BBD3F81011D3F84421D3F82451C4
:10A96000114302D1002DF5D00A46242303FB0066D3
:10A9700000239D4218BF03259A42B36118BF0F25DB
:10A980002846FEF799FC0F4A0F4903462046FDF77B
:10A9900054F891E7C3F81080DF614FF00109B8E780
:10A9A000D3F8002242F02002C3F80022CCE74FF493
:10A9B0000472C3F804230025E2E700BF08E10200A7
:10A9C000E0E00200E2E902006BE9020078340020D6
:10A9D0009EE902001F2886BF00F01F00044B4FF0C5
:10A9E000A04300F5E070032243F82020704700BF29
:10A9F000000300501F2886BF054A00F01F004FF0DB
:10AA0000A042012303FA00F0C2F80C05704700BF12
:10AA1000000300501F2886BF054A00F01F004FF0BA
:10AA2000A042012303FA00F0C2F80805704700BFF6
:10AA300000030050134B07B5D3F81821F2B11249A7
:10AA40000022C3F8182191F82000D3F8183101939F
:10AA5000FF28019B05D08B7F1BB9CB7F5BB1FFF734
:10AA6000C9FF00234B770B72D1E90031074803B0CF
:10AA70005DF804EB1847FFF7CDFFF2E703B05DF890
:10AA800004FB00BF00F002409C340020A4340020EE
:10AA90002DE9F047814E07799A46242303FB07638B
:10AAA00080461B7F0C469146002B40F0F08087B11A
:10AAB0008B7BFF2B40F0ED808B68B3F1206F00F0B3
:10AAC000E880B3F1A05F00F0E4800B7C002B40F045
:10AAD000E080D8F8005072492846FFF73BF901465C
:10AAE000002840F0D88024207843331846F800909E
:10AAF000C3F804A0237B2078012B00F2B680FFF777
:10AB000079FF23781F2B86BF03F01F03654A4FF0A0
:10AB1000A04203F5E073012042F8230094F801906D
:10AB2000B9F1FF0F00F0A4804846FFF763FF4846E5
:10AB3000FFF750FFA378FF2B00F09D801F2B8BBFEA
:10AB400003F01F021A4657484FF0A04002F5E0728A
:10AB50004FF0040C40F822C09A46242202FB076200
:10AB600082F82130E07882F82000FF281CD0237979
:10AB7000002B00F08380FFF73DFFE078FFF72AFF0E
:10AB8000237C227963B1242303FB07630120987798
:10AB9000E078637CC5F81405C5F86825C5F8643508
:10ABA000242303FB0763DA77A07BFF2807D0FFF796
:10ABB00031FFA07BFFF70EFFA37BC5F86C35E37B6D
:10ABC000C5F860352378C5F80835A368C5F80C9535
:10ABD000C5F810A5C5F82435637B227B003B18BF60
:10ABE0000123022A4DD0032A4ED0012A01D143F07D
:10ABF0000203C5F85435A379C5F8C03524237B4337
:10AC0000F35813B14022C5F804230722C5F80025E4
:10AC10000BB3D8F80030627943F307300028A8BF9F
:10AC200000F16044C3F30733BCBF03F00F051E4CB3
:10AC30004FEA4212A8BF04F56144D2B2B4BF6255D4
:10AC400084F8002303F01F03012202FA03F34009F2
:10AC5000164A42F82030242303FB0766002373774B
:10AC6000012333770846BDE8F087FFF7D3FE48E7B6
:10AC70004FF0FF395EE74FF0FF3A6EE7FFF7CAFE8D
:10AC80007BE743F00403B4E743F00603B1E7082190
:10AC9000E8E70621E6E71121E4E700BF9C34002045
:10ACA00035AA02000003005014ED00E000E100E0CE
:10ACB0002DE9F74390F80480484D242303FB08F363
:10ACC0001446EA180E46517F8146002940F08380E1
:10ACD000EB5823B114F0140F04BF0123537796E807
:10ACE0000F00242707FB085707F10C0C8CE80F0016
:10ACF00097F82000FF2805D0BB7F1BB9FB7FF3B17D
:10AD0000FFF788FE364B4FF4207043F0010398475D
:10AD1000316821B101F06043B3F1005F06D1B26840
:10AD200082B102F06043B3F1005F0BD0242303FB38
:10AD3000085500236B77102003B0BDE8F083FFF7C0
:10AD400059FEDFE7D9F800307068C3F84415C3F83E
:10AD50004805F168C3F834250022C3F83815C3F854
:10AD60001821D3F818210192019A14F0010218BF9A
:10AD70000122C3F8502514F0020218BF0122C3F8C3
:10AD8000402522075CBF01221A61242202FB08F23F
:10AD9000AA58AAB9D3F81821002AFBD0242303FB10
:10ADA000085595F82000FF2805D0A97F19B9EC7F38
:10ADB0001CB1FFF71FFE0020BEE7FFF72BFEFAE7EE
:10ADC00014F004004FF0400202D0C3F80823F2E769
:10ADD000C3F80423B0E71120AEE700BF9C34002085
:10ADE00020EA02001F288ABF094B4FF0A04300F061
:10ADF0001F0003EB8000D0F8003723F44033C0F885
:10AE00000037D0F8003743EA0141C0F80017704717
:10AE1000000300500220FEF79FBB00002DE9F04721
:10AE200080460D46FEF7C6FB0328044610D8012DC8
:10AE300010D0022D30D05DB91A48FDF796FA1A4BA2
:10AE400004EB440213449D78184B1B5DAB4219D0B0
:10AE5000BDE8F087144E00EB4003F218F55C537820
:10AE6000470053B1DFF84C900E484A464FF48041FA
:10AE7000FDF763FA08B989F8008027443E440B4B7C
:10AE8000B2781A55002DE3D0094B1B68002BDFD098
:10AE90002846BDE8F047184700EB40040248044448
:10AEA0006578EFE7E83400202835002041350020A0
:10AEB0003C350020C034002000780221FFF7AEBFEF
:10AEC00008B5094B1B7853B10020FEF713FB012096
:10AED000FEF710FBBDE808400320FEF70BBBBDE802
:10AEE0000840FEF71BBB00BFC1340020F8B57A4C08
:10AEF000237805461BB100232370FFF7E1FF172DD0
:10AF000000F28780DFE805F00C1717425364757F65
:10AF1000878C878C949999999999C3C8D0D8E3E381
:10AF2000FFF7CEFF6D48FDF720FA6D4B0022044677
:10AF30001A702046F8BD0020FEF7B4FAF0B10020E8
:10AF4000FEF7D8FA022D0CBF4FF4E1644FF47A6497
:10AF5000634B1D7000254FF400464FF47A7029466C
:10AF60004FF4FA620023E4FB060102F091FD2A4649
:10AF70000146BDE8F8405948FDF7DFB9FEF7A6FAEB
:10AF8000022D0CBFC8244FF4C874E1E70020FEF77F
:10AF900089FA40B10020FEF7ADFA4FF44874504BE7
:10AFA00003221A70D6E7FEF791FAC824F7E70020CB
:10AFB000FEF778FA38B10020FEF79CFA4FF47A6475
:10AFC000474B0422EDE7FEF781FA4FF4C874F7E728
:10AFD0000020FEF767FA48B10020FEF78BFA404BDD
:10AFE00005221A7040F6CD410022C2E7FEF76EFA44
:10AFF000F5E70020FEF7B0FA394B06221A7000225E
:10B0000040F26661B5E70020FEF760FA344B072294
:10B010001A7000248DE701202070FEF79DFAEEE7FC
:10B0200001202070FEF798FA00224FF40051A0E7AB
:10B03000FEF783FA2A4B0C22EAE72A482A4EFDF74C
:10B0400094F9D5F1110504461CD0D8B9012D13D0BF
:10B05000C820454321464FF400474FF47A704FF41F
:10B06000FA620023C5FB070102F012FD22460146E9
:10B070001C48FDF762F904460220FEF727FA012377
:10B08000337056E70220FEF735FA0023F8E7FFF7A2
:10B0900017FF134B1222BBE7FFF712FF0020FEF74A
:10B0A00015FA0F4B1322B3E7FFF70AFF0120FEF753
:10B0B0000DFA0B4B1422ABE7FFF702FF0020FEF75F
:10B0C00005FA0120FEF702FA054B1522A0E7FEF76C
:10B0D00034FA034B1D709CE73835002008350020FA
:10B0E00040350020C8340020C1340020044B1B68C8
:10B0F000DB0703D5034B1878FFF7F8BE704700BF96
:10B100003435002040350020032801D8FEF73EBA30
:10B1100000207047044B1B6813F0010301D0FFF7B8
:10B12000E5BE1846704700BF3435002038B51C4BCB
:10B1300018601C4B10F00204054619601AD01A4B17
:10B140001A480E221A700F22DA7010229A711122F8
:10B150005A72042140F23332FCF7F6FE044648B935
:10B16000FCF74AFF044628B90146114A1148FDF789
:10B17000D9F80446EB0711D50120FEF733FA6CB974
:10B1800021460D4A0D48FDF7CDF8044630B9BDE81B
:10B1900038400B4A0B480121FDF7C4B8204638BDA2
:10B1A000343500203C3500202835002028EA0200F4
:10B1B000B9AE02004CEA0200EDB0020050EA020013
:10B1C00015AE020048EA0200032811D8012A0AD16C
:10B1D00001290FD100F10E02D2B20D4B00EB40005D
:10B1E0001A54002070470129F7D0022904D049B130
:10B1F000072070470022F8E7054B00EB4000184499
:10B200004270EEE7024B00EB400018448270E8E722
:10B2100028350020032808B506D8FEF7DDF90321FC
:10B22000FFF7E0FD002008BD0620FCE708B501227D
:10B2300002210020FFF7C8FF08B1072810D107221C
:10B2400002210120FFF7C0FF08B1072808D1002123
:10B250000A220846FFF7B8FF10B1072808BF0020F0
:10B2600008BD00000388102B10B502D0112B1ED092
:10B2700010BD1A4C2168B1B901220846FFF7A4FF9E
:10B2800008B1072824D1072202210120FFF79CFFE3
:10B2900008B107281CD1042202210020FFF794FFE7
:10B2A00008B1072814D1236801332360E0E70B4A73
:10B2B0001368013B1360002BDAD1FFF7B7FF0028BA
:10B2C000D6D0074B1B68002BD2D0BDE810401847E2
:10B2D000034B1B68002BE6D09847E4E74C35002071
:10B2E0004835002008B50020FFF794FF08B1062874
:10B2F00006D10120FFF78EFF10B1062808BF0020FD
:10B3000008BD00000D4B10B518600C4629B1012096
:10B31000FFF7FAFE40B102232370094B1B6853B9B3
:10B32000BDE81040FFF782BFFFF7EEFE08B10B2328
:10B33000F2E72070F1E7002010BD00BF4835002083
:10B340004C35002076DF70477ADF70477CDF70472E
:10B350007FDF70478FDF7047B1DF704733DF7047A3
:10B36000024A4FF49971FCF789BE00BF54EA02000B
:10B37000024A40F23A21FCF781BE00BF54EA0200C3
:10B380007FB5354B3548364C364901221A70364B5D
:10B39000C01AC008000440F003000190FCF740FB15
:10B3A00023780198022B11D13049314E314DFCF7F1
:10B3B00037FB00232370304C338830482A4621461F
:10B3C00002F004F90028F7D104B070BD032B18D1A6
:10B3D0002B49274E2B4DFCF723FB00232A492948F4
:10B3E000237002F0CAFD254C1423ADF80E303388CB
:10B3F0000DF10E022946204602F0E8F80028F6D1A9
:10B40000E2E7042B15D12149194E214DFCF708FB29
:10B4100000232370174C184922881D4802F051FD63
:10B42000338816482246294602F0D0F80028F7D182
:10B43000CAE7012BC8D1164C164922780C4E0D4D87
:10B44000FCF7F2FA33880D482A46214602F0BEF88E
:10B450000028F7D1B8E700BF8041002010E10200CA
:10B460003C410020B2EA0200E0E00200C3EA020030
:10B47000022C0020282C00203D410020042C00201C
:10B48000D6EA02000C3E0020EAEA0200FFEA0200CF
:10B49000513500201AEB020008B50020FFF73AFEF4
:10B4A00020B10C4A4FF41771FCF7E8FDFFF71AFFC3
:10B4B00020B1084A4FF41871FCF7E0FDFFF74EFF8A
:10B4C00030B1BDE80840034A4FF41971FCF7D6BD0E
:10B4D00008BD00BF54EA020073B504380B283FD8FA
:10B4E000DFE800F00B3E3E1B3E3E063E3E3E2B405C
:10B4F00002B0BDE87040FFF7CFBF244B132118887E
:10B50000FFF720FF30F008032AD0214A40F20E3125
:10B5100002B0BDE87040FCF7B1BD1C4B1A884FF675
:10B52000FF739A421CD11B4801F081FA30F00803E6
:10B5300016D0174A4FF44671EAE717491748134ED9
:10B54000164D174C02F019FD1123ADF80630338863
:10B550000DF106022946204602F038F80028F6D1FF
:10B5600002B070BD0F490D48084E0C4D0C4C02F056
:10B5700004FD1123ADF8063033880DF1060229468B
:10B58000204602F023F80028F6D1E9E7022C00203B
:10B5900054EA0200BC38002028EB02000C3E0020D8
:10B5A000042C00203AEB02000388212B13B504463B
:10B5B0004AD007D8112B38D0132B56D0102B11D0CE
:10B5C00002B010BD522B5DD0562B68D03B2BF7D16B
:10B5D00080881321FFF7B6FE0028F1D0354A40F2EB
:10B5E000B7211DE0344B35483549C01AC008000466
:10B5F00040F00300FCF714FA0720FFF78BFD20B1A1
:10B600002C4A40F28F21FCF739FD2E4BA1882E48A1
:10B61000198001F06FFE0028D2D0264A40F2922114
:10B6200002B0BDE81040FCF729BD234B2348274951
:10B63000C01AC008000440F00300FCF7F1F9214BE8
:10B640004FF6FF721A80BBE7002380888DF8043024
:10B6500001A98DF80530FFF77DFE0028B0D0154A0E
:10B660004FF42971FCF70AFDAAE716480023008869
:10B670001A468521FFF76CFE0028A1D00D4A40F242
:10B68000AA21CDE70F48002300881A461946FFF784
:10B6900063FE002894D0074A4FF42C71C0E78088DD
:10B6A0001321FFF74FFE00288AD0024A40F2BE2144
:10B6B000B6E700BF54EA0200E0E0020010E1020039
:10B6C0004CEB0200022C0020003E002056EB020052
:10B6D00008B5037863B9074B3B211888FFF732FEA2
:10B6E00030B1BDE80840044A40F22F21FCF7C6BC47
:10B6F00008BD00BF022C002054EA020008B560B16A
:10B7000003280ED10220FFF705FD50B1BDE8084027
:10B71000044A40F27621FCF7B1BCBDE80840FFF7CF
:10B72000BBBE08BD54EA0200F7B50378012B3FD039
:10B73000022B34D08BBB204C204D20782844FCF7C2
:10B74000B9FF23780133DBB21D44237015F8012CB7
:10B750000A2A05D00D2A03D0194A12889A421CD809
:10B76000012B18D9174D154E174F2378ADF8063019
:10B770000DF106022B883146384601F027FF0828D4
:10B7800009D01328F1D0052805D020B10F4A40F286
:10B790004A31FCF773FC0023237003B0F0BD0B4A61
:10B7A0004FF45571406803B0BDE8F040FCF766BC4B
:10B7B000064A4FF45671F5E7BB3800209335002058
:10B7C000002C0020022C0020042C002054EA02004F
:10B7D0007FB52E4C2E482F49802323702E4BC01A44
:10B7E000C00800040025224640F00300657084F87C
:10B7F0003F5084F84050FCF717F9284B1A78B2B143
:10B80000274E1D703278A2B9264B27491B8827483E
:10B810000094CDE9021369460193FFF749FA20B17C
:10B82000234A4FF4A471FCF729FC0023337004B0C1
:10B8300070BD012A13D11B4B1E4A1B881B48009464
:10B84000CDE9022369462A460193FFF731FA20B178
:10B85000174A40F24D11FCF711FC0223E6E7022AD9
:10B86000E5D1104B144A1B8810480094CDE90223FF
:10B8700069462A460193FFF71BFA20B10C4A40F2B1
:10B880005111FCF7FBFB0323D0E700BF2A2C00205B
:10B8900010E102002AEC0200E0E0020080410020FA
:10B8A0007F410020282C002051350020C8ED0200E7
:10B8B00054EA0200792B0020BA2B002038B5037817
:10B8C0000446FBB91048114B1149124D1B1ADB08F5
:10B8D0001B0443F00300FCF7A3F80120FDF73CFE36
:10B8E000A28A2169284602F0ECFAA38ADA1CF72A18
:10B8F00005D8094AE9181088E85293788B70074BED
:10B9000001221A7038BD00BFE0E0020010E1020021
:10B9100063EB0200043D002092ED0200923500200E
:10B920000D4B4A881B889A4214D10A8840F6772327
:10B930009A420FD18B88094A09480A49033B9BB2B6
:10B940001380094A801AC00800041A4640F0030018
:10B95000FCF773B8704700BF022C0020002C0020B9
:10B9600010E1020095EB0200E0E0020008B50B498F
:10B970000B4801F09FFB20B10A4A40F2F621FCF788
:10B980007DFB0748FB2101F0A8FB30B1BDE8084072
:10B99000044A40F2F921FCF771BB08BD21B902004D
:10B9A000F03C002054EA02002DE98048AF4D0FCD55
:10B9B000B3B007AC0FC495E80300AD4BAD4A039399
:10B9C0004FF4807384E80300CDE905230493AA4A69
:10B9D000072303A907A8FCF715FE20B1A74A4FF4D7
:10B9E0005E71FCF74BFBA64D0FCD07AC0FC42B6867
:10B9F0002360A44B079301238DF82C30A24AA3485F
:10BA0000002307A9FFF744F820B19C4A40F2CF3148
:10BA1000FCF734FB9E4E01234FF48041002033702D
:10BA2000FBF742FE20B1954A4FF46C71FCF726FB00
:10BA3000FBF76EFDFCF744FC18B1904AC321FCF7FC
:10BA40001DFB94490320FFF771FB20B18B4A40F2A4
:10BA5000A231FCF713FB07A90020FFF753FC20B12C
:10BA6000864A40F2A531FCF709FBFDF783FB20B1C4
:10BA7000824A4FF46F71FCF701FB01F027FE20B101
:10BA80007E4A40F2D121FCF7F9FA002307A90120F0
:10BA9000079301F0B3FE20B1784A40F2D721FCF7BA
:10BAA000EDFA07A801F082FF20B1744A40F2DB21D1
:10BAB000FCF7E4FA112378498DF80C300B2203A827
:10BAC000FFF744FC20B16D4A40F21B11FCF7D6FA97
:10BAD0000023ADF820300623ADF81C30ADF81E3041
:10BAE00007A84FF4C873ADF82230FFF72DFC20B142
:10BAF000624A40F22511FCF7C1FAFFF737FF674BA6
:10BB00006748079307A901F0E3FB20B15B4A40F2C5
:10BB10001121FCF7B3FA634B6348039303A901F0C7
:10BB2000DBFC20B1554A40F21921FCF7A7FAAC2200
:10BB3000002107A802F0EEF902238DF81C3005233E
:10BB40008DF81F3001234021ADF868308DF8983012
:10BB500044F25063CDE92913544A554B55481B9282
:10BB600007A9309300F0AAFD20B1444A40F2933176
:10BB7000FCF784FA4F48012100F09DFD14220021BA
:10BB800007A802F0C7F94FF4F0234FF4A032CDE933
:10BB9000082303238DF82830474B0C9307A8474B05
:10BBA0000D9301F063F820B1344A40F25121FCF7C3
:10BBB00065FA434B434C4449E41AE408240444F036
:10BBC00003042046FBF72CFF40492046FBF728FFE3
:10BBD0003F4A40480121FCF7A5FB3F492046FBF7BF
:10BBE0001FFF3448032100F0DEFD20B1234A4FF44B
:10BBF0007871FCF743FA3949DFF8F480384FDFF801
:10BC0000F4902046FBF70CFFFBF7A8FD08B9FDF701
:10BC1000C7FA98F80030002BF6D000233946484682
:10BC200088F8003002F0B4F82E49024682462046D9
:10BC3000FBF7FAFE2C49504602F0C1F905460028F0
:10BC40005AD12A492046FBF7EBFE3946284602F036
:10BC50009FF802F026F9012802D0022800D010B97E
:10BC6000FDF77AFCD0E70320FAE700BF98ED020069
:10BC70003C400020A841002029B7020054EA0200FD
:10BC8000B0ED020003041C1D81B30200C8ED0200E8
:10BC900080410020D9B40200B1EB020061B3020080
:10BCA000003E0020BDB80200042C0020FC2B002028
:10BCB000FDB60200BC380020D1B6020071B302000C
:10BCC000E0E0020010E10200BDEB0200E6EB020042
:10BCD000D1B70200D0ED0200FCEB02000BEC020039
:10BCE000C6ED020021EC02009CE402002DEC0200F3
:10BCF00092350020043D0020AF49504602F05FF924
:10BD00000546C0B9AD492046FBF78AFEAC4B012180
:10BD10001970AC4B1A7832B91970AB4841F28831BE
:10BD2000FCF70BFB70E7012A7FF46EAFA6481D708D
:10BD3000FCF71BFB68E7A549504602F040F90546B1
:10BD400000284ED1A2492046FBF76AFE3946284614
:10BD500002F01EF89F49024682462046FBF764FE29
:10BD6000504602F09EF8DFF898A29B498AF800003E
:10BD7000C2B22046FBF758FE9AF80020904BDFF83D
:10BD8000A8A2022119708AF800208AF801508AF8C6
:10BD90003F508AF840502B46CDE900558F49204648
:10BDA000FBF755FE3378002B3FF42EAF8C4920462D
:10BDB000FBF736FE8B4B8C4A1B888C483570CDE9DF
:10BDC000092307A92A46CDF81CA00893FEF770FFA7
:10BDD00000283FF419AF864A40F2B511FCF74EF93E
:10BDE00012E78449504602F0EAF80546002865D17A
:10BDF0008149DFF838B22046FBF712FE3946284663
:10BE000001F0C6FF7D49024682462046FBF70CFE44
:10BE1000504602F046F87A4ADFF80CA21070394614
:10BE2000284601F0B5FF03687648754A0370C3F3EE
:10BE300007214170C3F30741C3F307638BF8013057
:10BE400013788BF8001040338AF80030102229460E
:10BE50008AF8015001F0D2FF10228AF83F002946EB
:10BE6000584601F0CBFF564B8AF840000322C0B27F
:10BE70001A7001909AF83F3000939AF801309AF8BE
:10BE8000002056492046FBF7E2FD3378002B3FF4B3
:10BE9000BBAE544B544A1B8854483570CDE9092336
:10BEA00007A92A46CDF81CA00893FEF701FF002839
:10BEB0003FF4AAAE4E4A4FF4EC718FE75249504618
:10BEC00002F07DF80546002849D150492046FBF78D
:10BED000A7FD3946284601F05BFF3E4902468246EF
:10BEE0002046FBF7A1FD504601F0DBFF444B3A49E9
:10BEF0001870C2B22046FBF797FDDFF82CA1304B3B
:10BF00008AF801508022042119708AF800208AF8EA
:10BF10003F508AF840502B46CDE900552F49204626
:10BF2000FBF795FD3378002B3FF46EAE2C4920468D
:10BF3000FBF776FD2B4B2C4A1B882C483570CDE93E
:10BF4000092307A92A46CDF81CA00893FEF7B0FEE6
:10BF500000283FF459AE264A40F2EF113EE72C4943
:10BF60002C4D504602F02BF890B92B492046FBF798
:10BF700057FD2A4B28881B88ADF81C3007A9FFF70E
:10BF8000E9F900283FF440AE194A40F2FB1125E7D9
:10BF900023492448DFF88CB0DFF894A001F0EDFFCE
:10BFA0006A23ADF81C302B8807AA5946504601F089
:10BFB0000DFB0028F7D127E63EEC020045EC02001D
:10BFC0003C410020814100208841002059EC0200C2
:10BFD0005EEC020074EC020083EC020091EC0200C3
:10BFE000AAEC0200282C00203D410020C8ED0200F0
:10BFF00054EA0200BDEC0200C3EC0200DAEC0200DD
:10C00000503500206B2C0020EAEC0200F1EC02001D
:10C010000FED0200022C002016ED0200C4ED02001C
:10C020002AED02008B3600202A2C00206E2C0020E6
:10C03000042C00200369C26893429CBF80681B18CF
:10C04000013B981A70472DE9F843D0E90294054660
:10C05000A9EB04084068904520440F46144404D9D5
:10C0600001F02FFFEC60BDE8F8834246A4EB090421
:10C0700001F027FF6868224607EB0801F0E72DE989
:10C08000F843C5680646894617464FF000083469EC
:10C09000B3687068A54228BFE418013C621B5C1BB2
:10C0A000BC4228BF3C46944228BF14464946284417
:10C0B000224601F006FFB3682544AB4208BF0025C5
:10C0C0003F1BA044A144F560E1D14046BDE8F883A0
:10C0D00010B5114C114AA2610223C4E90433104B7C
:10C0E000E361A2644FF400730E4A0F492362E264D5
:10C0F00000231022E01DA3626362E362A36563650F
:10C10000E365226501F039FF0849204601F035FF5B
:10C110002023A37110BD00BFA8420020D4ED02006F
:10C120003043002020430020DDED0200E1ED02005D
:10C1300070B5164B182400FB04451D4404FB003366
:10C140001646DC6A012C0ED0022C18D0E4B9284621
:10C15000FFF770FF864204D832462846FFF773FF88
:10C160003446204670BD2846FFF764FF86423446B9
:10C1700028BF044622462846FFF765FFF1E7284618
:10C18000BDE87040FFF77BBF0024EAE7A84200202B
:10C19000FFF79EBF6DDF704779DF70477DDF704727
:10C1A00064DF70472DE9F04F85B000250E9CBDF887
:10C1B0003CB0B4F800A00191074690461E46A9463F
:10C1C0003A884A450DDC45B12388013BA3EB0A03BD
:10C1D0009BB2FF2B3AD806F80A30002005B0BDE824
:10C1E000F08F7A6852F82900039000220DF10B01BC
:10C1F00003A8FFF7D5FF0028F0D19DF80B2042459A
:10C2000021D12288002D14BF0020022002EB08015A
:10C21000014459451ADC3DB9013292B2019B22809A
:10C22000B35422880132228022880DF10B0132445E
:10C2300003A8FFF7B5FF0028D0D121889DF80B2077
:10C240000A442280012509F10109B9E70C20C5E75C
:10C250002DE9F341089FBDF824801546CDE900780B
:10C26000022204461E46FFF79DFF50B933461022B6
:10C2700029462046CDE9087802B0BDE8F041FFF735
:10C2800091BF02B0BDE8F0812DE9F04F002317887F
:10C29000138090F82D3085B006460D4614465BB3EA
:10C2A000082F01D80C2028E102A8FFF773FF00280F
:10C2B00040F023812388DDF809100822EA542388FE
:10C2C00001339BB21B222380EA54238801339BB2A3
:10C2D000EA182380E950BDF80D30938023889DF83B
:10C2E000082006339BB212F0FE0218BF0122238001
:10C2F000EA54238801332380B378FBB123880433C5
:10C30000BB42CFD802A8FFF747FF002840F0F580D6
:10C3100023880322EA54238801339BB21922238005
:10C32000EA542388BDF8082001339BB2E918238022
:10C33000EA54120A4A70238802332380F2789AB1B1
:10C340002388D91CB942ADD80221E954238801338E
:10C350009BB201212380E95423880B449BB22380A4
:10C36000EA5423880B4423807268AAB12388D91C1D
:10C37000B94297D8022192F90020E9542388013369
:10C380009BB20A212380E954238801339BB2238086
:10C39000EA542388013323803389002B40F0A180A5
:10C3A000338A5BB1CDE900472B460722032106F112
:10C3B0001000FFF74DFF002840F09F80338B5BB1EA
:10C3C000CDE900472B461522142106F11800FFF78E
:10C3D0003FFF002840F09180326A002A40F09080B0
:10C3E000D6F82480B8F1000F30D0B8F80430218896
:10C3F000981C8A1C0244BA423FF654AFFE283FF60E
:10C4000051AF03336B54238801339BB2FF22238047
:10C41000EA54238801339BB22380B8F80020EA5401
:10C42000E918120A4A702088023080B22080B8F8D9
:10C4300004205AB1D8F8081000296BD0284401F024
:10C4400040FD2388B8F804201344238096F82C304C
:10C45000002B40F09880307800284ED03388012B94
:10C4600058D0228802F1020CBC453FF61BAF0128D0
:10C4700005D17378023313449F42FFF413AF023F98
:10C48000BF1ABFB202A905EB0C00ADF80870FFF7A8
:10C4900085FE90BB3178BDF80830022900F0B980E4
:10C4A00072789A4202D39F4280F0B180012940F015
:10C4B000B280974293B2C0F0AE80ADF80830082148
:10C4C000BDF80830FE2B3FF6EDAE22880133AB54A9
:10C4D0002288013292B22280A954228813442380F8
:10C4E0000BE0CDE900472B460622022106F10800A9
:10C4F000FFF7AEFE00283FF453AF05B0BDE8F08F64
:10C50000B4F800C00CF10603BB423FF6CBAE118875
:10C51000052901D80720F0E76FF4486E01EB0E0300
:10C520009BB24FF27D3E7345F4D95388052BF1D968
:10C530006FF44860181880B27045EBD94FF6FF7061
:10C54000814201D09942E5D8052305F80C302388B3
:10C5500001339BB212212380E954238801339BB21B
:10C5600023801188E954E818090A417023880233AE
:10C570009BB223805288EA54E918120A4A70238831
:10C58000023323802CE7B36A002BC3D04FF000089E
:10C590004FF00C0A4FF0160BB16A5FFA88F20AFBF3
:10C5A00002F201EB0209B9F80430981CFE283FF6AC
:10C5B00079AE208803332B54238801339BB2238028
:10C5C00005F803B0238801339BB223808A5AEA54CA
:10C5D000E918120A4A702088023080B22080B9F827
:10C5E00004205AB1D9F80810002993D0284401F04A
:10C5F00068FC2388B9F804201344238096F82C2083
:10C6000008F101085FFA88F39A42C5D823E70921A7
:10C6100056E79F42FBD2ADF8087050E770B5E8B11D
:10C620004AB116880024B44203D305196D789D429F
:10C6300008D0A14201D8002010E0055D01352C444E
:10C64000A4B2F0E7A142F6D9005D0138A31C80B284
:10C650009DB210FA83F38B42EDDC158070BD13B5EB
:10C6600013460022ADF806200DF106020446FFF73E
:10C67000D5FF10B1BDF80630E01802B010BD72DF72
:10C68000704773DF704774DF704738B50122044686
:10C690000D46B0F81414D0F81004FFF7E0FF00B115
:10C6A000057004F13C0204F5826104F15400BDE818
:10C6B0003840FFF7E4BF80F830107047F8B5044603
:10C6C0000F4600296BD0002869D091F87A301BB151
:10C6D00091F89830002B64D14FF0000C84F802C020
:10C6E00007F178060FCE251D0FC50FCE0FC596E8B2
:10C6F000070085E8070084F830C0D7F8A4306363EA
:10C70000D7F8A830A36304F582624FF6FF73C4F82C
:10C7100026C4A4F82434C4F82024C4F829C42278F8
:10C720000AB984F8543094F82430002B14BFEE2357
:10C730001F2304F15501C4F81014A4F8143404F2B2
:10C7400014423846FFF7A0FD40BB94F82430002B7C
:10C7500014BFEE231F2304F23121C4F81814A4F8E7
:10C760001C3404F21C4207F13C00FFF78DFDA8B910
:10C77000A369A4F848304FF480730125A4F8503021
:10C7800063692064014684F83C50636404F13C0210
:10C7900004F15400FFF773FF00B92570F8BD0E20B7
:10C7A000FCE70720FAE7F8B5067804460D46002EA8
:10C7B00000F006810023C0F82634C0F82934C3886D
:10C7C000817000F226470BB1012903D0E37943B110
:10C7D000022D06D1636BABB1012284F82D24082011
:10C7E000984704F2274304F22D4113F8012B12B9A4
:10C7F0009942FAD116466B1E032B53D8DFE803F09B
:10C80000050B0F1284F82D34EBE7A3791BB194F8D4
:10C81000243003B95EB9E3790BB1002E44D1237AF9
:10C82000002B43D1637A002B0CBF00250425636BDA
:10C83000A570002B3CD0033D012D39D86279002A28
:10C8400036D094F82E249ABB84F83024012284F840
:10C850002F240720984704F13C0518220021284680
:10C8600001F058FBE26A0123511E994284F83C30E2
:10C8700001D9042A00D1D3B284F8513094F824307D
:10C8800043B1A26A511E012902D9042A18BF01220C
:10C8900084F85220A278042A1CD8DFE802F0780D30
:10C8A00023365A000025C2E70225C0E70325BEE76C
:10C8B000002384F82F34CEE7012384F8313000239D
:10C8C000C4E91073C4F82034022384F83C30802378
:10C8D000A4F84830A378002B5DD1636B002B6BD19B
:10C8E000002068E0002B14BF0723032384F83C30AA
:10C8F0002369A4F8483000230222C4F82034E368F6
:10C9000084F8312027646364E4E762696264A269A1
:10C91000A4F8482013B1062384F83C306379B3B1FE
:10C9200094F82E349BB994F8303483B1022384F800
:10C93000503004212046FFF7A8FE0028CAD1052365
:10C9400084F8313004F58263C4F82034C2E703234D
:10C95000F6E7E2696264226AA4F8482013B106236C
:10C9600084F83C30637983B194F82E346BB994F831
:10C97000303453B1022384F8503004212046FFF7AD
:10C9800084FE0028A6D10623DAE70423D8E7002393
:10C9900084F831309EE7D4F820142A4604F154007C
:10C9A000FFF76DFE38B994F8301094F85400FFF793
:10C9B00068FE002891D0F8BD94F8310098478FE7C1
:10C9C0000820F8E70388112B10B50C460AD0262B57
:10C9D0001FD0102B05D1C37B012B02D18388A1F876
:10C9E000243410BD0022838881F82E24B1F8242439
:10C9F0009A42F6D10B79002BF3D101212046FFF7A3
:10CA0000D2FE0028EDD0A36B002BEAD0BDE8104089
:10CA10001847037A013B012BE3D8897805230131BC
:10CA2000B1FBF3F303EB8303C91AC9B2E6E738B5E8
:10CA3000044690F85400FFF726FE012384F82E34B4
:10CA4000002384F8303484F8503006212046FFF764
:10CA50001CFE054638B9A1782046FFF7A4FE10B1A8
:10CA6000A36B03B19847284638BD75DF704776DF62
:10CA700070477ADF70477BDF70470000034B1A88EE
:10CA800082420CBF18460020704700BF4C45002072
:10CA9000024B9B6903B11847704700BF3045002027
:10CAA00073B585B22846FFF7E9FF044638B3174E41
:10CAB000027A337B9A420CD200F10A012846FFF732
:10CAC000D4FFF0B111281AD002B0BDE87040FFF7D2
:10CAD000DFBF00230372337C43B13B212846FFF7BD
